:03020000020208EF
:0302610002020393
:05020300120FAA80FEAD
:03000000020200F9
:0100030032CA
:01000B0032C2
:0100130032BA
:01001B0032B2
:0100230032AA
:01002B0032A2
:01003300329A
:01003B003292
:01004300328A
:01004B003282
:01005300327A
:01005B003272
:01006300326A
:0101000032CC
:0101040032C8
:0101080032C4
:01010C0032C0
:0101100032BC
:0101140032B8
:0101180032B4
:0101200032AC
:0101240032A8
:0101280032A4
:01012C0032A0
:01013000329C
:010134003298
:010138003294
:01013C003290
:01014000328C
:010148003284
:01014C003280
:01015000327C
:010154003278
:010158003274
:01015C003270
:01016000326C
:01017000325C
:010174003258
:010178003254
:01017C003250
:01018000324C
:010184003248
:010188003244
:01018C003240
:01019000323C
:010194003238
:010198003234
:01019C003230
:0101A000322C
:0101A8003224
:0101AC003220
:0101B000321C
:0101B4003218
:0101B8003214
:010264002277
:08026500AA82AB837C007D003E
:0B026D00C3EC9AED9B50147EB07F04A0
:050278001EBEFF011F86
:0B027D00EE4F70F70CBC00E80D80E5B0
:010288002253
:08028900AA82AB837C007D001A
:0B029100C3EC9AED9B50147E0A7F0026
:05029C001EBEFF011F62
:0B02A100EE4F70F70CBC00E80D80E58C
:0102AC00222F
:0E02AD0075AF0790E67BE090E67CF0DAF32276
:0102BB002220
:0202BC007A00C6
:0302BE00BAFF0084
:0D02C100500B90E678E0FB20E0030A80F08F
:0C02CE0090E678E0FA20E204EA20E10B60
:0B02DA0090E678E04440F075820122BD
:0402E50075820022FC
:0202E9007A0099
:0302EB00BAFF0057
:0D02EE00500B90E678E0FB20E0030A80F062
:0E02FB0090E678E0FA30E20B90E678E04440BE
:05030900F075820122E5
:04030E0075820022D2
:020312007A006F
:03031400BAFF002D
:0E031700500F90E678E0FB20E2047582002291
:030325000A80EC5F
:0403280075820122B7
:02032C007A0055
:03032E00BAFF0013
:0E033100500F90E678E0FB20E6047582002273
:03033F000A80EC45
:04034200758201229D
:09034600AA82C3E49508E433FB2C
:0E034F0090E678E04480F0C002C00312031272
:0E035D00D003D00290E679EAF0C002C003128D
:0C036B0002BCE582D003D0027012E5094C
:0C037700600A90E678E04440F012032C8D
:04038300758200225D
:0E038700EB601090000AC002C003120289D081
:0503950003D00280B559
:0C039A00E509600890E678E0FA4440F0C5
:0403A6007582012239
:0C03AA00AA82AB837C00E50C7003F58296
:0103B6002224
:0A03B7007508647509007582A2C084
:0E03C10002C003C004120346E582D004D0033C
:0703CF00D00260030204B03C
:0C03D60090E679E50BF0C002C003C00403
:0E03E2001202BCE582D004D003D002600302F8
:0203F00004B057
:0C03F20090E679E50AF0C002C003C004E8
:0E03FE001202BCE582D004D003D002600302DC
:02040C0004B03A
:0E040E0090E678E04440F0C002C003C0041243
:0D041C00032C90E678E04480F0120312906B
:0E042900E67974A3F01202BCE582D004D00381
:0E043700D002707590E679E08A828B83F0C067
:0E04450002C003C0041202E9E582D004D00315
:05045300D0027059FD0C
:0C045800C3ED950C502A90E679E08A82F2
:0E0464008B83F0A3AA82AB83C002C003C00446
:0E047200C0051202E9E582D005D004D003D007
:0804800002702D0D8D0480D0E7
:0E04880090E678E04420F090E679E0C004129F
:0E04960002E9E582D004701290E678E044405E
:0C04A400F090E679E0C00412032CD004B4
:0304B0008C822219
:0A04B300AA82AB837C007508647513
:0C04BD0009007582A2C002C003C0041236
:0D04C9000346E582D004D003D00260030298
:0204D6000569B6
:0C04D80090E679E50EF0C002C003C004FD
:0E04E4001202BCE582D004D003D002600302F5
:0204F20005699A
:0C04F40090E679E50DF0C002C003C004E2
:0E0500001202BCE582D004D003D002705CFD74
:0C050E00C3ED950F50478A828B83E0FEFE
:0E051A00A3AA82AB8390E679EEF0903A04E05B
:0D052800FFEE2FF0903A02E0FEA3E0FF90FE
:0E0535003A0274012EF0E43FA3F0C002C003AE
:0E054300C004C0051202BCE582D005D004D071
:0A05510003D00270130D8D0480B377
:0E055B0090E678E04440F0C00412032CD00477
:030569008C82225F
:0A056C00903A07E0FA903A00E0F53B
:060576000AA3E0F50B8A68
:0C057C000C90E740C0021203AAAB82D032
:0E058800027C00903A00E0FDA3E0FE903A00F5
:0A059600EA2DF0EC3EA3F08B822268
:0B05A000AA82903A00E0F50DA3E0F500
:0905AB000E8A0F90E740C0021215
:0E05B40004B3D0027B00903A00E0FCA3E0FD0F
:0B05C200903A00EA2CF0EB3DA3F02281
:01006C00286B
:01006D000191
:04006E005A54455843
:04007200000000008A
:010076000089
:010077000187
:0600780001000000000081
:0C007E0000000000000000000000000076
:0A008A00303030303030303030308C
:0105CD00220B
:0E05CE0090E683E4F07420F07410F07430F0C6
:0E05DC0090E6837401F07421F07411F0743114
:0E05EA00F090E6837412F07432F07404F07432
:0305F80024F022CA
:0A05FB00AA82E51124E050037511F7
:010605001FD5
:0D06060090E6BFE0701090E6BEE0FBC395EB
:0906130011500690E6BEE0F5115D
:0C061C0075AF078A9B85109A759E41758A
:0A0628009DE790E67C7403F07A0071
:0C063200C3EA9511501190E67BE0FB90AC
:0B063E00E67CF090E67CE4F00A80E926
:0B064900E5110425E0FA90E740F09076
:0E065400E7417403F090E68AE4F090E68BEA4A
:02066200F02284
:0E066400903A05E0FAA3E0FBC374409AE49BD1
:0806720050067C407D0080046D
:04067A008A048B055E
:0E067E00903A07ECF07D00903A05EAC39CF03C
:05068C00EB9DA3F0222C
:0E069100903A08E0FABA3924903A04E4F09066
:0D069F003A02F0A3F090E6BBE0FB7A009079
:0E06AC00E6BAE0FC7D00903A00EC4AF0ED4B1F
:0306BA00A3F02288
:0806BD0090E6A0E04401F022E8
:0C06C500C020C0E0C0F0C082C083C002B2
:0E06D100C003C004C005C006C007C000C001C1
:0E06DF00C0D075D00090E6B9E0FA903A08F06D
:0E06ED0090E6B57401F090E6B9E0FA24F350FF
:0406FB0003020A7B71
:0706FF00EA2A2A90070673A6
:0707060002072D0207E102CA
:06070D000A7B02085E02F7
:060713000A7B020A7B02D2
:0607190008F6020A1102BD
:06071F000A13020A240285
:060725000A29020A3A0253
:02072B000A3F83
:0A072D0090E6B8E0FABA8002800DF1
:05073700BA8102801EE2
:05073C00BA8202802FCB
:03074100020A7B2E
:0E07440090E740E4F090E741F090E68AF090F4
:08075200E68B7402F0020A7B41
:0E075A0090E740E4F090E741F090E68AF090DE
:08076800E68B7402F0020A7B2B
:0C07700090E6BCE0FA600FBA01028019AC
:05077C00BA80028005B7
:05078100BA812F801E6B
:0E07860090E6A0E0FA53020190E740EAF0800E
:010794003A2A
:0E07950090E6A1E0FA53020190E740EAF080FE
:0107A3002B2A
:0E07A40090E6A2E0FA53020190E740EAF080EE
:0107B2001C2A
:0E07B30090E6BCE0C31314540324A3F582E4C3
:0E07C10034E6F583E0FA53020190E740EAF0D7
:0E07CF0090E741E4F090E68AF090E68B740229
:0407DD00F0020A7BA1
:0A07E10090E6B8E0FABA02028003C5
:0307EB00020A7B84
:0907EE0090E6BAE06003020A7B08
:0C07F70090E6BCE0FA600FBA0102801529
:05080300BA800280052F
:05080800BA81238016F7
:0B080D0090E6A0E0FA54FEF0020A7B27
:0B08180090E6A1E0FA54FEF0020A7B1B
:0B08230090E6A2E0FA54FEF0020A7B0F
:0E082E0090E6BCE0C31314540324A3FAE43490
:0E083C00E6FB90E6BCE0C31314540324A3F5BE
:0E084A0082E434E6F583E0FC5304FE8A828BE0
:0608580083ECF0020A7BB4
:0A085E0090E6B8E0FABA0202800347
:03086800020A7B06
:09086B0090E6BAE06003020A7B8A
:0C08740090E6BCE0FA600FBA01028014AC
:05088000BA80028005B2
:05088500BA812080147F
:0A088A0090E6A0E0FA4401F080417E
:0A08940090E6A1E0FA4401F080377D
:0A089E0090E6A2E0FA4401F0802D7C
:0E08A80090E6BCE0C31314540324A3FAE43416
:0E08B600E6FB90E6BCE0C31314540324A3F544
:0E08C40082E434E6F583E0FC4304FE8A828B76
:0308D20083ECF0C4
:0E08D50090E6BCE05480C423541FFA90E6BCA9
:0E08E300E0FB740F5B420290E683EAF07420A3
:0508F1004AF0020A7B41
:0A08F60090E6BBE0FABA0102801997
:05090000BA020280268E
:05090500BA0302804D61
:06090A00BA06030209CA4F
:06091000BA07030209DC36
:03091600020A07CB
:0A0919007A887B1090E6B3EBF090B3
:08092300E6B47488F0020A7BBF
:0B092B0090E680E0FA30E7127AA47B2F
:0A0936001090E6B3EBF090E6B47405
:05094000A4F0020A7B97
:0A0945007AD47B1090E6B3EBF0903B
:08094F00E6B474D4F0020A7B47
:0A09570090E6BAE0FABA0102800F40
:05096100BA0202801C37
:05096600BA0302802924
:05096B00BA044A8036C9
:060970007582607A607BD5
:04097600108B10755D
:06097A0011051205FB024D
:020980000A7BF0
:060982007582657A657BB9
:04098800108B10754B
:06098C00111A1205FB0226
:020992000A7BDE
:0A09940075828A7A8A7B008B107549
:06099E00110A1205FB0224
:0209A4000A7BCC
:0609A60075827F7A7F7B61
:0409AC00108B107527
:0609B00011081205FB0214
:0209B6000A7BBA
:0A09B8007A047B1190E6B3EBF09097
:0809C200E6B47404F0020A7BA4
:0A09CA007A9A7B1090E6B3EBF090F0
:0809D400E6B4749AF0020A7BFC
:0B09DC0090E680E0FA30E7127AD47B4E
:0A09E7001090E6B3EBF090E6B47454
:0509F100D4F0020A7BB6
:0A09F6007AA47B1090E6B3EBF090BA
:070A0000E6B474A4F0807459
:0A0A070090E6A0E0FA4401F0806AD6
:020A11008068FB
:0E0A130090E740E4F090E68AF090E68B7401E4
:030A2100F080570B
:050A24001205CE805216
:0E0A290090E740E4F090E68AF090E68B7401CE
:030A3700F080410B
:050A3A001205CE803C16
:0E0A3F0090E6B8E0FABA823490E6BCE0C31349
:0B0A4D0014540325E0240AF582E43471
:0C0A58003AF583E4F0A3F090E685E0900E
:0D0A6400E740F090E684E0FA90E741F09062
:0A0A7100E68AE4F090E68B7402F0D0
:0B0A7B0090E6B8E0FABA4003020B4D11
:050A8600BAC00280036C
:030A8B00020B77E4
:0E0A8E0090E6BFE0FB7A0090E6BEE0FC7D0043
:0E0A9C00903A05EC4AF0ED4BA3F01206649080
:090AAA00E6B9E0FABA2202800D5F
:050AB300BA38028025A5
:050AB800BA3A0280487B
:030ABD00020B43E6
:0E0AC00090E6B5E4F090E68AF090E68B74289C
:0D0ACE00F090E6B3E4F090E6B4746CF00232
:020ADB000B7797
:0E0ADD0090E6BBE0FB7A0090E6BAE0FC7D00FC
:0E0AEB00903A00EC4AF0ED4BA3F090E68AE45E
:0C0AF900F012056CE58290E68BF0807234
:0E0B0500903A02E0FAA3E0FB8A0490E740EC8D
:0D0B1300F08B0290E741EAF0903A04E09088
:0A0B2000E742F07508007509017541
:0D0B2A0082A2120346AA8290E743EAF090EF
:0C0B3700E68AE4F090E68B7404F0803451
:0A0B430090E6A0E0FA4401F0802AD9
:0C0B4D0090E6BFE0700690E6BEE0601687
:0E0B5900903A097401F090E68BE4F05391EFAE
:080B670090E65D7401F08019B5
:080B6F0012069190E68BE4F000
:0E0B77005391EF90E65D7401F090E6A0E0FA75
:030B85004480F0B9
:0E0B8800D0D0D001D000D007D006D005D004C8
:0D0B9600D003D002D083D082D0F0D0E0D0C8
:020BA3002032FE
:0E0BA500C0E0C082C0835391EF90E65D740201
:080BB300F0D083D082D0E032C3
:0E0BBB00C0E0C082C0835391EF90E65D7404E9
:080BC900F0D083D082D0E032AD
:0E0BD100C0E0C082C0835391EF90E65D7408CF
:080BDF00F0D083D082D0E03297
:0E0BE700C0E0C082C0835391EF90E65D7410B1
:080BF500F0D083D082D0E03281
:0E0BFD00C0E0C082C0835391EF90E65D74208B
:080C0B00F0D083D082D0E0326A
:0E0C1300C0E0C082C0835391EF90E65D744054
:080C2100F0D083D082D0E03254
:0C0C2900C020C0E0C0F0C082C083C00248
:0E0C3500C003C004C005C006C007C000C00157
:0E0C4300C0D075D000C2E8120664903A08E0F6
:060C5100FABA380280052A
:050C5700BA3A128019F9
:0E0C5C0090E68AE4F012056CE58290E68BF0DB
:020C6A008009FF
:090C6C0090E68AE4F090E68BF0BA
:0E0C75005391EF90E65F7401F0D2E8D0D0D03A
:0E0C830001D000D007D006D005D004D003D099
:0C0C910002D083D082D0F0D0E0D020321E
:0C0C9D00C020C0E0C0F0C082C083C002D4
:0E0CA900C003C004C005C006C007C000C001E3
:0E0CB700C0D075D000C2E8903A09E0FA602083
:0D0CC500903A09E4F090E6BFE0FB7A009061
:0E0CD200E6BEE0FC7D00903A05EC4AF0ED4BEA
:050CE000A3F0120691D3
:0E0CE500120664903A08E0FABA390990E68BDC
:060CF300E0F5821205A0ED
:0E0CF90090E68BE4F05391EF90E65F7402F00A
:0E0D0700903A05E0FAA3E0FB4A700890E6A0DF
:050D1500E0FA4480F04B
:0E0D1A00D2E8D0D0D001D000D007D006D0054E
:0E0D2800D004D003D002D083D082D0F0D0E02F
:030D3600D0203298
:0E0D3900C0E0C082C0835391EF90E65F740467
:080D4700F0D083D082D0E0322D
:0E0D4F00C0E0C082C0835391EF90E65F74084D
:080D5D00F0D083D082D0E03217
:0E0D6500C0E0C082C0835391EF90E65F74102F
:080D7300F0D083D082D0E03201
:0E0D7B00C0E0C082C0835391EF90E65F742009
:080D8900F0D083D082D0E032EB
:0E0D9100C0E0C082C0835391EF90E65F7440D3
:080D9F00F0D083D082D0E032D5
:0E0DA700C0E0C082C0835391EF90E65F74807D
:080DB500F0D083D082D0E032BF
:0E0DBD0090E680E04408F090E6007412F0909A
:0D0DCB000002120265538EF8C2AFC2E8901C
:0E0DD80000437402F09000447401F090004556
:0E0DE60074B8F090E668E04408F090010074E4
:090DF40002F07AC57B068B049025
:0E0DFD000101ECF0900102EAF0900104740292
:0A0E0B00F07AA57B0B8B0490010523
:0E0E1500ECF0900106EAF09001087402F07A09
:0A0E2300BB7B0B8B04900109ECF07F
:0C0E2D0090010AEAF090010C7402F07AC7
:0A0E3900D17B0B8B0490010DECF04F
:0C0E430090010EEAF09001107402F07AA9
:0A0E4F00E77B0B8B04900111ECF01F
:0C0E5900900112EAF09001147402F07A8B
:0A0E6500FD7B0B8B04900115ECF0EF
:0C0E6F00900116EAF09001187402F07A6D
:0A0E7B00137B0C8B04900119ECF0BE
:0C0E850090011AEAF09001207402F07A4B
:0A0E9100297B0C8B04900121ECF08A
:0C0E9B00900122EAF09001247402F07A29
:0A0EA7009D7B0C8B04900125ECF0FC
:0C0EB100900126EAF09001287402F07A0B
:0A0EBD00397B0D8B04900129ECF045
:0C0EC70090012AEAF090012C7402F07AED
:0A0ED3004F7B0D8B0490012DECF015
:0C0EDD0090012EEAF09001307402F07ACF
:0A0EE900657B0D8B04900131ECF0E5
:0C0EF300900132EAF09001347402F07AB1
:0A0EFF007B7B0D8B04900135ECF0B5
:0C0F0900900136EAF09001387402F07A92
:0A0F1500917B0D8B04900139ECF084
:0C0F1F0090013AEAF090013C7402F07A74
:0A0F2B00A77B0D8B0490013DECF054
:0E0F350090013EEAF05391EF90E65D747FF07C
:0E0F430090E65CE0FA447FF090E65F74FFF009
:0E0F510090E65E74FFF0D2E8D2AF90E6117425
:0E0F5F00A0F00000000090E61074A0F000006A
:0D0F6D00000090E61274E2F0000000009019
:0E0F7A00E61374A2F00000000090E614E4F00C
:0E0F88000000000090E615E4F000000000906C
:0D0F9600E680E04482F090000A12026590AF
:070FA300E680E054F7F022A4
:0E0FAA00120DBD90E6A3E0FA54FEF000000028
:0E0FB8000090E6A4E0FA54FEF0000000009065
:0E0FC600E6957480F00000000090E6957480BF
:010FD400F02C
:0E0FD50090E6A4E0FA20E2F890E694E0FB7AC1
:0E0FE3000090E695E0FC7D004202ED4203EA3C
:060FF1004B700302104FDB
:0B0FF700C3E49A74029B500302104FE9
:0B10020090E6A3E0FC30E30302104F77
:04100D007C007D00E6
:0E101100C3EC9AED9B50278C8274F42DF5836E
:05101F00E0FEBE6100CF
:0B1024004009EE24854004EE24E0FEAD
:0E102F008C8274F02DF583EEF00CBC00D50D14
:02103D0080D25F
:0E103F0090E690EBF0000000007B0090E69140
:02104D00EAF0C7
:0D104F000000000090E6957480F0020FD5BF
:051060005A5445580040
:0E10650075636563686F20666F7220455A2DB3
:0C10730055534220646576696365730084
:08107F0064656661756C740084
:011087000068
:0E10880012010002FFFFFF401A2200010000CB
:04109600010203014F
:0A109A000A060002FFFFFF400100FC
:0E10A40009022E00010104C0320904000004FC
:0E10B200FFFFFF000705810200020007050195
:0E10C00002000200070582020002000705047C
:0410CE00020002001A
:0210D20000001C
:0E10D40009022E00010104C0320904000004CC
:0E10E200FFFFFF000705810240000007050127
:0E10F0000240000007058202400000070504D0
:0410FE0002400000AC
:021102000000EB
:0411040004030000E0
:021108000000E5
:01110A0000E4
:01110B00FFE4
:01110C0000E2
:08110D000000000000000000DA
:06023700E478FFF6D8FD9B
:08021500790DE94400601B7A39
:05021D000190110878BA
:03022200057592CD
:0A0225003AE493F2A308B8000205C2
:08022F0092D9F4DAF27592FF96
:08023D007800E84400600A7932
:03024500007592AF
:060248003AE4F309D8FCC2
:08024E007805E84400600C791A
:0B02560001903A00E4F0A3D8FCD9FAB4
:03020800758120DD
:0A020B0012105CE58260030202039A
:04105C007582002277
:00000001FF
