:03020000020208EF
:0302610002020393
:0502030012158F80FEC2
:03000000020200F9
:0100030032CA
:01000B0032C2
:0100130032BA
:01001B0032B2
:0100230032AA
:01002B0032A2
:01003300329A
:01003B003292
:01004300328A
:01004B003282
:01005300327A
:01005B003272
:01006300326A
:0101000032CC
:0101040032C8
:0101080032C4
:01010C0032C0
:0101100032BC
:0101140032B8
:0101180032B4
:0101200032AC
:0101240032A8
:0101280032A4
:01012C0032A0
:01013000329C
:010134003298
:010138003294
:01013C003290
:01014000328C
:010148003284
:01014C003280
:01015000327C
:010154003278
:010158003274
:01015C003270
:01016000326C
:01017000325C
:010174003258
:010178003254
:01017C003250
:01018000324C
:010184003248
:010188003244
:01018C003240
:01019000323C
:010194003238
:010198003234
:01019C003230
:0101A000322C
:0101A8003224
:0101AC003220
:0101B000321C
:0101B4003218
:0101B8003214
:010264002277
:08026500AA82AB837C007D003E
:0B026D00C3EC9AED9B50147EB07F04A0
:050278001EBEFF011F86
:0B027D00EE4F70F70CBC00E80D80E5B0
:010288002253
:08028900AA82AB837C007D001A
:0B029100C3EC9AED9B50147E0A7F0026
:05029C001EBEFF011F62
:0B02A100EE4F70F70CBC00E80D80E58C
:0102AC00222F
:0E02AD0075AF0790E67BE090E67CF0DAF32276
:0102BB002220
:0202BC007A00C6
:0302BE00BAFF0084
:0D02C100500B90E678E0FB20E0030A80F08F
:0C02CE0090E678E0FA20E204EA20E10B60
:0B02DA0090E678E04440F075820122BD
:0402E50075820022FC
:0202E9007A0099
:0302EB00BAFF0057
:0D02EE00500B90E678E0FB20E0030A80F062
:0E02FB0090E678E0FA30E20B90E678E04440BE
:05030900F075820122E5
:04030E0075820022D2
:020312007A006F
:03031400BAFF002D
:0E031700500F90E678E0FB20E2047582002291
:030325000A80EC5F
:0403280075820122B7
:02032C007A0055
:03032E00BAFF0013
:0E033100500F90E678E0FB20E6047582002273
:03033F000A80EC45
:04034200758201229D
:09034600AA82C3E49508E433FB2C
:0E034F0090E678E04480F0C002C00312031272
:0E035D00D003D00290E679EAF0C002C003128D
:0C036B0002BCE582D003D0027012E5094C
:0C037700600A90E678E04440F012032C8D
:04038300758200225D
:0E038700EB601090000AC002C003120289D081
:0503950003D00280B559
:0C039A00E509600890E678E0FA4440F0C5
:0403A6007582012239
:0C03AA00AA82AB837C00E50C7003F58296
:0103B6002224
:0A03B7007508647509007582A2C084
:0E03C10002C003C004120346E582D004D0033C
:0703CF00D00260030204B03C
:0C03D60090E679E50BF0C002C003C00403
:0E03E2001202BCE582D004D003D002600302F8
:0203F00004B057
:0C03F20090E679E50AF0C002C003C004E8
:0E03FE001202BCE582D004D003D002600302DC
:02040C0004B03A
:0E040E0090E678E04440F0C002C003C0041243
:0D041C00032C90E678E04480F0120312906B
:0E042900E67974A3F01202BCE582D004D00381
:0E043700D002707590E679E08A828B83F0C067
:0E04450002C003C0041202E9E582D004D00315
:05045300D0027059FD0C
:0C045800C3ED950C502A90E679E08A82F2
:0E0464008B83F0A3AA82AB83C002C003C00446
:0E047200C0051202E9E582D005D004D003D007
:0804800002702D0D8D0480D0E7
:0E04880090E678E04420F090E679E0C004129F
:0E04960002E9E582D004701290E678E044405E
:0C04A400F090E679E0C00412032CD004B4
:0304B0008C822219
:0A04B300AA82AB837C007508647513
:0C04BD0009007582A2C002C003C0041236
:0D04C9000346E582D004D003D00260030298
:0204D6000569B6
:0C04D80090E679E50EF0C002C003C004FD
:0E04E4001202BCE582D004D003D002600302F5
:0204F20005699A
:0C04F40090E679E50DF0C002C003C004E2
:0E0500001202BCE582D004D003D002705CFD74
:0C050E00C3ED950F50478A828B83E0FEFE
:0E051A00A3AA82AB8390E679EEF0903A05E05A
:0D052800FFEE2FF0903A03E0FEA3E0FF90FD
:0E0535003A0374012EF0E43FA3F0C002C003AD
:0E054300C004C0051202BCE582D005D004D071
:0A05510003D00270130D8D0480B377
:0E055B0090E678E04440F0C00412032CD00477
:030569008C82225F
:0A056C00903A15E0FA903A01E0F52C
:060576000AA3E0F50B8A68
:0C057C000C90E740C0021203AAAB82D032
:0E058800027C00903A01E0FDA3E0FE903A01F3
:0A059600EA2DF0EC3EA3F08B822268
:0B05A000AA82903A01E0F50DA3E0F5FF
:0905AB000E8A0F90E740C0021215
:0E05B40004B3D0027B00903A01E0FCA3E0FD0E
:0B05C200903A01EA2CF0EB3DA3F02280
:0C05CD00AA82AB837C00E5117003F5826C
:0105D90022FF
:0A05DA007508647509007582A6C05B
:0E05E40002C003C004120346E582D004D00317
:0705F200D00260030206B70E
:0C05F90090E679E510F0C002C003C004D9
:0E0605001202BCE582D004D003D002600302D2
:0206130006B728
:0E06150090E678E04440F0C002C003C004123A
:0D062300032C90E678E04480F01203129062
:0E063000E67974A7F01202BCE582D004D00374
:0E063E00D002707590E679E08A828B83F0C05E
:0E064C0002C003C0041202E9E582D004D0030C
:05065A00D0027059FD03
:0C065F00C3ED9511502A90E679E08A82E4
:0E066B008B83F0A3AA82AB83C002C003C0043D
:0E067900C0051202E9E582D005D004D003D0FE
:0806870002702D0D8D0480D0DE
:0E068F0090E678E04420F090E679E0C0041296
:0E069D0002E9E582D004701290E678E0444055
:0C06AB00F090E679E0C00412032CD004AB
:0306B7008C822210
:0A06BA00AA82AB837C00750864750A
:0C06C40009007582A6C002C003C0041229
:0D06D0000346E582D004D003D002705A909A
:0C06DD00E679E512F0C002C003C0041270
:0D06E90002BCE582D004D003D0027041FDB8
:0C06F600C3ED9513502C8A828B83E0FE2C
:0E070200A3AA82AB8390E679EEF0C002C0039A
:0E071000C004C0051202BCE582D005D004D0A2
:0A071E0003D00270130D8D0480CE8D
:0E07280090E678E04440F0C00412032CD004A8
:030736008C822290
:07073900903A15E0F5119064
:090740003A06E0F51090E74002D2
:0207490005CDDC
:0D074B00AA8290E6017480F000000000908A
:0E075800E670E4F090E671F053B4F975B2B6B5
:0E07660074904AF58043B40853A0F790000A3F
:0E077400C002120265D00274024AF5807A00BB
:020782007B00FA
:0E07840020A2208A048B057E007F00C3EC9427
:0E079200FFED94FFEE9400EF6480948050071A
:0707A0000ABA00E00B80DD46
:0707A70030A2047AC88002B1
:0207AE007A646B
:0E07B000903A0CEAF0903A08E4F0A3F0A3F0BF
:0807BE00A3F0903A07E4F022D9
:0607C60075820402074BDE
:0607CC0075823402074BA8
:0807D200903A00E4F00207C6B2
:0E07DA0090E6017480F00000000090E618E444
:0E07E800F00000000090E619E4F000000000B0
:0E07F60090E60BE4F00000000090E6A3E0FAAD
:0E08040054FEF00000000090E6A4E0FA54FE5E
:0E081200F00000000090E6957480F0000000F9
:0E0820000090E6957480F090E6047480F0007D
:0E082E0000000090E6047482F00000000090CC
:0E083C00E604E4F000000000903A007401F0C1
:01084A00228B
:07084B0030A2047A168002BE
:020852007A0B1F
:0A085400903A0CE0FBEA2BF07A006A
:03085E00BA40009D
:090861005007D284C2840A80F41D
:0E086A00D287D284C284D284C284D284C28453
:0E087800D284C28475B20053B4F7308105D229
:04088600811207DAFA
:06088A00D28143B20222FC
:0C08900085B31475B3FF903A15E0FB909F
:0E089C003A08E0FCA3E0FDA3E0FEA3E0FF7835
:0E08AA000079007A00903A08EB2CF0E83DA3AC
:0E08B800F0E93EA3F0EA3FA3F090E68BE0608B
:0E08C60022FA759B40759AE775AF07903A07C6
:0508D400E0F990E67B55
:0E08D900E0F590D28429F9C284DAF5903A074E
:0208E700E9F036
:0B08E9008514B390E68BE0FABA4000E3
:0508F400500302084B57
:0108F90022DC
:0E08FA0090E60174E2F090E6F3E4F090E6C3BD
:0E090800F090E6C1F090E6C27404F090E6C0F4
:0C091600744EF090E6F4E4F0759B167A45
:0A092200167B3A8B9A759E60759D56
:0E092C00E4C0027A201202ADD00290E6C6E4CA
:0D093A00F090E6C77410F090E6C8E4F0906D
:0E094700E6C9F090E6CAF090E6CBF090E6CC60
:0E095500E4F090E6CDF090E60B7401F00000A7
:0D096300000090E6047480F0000000009099
:0E097000E6047404F00000000090E604E4F0D9
:0E097E000000000090E619E4F0000000009078
:0E098C00E6197410F00000000090E6DA740125
:0E099A00F00000000090E6CE7401F0000000B6
:0E09A8000090E6CFE4F00000000090E6D0E4FE
:0E09B600F00000000090E6D1E4F00000000028
:0E09C40090E6DC74FFF00000000053B2EF4339
:0509D200B201C2802209
:01006C00286B
:01006D000191
:04006E005A54455843
:040072000A0D000073
:010076000089
:010077000187
:060078006300000000001F
:0C007E0000000000000000000000000076
:0A008A00303030303030303030308C
:0109D70022FD
:0E09D80090E683E4F07420F07410F07430F0B8
:0E09E60090E6837401F07421F07411F0743106
:0E09F400F090E6837412F07432F07404F07424
:030A020024F022BB
:0A0A0500AA82E51624E050037516DE
:010A0F001FC7
:0D0A100090E6BFE0701090E6BEE0FBC395DD
:090A1D0016500690E6BEE0F51645
:0C0A260075AF078A9B85159A759E417577
:0A0A32009DE790E67C7403F07A0063
:0C0A3C00C3EA9516501190E67BE0FB9099
:0B0A4800E67CF090E67CE4F00A80E918
:0B0A5300E5160425E0FA90E740F09063
:0E0A5E00E7417403F090E68AE4F090E68BEA3C
:020A6C00F02276
:0E0A6E00903A13E0FAA3E0FBC374409AE49BB5
:080A7C0050067C407D0080045F
:040A84008A048B0550
:0E0A8800903A15ECF07D00903A13EAC39CF012
:050A9600EB9DA3F0221E
:0A0A9B00903A56E0FABA31028048A2
:040AA500BA3201223E
:050AA900BA3402804296
:050AAE00BA3502805082
:050AB300BA39028008C1
:050AB800BA3C0280279A
:030ABD00020B2306
:0E0AC000903A05E4F0903A03F0A3F090E6BB04
:0E0ACE00E0FB7A0090E6BAE0FC7D00903A0171
:080ADC00EC4AF0ED4BA3F022FF
:090AE40090E6BAE0903A06F02217
:030AED000207D22B
:0E0AF0001207D290E6A4E054FEF090E6F574F2
:050AFE00FFF00208FA00
:0E0B0300D280D28443B21090E6F574FFF00069
:0E0B110000000090E601E0FA54F0F000000051
:040B1F000002084B7D
:080B230090E6A0E04401F0227D
:0C0B2B00C020C0E0C0F0C082C083C00247
:0E0B3700C003C004C005C006C007C000C00156
:0E0B4500C0D075D00090E6B9E0FA903A56F0B4
:0E0B530090E6B57401F090E6B9E0FA24F35094
:040B610003020EE19C
:070B6500EA2A2A900B6C73D1
:070B6C00020B93020C47028B
:060B73000EE1020CC402B9
:060B79000EE1020EE10294
:060B7F000D5C020E77027E
:060B85000E79020E8A0247
:060B8B000E8F020EA00215
:020B91000EA5AF
:0A0B930090E6B8E0FABA8002800D87
:050B9D00BA8102801E78
:050BA200BA8202802F61
:030BA700020EE15A
:0E0BAA0090E740E4F090E741F090E68AF0908A
:080BB800E68B7402F0020EE16D
:0E0BC00090E740E4F090E741F090E68AF09074
:080BCE00E68B7402F0020EE157
:0C0BD60090E6BCE0FA600FBA0102801942
:050BE200BA800280054D
:050BE700BA812F801E01
:0E0BEC0090E6A0E0FA53020190E740EAF080A4
:010BFA003AC0
:0E0BFB0090E6A1E0FA53020190E740EAF08094
:010C09002BBF
:0E0C0A0090E6A2E0FA53020190E740EAF08083
:010C18001CBF
:0E0C190090E6BCE0C31314540324A3F582E458
:0E0C270034E6F583E0FA53020190E740EAF06C
:0E0C350090E741E4F090E68AF090E68B7402BE
:040C4300F0020EE1CC
:0A0C470090E6B8E0FABA020280035A
:030C5100020EE1AF
:090C540090E6BAE06003020EE133
:0C0C5D0090E6BCE0FA600FBA01028015BE
:050C6900BA80028005C5
:050C6E00BA812380168D
:0B0C730090E6A0E0FA54FEF0020EE153
:0B0C7E0090E6A1E0FA54FEF0020EE147
:0B0C890090E6A2E0FA54FEF0020EE13B
:0E0C940090E6BCE0C31314540324A3FAE43426
:0E0CA200E6FB90E6BCE0C31314540324A3F554
:0E0CB00082E434E6F583E0FC5304FE8A828B76
:060CBE0083ECF0020EE1E0
:0A0CC40090E6B8E0FABA02028003DD
:030CCE00020EE132
:090CD10090E6BAE06003020EE1B6
:0C0CDA0090E6BCE0FA600FBA0102801442
:050CE600BA8002800548
:050CEB00BA8120801415
:0A0CF00090E6A0E0FA4401F0804114
:0A0CFA0090E6A1E0FA4401F0803713
:0A0D040090E6A2E0FA4401F0802D11
:0E0D0E0090E6BCE0C31314540324A3FAE434AB
:0E0D1C00E6FB90E6BCE0C31314540324A3F5D9
:0E0D2A0082E434E6F583E0FC4304FE8A828B0B
:030D380083ECF059
:0E0D3B0090E6BCE05480C423541FFA90E6BC3E
:0E0D4900E0FB740F5B420290E683EAF0742038
:050D57004AF0020EE16C
:0A0D5C0090E6BBE0FABA010280192C
:050D6600BA0202802624
:050D6B00BA0302804DF7
:060D7000BA0603020E307A
:060D7600BA0703020E4261
:030D7C00020E6DF7
:0A0D7F007A647B1690E6B3EBF09067
:080D8900E6B47464F0020EE10F
:0B0D910090E680E0FA30E7127A807BE9
:0A0D9C001690E6B3EBF090E6B47495
:050DA60080F0020EE1E7
:0A0DAB007AB07B1690E6B3EBF090EF
:080DB500E6B474B0F0020EE197
:0A0DBD0090E6BAE0FABA0102800FD6
:050DC700BA0202801CCD
:050DCC00BA03028029BA
:050DD100BA044A80365F
:060DD6007582317A317BC9
:040DDC00168B1575E8
:060DE0001605120A0502CF
:020DE6000EE11C
:060DE8007582367A367BAD
:040DEE00168B1575D6
:060DF2001625120A05029D
:020DF8000EE10A
:0A0DFA0075828A7A8A7B008B1575DA
:060E0400160A120A0502A5
:020E0A000EE1F7
:060E0C0075825B7A5B7B3E
:040E1200168B1575B1
:060E16001608120A050295
:020E1C000EE1E5
:0A0E1E007AE07B1690E6B3EBF0904B
:080E2800E6B474E0F0020EE1F3
:0A0E30007A767B1690E6B3EBF090A3
:080E3A00E6B47476F0020EE14B
:0B0E420090E680E0FA30E7127AB07B07
:0A0E4D001690E6B3EBF090E6B474E3
:050E5700B0F0020EE105
:0A0E5C007A807B1690E6B3EBF0906D
:070E6600E6B47480F0807413
:0A0E6D0090E6A0E0FA4401F0806A6C
:020E7700806891
:0E0E790090E740E4F090E68AF090E68B74017A
:030E8700F08057A1
:050E8A001209D880529E
:0E0E8F0090E740E4F090E68AF090E68B740164
:030E9D00F08041A1
:050EA0001209D8803C9E
:0E0EA50090E6B8E0FABA823490E6BCE0C313DF
:0B0EB30014540325E02458F582E434B9
:0C0EBE003AF583E4F0A3F090E685E090A4
:0D0ECA00E740F090E684E0FA90E741F090F8
:0A0ED700E68AE4F090E68B7402F066
:0B0EE10090E6B8E0FABA400302106788
:050EEC00BAC002800302
:030EF1000210915B
:0E0EF40090E6BFE0FB7A0090E6BEE0FC7D00D9
:0E0F0200903A13EC4AF0ED4BA3F0120A6E90F9
:090F1000E6B9E0FABA22028025DC
:060F1900BA3003020FFDD7
:060F1F00BA330302104684
:050F2500BA3802803122
:050F2A00BA3A028055F7
:060F2F00BA3B03020FC3F0
:060F3500BA3D03020FDCCF
:030F3B0002105D44
:0E0F3E0090E6B5E4F090E68AF090E68B742819
:0D0F4C00F090E6B3E4F090E6B4746CF002AF
:020F59001091F5
:0E0F5B0090E6BBE0FB7A0090E6BAE0FC7D0079
:0E0F6900903A01EC4AF0ED4BA3F090E68AE4DA
:0D0F7700F012056CE58290E68BF0021091FF
:0E0F8400903A03E0FAA3E0FB8A0490E740EC09
:0D0F9200F08B0290E741EAF0903A05E09004
:0A0F9F00E742F075080075090175BE
:0D0FA90082A2120346AA8290E743EAF0906C
:0D0FB600E68AE4F090E68B7404F0021091DE
:0E0FC30090E6BAE0903A06F090E68AE4F0126A
:0B0FD1000739E58290E68BF0021091DA
:0A0FDC007508007509017582A61260
:0E0FE6000346AA8290E740EAF090E68AE4F023
:090FF40090E68B7401F0021091EB
:060FFD00759B077A077BDB
:0C1003003A8B9A759E417A417BE78B9DE9
:0E100F00C0027A071202ADD00253B2FD30814A
:0D101D000C90E740E4F0D28143B20280095C
:09102A0090E7407401F01207C6C2
:0E10330090E7487401F090E68AE4F090E68BB6
:051041007409F0804B72
:0E10460090E7407404F090E741E4F090E68AF1
:09105400F090E68B7402F0803488
:0A105D0090E6A0E0FA4401F0802ABA
:0C10670090E6BFE0700690E6BEE0601668
:0E107300903A577401F090E68BE4F05391EF41
:0810810090E65D7401F0801996
:08108900120A9B90E68BE4F0D3
:0E1091005391EF90E65D7401F090E6A0E0FA56
:03109F004480F09A
:0E10A200D0D0D001D000D007D006D005D004A9
:0D10B000D003D002D083D082D0F0D0E0D0A9
:0210BD002032DF
:0E10BF00C0E0C082C0835391EF90E65D7402E2
:0810CD00F0D083D082D0E032A4
:0E10D500C0E0C082C0835391EF90E65D7404CA
:0810E300F0D083D082D0E0328E
:0E10EB00C0E0C082C0835391EF90E65D7408B0
:0810F900F0D083D082D0E03278
:0E110100C0E0C082C0835391EF90E65D741091
:08110F00F0D083D082D0E03261
:0E111700C0E0C082C0835391EF90E65D74206B
:08112500F0D083D082D0E0324B
:0E112D00C0E0C082C0835391EF90E65D744035
:08113B00F0D083D082D0E03235
:0C114300C020C0E0C0F0C082C083C00229
:0E114F00C003C004C005C006C007C000C00138
:0E115D00C0D075D000C2E8120A6E903A56E07B
:06116B00FABA30028042D6
:05117100BA3302803DCD
:05117600BA3802800FF1
:05117B00BA3A028033C6
:05118000BA3B028015DE
:05118500BA3D228029A3
:0E118A0090E68AE4F012056CE58290E68BF0A8
:021198008019BC
:0E119A0090E68AE4F0120739E58290E68BF0C9
:0211A8008009BC
:0911AA0090E68AE4F090E68BF077
:0E11B3005391EF90E65F7401F0D2E8D0D0D0F7
:0E11C10001D000D007D006D005D004D003D056
:0C11CF0002D083D082D0F0D0E0D02032DB
:0C11DB00C020C0E0C0F0C082C083C00291
:0E11E700C003C004C005C006C007C000C001A0
:0E11F500C0D075D000C2E8903A57E0FA6020F2
:0D120300903A57E4F090E6BFE0FB7A0090CF
:0E121000E6BEE0FC7D00903A13EC4AF0ED4B98
:05121E00A3F0120A9B81
:0D122300120A6E903A56E0FABA3102803B92
:05123000BA3202803318
:05123500BA3402803113
:05123A00BA3502802C12
:05123F00BA3902800530
:05124400BA3C24800B00
:0B12490090E68BE0F5821205A08017F4
:0B125400903A06E0F51290E68BE0F502
:09125F001390E7401206BA800367
:03126800120890D9
:0E126B0090E68BE4F05391EF90E65F7402F092
:0E127900903A13E0FAA3E0FB4A700890E6A05A
:05128700E0FA4480F0D4
:0E128C00D2E8D0D0D001D000D007D006D005D7
:0E129A00D004D003D002D083D082D0F0D0E0B8
:0312A800D0203221
:0E12AB00C0E0C082C0835391EF90E65F7404F0
:0812B900F0D083D082D0E032B6
:0E12C100C0E0C082C0835391EF90E65F7408D6
:0812CF00F0D083D082D0E032A0
:0E12D700C0E0C082C0835391EF90E65F7410B8
:0812E500F0D083D082D0E0328A
:0E12ED00C0E0C082C0835391EF90E65F742092
:0812FB00F0D083D082D0E03274
:0E130300C0E0C082C0835391EF90E65F74405B
:08131100F0D083D082D0E0325D
:0E131900C0E0C082C0835391EF90E65F748005
:08132700F0D083D082D0E03247
:02132F007A0042
:03133100BA0A00F5
:0E1334005012EA248AF582E43400F583E0FBCF
:06134200BB30540A80E9F3
:071348007510FB7511059003
:09134F003A0E1205CD7A007B0074
:03135800BB0500D2
:0A135B00503CEB240EF582E4343A16
:0E136500F583E0FCEA248AFDE43400FEECC4CB
:0E137300540F9016E493FF8D828E83F00AEAE9
:0E138100248AFDE43400FE740F5C9016E493A1
:0A138F00FC8D828E83F00A0B80BFF4
:011399002231
:0E139A0090E680E04408F090E6007412F090B7
:0E13A8000002120265538EF8D28143B202C2D7
:0E13B600AFC2E89000437402F090004474014E
:0E13C400F090004574B8F090E668E04408F040
:0A13D2009001007402F07A2B7B0BEF
:0D13DC008B04900101ECF0900102EAF0900A
:0A13E90001047402F07ABF7B108B40
:0E13F30004900105ECF0900106EAF09001086C
:0A1401007402F07AD57B108B049082
:0E140B000109ECF090010AEAF090010C740265
:0A141900F07AEB7B108B0490010DBC
:0E142300ECF090010EEAF09001107402F07AE5
:0A143100017B118B04900111ECF017
:0C143B00900112EAF09001147402F07AA3
:0A144700177B118B04900115ECF0E7
:0C145100900116EAF09001187402F07A85
:0A145D002D7B118B04900119ECF0B7
:0C14670090011AEAF09001207402F07A63
:0A147300437B118B04900121ECF083
:0C147D00900122EAF09001247402F07A41
:0A148900DB7B118B04900125ECF0D1
:0C149300900126EAF09001287402F07A23
:0A149F00AB7B128B04900129ECF0E6
:0C14A90090012AEAF090012C7402F07A05
:0A14B500C17B128B0490012DECF0B6
:0C14BF0090012EEAF09001307402F07AE7
:0A14CB00D77B128B04900131ECF086
:0C14D500900132EAF09001347402F07AC9
:0A14E100ED7B128B04900135ECF056
:0C14EB00900136EAF09001387402F07AAB
:0A14F700037B138B04900139ECF025
:0C15010090013AEAF090013C7402F07A8C
:0A150D00197B138B0490013DECF0F4
:0E15170090013EEAF05391EF90E65D747FF094
:0E15250090E65CE0FA447FF090E65F74FFF021
:0E15330090E65E74FFF0D2E8D2AF90E611743D
:0E154100A0F00000000090E61074A0F0000082
:0D154F00000090E61274E2F0000000009031
:0E155C00E61374A2F00000000090E614E4F024
:0E156A000000000090E615E4F0000000001202
:0D157800132F90E680E04482F090000A12EC
:0A158500026590E680E054F7F022C2
:03158F0012139A9A
:0A15920090E6A4E05404FAB401004E
:0D159C00E433FA903A00E0FBEA5B60EA906D
:0E15A900E694E0FB7A0090E695E0FC7D0042BF
:0B15B70002ED4203EA4B700302162015
:0B15C200C3E49A74029B500302162041
:0B15CD0090E6A3E0FC30E303021620D0
:0415D8007C007D0016
:0E15DC00C3EC9AED9B50238C8274F42DF583A2
:0E15EA00E0905001F08C0674F02DFF9050023E
:0E15F800E0F88E828F83F00CBC00D90D80D6F7
:0E16060090E690EBF0000000007B0090E69173
:0C161400EAF00000000090E6487402F0CC
:0D1620000000000090E6957480F002159225
:051631005A5445580069
:0E1636006D656D656F7279206D617070696E03
:0E16440067206578616D706C6520666F72209E
:0916520055464D20312E313500C2
:08165B0064656661756C7400A2
:011663000086
:0E16640012010002FFFFFF401A2200010000E9
:04167200010203016D
:0A1676000A060002FFFFFF4001001A
:0E16800009022E00010104C03209040000041A
:0E168E00FFFFFF0007058102000200070501B3
:0E169C0002000200070582020002000705049A
:0416AA000200020038
:0216AE0000003A
:0E16B00009022E00010104C0320904000004EA
:0E16BE00FFFFFF000705810240000007050145
:0E16CC000240000007058202400000070504EE
:0416DA0002400000CA
:0216DE0000000A
:0416E00004030000FF
:0E16E4003031323334353637383941424344E1
:0316F2004546006A
:0216F5000000F3
:0116F70000F2
:0E16F80001880101010101070207020202023E
:0E170600020004000000000000040036000095
:041714000000003F92
:0E171800020190010101010702020702020214
:0E172600020004000000000000040000360075
:041734000000003F72
:01173800FFB1
:0117390000AF
:08173A000000000000000000A7
:06023700E478FFF6D8FD9B
:08021500794DE94400601B7AF9
:05021D00019016F578C8
:03022200137592BF
:0A0225003AE493F2A308B8000205C2
:08022F0092D9F4DAF27592FF96
:08023D007800E84400600A7932
:03024500007592AF
:060248003AE4F309D8FCC2
:08024E007813E84400600C790C
:0B02560001903A00E4F0A3D8FCD9FAB4
:03020800758120DD
:0A020B0012162DE5826003020203C3
:04162D0075820022A0
:00000001FF
