:03020000020208EF
:0302610002020393
:05020300121F2380FE24
:03000000020200F9
:0100030032CA
:01000B0032C2
:0100130032BA
:01001B0032B2
:0100230032AA
:01002B0032A2
:01003300329A
:01003B003292
:01004300328A
:01004B003282
:01005300327A
:01005B003272
:01006300326A
:0101000032CC
:0101040032C8
:0101080032C4
:01010C0032C0
:0101100032BC
:0101140032B8
:0101180032B4
:0101200032AC
:0101240032A8
:0101280032A4
:01012C0032A0
:01013000329C
:010134003298
:010138003294
:01013C003290
:01014000328C
:010148003284
:01014C003280
:01015000327C
:010154003278
:010158003274
:01015C003270
:01016000326C
:01017000325C
:010174003258
:010178003254
:01017C003250
:01018000324C
:010184003248
:010188003244
:01018C003240
:01019000323C
:010194003238
:010198003234
:01019C003230
:0101A000322C
:0101A8003224
:0101AC003220
:0101B000321C
:0101B4003218
:0101B8003214
:010264002277
:08026500AA82AB837C007D003E
:0B026D00C3EC9AED9B50147EB07F04A0
:050278001EBEFF011F86
:0B027D00EE4F70F70CBC00E80D80E5B0
:010288002253
:08028900AA82AB837C007D001A
:0B029100C3EC9AED9B50147E0A7F0026
:05029C001EBEFF011F62
:0B02A100EE4F70F70CBC00E80D80E58C
:0102AC00222F
:0E02AD0075AF0790E67BE090E67CF0DAF32276
:0102BB002220
:0202BC007A00C6
:0302BE00BAFF0084
:0D02C100500B90E678E0FB20E0030A80F08F
:0C02CE0090E678E0FA20E204EA20E10B60
:0B02DA0090E678E04440F075820122BD
:0402E50075820022FC
:0202E9007A0099
:0302EB00BAFF0057
:0D02EE00500B90E678E0FB20E0030A80F062
:0E02FB0090E678E0FA30E20B90E678E04440BE
:05030900F075820122E5
:04030E0075820022D2
:020312007A006F
:03031400BAFF002D
:0E031700500F90E678E0FB20E2047582002291
:030325000A80EC5F
:0403280075820122B7
:02032C007A0055
:03032E00BAFF0013
:0E033100500F90E678E0FB20E6047582002273
:03033F000A80EC45
:04034200758201229D
:09034600AA82C3E49508E433FB2C
:0E034F0090E678E04480F0C002C00312031272
:0E035D00D003D00290E679EAF0C002C003128D
:0C036B0002BCE582D003D0027012E5094C
:0C037700600A90E678E04440F012032C8D
:04038300758200225D
:0E038700EB601090000AC002C003120289D081
:0503950003D00280B559
:0C039A00E509600890E678E0FA4440F0C5
:0403A6007582012239
:0C03AA00AA82AB837C00E50C7003F58296
:0103B6002224
:0A03B7007508647509007582A2C084
:0E03C10002C003C004120346E582D004D0033C
:0703CF00D00260030204B03C
:0C03D60090E679E50BF0C002C003C00403
:0E03E2001202BCE582D004D003D002600302F8
:0203F00004B057
:0C03F20090E679E50AF0C002C003C004E8
:0E03FE001202BCE582D004D003D002600302DC
:02040C0004B03A
:0E040E0090E678E04440F0C002C003C0041243
:0D041C00032C90E678E04480F0120312906B
:0E042900E67974A3F01202BCE582D004D00381
:0E043700D002707590E679E08A828B83F0C067
:0E04450002C003C0041202E9E582D004D00315
:05045300D0027059FD0C
:0C045800C3ED950C502A90E679E08A82F2
:0E0464008B83F0A3AA82AB83C002C003C00446
:0E047200C0051202E9E582D005D004D003D007
:0804800002702D0D8D0480D0E7
:0E04880090E678E04420F090E679E0C004129F
:0E04960002E9E582D004701290E678E044405E
:0C04A400F090E679E0C00412032CD004B4
:0304B0008C822219
:0A04B300AA82AB837C007508647513
:0C04BD0009007582A2C002C003C0041236
:0D04C9000346E582D004D003D00260030298
:0204D6000569B6
:0C04D80090E679E50EF0C002C003C004FD
:0E04E4001202BCE582D004D003D002600302F5
:0204F20005699A
:0C04F40090E679E50DF0C002C003C004E2
:0E0500001202BCE582D004D003D002705CFD74
:0C050E00C3ED950F50478A828B83E0FEFE
:0E051A00A3AA82AB8390E679EEF0903A04E05B
:0D052800FFEE2FF0903A02E0FEA3E0FF90FE
:0E0535003A0274012EF0E43FA3F0C002C003AE
:0E054300C004C0051202BCE582D005D004D071
:0A05510003D00270130D8D0480B377
:0E055B0090E678E04440F0C00412032CD00477
:030569008C82225F
:0A056C00903A2EE0FA903A00E0F514
:060576000AA3E0F50B8A68
:0C057C000C90E740C0021203AAAB82D032
:0E058800027C00903A00E0FDA3E0FE903A00F5
:0A059600EA2DF0EC3EA3F08B822268
:0B05A000AA82903A00E0F50DA3E0F500
:0905AB000E8A0F90E740C0021215
:0E05B40004B3D0027B00903A00E0FCA3E0FD0F
:0B05C200903A00EA2CF0EB3DA3F02281
:0205CD00AA8200
:0805CF00D2A600C2A6DAF9224F
:0E05D700A2B0D2A633C2A6A2B0D2A633C2A64C
:0E05E500A2B0D2A633C2A6A2B0D2A633C2A63E
:0E05F300A2B0D2A633C2A6A2B0D2A633C2A630
:0E060100A2B0D2A633C2A6A2B0D2A633C2A621
:07060F00F582227582002232
:02061600AA1127
:0E061800A2B0D2A633C2A6A2B0D2A633C2A60A
:0E062600A2B0D2A633C2A6A2B0D2A633C2A6FC
:0E063400A2B0D2A633C2A6A2B0D2A633C2A6EE
:0E064200A2B0D2A633C2A6A2B0D2A633C2A6E0
:05065000F0A3DAC42252
:0E065500E5823392A7D2A633C2A692A7D2A600
:0E06630033C2A692A7D2A633C2A692A7D2A6F1
:0E06710033C2A692A7D2A633C2A692A7D2A6E3
:0E067F0033C2A692A7D2A633C2A692A7D2A6D5
:04068D0000C2A622DF
:02069100AA11AC
:0E069300E03392A7D2A633C2A692A7D2A63316
:0E06A100C2A692A7D2A633C2A692A7D2A633B3
:0E06AF00C2A692A7D2A633C2A692A7D2A633A5
:0E06BD00C2A692A7D2A633C2A692A7D2A6A327
:0506CB00C2A6DAC42202
:0D06D000903A0C7403F043A0807A007B0088
:0E06DD00C002C0031205D7AC82D003D002BC0D
:0406EB00FF0280206A
:0E06EF008A048B057E007F00C3EC94FFED941F
:0E06FD00FFEE9400EF6480948050070ABA006C
:04070B00D10B80CEC0
:0E070F00E5B030E009903A0CE4F0758200226B
:04071D0075820122BE
:0D07210043A0207582081205CD53A0DF0211
:02072E0006D0F3
:0E07300043A0807582081205CD43A02075827B
:04073E00080205CDDB
:0507420043A0807A5580
:0A0747001205D7E58230E702DAF66A
:0B075100903A0EF0F582227582002223
:07075C0043A0807A007B003E
:0E076300C002C0031205D7AC82D003D002BC86
:04077100FE02800DF7
:050775000ABA00010BAF
:08077A00EA4B70E575820122D3
:04078200758200225A
:0E078600AA82AB83ACF0FDE5A020E5047582ED
:0207940004223D
:0E079600C002C003C004C005120721E582D0D6
:0E07A40005D004D003D0026007120730758222
:0207B200032220
:0E07B400758208C002C003C004C0051205CD46
:0E07C200D005D004D003D002903A0D7412F08E
:0E07D000903A107452F0903A0FE0FE7028EA52
:0E07DE002AFAEB33FBEC33FCED33FD8C069076
:0E07EC003A11EEF08B06903A12EEF08A06906B
:0B07FA003A13EEF0903A14E4F0801A7D
:0E0805008D06903A11EEF08C06903A12EEF04D
:0C0813008B06903A13EEF0903A14EAF0D5
:0A081F00903A157401F0751106906F
:060829003A1012069112C4
:0A082F000742903A0EE0FA6007124B
:0608390007307582012268
:0E083F0012075CE58260071207307582022204
:04084D00758200228E
:0E0851007582101205CD12075CE58260071259
:06085F0007307582022241
:040865007582002276
:04086900AA82AB8331
:0E086D00C374209AE49B5018758200C002C02C
:0E087B00031205CDD003D002EA24E0FAEB34DC
:04088900FFFB80E011
:0E088D00EA4B600AEAC40354F8F5821205CD66
:0D089B007582101205CD7582081205CD90F2
:0C08A8003A0D740CF0903A10744CF09073
:0908B4003A11E4F0903A12F090C0
:0808BD003A13F0903A14F09098
:0908C5003A157401F0751106905A
:0608CE003A10120691121F
:0908D40007427582081205CD02ED
:0208DD000730E2
:0E08DF00AA82AB83ACF0FDE5A020E504758293
:0208ED000422E3
:0E08EF00C002C003C004C005120721E582D07C
:0E08FD0005D004D003D00260071207307582C8
:02090B000322C5
:0E090D00758208C002C003C004C0051205CDEB
:0E091B00D005D004D003D002903A0D7419F02C
:0E092900903A107459F0903A0FE0FE7028EAF0
:0E0937002AFAEB33FBEC33FCED33FD8C06901B
:0E0945003A11EEF08B06903A12EEF08A069010
:0B0953003A13EEF0903A14E4F0801A22
:0E095E008D06903A11EEF08C06903A12EEF0F3
:0C096C008B06903A13EEF0903A14EAF07B
:0A097800903A157401F07511069015
:060982003A10120691126A
:0A0988000742903A0EE0FA600712F1
:060992000730758201220E
:0D09980043A0807582081205CD7582FC1207
:0609A500065575820022D8
:0709AB00AA82AB8353A07F79
:0E09B200C374209AE49B5018758200C002C0E6
:0E09C000031205CDD003D002EA24E0FAEB3496
:0409CE00FFFB80E0CB
:0E09D200EA4B600AEAC40354F8F5821205CD20
:0E09E00043A0807582101205CD1205D7E58266
:0809EE00540FFABA050280481B
:0D09F600903A0C7406F07582081205CD9041
:0C0A03003A0D740CF0903A10744CF09016
:090A0F003A11E4F0903A12F09063
:080A18003A13F0903A14F0903B
:090A20003A157401F075110690FD
:060A29003A1012069112C2
:090A2F0007427582081205CD1280
:060A380007307582062262
:040A3E00758200229B
:0D0A42001206D07582FD120655758208124D
:050A4F0005CD02073097
:090A54001206D07582FC02065561
:0E0A5D00903A057401F0903A06E4F0A374029A
:0E0A6B00F0903A0FE4F043B4E053B5FE43A020
:0E0A79008043A0207582001205CD1207219047
:0C0A87003A0C7403F07582081205CD9043
:0B0A93003A0DE4F0903A107440F0902F
:090A9E003A11E4F0903A12F090D4
:080AA7003A13F0903A14F090AC
:090AAF003A157495F075110690DA
:060AB8003A101206911233
:0E0ABE000742903A0EE0FA7B0054FE7003EB04
:020ACC00604B7D
:0D0ACE009000321202657582081205CD906D
:0B0ADB003A0DE4F0903A107440F090E7
:090AE6003A11E4F0903A12F0908C
:080AEF003A13F0903A14F09064
:090AF7003A157495F07511069092
:060B00003A1012069112EA
:0E0B06000742903A0EE0FA7B0054FE7003EBBB
:020B140060037C
:030B1600020F03C8
:0D0B19007582081205CD903A0D7408F09019
:0B0B26003A107448F0903A11E4F0908F
:0A0B31003A12F0903A137401F090AC
:0C0B3B003A1474AAF0903A157487F07513
:060B47001106903A1012A5
:060B4D0006911207429020
:0D0B53003A0EE0FA20E235EA54FE6003029B
:020B60000F0381
:070B6200751104903A101216
:0E0B69000616903A12E0FA53020FBA010A90F3
:090B77003A13E0FABAAA0280095F
:090B8000903A0C7407F0020F0911
:060B8900903A0F7401F028
:090B8F00903A0FE0FA6002744094
:0E0B9800FA758208C0021205CD903A0D74372E
:0D0BA600F0903A107477F0903A11E4F0905E
:080BB3003A12F0903A13F090A1
:0A0BBB003A14F0903A157401F07539
:060BC5001106903A101227
:080BCB000691120742D00290CE
:0E0BD3003A0EE0FB54FE703E758208C002121E
:0B0BE10005CDD002903A0D7429F09071
:0B0BEC003A107469F0903A11EAF090A2
:090BF7003A12E4F0903A13F09078
:0A0C00003A14F0903A157401F075F3
:080C0A001106903A10C002121D
:070C12000691120742D00217
:0A0C1900903A0EE0FB5303FE7C004E
:0B0C2300903A0EE0FDBD0003020D231F
:030C2E00BCFF0008
:050C31004003020D2349
:0E0C3600900004C002C003C004120265D00486
:0E0C4400D003D002EB6051758208C002C003DD
:0E0C5200C0041205CDD004D003D002903A0D9C
:0E0C60007401F0903A107441F0903A11EAF0ED
:0A0C6E00903A12E4F0903A13F0906F
:0A0C78003A14F0903A1574FFF0757D
:0C0C82001106903A10C002C003C004121A
:0C0C8E000691120742D004D003D00202ED
:020C9A000D1F2C
:0D0C9C00758208C002C003C0041205CD908F
:0C0CA9003A0D7437F0903A107477F09018
:090CB5003A11E4F0903A12F090BB
:080CBE003A13F0903A14F09093
:090CC6003A157401F07511069055
:060CCF003A10120691121A
:0E0CD50007427582081205CDD004D003D0026C
:0D0CE300903A0D7429F0903A107469F09069
:0A0CF0003A11EAF0903A12E4F09095
:080CFA003A13F0903A14F09057
:090D02003A157401F07511069018
:0C0D0B003A10C002C003C004120691128E
:080D17000742D004D003D00212
:040D1F000C020C2393
:0A0D2300903A0EE0FA6003020F039D
:0E0D2D00903A0FE0FA60557582081205CD90DD
:0C0D3B003A0D743AF0903A10747AF0907F
:090D47003A11E4F0903A12F09028
:080D50003A13F0903A14F09000
:090D58003A157401F075110690C2
:060D61003A101206911287
:0A0D67000742903A0EE0FA60030222
:020D71000F036E
:070D7300751104903A101203
:0B0D7A000616903A10E0FA20E6059003
:040D85003A0FE4F04D
:0D0D89007582081205CD903A0D7409F090A6
:0B0D96003A107449F0903A11E4F0901C
:080DA1003A12F0903A13F090B1
:0A0DA9003A14F0903A157401F07549
:060DB3001106903A101237
:060DB90006911207421230
:0D0DBF00075CE5826009903A0C7402F002B6
:020DCC000F090D
:070DCE00751110903A10129C
:090DD50006167582101205CD907E
:0E0DDE003A10E0FA5302C0903A10EAF0EA54DC
:060DEC00C06003020E745A
:0E0DF200903A15E0FA53020F903A1AE023549B
:0E0E000001FB903A19E0540325E04B2A24F937
:0E0E0E00FA903A18E023235403FB903A17E0C1
:0E0E1C00FCE4CC25E0CC33CC25E0CC33FD7ECD
:0E0E2A0000EB4204EE4205903A16E05403FB42
:0E0E38002B25E0FEE4FB4204EE42050CBC005C
:020E4600010D9C
:0C0E4800ED3395E0FBFE8AF005F0800C15
:0C0E5400EC2CFCED33FDEB33FBEE33FE29
:0E0E6000D5F0F1903A08ECF0A3EDF0A3EBF022
:060E6E00A3EEF0020EFBF2
:0E0E7400903A10E0FA5302C0BA4074903A1758
:0E0E8200E0FA53023F7B008B058A047B007A66
:0E0E900000903A18E0FF7E003395E0F8F9EE8E
:0E0E9E004202EF4203E84204E94205903A198D
:0E0EAC00E0FEE4FFF8F9EE4202EF4203E842F6
:0E0EBA0004E942050ABA00090BBB00050CBC96
:030EC80000010D19
:0E0ECB00EB2BCC33CC25E0CC33FDEA2A25E01E
:0E0ED900FBEA232354034CFC7A00903A08EA0B
:0C0EE700F0A3EBF0A3ECF0A3EDF080080A
:080EF300903A0C7407F0800E28
:080EFB00903A0CE4F00207300C
:060F0300903A0C7401F0AD
:080F0900903A05E4F002073004
:0D0F1100903A20E0FA6050903A20E4F0128F
:0E0F1E00075CE5826044903A0C7402F0758224
:0B0F2C00081205CD903A0D740CF090F7
:0B0F37003A10744CF0903A11E4F09076
:080F42003A12F0903A13F0900E
:0A0F4A003A14F0903A157401F075A6
:060F54001106903A101294
:090F5A000691120742758208128B
:050F630005CD0207307E
:0A0F6800903A2EE0F51190E74012D8
:0E0F72000616903A2CE0FAA3E0FB4A70447594
:0C0F800082101205CD7582081205CD907C
:0C0F8C003A0D740CF0903A10744CF09088
:090F98003A11E4F0903A12F090D5
:080FA1003A13F0903A14F090AD
:090FA9003A157401F0751106906F
:060FB2003A101206911234
:090FB80007427582081205CD0202
:020FC1000730F7
:070FC300EA7004EB30E001CD
:010FCA002204
:0D0FCB007582101205CD903A207401F022BD
:0D0FD800903A20E0FA600E903A20E4F0120A
:080FE50006D07582FC120655CE
:0A0FED00903A2EE0F51190E7401253
:0E0FF7000691903A2CE0FAA3E0FBEA7004EBBE
:0310050030E001D7
:0110080022C5
:0E10090043A0807582101205CD1205D7E58236
:08101700540FFABA05028044EF
:0D101F00903A0C7406F07582081205CD9011
:0C102C003A0D740CF0903A10744CF090E7
:091038003A11E4F0903A12F09034
:081041003A13F0903A14F0900C
:091049003A157401F075110690CE
:061052003A101206911293
:0910580007427582081205CD1251
:02106100073056
:0E106300903A2CE0FAA3E0FB4A6007903A2096
:041071007401F022F4
:0D1075001206D07582FD1206557582081214
:0510820005CD0207305E
:0D108700AA8290E6017480F0000000009045
:0E109400E670E4F090E671F075B2FA74804AEE
:0E10A200F58090000AC002120265D00253B41D
:0A10B000F774024AF5807A007B0015
:0E10BA002080208A048B057E007F00C3EC940A
:0E10C800FFED94FFEE9400EF648094805007DB
:0710D6000ABA00E00B80DD07
:0710DD003080047AC8800294
:0210E4007A642C
:0E10E600903A26EAF0903A22E4F0A3F0A3F04C
:0810F400A3F0903A21E4F02280
:0610FC007582200210873E
:06110200758260021087F7
:031108000210FCD6
:01110B0022C1
:07110C003080047A14800218
:021113007A0A56
:0A111500903A26E0FBEA2BF07A0086
:03111F00BA4000D3
:091122005007D283C2830A80F455
:0E112B00D287D283C283D283C283D283C2838F
:0E113900D283C28353B2053080047A02800252
:021147007A012B
:0E114900903A26E0FBEA2BF0308105D28112AD
:02115700110B7A
:06115900D28143B2022224
:0C115F0085B51075B5FF903A2EE0FB90AE
:0E116B003A22E0FCA3E0FDA3E0FEA3E0FF7843
:0E1179000079007A00903A22EB2CF0E83DA3BA
:0E118700F0E93EA3F0EA3FA3F090E68BE060B3
:0E11950022FA759B40759AE775AF07903A21D4
:0511A300E0F990E67B7D
:0E11A800E0F5B0D28329F9C283DAF5903A213E
:0211B600E9F05E
:0B11B8008510B590E68BE0FABA40000D
:0511C300500302110CB5
:0111C8002204
:01006C00286B
:01006D000191
:04006E005A54455843
:040072000A0C000074
:010076000089
:010077000187
:060078000700000000007B
:0C007E0000000000000000000000000076
:0A008A00303030303030303030308C
:0111C9002203
:0E11CA0090E683E4F07420F07410F07430F0BE
:0E11D80090E6837401F07421F07411F074310C
:0211E600F022F5
:0A11E800AA82E51224E050037512FC
:0111F2001FDD
:0D11F30090E6BFE0701090E6BEE0FBC395F3
:0912000012500690E6BEE0F51262
:0C12090075AF078A9B85119A759E417590
:0A1215009DE790E67C7403F07A0078
:0C121F00C3EA9512501190E67BE0FB90B2
:0B122B00E67CF090E67CE4F00A80E92D
:0B123600E5120425E0FA90E740F0907C
:0E124100E7417403F090E68AE4F090E68BEA51
:02124F00F0228B
:0E125100903A2CE0FAA3E0FBC374409AE49BB1
:08125F0050067C407D00800474
:041267008A048B0565
:0E126B00903A2EECF07D00903A2CEAC39CF0F5
:05127900EB9DA3F02233
:0B127E00903A2FE0FABA3103021397F8
:04128900BA32012252
:05128D00BA39028008DF
:05129200BA42028027B2
:0312970002139AA5
:0E129A00903A04E4F0903A02F0A3F090E6BB24
:0E12A800E0FB7A0090E6BAE0FC7D00903A0090
:0812B600EC4AF0ED4BA3F0221D
:0E12BE00E5A020E515903A0C7404F090E6A02F
:0C12CC00E04401F0903A2CE4F0A3F02282
:0E12D800120721E582601212073090E6A0E0B6
:0B12E6004401F0903A2CE4F0A3F02249
:0D12F1007582081205CD903A0D7419F09029
:0D12FE003A107459F0903A0FE0FA600302C4
:02130B0013309D
:0E130D00C390E6BAE0903A1333F090E6BBE0EE
:0E131B00903A1233F090E6BCE0903A1133F0B5
:07132900903A14E4F080216A
:0D13300090E6BDE0903A11F090E6BCE09030
:0E133D003A12F090E6BBE0903A13F090E6BA58
:06134B00E0FA903A14F0F4
:0A135100903A157401F07511069032
:06135B003A101206911287
:0A1361000742903A0EE0FA6018907F
:0E136B003A0C7401F012073090E6A0E0440145
:09137900F0903A2CE4F0A3F022FC
:0D13820043A0807582081205CD7582FC1213
:08138F000655903A20E4F0221B
:0313970002110838
:08139A0090E6A0E04401F022FE
:0C13A200C020C0E0C0F0C082C083C002C8
:0E13AE00C003C004C005C006C007C000C001D7
:0E13BC00C0D075D00090E6B9E0FA903A2FF05C
:0E13CA0090E6B57401F090E6B9E0FA24F35015
:0413D800030217589D
:0713DC00EA2A2A9013E373D3
:0713E30002140A0214BE020D
:0613EA00175802153B023A
:0613F00017580217580215
:0613F60015D30216EE0201
:0613FC0016F002170102C9
:0614020017060217170295
:02140800171CAF
:0A140A0090E6B8E0FABA8002800D07
:05141400BA8102801EF8
:05141900BA8202802FE1
:03141E000217585A
:0E14210090E740E4F090E741F090E68AF0900A
:08142F00E68B7402F00217586D
:0E14370090E740E4F090E741F090E68AF090F4
:08144500E68B7402F002175857
:0C144D0090E6BCE0FA600FBA01028019C2
:05145900BA80028005CD
:05145E00BA812F801E81
:0E14630090E6A0E0FA53020190E740EAF08024
:011471003A40
:0E14720090E6A1E0FA53020190E740EAF08014
:011480002B40
:0E14810090E6A2E0FA53020190E740EAF08004
:01148F001C40
:0E14900090E6BCE0C31314540324A3F582E4D9
:0E149E0034E6F583E0FA53020190E740EAF0ED
:0E14AC0090E741E4F090E68AF090E68B74023F
:0414BA00F0021758CD
:0A14BE0090E6B8E0FABA02028003DB
:0314C800021758B0
:0914CB0090E6BAE0600302175834
:0C14D40090E6BCE0FA600FBA010280153F
:0514E000BA8002800546
:0514E500BA812380160E
:0B14EA0090E6A0E0FA54FEF002175854
:0B14F50090E6A1E0FA54FEF002175848
:0B15000090E6A2E0FA54FEF00217583B
:0E150B0090E6BCE0C31314540324A3FAE434A6
:0E151900E6FB90E6BCE0C31314540324A3F5D4
:0E15270082E434E6F583E0FC5304FE8A828BF6
:0615350083ECF0021758E0
:0A153B0090E6B8E0FABA020280035D
:0315450002175832
:0915480090E6BAE06003021758B6
:0C15510090E6BCE0FA600FBA01028014C2
:05155D00BA80028005C8
:05156200BA8120801495
:0A15670090E6A0E0FA4401F0804194
:0A15710090E6A1E0FA4401F0803793
:0A157B0090E6A2E0FA4401F0802D92
:0E15850090E6BCE0C31314540324A3FAE4342C
:0E159300E6FB90E6BCE0C31314540324A3F55A
:0E15A10082E434E6F583E0FC4304FE8A828B8C
:0315AF0083ECF0DA
:0E15B20090E6BCE05480C423541FFA90E6BCBF
:0E15C000E0FB740F5B420290E683EAF07420B9
:0515CE004AF00217586D
:0A15D30090E6BBE0FABA01028019AD
:0515DD00BA02028026A5
:0515E200BA0302804D78
:0615E700BA06030216A77C
:0615ED00BA07030216B963
:0315F3000216E4F9
:0A15F6007A4C7B2090E6B3EBF090F6
:08160000E6B4744CF002175827
:0B16080090E680E0FA30E7127A687B81
:0A1613002090E6B3EBF090E6B4740B
:05161D0068F0021758FF
:0A1622007A8A7B2090E6B3EBF0908B
:08162C00E6B4748AF0021758BD
:0A16340090E6BAE0FABA0102800F56
:05163E00BA0202801C4D
:05164300BA030280293A
:05164800BA044A8036DF
:06164D007582267A267B5F
:04165300208B117562
:0616570012051211E80269
:02165D0017581C
:06165F0075822B7A2B7B43
:04166500208B117550
:0616690012181211E80244
:02166F0017580A
:0A16710075828A7A8A7B008B11755E
:06167B00120A1211E80240
:021681001758F8
:061683007582437A437BEF
:04168900208B11752C
:06168D0012081211E80230
:021693001758E6
:0A1695007AAC7B2090E6B3EBF090F6
:08169F00E6B474ACF002175828
:0A16A7007A5E7B2090E6B3EBF09032
:0816B100E6B4745EF002175864
:0B16B90090E680E0FA30E7127A8A7BAE
:0A16C4002090E6B3EBF090E6B4745A
:0516CE008AF00217582C
:0A16D3007A687B2090E6B3EBF090FC
:0716DD00E6B47468F08074AC
:0A16E40090E6A0E0FA4401F0806AED
:0216EE00806812
:0E16F00090E740E4F090E68AF090E68B7401FB
:0316FE00F0805722
:051701001211CA805224
:0E17060090E740E4F090E68AF090E68B7401E4
:03171400F0804121
:051717001211CA803C24
:0E171C0090E6B8E0FABA823490E6BCE0C3135F
:0B172A0014540325E02431F582E43460
:0C1735003AF583E4F0A3F090E685E09024
:0D174100E740F090E684E0FA90E741F09078
:0A174E00E68AE4F090E68B7402F0E6
:0B17580090E6B8E0FABA4003021A372E
:05176300BAC002800382
:03176800021A6101
:0E176B0090E6BFE0FB7A0090E6BEE0FC7D0059
:0E177900903A2CEC4AF0ED4BA3F01212519076
:09178700E6B9E0FABA220280255D
:06179000BA30030219E467
:05179600BA38028037A3
:05179B00BA3A02805B78
:0617A000BA400302183AF2
:0617A600BA4103021860C5
:0617AC00BA4303021960BC
:0317B200021A2DEB
:0E17B50090E6B5E4F090E68AF090E68B74289A
:0D17C300F090E6B3E4F090E6B4746CF00230
:0217D0001A619C
:0E17D20090E6BBE0FB7A0090E6BAE0FC7D00FA
:0E17E000903A00EC4AF0ED4BA3F090E68AE45C
:0D17EE00F012056CE58290E68BF0021A61A6
:0E17FB00903A02E0FAA3E0FB8A0490E740EC8B
:0D180900F08B0290E741EAF0903A04E09085
:0A181600E742F0750800750901753E
:0D18200082A2120346AA8290E743EAF090EC
:0D182D00E68AE4F090E68B7404F0021A6184
:06183A00759B057A057B99
:0C1840003A8B9A759E40759DE7C0027AB5
:0E184C00081202ADD00290E68AE4F090E68B1E
:06185A007408F0021A619F
:0E186000E5A020E518903A0C7404F090E6A084
:0D186E00E0FA4401F0903A2CE4F0A3F002FF
:02187B001A61F0
:0E187D00120721E582601512073090E6A0E008
:0E188B00FA4401F0903A2CE4F0A3F0021A6146
:0D1899007582081205CD903A0D7412F09082
:0D18A6003A107452F0903A0FE0FA6003021D
:0218B30018D843
:0E18B500C390E6BAE0903A1333F090E6BBE041
:0E18C300903A1233F090E6BCE0903A1133F008
:0718D100903A14E4F08021BD
:0D18D80090E6BDE0903A11F090E6BCE09083
:0E18E5003A12F090E6BBE0903A13F090E6BAAB
:0618F300E0FA903A14F047
:0A18F900903A157401F07511069085
:061903003A1012069112D9
:0A1909000742903A0EE0FA601B90CE
:0E1913003A0C7401F012073090E6A0E0FA449E
:0C19210001F0903A2CE4F0A3F0021A61EF
:0A192D00903A207401F0120F11909F
:0E1937003A0CE0FA601290E6A0E0FA4401F0EB
:0A194500903A2CE4F0A3F0021A61BE
:0E194F0090E68AE4F0903A2EE0FA90E68BF0F3
:03195D00021A610A
:06196000759B0C7A0C7B64
:0C1966003A8B9A759E427A427BE78B9D7B
:0E197200C0027A141202ADD002740155B0FA10
:05198000E4BA000104BF
:0E19850090E756F01207217582081205CD90EA
:0C1993003A0D740DF0903A10744DF09075
:09199F003A11E4F0903A12F090C4
:0819A8003A13F0903A14F0909C
:0919B0003A157401F0751106905E
:0619B9003A101206911223
:0B19BF000742903A0EE090E740F01263
:0D19CA0005D7AA8290E741EAF0120730909D
:0D19D700E68AE4F090E68B7417F0021A61C6
:0619E400759B217A217BB6
:0C19EA003A8B9A759E417A417BE78B9DF9
:0E19F600C0027A071202ADD00253B2FD30815A
:0D1A04000C90E740E4F0D28143B20280096B
:091A110090E7407401F01210FC92
:0E1A1A0090E7487401F090E68AE4F090E68BC5
:051A28007409F0803498
:0A1A2D0090E6A0E0FA4401F0802AE0
:0C1A370090E6BFE0700690E6BEE060168E
:0E1A4300903A307401F090E68BE4F05391EF8E
:081A510090E65D7401F08019BC
:081A590012127E90E68BE4F00E
:0E1A61005391EF90E65D7401F090E6A0E0FA7C
:031A6F004480F0C0
:0E1A7200D0D0D001D000D007D006D005D004CF
:0D1A8000D003D002D083D082D0F0D0E0D0CF
:021A8D00203205
:0E1A8F00C0E0C082C0835391EF90E65D740208
:081A9D00F0D083D082D0E032CA
:0E1AA500C0E0C082C0835391EF90E65D7404F0
:081AB300F0D083D082D0E032B4
:0E1ABB00C0E0C082C0835391EF90E65D7408D6
:081AC900F0D083D082D0E0329E
:0E1AD100C0E0C082C0835391EF90E65D7410B8
:081ADF00F0D083D082D0E03288
:0E1AE700C0E0C082C0835391EF90E65D742092
:081AF500F0D083D082D0E03272
:0E1AFD00C0E0C082C0835391EF90E65D74405C
:081B0B00F0D083D082D0E0325B
:0C1B1300C020C0E0C0F0C082C083C0024F
:0E1B1F00C003C004C005C006C007C000C0015E
:0E1B2D00C0D075D000C2E8121251903A2FE0DD
:071B3B00FABA3003021BABF4
:051B4200BA3802801416
:051B4700BA3A02805FC4
:051B4C00BA4002805ABE
:051B5100BA41028015FD
:051B5600BA4349805074
:0E1B5B0090E68AE4F012056CE58290E68BF0CD
:021B69008040BA
:0D1B6B00903A2EE0FA6020903A0CE4F0125F
:0E1B78000F11903A0CE0FA601190E6A0E0FA2E
:0C1B86004401F0903A2CE4F0A3F0801928
:0E1B920090E68AE4F0903A2EE0FA90E68BF0AE
:021BA0008009BA
:091BA20090E68AE4F090E68BF075
:0E1BAB005391EF90E65F7401F0D2E8D0D0D0F5
:0E1BB90001D000D007D006D005D004D003D054
:0C1BC70002D083D082D0F0D0E0D02032D9
:0C1BD300C020C0E0C0F0C082C083C0028F
:0E1BDF00C003C004C005C006C007C000C0019E
:0E1BED00C0D075D000C2E8903A30E0FA602017
:0D1BFB00903A30E4F090E6BFE0FB7A0090F5
:0E1C0800E6BEE0FC7D00903A2CEC4AF0ED4B7D
:051C1600A3F012127E94
:0D1C1B00121251903A2FE0FABA31028044C3
:051C2800BA3202803C0D
:051C2D00BA3902800538
:051C3200BA4237800BEF
:0B1C370090E68BE0F5821205A0802AE9
:0D1C4200903A2EE0FA6023903A0CE4F01284
:0E1C4F000FD8903A0CE0FA601490E6A0E0FA8C
:0C1C5D004401F0903A2CE4F0A3F0800366
:031C690012115FF6
:0E1C6C0090E68BE4F05391EF90E65F7402F087
:0E1C7A00903A2CE0FAA3E0FB4A700890E6A036
:051C8800E0FA4480F0C9
:0E1C8D00D2E8D0D0D001D000D007D006D005CC
:0E1C9B00D004D003D002D083D082D0F0D0E0AD
:031CA900D0203216
:0E1CAC00C0E0C082C0835391EF90E65F7404E5
:081CBA00F0D083D082D0E032AB
:0E1CC200C0E0C082C0835391EF90E65F7408CB
:081CD000F0D083D082D0E03295
:0E1CD800C0E0C082C0835391EF90E65F7410AD
:081CE600F0D083D082D0E0327F
:0E1CEE00C0E0C082C0835391EF90E65F742087
:081CFC00F0D083D082D0E03269
:0E1D0400C0E0C082C0835391EF90E65F744050
:081D1200F0D083D082D0E03252
:0E1D1A00C0E0C082C0835391EF90E65F7480FA
:081D2800F0D083D082D0E0323C
:0E1D300090E680E04408F090E6007412F09017
:0E1D3E000002120265538EF8D28143B202C237
:0E1D4C00AFC2E89000437402F09000447401AE
:0E1D5A00F090004574B8F090E668E04408F0A0
:0A1D68009001007402F07AA27B13D0
:0D1D72008B04900101ECF0900102EAF0906A
:0A1D7F0001047402F07A8F7B1A8BC6
:0E1D890004900105ECF0900106EAF0900108CC
:0A1D97007402F07AA57B1A8B049009
:0E1DA1000109ECF090010AEAF090010C7402C6
:0A1DAF00F07ABB7B1A8B0490010D43
:0E1DB900ECF090010EEAF09001107402F07A46
:0A1DC700D17B1A8B04900111ECF09F
:0C1DD100900112EAF09001147402F07A04
:0A1DDD00E77B1A8B04900115ECF06F
:0C1DE700900116EAF09001187402F07AE6
:0A1DF300FD7B1A8B04900119ECF03F
:0C1DFD0090011AEAF09001207402F07AC4
:0A1E0900137B1B8B04900121ECF009
:0C1E1300900122EAF09001247402F07AA1
:0A1E1F00D37B1B8B04900125ECF02F
:0C1E2900900126EAF09001287402F07A83
:0A1E3500AC7B1C8B04900129ECF03B
:0C1E3F0090012AEAF090012C7402F07A65
:0A1E4B00C27B1C8B0490012DECF00B
:0C1E550090012EEAF09001307402F07A47
:0A1E6100D87B1C8B04900131ECF0DB
:0C1E6B00900132EAF09001347402F07A29
:0A1E7700EE7B1C8B04900135ECF0AB
:0C1E8100900136EAF09001387402F07A0B
:0A1E8D00047B1D8B04900139ECF07A
:0C1E970090013AEAF090013C7402F07AED
:0A1EA3001A7B1D8B0490013DECF04A
:0E1EAD0090013EEAF05391EF90E65D747FF0F5
:0E1EBB0090E65CE0FA447FF090E65F74FFF082
:0E1EC90090E65E74FFF0D2E8D2AF90E611749E
:0E1ED700A0F00000000090E61074A0F00000E3
:0E1EE500000090E612E4F00000000090E6130A
:0E1EF300E4F00000000090E614E4F0000000AF
:0E1F01000090E615E4F000000000120A5D906A
:0D1F0F00E680E04482F090000A1202659026
:071F1C00E680E054F7F0221B
:0B1F2300121D30903A05E0FA70030236
:021F2E0020137E
:0C1F3000900000E4F5F012078675110423
:071F3C00903A2812061690EE
:0E1F43003A06E0FAA3E0FBEA24FCF582EB3458
:0E1F5100FFF583120869903A28E0FAA3E0FB3E
:0E1F5F00A3E0FCA3E0FD903A2874012AF0E410
:0E1F6D003BA3F0E43CA3F0E43DA3F0903A283F
:0E1F7B00E0FAA3E0FBA3E0FCA3E0FD903A082F
:0E1F8900E0FEA3E0FFA3E0F8A3E0F9C3EE9AA8
:0E1F9700EF9BE89CE99D4006EA4B4C4D700D17
:0D1FA500903A287401F0E4A3F0A3F0A3F03B
:0C1FB200900000E4F5F01208DF75110447
:071FBE00903A2812069190F1
:0E1FC5003A06E0FAA3E0FBEA24FCF582EB34D6
:0A1FD300FFF5831209AB120A4290D9
:0E1FDD003A28E0FAA3E0FBA3E0FCA3E08A822E
:0B1FEB008B838CF01208DF902019752A
:061FF600110D120691908E
:0E1FFC003A06E0FAA3E0FBEA24F3F582EB34A8
:09200A00FFF5831209AB120A4232
:0220130080FE4D
:0D20190048656C6C6F20576F726C6421007D
:052026005A544558006A
:0E202B00466C6173682064656D6F20666F728D
:0A2039002055464D20312E313100B4
:0820430064656661756C7400B0
:01204B000094
:0E204C0012010002FFFFFF401A2200010000F7
:04205A00010203017B
:0A205E000A060002FFFFFF40010028
:0E20680009022000010104C032090400000238
:0E207600FFFFFF0007058102000200070501C1
:042084000200020054
:02208800000056
:0E208A0009022000010104C032090400000216
:0E209800FFFFFF000705810240000007050161
:0420A60002400000F4
:0220AA00000034
:0420AC000403000029
:0220B00000002E
:0120B200002D
:0120B300FF2D
:0120B400002B
:0820B500000000000000000023
:06023700E478FFF6D8FD9B
:08021500790DE94400601B7A39
:05021D00019020B07803
:030222002C7592A6
:0A0225003AE493F2A308B8000205C2
:08022F0092D9F4DAF27592FF96
:08023D007800E84400600A7932
:03024500007592AF
:060248003AE4F309D8FCC2
:08024E00782CE84400600C79F3
:0B02560001903A00E4F0A3D8FCD9FAB4
:03020800758120DD
:0A020B00122015E5826003020203D1
:0420150075820022AE
:00000001FF
