:03020000020208EF
:0302610002020393
:050203001217B380FE9C
:03000000020200F9
:0100030032CA
:01000B0032C2
:0100130032BA
:01001B0032B2
:0100230032AA
:01002B0032A2
:01003300329A
:01003B003292
:01004300328A
:01004B003282
:01005300327A
:01005B003272
:01006300326A
:0101000032CC
:0101040032C8
:0101080032C4
:01010C0032C0
:0101100032BC
:0101140032B8
:0101180032B4
:0101200032AC
:0101240032A8
:0101280032A4
:01012C0032A0
:01013000329C
:010134003298
:010138003294
:01013C003290
:01014000328C
:010148003284
:01014C003280
:01015000327C
:010154003278
:010158003274
:01015C003270
:01016000326C
:01017000325C
:010174003258
:010178003254
:01017C003250
:01018000324C
:010184003248
:010188003244
:01018C003240
:01019000323C
:010194003238
:010198003234
:01019C003230
:0101A000322C
:0101A8003224
:0101AC003220
:0101B000321C
:0101B4003218
:0101B8003214
:010264002277
:08026500AE82AF837C007D0036
:0B026D00C3EC9EED9F50147AB07B04A0
:050278001ABAFF011B92
:0B027D00EA4B70F70CBC00E80D80E5B8
:010288002253
:08028900AE82AF837C007D0012
:0B029100C3EC9EED9F50147A0A7B0026
:05029C001ABAFF011B6E
:0B02A100EA4B70F70CBC00E80D80E594
:0102AC00222F
:0E02AD0075AF0790E67BE090E67CF0DAF32276
:0102BB002220
:0502BC00AF82BF180035
:0402C10050027F1850
:0702C500EF24C250027F3D4F
:0E02CC00D285D284D282C282C284D282C28201
:0402DA007E057D0020
:0302DE00BD080058
:0E02E1005013EE5401FC24FF9284D282C2829C
:0702EF00EEC313FE0D80E8D1
:0E02F600C285D282C282D282C282D282C282EB
:0E030400D285D284D282C282D282C2828F0679
:020312007F006A
:03031400BF08001F
:0E0317005013EE5401FD24FF9284D282C28264
:07032500EEC313FE0F80E898
:0E032C00C285D282C282D282C282D282C282B4
:0C033A00C284D285D282C282C285793290
:020346007A003B
:0E034800D282C282D282C282D282C282D2828B
:07035600C282DAEED9EA22AF
:04035D00D2A07F00AB
:0E03610090E68BE0FEC3EF9E5012EF2440F5B5
:0E036F0082E434E7F583E0F5B0B2A10F80E43C
:0C037D00C2A0903A03E4F0903A04F02291
:020389007F00F3
:0E038B00903A18E0FEC3EF9E5012EF2440F5AA
:0E03990082E434E7F583E590F0B2860F80E44D
:0E03A70090E740E0903A03F090E68AE4F09090
:0503B500E68BEEF022D2
:0203BA007F00C2
:0303BC00BFFF0080
:0D03BF00500B90E678E0FE20E0030F80F088
:0C03CC0090E678E0FF20E204EF20E10B57
:0B03D80090E678E04440F075820122BE
:0403E30075820022FD
:0203E7007F0095
:0303E900BFFF0053
:0D03EC00500B90E678E0FE20E0030F80F05B
:0E03F90090E678E0FF30E20B90E678E04440BA
:05040700F075820122E6
:04040C0075820022D3
:020410007F006B
:03041200BFFF0029
:0E041500500F90E678E0FE20E204758200228F
:030423000F80EC5B
:0404260075820122B8
:02042A007F0051
:03042C00BFFF000F
:0E042F00500F90E678E0FE20E6047582002271
:03043D000F80EC41
:04044000758201229E
:09044400AF82C3E49508E433FE25
:0E044D0090E678E04480F0C007C0061204106C
:0E045B00D006D00790E679EFF0C007C0061279
:0C04690003BAE582D006D0077012E50946
:0C047500600A90E678E04440F012042A8F
:04048100758200225E
:0E048500EE601090000AC007C006120289D077
:0504930006D00780B552
:0C049800E509600890E678E0FF4440F0C1
:0404A400758201223A
:0C04A800AE82AF837D00E50C7003F5828E
:0104B4002225
:0A04B5007508647509007582A2C085
:0E04BF0007C006C005120444E582D005D00631
:0704CD00D00760030205AF38
:0C04D400AC0B90E679ECF0C007C006C04D
:0E04E000051203BAE582D005D006D0076003EE
:0304EE000205AF55
:0C04F10090E679E50AF0C007C006C005DF
:0E04FD001203BAE582D005D006D007600302D4
:02050B0005AF3A
:0E050D0090E678E04440F0C007C006C005123A
:0D051B00042A90E678E04480F0120410906D
:0E052800E67974A3F01203BAE582D005D0067E
:0E053600D007707590E679E08E828F83F0C05A
:0E05440007C006C0051203E7E582D005D00609
:05055200D0077059FC08
:0C055700C3EC950C502A90E679E08E82EF
:0E0563008F83F0A3AE82AF83C007C006C00531
:0E057100C0041203E7E582D004D005D006D006
:08057F0007702D0C8C0580D0E3
:0E05870090E678E04420F090E679E0C005129E
:0E05950003E7E582D005701290E678E044405E
:0C05A300F090E679E0C00512042AD005B3
:0305AF008D822218
:0A05B200AE82AF837D00750864750A
:0C05BC0009007582A2C007C006C005122D
:0D05C8000444E582D005D006D00760030290
:0205D5000669B5
:0C05D700AC0E90E679ECF0C007C006C046
:0E05E300051203BAE582D005D006D0076003EA
:0305F10002066996
:0C05F40090E679E50DF0C007C006C005D8
:0E0600001203BAE582D005D006D007705CFC6C
:0C060E00C3EC950F50478E828F83E0FBF9
:0E061A00A3AE82AF8390E679EBF0903A0AE04F
:0D062800FAEB2AF0903A08E0FAA3E0FB900C
:0E0635003A0874012AF0E43BA3F0C007C006A7
:0E064300C005C0041203BAE582D004D005D071
:0A06510006D00770130C8C0580B36F
:0E065B0090E678E04440F0C00512042AD00575
:030669008D82225D
:0A066C00903A18E0FF903A06E0F51E
:060676000AA3E0F50B8F62
:0C067C000C90E740C0071204A8AE82D02A
:0E06880007903A06E0FCA3E0FD7B00903A06E6
:0A069600EF2CF0EB3DA3F08E822262
:0B06A000AF82903A06E0F50DA3E0F5F4
:0906AB000E8F0F90E740C007120A
:0E06B40005B2D007903A06E0FDA3E0FE7C0000
:0B06C200903A06EF2DF0EC3EA3F02272
:0D06CD00AF8290E6017480F0000000009004
:0E06DA00E670E4F090E671F0AEB45306F98ECF
:0E06E800B475B2B674904FF58043B408AEA05E
:0E06F6005306F78EA090000AC007120265D0CE
:0A0704000774024FF5807E007F00AD
:0E070E0020A2208E028F037C007D00C3EA949F
:0E071C00FFEB94FFEC9400ED64809480500796
:07072A000EBE00E00F80DDB0
:0707310030A2047FC8800222
:020738007F64DC
:0E073A00903A10EFF0903A0CE4F0A3F0A3F028
:07074800A3F0903A0BF02230
:06074F007582040206CDD4
:060755007582340206CD9E
:0D075B0043B410D2A490E600E054FDF0027B
:02076800074F39
:0E076A00D2A4D2A275B417903A007401F09098
:0E077800E600E04402F0900014120265C2A4F4
:0D07860075B2F475800075B30075B5FF9075
:0B0793003A05E0FF600543B201D28090
:0C079E009000321202657582000202BC5D
:0707AA0030A2047F1680025B
:0207B1007F0BBC
:0A07B300903A10E0FEEF2EF07F00F8
:0307BD00BF40003A
:0907C0005007D284C2840F80F4BA
:0E07C900D287D284C284D284C284D284C284F5
:0E07D700D284C28475B200AFB45307F78FB45A
:0807E500308105D28112076A80
:0607ED00D28143B202229A
:0C07F30085B31075B3FF903A18E0FE903B
:0E07FF003A0CE0FAA3E0FBA3E0FCA3E0FD8EC1
:0E080D000079007E007F00903A0CE82AF0E9A6
:0E081B003BA3F0EE3CA3F0EF3DA3F090E68B84
:0E082900E06022FA759B40759AE775AF079064
:070837003A0BE0F990E67BAB
:0E083E00E0F590D28429F9C284DAF5903A0BE5
:02084C00E9F0D1
:0B084E008510B390E68BE0FFBF400078
:0508590050030207AA94
:01085E002277
:0E085F00C0E0C082C083C007C006C005C00450
:0E086D00C003C002C001C000C0D075D000851D
:0C087B00B311C2E890E690E0FD7E009012
:0E088700E691E07B004206EB4205903A0CE061
:0E089500F9A3E0FAA3E0FBA3E0FC8E00ED3334
:0E08A30095E0FEFF903A0CE829F0ED3AA3F044
:0E08B100EE3BA3F0EF3CA3F075B3FF90E69191
:0E08BF00E0FA5407FB90E690E0340013F9EAEB
:0E08CD0013FAE913F9EA13FAE913F9EA13FA38
:0E08DB00759B00759AF075AF0790E67BEB6099
:0108E9000C02
:0C08EA00E0F590D284C284DBF7EA603AAB
:0E08F600E0F590D284C284E0F590D284C284F2
:0E090400E0F590D284C284E0F590D284C284E3
:0E091200E0F590D284C284E0F590D284C284D5
:0E092000E0F590D284C284E0F590D284C284C7
:02092E00DAC627
:0C0930008511B390E6497482F0000000CD
:0E093C0000AF915307EF8F9190E65F7410F0BB
:0E094A00D2E8D0D0D000D001D002D003D0042B
:0D095800D005D006D007D083D082D0E03289
:0E09650090E60174E2F090E6F3E4F090E6C351
:0E097300F090E6C1F090E6C27404F090E6C089
:0C098100744EF090E6F4E4F0759B197ED3
:0A098D00197F3A8F068E9A759E605E
:0D0997007E607FE48F068E9DC0027A2012E4
:0E09A40002ADD00290E6C6E4F090E6C77410F3
:0E09B200F090E6C8E4F090E6C9F090E6CAF0D6
:0E09C00090E6CBF090E6CCE4F090E6CDF0901F
:0E09CE00E60B7401F00000000090E604748057
:0E09DC00F00000000090E6047402F00000003D
:0E09EA000090E604E4F00000000090E618E43F
:0E09F800F00000000090E6187410F0000000FF
:0E0A06000090E6D27401F00000000090E6CEF1
:0E0A14007401F00000000090E6CFE4F0000056
:0E0A2200000090E6D0E4F00000000090E6D165
:0E0A3000E4F00000000090E6D474FFF0000037
:0E0A3E000000AFB25307EF8FB243B201C28087
:010A4C002287
:0E0A4D0090E6017480F090E60B7403F0000058
:0D0A5B00000090E6047480F00000000090A0
:0E0A6800E6047402F00000000090E604E4F0E2
:0E0A76000000000090E618E4F0000000009080
:0E0A8400E6497482F00000000090E64974829A
:0E0A9200F00000000090E6497482F0000000C1
:0E0AA0000090E6497482F000000000900132E0
:0D0AAE00E0903A14F0A3E4F0900131E090E4
:090ABB003A12F0A3E4F07E5F7F23
:0C0AC400088F05900131EDF0900132EE3A
:0E0AD000F0AF915307EF8F9190E65F7410F036
:010ADE0022F5
:01006C00286B
:01006D000191
:04006E005A54455843
:040072000A0D010171
:010076000089
:010077000187
:060078002300000000005F
:0C007E0000000000000000000000000076
:0A008A00303030303030303030308C
:010ADF0022F4
:0E0AE00090E683E4F090E6837420F07410F04A
:0E0AEE007430F07401F090E6837421F07411FE
:0E0AFC00F07431F07402F090E6837422F02260
:0A0B0A00AF82E51324E050037513D9
:010B14001FC1
:0D0B150090E6BFE0701090E6BEE0FEC395D4
:090B220013500690E6BEE0F51345
:0C0B2B0075AF078F9B85129A7E407FE714
:0D0B3700EE04F59E7E407FE70EBE00010F2C
:0A0B44008F9D90E67C7403F07F00A3
:0C0B4E00C3EF9513501190E67BE0FE9081
:0B0B5A00E67CF090E67CE4F00F80E900
:0B0B6500E5130425E0FF90E740F0904E
:0E0B7000E7417403F090E68AE4F090E68BEF24
:020B7E00F02263
:0E0B8000903A16E0FEA3E0FFC374409EE49F8F
:080B8E0050067C407D0080044C
:040B96008E048F0535
:0E0B9A00903A18ECF07D00903A16EEC39CF0F5
:050BA800EF9DA3F02207
:0B0BAD00903A59E0FFBF3103020C4BEF
:040BB800BF32012225
:060BBC00BF3403020C4EE1
:060BC200BF3503020C6BBD
:050BC800BF3902805757
:050BCD00BF8002800D55
:050BD200BF8302802436
:050BD700BF8402803F15
:030BDC00020CAE5A
:0E0BDF00903A01E4F0A3F0903A00E070012299
:0E0BED00C2A2900064120265903A00E4F02269
:0E0BFB00D2A290E6BAE0F5821202BC9000147D
:0B0C0900120265C2A2903A00E4F090D5
:070C14003A01F0A3E4F02215
:090C1B00903A007401F0D2A2220B
:0D0C2400903A0AE4F0903A08F0A3E4F09052
:0E0C3100E6BBE0FE7F0090E6BAE07C004207E2
:0C0C3F00EC4206903A06EFF0A3EEF02223
:030C4B0002075B42
:0E0C4E0012075B90E6A3E054FEF090E6F5740A
:0C0C5C00FFF0903A05E0FF6003020A4D33
:030C680002096519
:0E0C6B00903A05E0FF601C903A14E0FEA3E012
:0E0C7900900132EEF0903A12E0FEA3E0FF9000
:070C87000131EEF0020CAB9D
:0E0C8E00D280D28443B21090E6F574FFF000DD
:0E0C9C0000000090E601E0FF54F0F0000000C0
:010CAA000049
:030CAB000207AA93
:080CAE0090E6A0E04401F022F1
:0C0CB600C021C0E0C0F0C082C083C007B5
:0E0CC200C006C005C004C003C002C001C000CF
:0E0CD000C0D075D00090E6B9E0FF903A59F020
:0E0CDE0090E6B57401F090E6B9E0FF24F35003
:040CEC00030210826D
:070CF000EF2F2F900CF773AA
:070CF700020D1E020DD202E6
:060CFE001082020E4F02FD
:060D0400108202108202C1
:060D0A000EE702101802C2
:060D1000101A02102B0274
:060D160010300210410242
:020D1C0010467F
:0A0D1E0090E6B8E0FFBF8002800DF0
:050D2800BF8102801EE6
:050D2D00BF8202802FCF
:030D32000210822A
:0E0D350090E740E4F090E741F090E68AF090FD
:080D4300E68B7402F00210823D
:0E0D4B0090E740E4F090E741F090E68AF090E7
:080D5900E68B7402F002108227
:0C0D610090E6BCE0FF600FBF01028019AB
:050D6D00BF80028005BB
:050D7200BF812F801E6F
:0E0D770090E6A0E0FF53070190E740EFF08008
:010D85003A33
:0E0D860090E6A1E0FF53070190E740EFF080F8
:010D94002B33
:0E0D950090E6A2E0FF53070190E740EFF080E8
:010DA3001C33
:0E0DA40090E6BCE0C31314540324A3F582E4CC
:0E0DB20034E6F583E0FF53070190E740EFF0D1
:0E0DC00090E741E4F090E68AF090E68B740232
:040DCE00F00210829D
:0A0DD20090E6B8E0FFBF02028003C4
:030DDC0002108280
:090DDF0090E6BAE0600302108204
:0C0DE80090E6BCE0FF600FBF0102801528
:050DF400BF8002800534
:050DF900BF81238016FC
:0B0DFE0090E6A0E054FEFFF00210821F
:0B0E090090E6A1E054FEFFF002108212
:0B0E140090E6A2E054FEFFF002108206
:0E0E1F0090E6BCE0C31314540324A3FEE43495
:0E0E2D00E6FF90E6BCE0C31314540324A3F5C3
:0E0E3B0082E434E6F583E0FD5305FE8E828FDF
:060E490083EDF0021082AF
:0A0E4F0090E6B8E0FFBF0202800346
:030E590002108202
:090E5C0090E6BAE0600302108286
:0C0E650090E6BCE0FF600FBF01028014AB
:050E7100BF80028005B6
:050E7600BF8120801483
:0A0E7B0090E6A0E0FF4401F0804182
:0A0E850090E6A1E0FF4401F0803781
:0A0E8F0090E6A2E0FF4401F0802D80
:0E0E990090E6BCE0C31314540324A3FEE4341B
:0E0EA700E6FF90E6BCE0C31314540324A3F549
:0E0EB50082E434E6F583E0FD4305FE8E828F75
:030EC30083EDF0CC
:0E0EC60090E6BCE05480C423541FFF90E6BCAD
:0E0ED400E0FE740F5E420790E683EFF074209C
:050EE2004FF002108238
:0A0EE70090E6BBE0FFBF0102801996
:050EF100BF0202802891
:050EF600BF0302805360
:060EFB00BF0603020FCB4D
:060F0100BF0703020FDF31
:030F070002100EC7
:0A0F0A007E967F188F0690E6B3EE86
:0A0F1400F090E6B47496F00210822B
:0B0F1E0090E680E0FF30E7147EB27F19
:0C0F2900188F0690E6B3EEF090E6B4746A
:050F3500B2F002108281
:0A0F3A007EDA7F188F0690E6B3EE12
:0A0F4400F090E6B474DAF0021082B7
:0A0F4E0090E6BAE0FFBF0102800F39
:050F5800BF0202801E33
:050F5D00BF0302802D1E
:050F6200BF0452803CB9
:060F670075826A7E6A7FBC
:060F6D00188F068E1275BC
:060F73001305120B0A0237
:020F79001082E4
:060F7B0075826F7E6F7F9E
:060F8100188F068E1275A8
:060F8700131F120B0A0209
:020F8D001082D0
:0C0F8F0075828A7E8A7F008F068E1275A4
:060F9B00130A120B0A020A
:020FA1001082BC
:060FA30075828E7E8E7F38
:060FA900188F068E127580
:060FAF001308120B0A02F8
:020FB5001082A8
:0A0FB7007E027F198F0690E6B3EE6C
:0A0FC100F090E6B47402F002108212
:0A0FCB007EA87F188F0690E6B3EEB3
:0A0FD500F090E6B474A8F002108258
:0B0FDF0090E680E0FF30E7147EDA7F30
:0C0FEA00188F0690E6B3EEF090E6B474A9
:050FF600DAF002108298
:0A0FFB007EB27F188F0690E6B3EE79
:09100500F090E6B474B2F08074BE
:0A100E0090E6A0E0FF4401F0806AC4
:021018008068EE
:0E101A0090E740E4F090E68AF090E68B7401D7
:03102800F08057FE
:05102B00120AE08052F2
:0E10300090E740E4F090E68AF090E68B7401C1
:03103E00F08041FE
:05104100120AE0803CF2
:0E10460090E6B8E0FFBF823490E6BCE0C31332
:0B10540014540325E0245BF582E43413
:0C105F003AF583E4F0A3F090E685E09001
:0D106B00E740F090E684E0FF90E741F09050
:0A107800E68AE4F090E68B7402F0C3
:0B10820090E6B8E0FFBF40030212142C
:05108D00BFC00280035A
:0310920002124205
:0E10950090E6BFE0FE7F0090E6BEE07C0042E9
:0D10A30007EC4206903A16EFF0A3EEF012B3
:0C10B0000B8090E6B9E0FFBF2202802513
:0610BC00BF30030211A287
:0610C200BF33030211F32D
:0610C800BF3803021138DD
:0610CE00BF3A03021163AA
:0510D400BF8102802530
:0510D900BF8202802A25
:0310DE0002120AF1
:0E10E10090E6B5E4F090E68AF090E68B742875
:0D10EF00F090E6B3E4F090E6B4746CF0020B
:0210FC0012429E
:0A10FE00D287C28712038902124252
:06110800759B4F7E4F7F36
:0C110E00188F068E9A759E407E407FE789
:0E111A008F068E9DC0027A401202ADD0029068
:0E112800E68AE4F090E6BEE0FF90E68BF0026F
:02113600124263
:0E11380090E6BBE0FE7F0090E6BAE07C00424D
:0D11460007EC4206903A06EFF0A3EEF090A1
:0E115300E68AE4F012066CE58290E68BF0026C
:02116100124238
:0E116300903A08E0FEA3E0FF8E0590E740ED15
:0D117100F08F0690E741EEF0903A0AE09012
:0A117E00E742F075080075090175DD
:0D11880082A2120444AF8290E743EFF09082
:0D119500E68AE4F090E68B7404F00212424A
:0611A200759B0B7E0B7F24
:0C11A8003A8F068E9A759E417E417FE7CB
:0E11B4008F068E9DC0027A071202ADD002AFE8
:0E11C200B25307FD8FB230810C90E740E4F08D
:0711D000D28143B202800945
:0911D70090E7407401F012074F8B
:0E11E00090E7487401F090E68AE4F090E68B08
:0511EE007409F0804FC0
:0E11F30090E7407402F090E741E4F090E68A45
:09120100F090E68B7402F08038D5
:0A120A0090E6A0E0FF4401F0802E02
:0C12140090E6BFE0700690E6BEE0601AB5
:0E122000903A5A7401F090E68BE4F0AF9153CF
:0C122E0007EF8F9190E65D7401F0801DC9
:08123A00120BAD90E68BE4F00D
:0E124200AF915307EF8F9190E65D7401F0902D
:07125000E6A0E0FF4480F07E
:0E125700D0D0D000D001D002D003D004D005FA
:0D126500D006D007D083D082D0F0D0E0D0EA
:02127200213227
:0E127400C0E0C082C083C007C0D075D000AFFC
:0E128200915307EF8F9190E65D7402F0D0D08B
:09129000D007D083D082D0E032F7
:0E129900C0E0C082C083C007C0D075D000AFD7
:0E12A700915307EF8F9190E65D7404F0D0D064
:0912B500D007D083D082D0E032D2
:0E12BE00C0E0C082C083C007C0D075D000AFB2
:0E12CC00915307EF8F9190E65D7408F0D0D03B
:0912DA00D007D083D082D0E032AD
:0E12E300C0E0C082C083C007C0D075D000AF8D
:0E12F100915307EF8F9190E65D7410F0D0D00E
:0912FF00D007D083D082D0E03288
:0E130800C0E0C082C083C007C0D075D000AF67
:0E131600915307EF8F9190E65D7420F0D0D0D8
:09132400D007D083D082D0E03262
:0E132D00C0E0C082C083C007C0D075D000AF42
:0E133B00915307EF8F9190E65D7440F0D0D093
:09134900D007D083D082D0E0323D
:0C135200C021C0E0C0F0C082C083C00712
:0E135E00C006C005C004C003C002C001C0002C
:0E136C00C0D075D000C2E8120B80903A59E054
:06137A00FFBF30028037C6
:05138000BF33028032C2
:05138500BF38028014D6
:05138A00BF3A028028BB
:05138F00BF8102800592
:05139400BF8217801E5E
:05139900120389801918
:0E139E0090E68AE4F012066CE58290E68BF091
:0213AC008009B6
:0913AE0090E68AE4F090E68BF071
:0E13B700AF915307EF8F9190E65F7401F0D273
:0E13C500E8D0D0D000D001D002D003D004D0A8
:0E13D30005D006D007D083D082D0F0D0E0D075
:0213E1002132B7
:0C13E300C021C0E0C0F0C082C083C00781
:0E13EF00C006C005C004C003C002C001C0009B
:0E13FD00C0D075D000C2E8903A5AE0FF6022DE
:0D140B00903A5AE4F090E6BFE0FE7F0090BA
:0E141800E6BEE07C004207EC4206903A16EF7A
:07142600F0A3EEF0120BAD84
:0C142D00120B80903A59E0FFBF3103021F
:0214390014811C
:06143B00BF320302147E23
:06144100BF340302148118
:06144700BF350302148111
:06144D00BF390302147315
:05145300BF8002800EC5
:05145800BF8302800FBC
:06145D00BF8403021470BD
:03146300021481EF
:0614660012035D02148177
:04146C0000021481E5
:0314700000800EEB
:0B14730090E68BE0F5821206A08003DB
:03147E001207F35F
:0D14810090E68BE4F0AF915307EF8F919050
:0E148E00E65F7402F0903A16E0FEA3E0FF4E17
:0A149C00700890E6A0E0FF4480F025
:0E14A600D2E8D0D0D000D001D002D003D004C4
:0E14B400D005D006D007D083D082D0F0D0E093
:0314C200D0213204
:0E14C500C0E0C082C083C007C0D075D000AFA9
:0E14D300915307EF8F9190E65F7404F0D0D034
:0914E100D007D083D082D0E032A4
:0E14EA00C0E0C082C083C007C0D075D000AF84
:0E14F800915307EF8F9190E65F7408F0D0D00B
:09150600D007D083D082D0E0327E
:0E150F00C0E0C082C083C007C0D075D000AF5E
:0E151D00915307EF8F9190E65F7410F0D0D0DD
:09152B00D007D083D082D0E03259
:0E153400C0E0C082C083C007C0D075D000AF39
:0E154200915307EF8F9190E65F7420F0D0D0A8
:09155000D007D083D082D0E03234
:0E155900C0E0C082C083C007C0D075D000AF14
:0E156700915307EF8F9190E65F7440F0D0D063
:09157500D007D083D082D0E0320F
:0E157E00C0E0C082C083C007C0D075D000AFEF
:0E158C00915307EF8F9190E65F7480F0D0D0FE
:09159A00D007D083D082D0E032EA
:0E15A30090E680E04408F090E6007412F090AC
:0E15B1000002120265AF8E5307F88F8ED281B2
:0E15BF0043B202C2AFC2E89000437402F09043
:0E15CD0000447401F090004574B8F090E66898
:0C15DB00E04408F09001007402F07EB6BD
:0C15E7007F0C8F05900101EDF0900102D7
:0B15F300EEF09001047402F07E747FA3
:0C15FE00128F05900105EDF0900106EE43
:0A160A00F09001087402F07E997F51
:0C161400128F05900109EDF090010AEE24
:0A162000F090010C7402F07EBE7F12
:0C162A00128F0590010DEDF090010EEE06
:0A163600F09001107402F07EE37FD3
:0C164000128F05900111EDF0900112EEE8
:0A164C00F09001147402F07E087F94
:0C165600138F05900115EDF0900116EEC9
:0A166200F09001187402F07E2D7F55
:0C166C00138F05900119EDF090011AEEAB
:0A167800F09001207402F07E527F12
:0C168200138F05900121EDF0900122EE85
:0A168E00F09001247402F07EE37F67
:0C169800138F05900125EDF0900126EE67
:0A16A400F09001287402F07EC57F6B
:0C16AE00148F05900129EDF090012AEE48
:0A16BA00F090012C7402F07EEA7F2C
:0C16C400148F0590012DEDF090012EEE2A
:0A16D000F09001307402F07E0F7FED
:0C16DA00158F05900131EDF0900132EE0B
:0A16E600F09001347402F07E347FAE
:0C16F000158F05900135EDF0900136EEED
:0A16FC00F09001387402F07E597F6F
:0C170600158F05900139EDF090013AEECE
:0A171200F090013C7402F07E7E7F2F
:0C171C00158F0590013DEDF090013EEEB0
:0E172800F0AF915307EF8F9190E65D747FF064
:0E17360090E65CE0FF447FF090E65F74FFF009
:0E17440090E65E74FFF0D2E8D2AF90E611742A
:0E175200A0F00000000090E61074A0F000006F
:0D176000000090E61274A2F000000000905E
:0E176D00E613E4F00000000090E614E4F00043
:0E177B0000000090E615E4F000000000AFB2A0
:0E1789005307F78FB2308307903A05E4F080E3
:01179700064B
:06179800903A057401F017
:0E179E0090E680E04482F090000A120265900E
:0717AC00E680E054F7F02293
:0E17B3001215A3903A017401F0A3E4F07F0038
:0317C100BF010065
:0A17C4005010EF2400F582E4343ADF
:0817CE00F5837401F00F80EBBC
:0B17D6007F00903A03E4F0903A04F02A
:0E17E10090000AC007120265D007903A05E09A
:0E17EF00FE602E903A03E0FE903A04E0FDEE1C
:0517FD00B505028007A4
:071802007F19903A04EEF09B
:0C180900903A00E07007EF7004C200800D
:0118150002D0
:02181600D200FE
:08181800A2009280EF60011FA5
:0E182000903A01E0FDA3E0FE903A0174012D24
:0E182E00F0E43EA3F0903A01E0FDA3E0FEBD21
:0E183C0030A3BE75A0903A007401F0D2A280D5
:01184A009607
:0B184F00050010279001313D7F0001D3
:0E185A007A7465785F75666D315F3135643480
:01186800007F
:01186900007E
:05186A005A544558002E
:0E186F006274636D696E657220666F72205A36
:0E187D005445582046504741204D6F64756C0D
:03188B0065730082
:08188E0064656661756C74006D
:0E18960012010002FFFFFF401A2200010000B5
:0418A4000102030139
:0A18A8000A060002FFFFFF400100E6
:0E18B20009022700010104C0320904000003EE
:0E18C000FFFFFF00070581020002000705017F
:0B18CE000200020007050202000200F9
:0118D900000E
:0E18DA0009022700010104C0320904000003C6
:0E18E800FFFFFF000705810240000007050119
:0B18F600024000000705020240000055
:0119010000E5
:0419020004030000DA
:021906000000DF
:0119080000DE
:0E19090001880101010101070207020202022A
:0E191700020004000000000000040036000082
:041925000000003F7F
:0E192900020190010101010702020702020201
:0E193700020004000000000000040000360062
:041945000000003F5F
:01194900FF9E
:01194A00009C
:08194B00000000000000000094
:06023700E478FFF6D8FD9B
:08021500794DE94400601B7AF9
:05021D000190190678B4
:03022200167592BC
:0A0225003AE493F2A308B8000205C2
:08022F0092D9F4DAF27592FF96
:08023D007800E84400600A7932
:03024500007592AF
:060248003AE4F309D8FCC2
:08024E007816E84400600C7909
:0B02560001903A00E4F0A3D8FCD9FAB4
:03020800758121DC
:0A020B0012184BE5826003020203A3
:04184B007582002280
:00000001FF
