:03020000020208EF
:0302610002020393
:05020300121A3180FE1B
:03000000020200F9
:0100030032CA
:01000B0032C2
:0100130032BA
:01001B0032B2
:0100230032AA
:01002B0032A2
:01003300329A
:01003B003292
:01004300328A
:01004B003282
:01005300327A
:01005B003272
:01006300326A
:0101000032CC
:0101040032C8
:0101080032C4
:01010C0032C0
:0101100032BC
:0101140032B8
:0101180032B4
:0101200032AC
:0101240032A8
:0101280032A4
:01012C0032A0
:01013000329C
:010134003298
:010138003294
:01013C003290
:01014000328C
:010148003284
:01014C003280
:01015000327C
:010154003278
:010158003274
:01015C003270
:01016000326C
:01017000325C
:010174003258
:010178003254
:01017C003250
:01018000324C
:010184003248
:010188003244
:01018C003240
:01019000323C
:010194003238
:010198003234
:01019C003230
:0101A000322C
:0101A8003224
:0101AC003220
:0101B000321C
:0101B4003218
:0101B8003214
:010264002277
:08026500AE82AF837C007D0036
:0B026D00C3EC9EED9F50147AB07B04A0
:050278001ABAFF011B92
:0B027D00EA4B70F70CBC00E80D80E5B8
:010288002253
:08028900AE82AF837C007D0012
:0B029100C3EC9EED9F50147A0A7B0026
:05029C001ABAFF011B6E
:0B02A100EA4B70F70CBC00E80D80E594
:0102AC00222F
:0E02AD0075AF0790E67BE090E67CF0DAF32276
:0102BB002220
:0502BC00AF82BF180035
:0402C10050027F1850
:0702C500EF24C250027F3D4F
:0E02CC00D285D284D282C282C284D282C28201
:0402DA007E057D0020
:0302DE00BD080058
:0E02E1005013EE5401FC24FF9284D282C2829C
:0702EF00EEC313FE0D80E8D1
:0E02F600C285D282C282D282C282D282C282EB
:0E030400D285D284D282C282D282C2828F0679
:020312007F006A
:03031400BF08001F
:0E0317005013EE5401FD24FF9284D282C28264
:07032500EEC313FE0F80E898
:0E032C00C285D282C282D282C282D282C282B4
:0C033A00C284D285D282C282C285793290
:020346007A003B
:0E034800D282C282D282C282D282C282D2828B
:07035600C282DAEED9EA22AF
:04035D00D2A07F00AB
:0E03610090E68BE0FEC3EF9E5012EF2440F5B5
:0E036F0082E434E7F583E0F5B0B2A60F80E437
:03037D00C2A022F9
:020380007F00FC
:0E038200903A22E0FEC3EF9E5012EF2440F5A9
:0E03900082E434E7F583E590F0B2800F80E45C
:0B039E0090E68AE4F090E68BEEF0227F
:0203A9007F00D3
:0303AB00BFFF0091
:0D03AE00500B90E678E0FE20E0030F80F099
:0C03BB0090E678E0FF20E204EF20E10B68
:0B03C70090E678E04440F075820122CF
:0403D200758200220E
:0203D6007F00A6
:0303D800BFFF0064
:0D03DB00500B90E678E0FE20E0030F80F06C
:0E03E80090E678E0FF30E20B90E678E04440CB
:0503F600F075820122F8
:0403FB0075820022E5
:0203FF007F007D
:03040100BFFF003A
:0E040400500F90E678E0FE20E20475820022A0
:030412000F80EC6C
:0404150075820122C9
:020419007F0062
:03041B00BFFF0020
:0E041E00500F90E678E0FE20E6047582002282
:03042C000F80EC52
:04042F0075820122AF
:09043300AF82C3E49508E433FE36
:0E043C0090E678E04480F0C007C0061203FF8F
:0E044A00D006D00790E679EFF0C007C006128A
:0C04580003A9E582D006D0077012E50968
:0C046400600A90E678E04440F0120419B1
:04047000758200226F
:0E047400EE601090000AC007C006120289D088
:0504820006D00780B563
:0C048700E509600890E678E0FF4440F0D2
:04049300758201224B
:0C049700AE82AF837D00E50C7003F5829F
:0104A3002236
:0A04A4007508647509007582A2C096
:0E04AE0007C006C005120433E582D005D00653
:0704BC00D007600302059E5A
:0C04C300AC0B90E679ECF0C007C006C05E
:0E04CF00051203A9E582D005D006D007600310
:0304DD0002059E77
:0C04E00090E679E50AF0C007C006C005F0
:0E04EC001203A9E582D005D006D007600302F6
:0204FA00059E5D
:0E04FC0090E678E04440F0C007C006C005124C
:0D050A00041990E678E04480F01203FF90A1
:0E051700E67974A3F01203A9E582D005D006A0
:0E052500D007707590E679E08E828F83F0C06B
:0E05330007C006C0051203D6E582D005D0062B
:05054100D0077059FC19
:0C054600C3EC950C502A90E679E08E8200
:0E0552008F83F0A3AE82AF83C007C006C00542
:0E056000C0041203D6E582D004D005D006D028
:08056E0007702D0C8C0580D0F4
:0E05760090E678E04420F090E679E0C00512AF
:0E05840003D6E582D005701290E678E0444080
:0C059200F090E679E0C005120419D005D5
:03059E008D822229
:0A05A100AE82AF837D00750864751B
:0C05AB0009007582A2C007C006C005123E
:0D05B7000433E582D005D006D007600302B2
:0205C4000658D7
:0C05C600AC0E90E679ECF0C007C006C057
:0E05D200051203A9E582D005D006D00760030C
:0305E000020658B8
:0C05E30090E679E50DF0C007C006C005E9
:0E05EF001203A9E582D005D006D007705CFC8F
:0C05FD00C3EC950F50478E828F83E0FB0B
:0E060900A3AE82AF8390E679EBF0903A0EE05C
:0D061700FAEB2AF0903A0CE0FAA3E0FB9019
:0E0624003A0C74012AF0E43BA3F0C007C006B4
:0E063200C005C0041203A9E582D004D005D093
:0A06400006D00770130C8C0580B380
:0E064A0090E678E04440F0C005120419D00597
:030658008D82226E
:0A065B00903A22E0FF903A0AE0F521
:060665000AA3E0F50B8F73
:0C066B000C90E740C007120497AE82D04C
:0E06770007903A0AE0FCA3E0FD7B00903A0AEF
:0A068500EF2CF0EB3DA3F08E822273
:0B068F00AF82903A0AE0F50DA3E0F501
:09069A000E8F0F90E740C007121B
:0E06A30005A1D007903A0AE0FDA3E0FE7C001E
:0B06B100903A0AEF2DF0EC3EA3F0227F
:0C06BC00AE82AF837D00E5117003F58273
:0106C800220F
:0A06C9007508647509007582A6C06B
:0E06D30007C006C005120433E582D005D0062C
:0706E100D00760030207A629
:0C06E80090E679E510F0C007C006C005E0
:0E06F4001203A9E582D005D006D007600302EC
:0207020007A648
:0E07040090E678E04440F0C007C006C0051241
:0D071200041990E678E04480F01203FF9097
:0E071F00E67974A7F01203A9E582D005D00692
:0E072D00D007707590E679E08E828F83F0C061
:0E073B0007C006C0051203D6E582D005D00621
:05074900D0077059FC0F
:0C074E00C3EC9511502A90E679E08E82F1
:0E075A008F83F0A3AE82AF83C007C006C00538
:0E076800C0041203D6E582D004D005D006D01E
:0807760007702D0C8C0580D0EA
:0E077E0090E678E04420F090E679E0C00512A5
:0E078C0003D6E582D005701290E678E0444076
:0C079A00F090E679E0C005120419D005CB
:0307A6008D82221F
:0A07A900AE82AF837D007508647511
:0C07B30009007582A6C007C006C0051230
:0D07BF000433E582D005D006D007705A90B3
:0C07CC00E679E512F0C007C006C0051277
:0D07D80003A9E582D005D006D0077041FCD2
:0C07E500C3EC9513502C8E828F83E0FB38
:0E07F100A3AE82AF8390E679EBF0C007C0069E
:0E07FF00C005C0041203A9E582D004D005D0C5
:0A080D0006D00770130C8C0580CE96
:0E08170090E678E04440F0C005120419D005C8
:030825008D82229F
:07082800903A22E0F5119067
:09082F003A0FE0F51090E74002D9
:0208380006BCFC
:0E083A0075B11F75B6FF903A17E4F0903A16AC
:0E084800F0903A187410F0903A197410F09075
:060856003A1A7401F022C1
:0E085C0090E6017480F00000000090E670E469
:0E086A00F090E671F0D2A243B404AFB253078F
:0E087800BF8FB2AFB45307FD8FB4C2A343B419
:0E0886000843B2AEC28543808E903A1AE0F469
:0E089400FF53070F903A19E04FF5B175B6FF0C
:0E08A200900001120265C287C281903A19E0EF
:0E08B000FF740F4FF5B1AFB45307FB8FB47E4A
:0308BE00007F00B8
:0E08C10020A2208E028F037C007D00C3EA94EB
:0E08CF00FFEB94FFEC9400ED648094805007E2
:0708DD000EBE00E00F80DDFC
:0708E40030A2047FC880026E
:0208EB007F6428
:0E08ED00903A15EFF0903A11E4F0A3F0A3F06A
:0708FB00A3F0903A10F02277
:0809020043B410D2A402085C0A
:0C090A00D2A4D2A575B475903A16E02472
:0A09160000F582E4343AF583740121
:0E092000F0C2A475B2B575800075B30075B550
:0D092E00FF9000321202657582000202BCCB
:0B093B00903A15E0FF74162FF07F00CB
:03094600BFFF00F0
:090949005007D281C2810F80F435
:0E095200D287D284C284D284C284D284C2846A
:0E096000D284C284AFB25307718FB2AFB453CA
:0E096E0007F78FB475B6F0903A1AE0FF55B156
:07097C00FEB5070312090A92
:0E098300903A18E0FF740F4FF5B175B6FF22E1
:0C09910085B31475B3FF903A22E0FE908D
:0E099D003A11E0FAA3E0FBA3E0FCA3E0FD8E1C
:0E09AB000079007E007F00903A11E82AF0E902
:0E09B9003BA3F0EE3CA3F0EF3DA3F090E68BE5
:0E09C700E06022FA759B40759AE775AF0790C5
:0709D5003A10E0F990E67B07
:0E09DC00E0F590D28129F9C281DAF5903A1047
:0209EA00E9F032
:0B09EC008514B390E68BE0FFBF4000D5
:0509F700500302093B62
:0109FC0022D8
:0E09FD0090E60174C2F090E6F3E4F090E6C3D9
:0E0A0B00F090E6C1F090E6C27420F090E6C0D4
:0C0A1900744EF090E6F4E4F0759B237E30
:0A0A2500237F3A8F068E9A759E60BB
:0D0A2F007E607FE48F068E9DC0027A20124B
:0E0A3C0002ADD00290E6C6E4F090E6C774105A
:0E0A4A00F090E6C8E4F090E6C9F090E6CAF03D
:0E0A580090E6CBF090E6CCE4F090E6CDF09086
:0E0A6600E60B7401F00000000090E6047480BE
:0E0A7400F00000000090E6047402F0000000A4
:0E0A82000090E604E4F00000000090E618E4A6
:0E0A9000F00000000090E6187410F000000066
:0E0A9E000090E6D27401F00000000090E6CE59
:0E0AAC007401F00000000090E6CFE4F00000BE
:0E0ABA00000090E6D0E4F00000000090E6D1CD
:0E0AC800E4F00000000090E6D474FFF000009F
:050AD6000000C28322B4
:0E0ADB00AF82903A16E0903A17F074035FFE77
:0C0AE900903A16F08FF005F074108002B7
:020AF50025E0FA
:0E0AF700D5F0FBFF903A18F0903A19EFF07529
:0C0B0500B10F903A17E02406F582E434AA
:0A0B11003AF583E5A0F0EE2406F5A6
:0C0B1B0082E4343AF583E0F5A0740F4F3B
:030B2700F5B12203
:01006C00286B
:01006D000191
:04006E005A54455843
:040072000A0F01026E
:010076000089
:010077000187
:06007800E300000000009F
:0C007E0000000000000000000000000076
:0A008A00303030303030303030308C
:010B2A0022A8
:0E0B2B0090E678E04480F01203FF90E67974C3
:0A0B390090F01203A9E5826001228A
:0E0B430090E6797444F01203A9E58260012265
:0E0B510090E6797414F090E678E04440F012DB
:070B5F000419E58260012288
:080B6600900079E04401F02247
:0E0B6E0090E683E4F090E6837420F07410F0BB
:0E0B7C007430F07401F090E6837421F074116F
:0E0B8A00F07431F07402F090E6837422F022D1
:0A0B9800AF82E51624E05003751645
:010BA2001F33
:0D0BA30090E6BFE0701090E6BEE0FEC39546
:090BB00016500690E6BEE0F516B1
:0C0BB90075AF078F9B85159A7E407FE783
:0D0BC500EE04F59E7E407FE70EBE00010F9E
:0A0BD2008F9D90E67C7403F07F0015
:0C0BDC00C3EF9516501190E67BE0FE90F0
:0B0BE800E67CF090E67CE4F00F80E972
:0B0BF300E5160425E0FF90E740F090BD
:0E0BFE00E7417403F090E68AE4F090E68BEF96
:020C0C00F022D4
:0E0C0E00903A20E0FEA3E0FFC374409EE49FF6
:080C1C0050067C407D008004BD
:040C24008E048F05A6
:0E0C2800903A22ECF07D00903A20EEC39CF052
:050C3600EF9DA3F02278
:0B0C3B00903A63E0FFBF3103020D1987
:040C4600BF32012296
:060C4A00BF3403020D1C83
:060C5000BF3503020D2F69
:060C5600BF3903020CE9A6
:060C5C00BF3C03020D1075
:060C6200BF5103020D4A20
:050C6800BF8002800DB9
:050C6D00BF8302803A84
:050C7200BF8402805F59
:030C7700020D6FFC
:0C0C7A00903A04E4F0A3F0903A16E02455
:0A0C860000FFE4343AFE8F828E83F3
:040C9000E0700122ED
:0D0C9400C2A5900064120265903A16E0249B
:0A0CA10000F582E4343AF583E4F034
:010CAB002226
:0E0CAC00D2A590E6BAE0F5821202BC900014C8
:0A0CBA00120265C2A5903A16E0246C
:0A0CC40000F582E4343AF583E4F011
:080CCE00903A04F0A3E4F022C7
:0A0CD600903A16E02400F582E434A1
:090CE0003AF5837401F0D2A5225B
:0D0CE900903A0EE4F0903A0CF0A3E4F09085
:0E0CF600E6BBE0FE7F0090E6BAE07C0042071D
:0C0D0400EC4206903A0AEFF0A3EEF02259
:090D100090E6BAE0903A0FF022DF
:030D1900020902CA
:0E0D1C0012090290E6A3E054FEF090E6F57492
:050D2A00FFF00209FDCD
:0D0D2F00D28390E6F574FFF0000000009004
:0E0D3C00E601E0FF54F0F00000000002093B69
:0E0D4A0090E6BCE0FFBF0108903A1974F0F08B
:020D5800800910
:090D5A0090E6BAE0F582120ADB12
:0C0D6300903A19E0C4540F903A1AF022A4
:080D6F0090E6A0E04401F0222F
:0C0D7700C020C0E0C0F0C082C083C007F4
:0E0D8300C006C005C004C003C002C001C0000D
:0E0D9100C0D075D00090E6B9E0FF903A63F054
:0E0D9F0090E6B57401F090E6B9E0FF24F35041
:040DAD0003021143E9
:070DB100EF2F2F900DB87326
:070DB800020DDF020E9302A1
:060DBF001143020F1002B7
:060DC5001143021143027C
:060DCB000FA80210D9027E
:060DD10010DB0210EC0231
:060DD70010F102110202FE
:020DDD001107FC
:0A0DDF0090E6B8E0FFBF8002800D2F
:050DE900BF8102801E25
:050DEE00BF8202802F0E
:030DF300021143A7
:0E0DF60090E740E4F090E741F090E68AF0903C
:080E0400E68B7402F0021143B9
:0E0E0C0090E740E4F090E741F090E68AF09025
:080E1A00E68B7402F0021143A3
:0C0E220090E6BCE0FF600FBF01028019E9
:050E2E00BF80028005F9
:050E3300BF812F801EAD
:0E0E380090E6A0E0FF53070190E740EFF08046
:010E46003A71
:0E0E470090E6A1E0FF53070190E740EFF08036
:010E55002B71
:0E0E560090E6A2E0FF53070190E740EFF08026
:010E64001C71
:0E0E650090E6BCE0C31314540324A3F582E40A
:0E0E730034E6F583E0FF53070190E740EFF00F
:0E0E810090E741E4F090E68AF090E68B740270
:040E8F00F002114319
:0A0E930090E6B8E0FFBF0202800302
:030E9D00021143FC
:090EA00090E6BAE0600302114380
:0C0EA90090E6BCE0FF600FBF0102801566
:050EB500BF8002800572
:050EBA00BF812380163A
:0B0EBF0090E6A0E054FEFFF00211439B
:0B0ECA0090E6A1E054FEFFF00211438F
:0B0ED50090E6A2E054FEFFF002114383
:0E0EE00090E6BCE0C31314540324A3FEE434D4
:0E0EEE00E6FF90E6BCE0C31314540324A3F502
:0E0EFC0082E434E6F583E0FD5305FE8E828F1E
:060F0A0083EDF00211432B
:0A0F100090E6B8E0FFBF0202800384
:030F1A000211437E
:090F1D0090E6BAE0600302114302
:0C0F260090E6BCE0FF600FBF01028014E9
:050F3200BF80028005F4
:050F3700BF81208014C1
:0A0F3C0090E6A0E0FF4401F08041C0
:0A0F460090E6A1E0FF4401F08037BF
:0A0F500090E6A2E0FF4401F0802DBE
:0E0F5A0090E6BCE0C31314540324A3FEE43459
:0E0F6800E6FF90E6BCE0C31314540324A3F587
:0E0F760082E434E6F583E0FD4305FE8E828FB3
:030F840083EDF00A
:0E0F870090E6BCE05480C423541FFF90E6BCEB
:0E0F9500E0FE740F5E420790E683EFF07420DA
:050FA3004FF0021143B4
:0A0FA80090E6BBE0FFBF01028019D4
:050FB200BF02028028CF
:050FB700BF030280539E
:060FBC00BF060302108CC9
:060FC200BF07030210A0AE
:030FC8000210CF45
:0A0FCB007EF87F1A8F0690E6B3EE61
:0A0FD500F090E6B474F8F002114346
:0B0FDF0090E680E0FF30E7147E147FF6
:0C0FEA001B8F0690E6B3EEF090E6B474A6
:050FF60014F00211439C
:0A0FFB007E3C7F1B8F0690E6B3EEEC
:0A100500F090E6B4743CF0021143D1
:0A100F0090E6BAE0FFBF0102800F77
:05101900BF0202801E71
:05101E00BF0302802D5C
:05102300BF0452803CF7
:061028007582CC7ECC7F36
:06102E001A8F068E1575F5
:061034001605120B9802E4
:02103A00114360
:06103C007582D17ED17F18
:061042001A8F068E1575E1
:06104800161F120B9802B6
:02104E0011434C
:0C10500075828A7E8A7F008F068E1575DF
:06105C00160A120B9802B7
:02106200114338
:061064007582F07EF07FB2
:06106A001A8F068E1575B9
:061070001608120B9802A5
:02107600114324
:0A1078007E647F1B8F0690E6B3EE46
:0A108200F090E6B47464F00211432C
:0A108C007E0A7F1B8F0690E6B3EE8C
:0A109600F090E6B4740AF002114372
:0B10A00090E680E0FF30E7147E3C7F0C
:0C10AB001B8F0690E6B3EEF090E6B474E4
:0510B7003CF0021143B2
:0A10BC007E147F1B8F0690E6B3EE52
:0910C600F090E6B47414F080749B
:0A10CF0090E6A0E0FF4401F0806A03
:0210D90080682D
:0E10DB0090E740E4F090E68AF090E68B740116
:0310E900F080573D
:0510EC00120B6E8052A2
:0E10F10090E740E4F090E68AF090E68B740100
:0310FF00F080413D
:05110200120B6E803CA1
:0E11070090E6B8E0FFBF823490E6BCE0C31370
:0B11150014540325E02465F582E43447
:0C1120003AF583E4F0A3F090E685E0903F
:0D112C00E740F090E684E0FF90E741F0908E
:0A113900E68AE4F090E68B7402F001
:0B11430090E6B8E0FFBF40030213EF8E
:05114E00BFC002800398
:0311530002141D66
:0E11560090E6BFE0FE7F0090E6BEE07C004227
:0D11640007EC4206903A20EFF0A3EEF012E7
:0C1171000C0E90E6B9E0FFBF2202803DAA
:06117D00BF30030212B5B1
:06118300BF330302131547
:06118900BF380302121141
:06118F00BF3A0302123C0E
:06119500BF3B0302127BC8
:06119B00BF3D03021294A7
:0611A100BF500302132DF4
:0611A700BF580302134EC5
:0511AD00BF8102802556
:0511B200BF8202802A4B
:0311B7000213E53B
:0E11BA0090E6B5E4F090E68AF090E68B74289B
:0D11C800F090E6B3E4F090E6B4746CF00231
:0211D500141DE7
:0A11D700D287C28712038002141DA4
:0611E100759BB17EB17F99
:0C11E7001A8F068E9A759E407E407FE7AE
:0E11F3008F068E9DC0027A401202ADD002908F
:0E120100E68AE4F090E6BEE0FF90E68BF00295
:02120F00141DAC
:0E12110090E6BBE0FE7F0090E6BAE07C004273
:0D121F0007EC4206903A0AEFF0A3EEF090C3
:0E122C00E68AE4F012065BE58290E68BF002A3
:02123A00141D81
:0E123C00903A0CE0FEA3E0FF8E0590E740ED37
:0D124A00F08F0690E741EEF0903A0EE09034
:0A125700E742F07508007509017503
:0D12610082A2120433AF8290E743EFF090B9
:0D126E00E68AE4F090E68B7404F002141D93
:0E127B0090E6BAE0903A0FF090E68AE4F012A6
:0B1289000828E58290E68BF002141D9F
:0A1294007508007509017582A612A5
:0E129E000433AF8290E740EFF090E68AE4F070
:0912AC0090E68B7401F002141DA0
:0612B500759B107E107F06
:0C12BB003A8F068E9A759E417E417FE7B7
:0E12C7008F068E9DC0027A061202ADD002750F
:0E12D500B6F0903A1AE0FF55B1FEB50714903E
:0E12E300E740E4F0903A18E0FF740F4FF5B1C9
:0512F10075B6FF800945
:0912F60090E7407401F012085C5D
:0E12FF0090E747E4F090E748F090E68AF09020
:08130D00E68B7409F002141DC7
:0E13150090E7407402F090E741E4F090E68A21
:0A132300F090E68B7402F002141D36
:0E132D0090E7407403F0903A16E0FF90E7411D
:0E133B00F090E742E4F090E68AF090E68B74C2
:0513490003F002141D79
:0E134E0090E678E04480F01203FF90E6797498
:0E135C0091F01203A990E7407401F090E67939
:0D136A00E090E741F01203D690E679E090A4
:0E137700E741F01203D690E679E090E742F0ED
:0E1385001203D690E679E090E743F01203D60B
:0E13930090E679E090E744F01203D690E679F8
:0D13A100E090E741F01203D690E679E0906D
:0E13AE00E742F01203D690E678E04420F0907B
:0E13BC00E679E090E743F01203D690E678E081
:0E13CA004440F090E679E090E744F0120419F8
:0D13D80090E68AE4F090E68B7405F0803812
:0A13E50090E6A0E0FF4401F0802E26
:0C13EF0090E6BFE0700690E6BEE0601AD9
:0E13FB00903A647401F090E68BE4F0AF9153E9
:0C14090007EF8F9190E65D7401F0801DEC
:08141500120C3B90E68BE4F0A1
:0E141D00AF915307EF8F9190E65D7401F09050
:07142B00E6A0E0FF4480F0A1
:0E143200D0D0D000D001D002D003D004D0051D
:0D144000D006D007D083D082D0F0D0E0D00D
:02144D0020324B
:0E144F00C0E0C082C083C007C0D075D000AF1F
:0E145D00915307EF8F9190E65D7402F0D0D0AE
:09146B00D007D083D082D0E0321A
:0E147400C0E0C082C083C007C0D075D000AFFA
:0E148200915307EF8F9190E65D7404F0D0D087
:09149000D007D083D082D0E032F5
:0E149900C0E0C082C083C007C0D075D000AFD5
:0E14A700915307EF8F9190E65D7408F0D0D05E
:0914B500D007D083D082D0E032D0
:0E14BE00C0E0C082C083C007C0D075D000AFB0
:0E14CC00915307EF8F9190E65D7410F0D0D031
:0914DA00D007D083D082D0E032AB
:0E14E300C0E0C082C083C007C0D075D000AF8B
:0E14F100915307EF8F9190E65D7420F0D0D0FC
:0914FF00D007D083D082D0E03286
:0E150800C0E0C082C083C007C0D075D000AF65
:0E151600915307EF8F9190E65D7440F0D0D0B6
:09152400D007D083D082D0E03260
:0C152D00C020C0E0C0F0C082C083C00736
:0E153900C006C005C004C003C002C001C0004F
:0E154700C0D075D000C2E8120C0E903A63E0DE
:06155500FFBF3002805BC5
:05155B00BF33028056C1
:05156000BF38028028E5
:05156500BF3A02804CBA
:05156A00BF3B02802ED2
:05156F00BF3D028042B7
:05157400BF5002803DA4
:05157900BF580280389C
:05157E00BF81028005A1
:05158300BF8227802E4D
:05158800120380802920
:0E158D0090E68AE4F012065BE58290E68BF0B1
:02159B008019B5
:0E159D0090E68AE4F0120828E58290E68BF0D2
:0215AB008009B5
:0915AD0090E68AE4F090E68BF070
:0E15B600AF915307EF8F9190E65F7401F0D272
:0E15C400E8D0D0D000D001D002D003D004D0A7
:0E15D20005D006D007D083D082D0F0D0E0D074
:0215E0002032B7
:0C15E200C020C0E0C0F0C082C083C00781
:0E15EE00C006C005C004C003C002C001C0009A
:0E15FC00C0D075D000C2E8903A64E0FF6022D3
:0D160A00903A64E4F090E6BFE0FE7F0090AF
:0E161700E6BEE07C004207EC4206903A20EF6F
:07162500F0A3EEF0120C3BF4
:0C162C00120C0E903A63E0FFBF31030285
:0216380016A7F3
:06163A00BF32030216A0FE
:06164000BF34030216A7EF
:06164600BF35030216A7E8
:06164C00BF390302167F06
:06165200BF3C0302168BF1
:06165800BF51030216A6BB
:05165E00BF8002800EB8
:05166300BF8302800FAF
:06166800BF840302167BA3
:03166E000216A7BA
:0616710012035D0216A742
:04167700000216A7B0
:04167B00000216A7AC
:0C167F0090E68BE0F58212068F0216A7A1
:0B168B00903A0FE0F51290E68BE0F5BE
:081696001390E7401207A902BE
:02169E0016A78D
:0616A0001209910216A7D9
:0116A6000043
:0D16A70090E68BE4F0AF915307EF8F919028
:0E16B400E65F7402F0903A20E0FEA3E0FF4EE5
:0A16C200700890E6A0E0FF4480F0FD
:0E16CC00D2E8D0D0D000D001D002D003D0049C
:0E16DA00D005D006D007D083D082D0F0D0E06B
:0316E800D02032DD
:0E16EB00C0E0C082C083C007C0D075D000AF81
:0E16F900915307EF8F9190E65F7404F0D0D00C
:09170700D007D083D082D0E0327B
:0E171000C0E0C082C083C007C0D075D000AF5B
:0E171E00915307EF8F9190E65F7408F0D0D0E2
:09172C00D007D083D082D0E03256
:0E173500C0E0C082C083C007C0D075D000AF36
:0E174300915307EF8F9190E65F7410F0D0D0B5
:09175100D007D083D082D0E03231
:0E175A00C0E0C082C083C007C0D075D000AF11
:0E176800915307EF8F9190E65F7420F0D0D080
:09177600D007D083D082D0E0320C
:0E177F00C0E0C082C083C007C0D075D000AFEC
:0E178D00915307EF8F9190E65F7440F0D0D03B
:09179B00D007D083D082D0E032E7
:0E17A400C0E0C082C083C007C0D075D000AFC7
:0E17B200915307EF8F9190E65F7480F0D0D0D6
:0917C000D007D083D082D0E032C2
:0217C9007F009F
:0317CB00BF0A0052
:0E17CE005012EF248AF582E43400F583E0FE29
:0617DC00BE30540F80E94D
:0717E2007510FB7511059065
:0917E9003A1B1206BC7F007E00D1
:0317F200BE050031
:0A17F500503CEE241BF582E4343A68
:0E17FF00F583E0FDEF248AFBE43400FCEDC42A
:0E180D00540F901B6893FA8B828C83F00FEFC0
:0E181B00248AFBE43400FC740F5D901B68937C
:0A182900FD8B828C83F00F0E80BF50
:011833002292
:0E18340090E680E04408F090E6007412F09018
:0D1842000002120265AF8E5307F88F8E1260
:0D184F00083AC2AFC2E89000437402F09066
:0E185C0000447401F090004574B8F090E66806
:0C186A00E04408F09001007402F07E776A
:0C1876007F0D8F05900101EDF090010244
:0B188200EEF09001047402F07E4F7F36
:0C188D00148F05900105EDF0900106EEAF
:0A189900F09001087402F07E747FE5
:0C18A300148F05900109EDF090010AEE91
:0A18AF00F090010C7402F07E997FA6
:0C18B900148F0590010DEDF090010EEE73
:0A18C500F09001107402F07EBE7F67
:0C18CF00148F05900111EDF0900112EE55
:0A18DB00F09001147402F07EE37F28
:0C18E500148F05900115EDF0900116EE37
:0A18F100F09001187402F07E087FE9
:0C18FB00158F05900119EDF090011AEE18
:0A190700F09001207402F07E2D7FA5
:0C191100158F05900121EDF0900122EEF1
:0A191D00F09001247402F07EE27FD6
:0C192700158F05900125EDF0900126EED3
:0A193300F09001287402F07EEB7FB3
:0C193D00168F05900129EDF090012AEEB4
:0A194900F090012C7402F07E107F74
:0C195300178F0590012DEDF090012EEE95
:0A195F00F09001307402F07E357F35
:0C196900178F05900131EDF0900132EE77
:0A197500F09001347402F07E5A7FF6
:0C197F00178F05900135EDF0900136EE59
:0A198B00F09001387402F07E7F7FB7
:0C199500178F05900139EDF090013AEE3B
:0A19A100F090013C7402F07EA47F78
:0C19AB00178F0590013DEDF090013EEE1D
:0E19B700F0AF915307EF8F9190E65D747FF0D3
:0E19C50090E65CE0FF447FF090E65F74FFF078
:0E19D30090E65E74FFF0D2E8D2AF90E6117499
:0E19E100A0F00000000090E61074A0F00000DE
:0D19EF00000090E61274A2F00000000090CD
:0E19FC00E613E4F00000000090E614E4F000B2
:0D1A0A0000000090E615E4F000000000125E
:0D1A170017C9120B2B90E680E04482F0907E
:0D1A2400000A12026590E680E054F7F022FF
:0E1A3100121834903A047401F0A3E4F07F0020
:031A3F00BF0400E1
:0A1A42005010EF2400F582E4343A5E
:081A4C00F5837401F00F80EB3B
:0E1A540090000A120265903A04E0FEA3E0FF43
:0E1A6200903A0474012EF0E43FA3F0903A0491
:0E1A7000E0FEA3E0FFBE30DCBF75D9903A1651
:041A7E00E0FF7E0007
:031A8200BE04009F
:0E1A8500501F8E82C007C006120ADBD006D0AA
:0A1A930007EE2400F582E4343AF572
:091A9D00837401F0D2A50E80DC77
:071AA6008F82120ADB80A70A
:0B1AB100050010279001313D7F00016F
:0E1ABC007A7465785F75666D315F313579310A
:011ACA00001B
:011ACB00001A
:051ACC005A54455800CA
:0E1AD1006C74636D696E657220666F72205AC8
:0E1ADF005445582046504741204D6F64756CA9
:031AED006573001E
:081AF00064656661756C740009
:0E1AF80012010002FFFFFF401A220001000051
:041B060001020301D4
:0A1B0A000A060002FFFFFF40010081
:0E1B140009022700010104C032090400000389
:0E1B2200FFFFFF00070581020002000705011A
:0B1B3000020002000705020200020094
:011B3B0000A9
:0E1B3C0009022700010104C032090400000361
:0E1B4A00FFFFFF0007058102400000070501B4
:0B1B58000240000007050202400000F0
:011B63000081
:041B64000403000076
:0E1B6800303132333435363738394142434458
:031B7600454600E1
:021B790000006A
:011B7B000069
:0E1B7C000188010101010107020702020202B5
:0E1B8A000200200000000000002000360000D5
:041B98000000003F0A
:0E1B9C0002019001010101070202070202028C
:0E1BAA000200200000000000002000003600B5
:041BB8000000003FEA
:011BBC00FF29
:011BBD000027
:081BBE0000000000000000001F
:06023700E478FFF6D8FD9B
:08021500794DE94400601B7AF9
:05021D0001901B79783F
:03022200207592B2
:0A0225003AE493F2A308B8000205C2
:08022F0092D9F4DAF27592FF96
:08023D007800E84400600A7932
:03024500007592AF
:060248003AE4F309D8FCC2
:08024E007820E84400600C79FF
:0B02560001903A00E4F0A3D8FCD9FAB4
:03020800758120DD
:0A020B00121AADE58260030202033F
:041AAD00758200221C
:00000001FF
