:03020000020208EF
:0302610002020393
:050203001217BB80FE94
:03000000020200F9
:0100030032CA
:01000B0032C2
:0100130032BA
:01001B0032B2
:0100230032AA
:01002B0032A2
:01003300329A
:01003B003292
:01004300328A
:01004B003282
:01005300327A
:01005B003272
:01006300326A
:0101000032CC
:0101040032C8
:0101080032C4
:01010C0032C0
:0101100032BC
:0101140032B8
:0101180032B4
:0101200032AC
:0101240032A8
:0101280032A4
:01012C0032A0
:01013000329C
:010134003298
:010138003294
:01013C003290
:01014000328C
:010148003284
:01014C003280
:01015000327C
:010154003278
:010158003274
:01015C003270
:01016000326C
:01017000325C
:010174003258
:010178003254
:01017C003250
:01018000324C
:010184003248
:010188003244
:01018C003240
:01019000323C
:010194003238
:010198003234
:01019C003230
:0101A000322C
:0101A8003224
:0101AC003220
:0101B000321C
:0101B4003218
:0101B8003214
:010264002277
:08026500AE82AF837C007D0036
:0B026D00C3EC9EED9F50147AB07B04A0
:050278001ABAFF011B92
:0B027D00EA4B70F70CBC00E80D80E5B8
:010288002253
:08028900AE82AF837C007D0012
:0B029100C3EC9EED9F50147A0A7B0026
:05029C001ABAFF011B6E
:0B02A100EA4B70F70CBC00E80D80E594
:0102AC00222F
:0E02AD0075AF0790E67BE090E67CF0DAF32276
:0102BB002220
:0502BC00AF82BF180035
:0402C10050027F1850
:0702C500EF24C250027F3D4F
:0E02CC00D285D284D282C282C284D282C28201
:0402DA007E057D0020
:0302DE00BD080058
:0E02E1005013EE5401FC24FF9284D282C2829C
:0702EF00EEC313FE0D80E8D1
:0E02F600C285D282C282D282C282D282C282EB
:0E030400D285D284D282C282D282C2828F0679
:020312007F006A
:03031400BF08001F
:0E0317005013EE5401FD24FF9284D282C28264
:07032500EEC313FE0F80E898
:0E032C00C285D282C282D282C282D282C282B4
:0C033A00C284D285D282C282C285793290
:020346007A003B
:0E034800D282C282D282C282D282C282D2828B
:07035600C282DAEED9EA22AF
:04035D00D2A07F00AB
:0E03610090E68BE0FEC3EF9E5012EF2440F5B5
:0E036F0082E434E7F583E0F5B0B2A60F80E437
:03037D00C2A022F9
:020380007F00FC
:0E038200903A1CE0FEC3EF9E5012EF2440F5AF
:0E03900082E434E7F583E590F0B2800F80E45C
:0B039E0090E68AE4F090E68BEEF0227F
:0203A9007F00D3
:0303AB00BFFF0091
:0D03AE00500B90E678E0FE20E0030F80F099
:0C03BB0090E678E0FF20E204EF20E10B68
:0B03C70090E678E04440F075820122CF
:0403D200758200220E
:0203D6007F00A6
:0303D800BFFF0064
:0D03DB00500B90E678E0FE20E0030F80F06C
:0E03E80090E678E0FF30E20B90E678E04440CB
:0503F600F075820122F8
:0403FB0075820022E5
:0203FF007F007D
:03040100BFFF003A
:0E040400500F90E678E0FE20E20475820022A0
:030412000F80EC6C
:0404150075820122C9
:020419007F0062
:03041B00BFFF0020
:0E041E00500F90E678E0FE20E6047582002282
:03042C000F80EC52
:04042F0075820122AF
:09043300AF82C3E49508E433FE36
:0E043C0090E678E04480F0C007C0061203FF8F
:0E044A00D006D00790E679EFF0C007C006128A
:0C04580003A9E582D006D0077012E50968
:0C046400600A90E678E04440F0120419B1
:04047000758200226F
:0E047400EE601090000AC007C006120289D088
:0504820006D00780B563
:0C048700E509600890E678E0FF4440F0D2
:04049300758201224B
:0C049700AE82AF837D00E50C7003F5829F
:0104A3002236
:0A04A4007508647509007582A2C096
:0E04AE0007C006C005120433E582D005D00653
:0704BC00D007600302059E5A
:0C04C300AC0B90E679ECF0C007C006C05E
:0E04CF00051203A9E582D005D006D007600310
:0304DD0002059E77
:0C04E00090E679E50AF0C007C006C005F0
:0E04EC001203A9E582D005D006D007600302F6
:0204FA00059E5D
:0E04FC0090E678E04440F0C007C006C005124C
:0D050A00041990E678E04480F01203FF90A1
:0E051700E67974A3F01203A9E582D005D006A0
:0E052500D007707590E679E08E828F83F0C06B
:0E05330007C006C0051203D6E582D005D0062B
:05054100D0077059FC19
:0C054600C3EC950C502A90E679E08E8200
:0E0552008F83F0A3AE82AF83C007C006C00542
:0E056000C0041203D6E582D004D005D006D028
:08056E0007702D0C8C0580D0F4
:0E05760090E678E04420F090E679E0C00512AF
:0E05840003D6E582D005701290E678E0444080
:0C059200F090E679E0C005120419D005D5
:03059E008D822229
:0A05A100AE82AF837D00750864751B
:0C05AB0009007582A2C007C006C005123E
:0D05B7000433E582D005D006D007600302B2
:0205C4000658D7
:0C05C600AC0E90E679ECF0C007C006C057
:0E05D200051203A9E582D005D006D00760030C
:0305E000020658B8
:0C05E30090E679E50DF0C007C006C005E9
:0E05EF001203A9E582D005D006D007705CFC8F
:0C05FD00C3EC950F50478E828F83E0FB0B
:0E060900A3AE82AF8390E679EBF0903A0EE05C
:0D061700FAEB2AF0903A0CE0FAA3E0FB9019
:0E0624003A0C74012AF0E43BA3F0C007C006B4
:0E063200C005C0041203A9E582D004D005D093
:0A06400006D00770130C8C0580B380
:0E064A0090E678E04440F0C005120419D00597
:030658008D82226E
:0A065B00903A1CE0FF903A0AE0F527
:060665000AA3E0F50B8F73
:0C066B000C90E740C007120497AE82D04C
:0E06770007903A0AE0FCA3E0FD7B00903A0AEF
:0A068500EF2CF0EB3DA3F08E822273
:0B068F00AF82903A0AE0F50DA3E0F501
:09069A000E8F0F90E740C007121B
:0E06A30005A1D007903A0AE0FDA3E0FE7C001E
:0B06B100903A0AEF2DF0EC3EA3F0227F
:0E06BC0075B11F75B6FF903A16E4F0903A152E
:0E06CA00F0903A177410F0903A187410F090F7
:0606D8003A197401F02242
:0E06DE0090E6017480F00000000090E670E4E9
:0E06EC00F090E671F0D2A243B404AFB253070F
:0E06FA00BF8FB2AFB45307FD8FB4C2A343B499
:0E0708000843B2AEC28543808E903A19E0F4E9
:0E071600FF53070F903A18E04FF5B175B6FF8C
:0E072400900001120265C287C281903A18E06F
:0E073200FF740F4FF5B1AFB45307FB8FB47EC9
:03074000007F0037
:0E07430020A2208E028F037C007D00C3EA946A
:0E075100FFEB94FFEC9400ED64809480500761
:07075F000EBE00E00F80DD7B
:0707660030A2047FC88002ED
:02076D007F64A7
:0E076F00903A14EFF0903A10E4F0A3F0A3F0EB
:07077D00A3F0903A0FF022F7
:0807840043B410D2A40206DE0A
:0C078C00D2A4D2A575B475903A15E024F3
:0A07980000F582E4343AF5837401A1
:0E07A200F0C2A475B2B575800075B30075B5D0
:0D07B000FF9000321202657582000202BC4B
:0B07BD00903A14E0FF74162FF07F004C
:0307C800BFFF0070
:0907CB005007D281C2810F80F4B5
:0E07D400D287D284C284D284C284D284C284EA
:0E07E200D284C284AFB25307718FB2AFB4534A
:0E07F00007F78FB475B6F0903A19E0FF55B1D7
:0707FE00FEB5070312078C92
:0E080500903A17E0FF740F4FF5B175B6FF2261
:0C08130085B31075B3FF903A1CE0FE9016
:0E081F003A10E0FAA3E0FBA3E0FCA3E0FD8E9C
:0E082D000079007E007F00903A10E82AF0E982
:0E083B003BA3F0EE3CA3F0EF3DA3F090E68B64
:0E084900E06022FA759B40759AE775AF079044
:070857003A0FE0F990E67B87
:0E085E00E0F590D28129F9C281DAF5903A0FC7
:02086C00E9F0B1
:0B086E008510B390E68BE0FFBF400058
:0508790050030207BD61
:01087E002257
:0E087F0090E60174C2F090E6F3E4F090E6C358
:0E088D00F090E6C1F090E6C27420F090E6C054
:0C089B00744EF090E6F4E4F0759B1D7EB6
:0A08A7001D7F3A8F068E9A759E6041
:0D08B1007E607FE48F068E9DC0027A2012CB
:0E08BE0002ADD00290E6C6E4F090E6C77410DA
:0E08CC00F090E6C8E4F090E6C9F090E6CAF0BD
:0E08DA0090E6CBF090E6CCE4F090E6CDF09006
:0E08E800E60B7401F00000000090E60474803E
:0E08F600F00000000090E6047402F000000024
:0E0904000090E604E4F00000000090E618E425
:0E091200F00000000090E6187410F0000000E5
:0E0920000090E6D27401F00000000090E6CED8
:0E092E007401F00000000090E6CFE4F000003D
:0E093C00000090E6D0E4F00000000090E6D14C
:0E094A00E4F00000000090E6D474FFF000001E
:050958000000C2832233
:0E095D00AF82903A15E0903A16F074035FFEF8
:0C096B00903A15F08FF005F07410800237
:0209770025E079
:0E097900D5F0FBFF903A17F0903A18EFF075AA
:0C098700B10F903A16E02406F582E4342B
:0A0993003AF583E5A0F0EE2406F526
:0C099D0082E4343AF583E0F5A0740F4FBB
:0309A900F5B12283
:01006C00286B
:01006D000191
:04006E005A54455843
:040072000A0F01026E
:010076000089
:010077000187
:06007800A30000000000DF
:0C007E0000000000000000000000000076
:0A008A00303030303030303030308C
:0109AC002228
:0E09AD0090E678E04480F01203FF90E6797443
:0A09BB0090F01203A9E5826001220A
:0E09C50090E6797444F01203A9E582600122E5
:0E09D30090E6797414F090E678E04440F0125B
:0709E1000419E58260012208
:0809E800900079E04401F022C7
:0E09F00090E683E4F090E6837420F07410F03B
:0E09FE007430F07401F090E6837421F07411EF
:0E0A0C00F07431F07402F090E6837422F02250
:0A0A1A00AF82E51224E050037512CC
:010A24001FB2
:0D0A250090E6BFE0701090E6BEE0FEC395C5
:090A320012500690E6BEE0F51238
:0C0A3B0075AF078F9B85119A7E407FE706
:0D0A4700EE04F59E7E407FE70EBE00010F1D
:0A0A54008F9D90E67C7403F07F0094
:0C0A5E00C3EF9512501190E67BE0FE9073
:0B0A6A00E67CF090E67CE4F00F80E9F1
:0B0A7500E5120425E0FF90E740F09040
:0E0A8000E7417403F090E68AE4F090E68BEF15
:020A8E00F02254
:0E0A9000903A1AE0FEA3E0FFC374409EE49F7C
:080A9E0050067C407D0080043D
:040AA6008E048F0526
:0E0AAA00903A1CECF07D00903A1AEEC39CF0DE
:050AB800EF9DA3F022F8
:0B0ABD00903A5DE0FFBF3103020B8C9C
:040AC800BF32012216
:060ACC00BF3403020B8F92
:060AD200BF3503020BA278
:060AD800BF3903020B65AB
:060ADE00BF5103020BBD35
:050AE400BF8002800D3F
:050AE900BF8302803A0A
:050AEE00BF8402805FDF
:030AF300020BE211
:0C0AF600903A04E4F0A3F0903A15E024DC
:0A0B020000FFE4343AFE8F828E8378
:040B0C00E070012272
:0D0B1000C2A5900064120265903A15E02421
:0A0B1D0000F582E4343AF583E4F0B9
:010B270022AB
:0E0B2800D2A590E6BAE0F5821202BC9000144D
:0A0B3600120265C2A5903A15E024F2
:0A0B400000F582E4343AF583E4F096
:080B4A00903A04F0A3E4F0224C
:0A0B5200903A15E02400F582E43427
:090B5C003AF5837401F0D2A522E0
:0D0B6500903A0EE4F0903A0CF0A3E4F0900A
:0E0B7200E6BBE0FE7F0090E6BAE07C004207A2
:0C0B8000EC4206903A0AEFF0A3EEF022DF
:030B8C00020784D9
:0E0B8F0012078490E6A3E054FEF090E6F574A1
:050B9D00FFF002087FDB
:0D0BA200D28390E6F574FFF0000000009093
:0E0BAF00E601E0FF54F0F0000000000207BD78
:0E0BBD0090E6BCE0FFBF0108903A1874F0F01B
:020BCB0080099F
:090BCD0090E6BAE0F58212095D20
:0C0BD600903A18E0C4540F903A19F02235
:080BE20090E6A0E04401F022BE
:0C0BEA00C020C0E0C0F0C082C083C00783
:0E0BF600C006C005C004C003C002C001C0009C
:0E0C0400C0D075D00090E6B9E0FF903A5DF0E8
:0E0C120090E6B57401F090E6B9E0FF24F350CF
:040C200003020FB606
:070C2400EF2F2F900C2B7342
:070C2B00020C52020D06024B
:060C32000FB6020D830263
:060C38000FB6020FB60228
:060C3E000E1B020F4C0228
:060C44000F4E020F5F02DB
:060C4A000F64020F7502A9
:020C50000F7A19
:0A0C520090E6B8E0FFBF8002800DBD
:050C5C00BF8102801EB3
:050C6100BF8202802F9C
:030C6600020FB6C4
:0E0C690090E740E4F090E741F090E68AF090CA
:080C7700E68B7402F0020FB6D7
:0E0C7F0090E740E4F090E741F090E68AF090B4
:080C8D00E68B7402F0020FB6C1
:0C0C950090E6BCE0FF600FBF0102801978
:050CA100BF8002800588
:050CA600BF812F801E3C
:0E0CAB0090E6A0E0FF53070190E740EFF080D5
:010CB9003A00
:0E0CBA0090E6A1E0FF53070190E740EFF080C5
:010CC8002B00
:0E0CC90090E6A2E0FF53070190E740EFF080B5
:010CD7001C00
:0E0CD80090E6BCE0C31314540324A3F582E499
:0E0CE60034E6F583E0FF53070190E740EFF09E
:0E0CF40090E741E4F090E68AF090E68B7402FF
:040D0200F0020FB636
:0A0D060090E6B8E0FFBF0202800390
:030D1000020FB619
:090D130090E6BAE06003020FB69D
:0C0D1C0090E6BCE0FF600FBF01028015F4
:050D2800BF8002800500
:050D2D00BF81238016C8
:0B0D320090E6A0E054FEFFF0020FB6B8
:0B0D3D0090E6A1E054FEFFF0020FB6AC
:0B0D480090E6A2E054FEFFF0020FB6A0
:0E0D530090E6BCE0C31314540324A3FEE43462
:0E0D6100E6FF90E6BCE0C31314540324A3F590
:0E0D6F0082E434E6F583E0FD5305FE8E828FAC
:060D7D0083EDF0020FB649
:0A0D830090E6B8E0FFBF0202800313
:030D8D00020FB69C
:090D900090E6BAE06003020FB620
:0C0D990090E6BCE0FF600FBF0102801478
:050DA500BF8002800583
:050DAA00BF8120801450
:0A0DAF0090E6A0E0FF4401F080414F
:0A0DB90090E6A1E0FF4401F080374E
:0A0DC30090E6A2E0FF4401F0802D4D
:0E0DCD0090E6BCE0C31314540324A3FEE434E8
:0E0DDB00E6FF90E6BCE0C31314540324A3F516
:0E0DE90082E434E6F583E0FD4305FE8E828F42
:030DF70083EDF099
:0E0DFA0090E6BCE05480C423541FFF90E6BC7A
:0E0E0800E0FE740F5E420790E683EFF0742068
:050E16004FF0020FB6D1
:0A0E1B0090E6BBE0FFBF0102801962
:050E2500BF020280285D
:050E2A00BF030280532C
:060E2F00BF0603020EFFE6
:060E3500BF0703020F13CA
:030E3B00020F4261
:0A0E3E007E827F188F0690E6B3EE67
:0A0E4800F090E6B47482F0020FB6D9
:0B0E520090E680E0FF30E7147E9E7FFA
:0C0E5D00188F0690E6B3EEF090E6B47437
:050E69009EF0020FB62F
:0A0E6E007EC67F188F0690E6B3EEF3
:0A0E7800F090E6B474C6F0020FB665
:0A0E820090E6BAE0FFBF0102800F06
:050E8C00BF0202801E00
:050E9100BF0302802DEB
:050E9600BF0452803C86
:060E9B007582567E567FB1
:060EA100188F068E11758A
:060EA7001205120A1A02F6
:020EAD000FB67E
:060EAF0075825B7E5B7F93
:060EB500188F068E117576
:060EBB00121F120A1A02C8
:020EC1000FB66A
:0C0EC30075828A7E8A7F008F068E117572
:060ECF00120A120A1A02C9
:020ED5000FB656
:060ED70075827A7E7A7F2D
:060EDD00188F068E11754E
:060EE3001208120A1A02B7
:020EE9000FB642
:0A0EEB007EEE7F188F0690E6B3EE4E
:0A0EF500F090E6B474EEF0020FB6C0
:0A0EFF007E947F188F0690E6B3EE94
:0A0F0900F090E6B47494F0020FB605
:0B0F130090E680E0FF30E7147EC67F10
:0C0F1E00188F0690E6B3EEF090E6B47475
:050F2A00C6F0020FB645
:0A0F2F007E9E7F188F0690E6B3EE59
:090F3900F090E6B4749EF080749F
:0A0F420090E6A0E0FF4401F0806A91
:020F4C008068BB
:0E0F4E0090E740E4F090E68AF090E68B7401A4
:030F5C00F08057CB
:050F5F001209F08052B0
:0E0F640090E740E4F090E68AF090E68B74018E
:030F7200F08041CB
:050F75001209F0803CB0
:0E0F7A0090E6B8E0FFBF823490E6BCE0C313FF
:0B0F880014540325E0245FF582E434DC
:0C0F93003AF583E4F0A3F090E685E090CE
:0D0F9F00E740F090E684E0FF90E741F0901D
:0A0FAC00E68AE4F090E68B7402F090
:0B0FB60090E6B8E0FFBF400302121CF1
:050FC100BFC002800327
:030FC60002124ACA
:0E0FC90090E6BFE0FE7F0090E6BEE07C0042B6
:0D0FD70007EC4206903A1AEFF0A3EEF0127C
:0C0FE4000A9090E6B9E0FFBF22028031C5
:060FF000BF30030210E215
:060FF600BF3303021142AB
:060FFC00BF38030210786B
:06100200BF3A030210A337
:06100800BF500302115A63
:06100E00BF580302117B34
:05101400BF81028025F0
:05101900BF8202802AE5
:03101E00021212A9
:0E10210090E6B5E4F090E68AF090E68B742835
:0D102F00F090E6B3E4F090E6B4746CF002CB
:02103C00124A56
:0A103E00D287C28712038002124A13
:06104800759B3B7E3B7F1F
:0C104E00188F068E9A759E407E407FE74A
:0E105A008F068E9DC0027A401202ADD0029029
:0E106800E68AE4F090E6BEE0FF90E68BF00230
:02107600124A1C
:0E10780090E6BBE0FE7F0090E6BAE07C00420E
:0D10860007EC4206903A0AEFF0A3EEF0905E
:0E109300E68AE4F012065BE58290E68BF0023E
:0210A100124AF1
:0E10A300903A0CE0FEA3E0FF8E0590E740EDD2
:0D10B100F08F0690E741EEF0903A0EE090CF
:0A10BE00E742F0750800750901759E
:0D10C80082A2120433AF8290E743EFF09054
:0D10D500E68AE4F090E68B7404F002124A03
:0610E200759B0F7E0F7FDD
:0C10E8003A8F068E9A759E417E417FE78C
:0E10F4008F068E9DC0027A061202ADD00275E4
:0E110200B6F0903A19E0FF55B1FEB507149013
:0E111000E740E4F0903A17E0FF740F4FF5B19E
:05111E0075B6FF800919
:0911230090E7407401F01206DEB1
:0E112C0090E747E4F090E748F090E68AF090F4
:08113A00E68B7409F002124A71
:0E11420090E7407402F090E741E4F090E68AF6
:0A115000F090E68B7402F002124AE0
:0E115A0090E7407403F0903A15E0FF90E741F3
:0E116800F090E742E4F090E68AF090E68B7497
:0511760003F002124A23
:0E117B0090E678E04480F01203FF90E679746D
:0E11890091F01203A990E7407401F090E6790E
:0D119700E090E741F01203D690E679E09079
:0E11A400E741F01203D690E679E090E742F0C2
:0E11B2001203D690E679E090E743F01203D6E0
:0E11C00090E679E090E744F01203D690E679CD
:0D11CE00E090E741F01203D690E679E09042
:0E11DB00E742F01203D690E678E04420F09050
:0E11E900E679E090E743F01203D690E678E056
:0E11F7004440F090E679E090E744F0120419CD
:0D12050090E68AE4F090E68B7405F08038E6
:0A12120090E6A0E0FF4401F0802EFA
:0C121C0090E6BFE0700690E6BEE0601AAD
:0E122800903A5E7401F090E68BE4F0AF9153C3
:0C12360007EF8F9190E65D7401F0801DC1
:08124200120ABD90E68BE4F0F6
:0E124A00AF915307EF8F9190E65D7401F09025
:07125800E6A0E0FF4480F076
:0E125F00D0D0D000D001D002D003D004D005F2
:0D126D00D006D007D083D082D0F0D0E0D0E2
:02127A00203220
:0E127C00C0E0C082C083C007C0D075D000AFF4
:0E128A00915307EF8F9190E65D7402F0D0D083
:09129800D007D083D082D0E032EF
:0E12A100C0E0C082C083C007C0D075D000AFCF
:0E12AF00915307EF8F9190E65D7404F0D0D05C
:0912BD00D007D083D082D0E032CA
:0E12C600C0E0C082C083C007C0D075D000AFAA
:0E12D400915307EF8F9190E65D7408F0D0D033
:0912E200D007D083D082D0E032A5
:0E12EB00C0E0C082C083C007C0D075D000AF85
:0E12F900915307EF8F9190E65D7410F0D0D006
:09130700D007D083D082D0E0327F
:0E131000C0E0C082C083C007C0D075D000AF5F
:0E131E00915307EF8F9190E65D7420F0D0D0D0
:09132C00D007D083D082D0E0325A
:0E133500C0E0C082C083C007C0D075D000AF3A
:0E134300915307EF8F9190E65D7440F0D0D08B
:09135100D007D083D082D0E03235
:0C135A00C020C0E0C0F0C082C083C0070B
:0E136600C006C005C004C003C002C001C00024
:0E137400C0D075D000C2E8120A90903A5DE039
:06138200FFBF30028041B4
:05138800BF3302803CB0
:05138D00BF3802801EC4
:05139200BF3A028032A9
:05139700BF5002802D93
:05139C00BF580280288B
:0513A100BF8102800580
:0513A600BF8217801E4C
:0513AB0012038080190F
:0E13B00090E68AE4F012065BE58290E68BF090
:0213BE008009A4
:0913C00090E68AE4F090E68BF05F
:0E13C900AF915307EF8F9190E65F7401F0D261
:0E13D700E8D0D0D000D001D002D003D004D096
:0E13E50005D006D007D083D082D0F0D0E0D063
:0213F3002032A6
:0C13F500C020C0E0C0F0C082C083C00770
:0E140100C006C005C004C003C002C001C00088
:0E140F00C0D075D000C2E8903A5EE0FF6022C7
:0D141D00903A5EE4F090E6BFE0FE7F0090A4
:0E142A00E6BEE07C004207EC4206903A1AEF64
:07143800F0A3EEF0120ABD63
:0C143F00120A90903A5DE0FFBF310302FA
:02144B00149FEC
:06144D00BF3203021498F7
:06145300BF340302149FE8
:06145900BF350302149FE1
:06145F00BF390302148CEA
:06146500BF510302149EBA
:05146B00BF8002800EAD
:05147000BF8302800FA4
:06147500BF84030214888D
:03147B0002149FB9
:06147E0012035D02149F41
:041484000002149FAF
:041488000002149FAB
:0C148C0090E68BE0F58212068F02149FA0
:0614980012081302149F6C
:01149E00004D
:0D149F0090E68BE4F0AF915307EF8F919032
:0E14AC00E65F7402F0903A1AE0FEA3E0FF4EF5
:0A14BA00700890E6A0E0FF4480F007
:0E14C400D2E8D0D0D000D001D002D003D004A6
:0E14D200D005D006D007D083D082D0F0D0E075
:0314E000D02032E7
:0E14E300C0E0C082C083C007C0D075D000AF8B
:0E14F100915307EF8F9190E65F7404F0D0D016
:0914FF00D007D083D082D0E03286
:0E150800C0E0C082C083C007C0D075D000AF65
:0E151600915307EF8F9190E65F7408F0D0D0EC
:09152400D007D083D082D0E03260
:0E152D00C0E0C082C083C007C0D075D000AF40
:0E153B00915307EF8F9190E65F7410F0D0D0BF
:09154900D007D083D082D0E0323B
:0E155200C0E0C082C083C007C0D075D000AF1B
:0E156000915307EF8F9190E65F7420F0D0D08A
:09156E00D007D083D082D0E03216
:0E157700C0E0C082C083C007C0D075D000AFF6
:0E158500915307EF8F9190E65F7440F0D0D045
:09159300D007D083D082D0E032F1
:0E159C00C0E0C082C083C007C0D075D000AFD1
:0E15AA00915307EF8F9190E65F7480F0D0D0E0
:0915B800D007D083D082D0E032CC
:0E15C10090E680E04408F090E6007412F0908E
:0D15CF000002120265AF8E5307F88F8E12D6
:0D15DC0006BCC2AFC2E89000437402F0905C
:0E15E90000447401F090004574B8F090E6687C
:0C15F700E04408F09001007402F07EEA6D
:0C1603007F0B8F05900101EDF0900102BB
:0B160F00EEF09001047402F07E7C7F7E
:0C161A00128F05900105EDF0900106EE26
:0A162600F09001087402F07EA17F2D
:0C163000128F05900109EDF090010AEE08
:0A163C00F090010C7402F07EC67FEE
:0C164600128F0590010DEDF090010EEEEA
:0A165200F09001107402F07EEB7FAF
:0C165C00128F05900111EDF0900112EECC
:0A166800F09001147402F07E107F70
:0C167200138F05900115EDF0900116EEAD
:0A167E00F09001187402F07E357F31
:0C168800138F05900119EDF090011AEE8F
:0A169400F09001207402F07E5A7FEE
:0C169E00138F05900121EDF0900122EE69
:0A16AA00F09001247402F07EF57F39
:0C16B400138F05900125EDF0900126EE4B
:0A16C000F09001287402F07EE37F31
:0C16CA00148F05900129EDF090012AEE2C
:0A16D600F090012C7402F07E087FF2
:0C16E000158F0590012DEDF090012EEE0D
:0A16EC00F09001307402F07E2D7FB3
:0C16F600158F05900131EDF0900132EEEF
:0A170200F09001347402F07E527F73
:0C170C00158F05900135EDF0900136EED0
:0A171800F09001387402F07E777F34
:0C172200158F05900139EDF090013AEEB2
:0A172E00F090013C7402F07E9C7FF5
:0C173800158F0590013DEDF090013EEE94
:0E174400F0AF915307EF8F9190E65D747FF048
:0E17520090E65CE0FF447FF090E65F74FFF0ED
:0E17600090E65E74FFF0D2E8D2AF90E611740E
:0E176E00A0F00000000090E61074A0F0000053
:0D177C00000090E61274A2F0000000009042
:0E178900E613E4F00000000090E614E4F00027
:0D17970000000090E615E4F00000000012D4
:0D17A40009AD90E680E04482F090000A124A
:0A17B100026590E680E054F7F02294
:0E17BB001215C1903A047401F0A3E4F07F000F
:0317C900BF04005A
:0A17CC005010EF2400F582E4343AD7
:0817D600F5837401F00F80EBB4
:0E17DE0090000A120265903A04E0FEA3E0FFBC
:0E17EC00903A0474012EF0E43FA3F0903A040A
:0E17FA00E0FEA3E0FFBE30DCBF75D9903A15CB
:04180800E0FF7E007F
:03180C00BE040017
:0E180F00501F8E82C007C00612095DD006D0A1
:0A181D0007EE2400F582E4343AF5EA
:09182700837401F0D2A50E80DCEF
:071830008F8212095D80A701
:0B183B00050010279001313D7F0001E7
:0E1846007A7465785F75666D315F3135793182
:011854000093
:011855000092
:051856005A5445580042
:0E185B006274636D696E657220666F72205A4A
:0E1869005445582046504741204D6F64756C21
:0318770065730096
:08187A0064656661756C740081
:0E18820012010002FFFFFF401A2200010000C9
:04189000010203014D
:0A1894000A060002FFFFFF400100FA
:0E189E0009022700010104C032090400000302
:0E18AC00FFFFFF000705810200020007050193
:0B18BA0002000200070502020002000D
:0118C5000022
:0E18C60009022700010104C0320904000003DA
:0E18D400FFFFFF00070581024000000705012D
:0B18E200024000000705020240000069
:0118ED0000FA
:0418EE0004030000EF
:0218F2000000F4
:0118F40000F3
:0E18F50001880101010101070207020202023F
:0E19030002002000000000000020003600005E
:041911000000003F93
:0E191500020190010101010702020702020215
:0E19230002002000000000000020000036003E
:041931000000003F73
:01193500FFB2
:0119360000B0
:081937000000000000000000A8
:06023700E478FFF6D8FD9B
:08021500794DE94400601B7AF9
:05021D00019018F278C9
:030222001A7592B8
:0A0225003AE493F2A308B8000205C2
:08022F0092D9F4DAF27592FF96
:08023D007800E84400600A7932
:03024500007592AF
:060248003AE4F309D8FCC2
:08024E00781AE84400600C7905
:0B02560001903A00E4F0A3D8FCD9FAB4
:03020800758120DD
:0A020B00121837E5826003020203B7
:041837007582002294
:00000001FF
