:03020000020208EF
:0302610002020393
:0502030012180C80FE42
:03000000020200F9
:0100030032CA
:01000B0032C2
:0100130032BA
:01001B0032B2
:0100230032AA
:01002B0032A2
:01003300329A
:01003B003292
:01004300328A
:01004B003282
:01005300327A
:01005B003272
:01006300326A
:0101000032CC
:0101040032C8
:0101080032C4
:01010C0032C0
:0101100032BC
:0101140032B8
:0101180032B4
:0101200032AC
:0101240032A8
:0101280032A4
:01012C0032A0
:01013000329C
:010134003298
:010138003294
:01013C003290
:01014000328C
:010148003284
:01014C003280
:01015000327C
:010154003278
:010158003274
:01015C003270
:01016000326C
:01017000325C
:010174003258
:010178003254
:01017C003250
:01018000324C
:010184003248
:010188003244
:01018C003240
:01019000323C
:010194003238
:010198003234
:01019C003230
:0101A000322C
:0101A8003224
:0101AC003220
:0101B000321C
:0101B4003218
:0101B8003214
:010264002277
:08026500AE82AF837C007D0036
:0B026D00C3EC9EED9F50147AB07B04A0
:050278001ABAFF011B92
:0B027D00EA4B70F70CBC00E80D80E5B8
:010288002253
:08028900AE82AF837C007D0012
:0B029100C3EC9EED9F50147A0A7B0026
:05029C001ABAFF011B6E
:0B02A100EA4B70F70CBC00E80D80E594
:0102AC00222F
:0E02AD0075AF0790E67BE090E67CF0DAF32276
:0102BB002220
:0202BC007F00C1
:0302BE00BFFF007F
:0D02C100500B90E678E0FE20E0030F80F087
:0C02CE0090E678E0FF20E204EF20E10B56
:0B02DA0090E678E04440F075820122BD
:0402E50075820022FC
:0202E9007F0094
:0302EB00BFFF0052
:0D02EE00500B90E678E0FE20E0030F80F05A
:0E02FB0090E678E0FF30E20B90E678E04440B9
:05030900F075820122E5
:04030E0075820022D2
:020312007F006A
:03031400BFFF0028
:0E031700500F90E678E0FE20E204758200228E
:030325000F80EC5A
:0403280075820122B7
:02032C007F0050
:03032E00BFFF000E
:0E033100500F90E678E0FE20E6047582002270
:03033F000F80EC40
:04034200758201229D
:09034600AF82C3E49508E433FE24
:0E034F0090E678E04480F0C007C0061203126A
:0E035D00D006D00790E679EFF0C007C0061278
:0C036B0002BCE582D006D0077012E50944
:0C037700600A90E678E04440F012032C8D
:04038300758200225D
:0E038700EE601090000AC007C006120289D076
:0503950006D00780B551
:0C039A00E509600890E678E0FF4440F0C0
:0403A6007582012239
:0C03AA00AE82AF837D00E50C7003F5828D
:0103B6002224
:0A03B7007508647509007582A2C084
:0E03C10007C006C005120346E582D005D0062F
:0703CF00D00760030204B136
:0C03D600AC0B90E679ECF0C007C006C04C
:0E03E200051202BCE582D005D006D0076003EC
:0303F0000204B153
:0C03F30090E679E50AF0C007C006C005DE
:0E03FF001202BCE582D005D006D007600302D2
:02040D0004B138
:0E040F0090E678E04440F0C007C006C0051239
:0D041D00032C90E678E04480F0120312906A
:0E042A00E67974A3F01202BCE582D005D0067C
:0E043800D007707590E679E08E828F83F0C059
:0E04460007C006C0051202E9E582D005D00607
:05045400D0077059FC07
:0C045900C3EC950C502A90E679E08E82EE
:0E0465008F83F0A3AE82AF83C007C006C00530
:0E047300C0041202E9E582D004D005D006D004
:0804810007702D0C8C0580D0E2
:0E04890090E678E04420F090E679E0C005129D
:0E04970002E9E582D005701290E678E044405C
:0C04A500F090E679E0C00512032CD005B1
:0304B1008D822217
:0A04B400AE82AF837D007508647509
:0C04BE0009007582A2C007C006C005122C
:0D04CA000346E582D005D006D0076003028E
:0204D700056BB3
:0C04D900AC0E90E679ECF0C007C006C045
:0E04E500051202BCE582D005D006D0076003E8
:0304F30002056B94
:0C04F60090E679E50DF0C007C006C005D7
:0E0502001202BCE582D005D006D007705CFC6A
:0C051000C3EC950F50478E828F83E0FBF8
:0E051C00A3AE82AF8390E679EBF0903A05E053
:0D052A00FAEB2AF0903A03E0FAA3E0FB9010
:0E0537003A0374012AF0E43BA3F0C007C006AB
:0E054500C005C0041202BCE582D004D005D06F
:0A05530006D00770130C8C0580B36E
:0E055D0090E678E04440F0C00512032CD00573
:03056B008D82225C
:0A056E00903A19E0FF903A01E0F521
:060578000AA3E0F50B8F61
:0C057E000C90E740C0071203AAAE82D028
:0E058A0007903A01E0FCA3E0FD7B00903A01EF
:0A059800EF2CF0EB3DA3F08E822261
:0B05A200AF82903A01E0F50DA3E0F5F8
:0905AD000E8F0F90E740C0071209
:0E05B60004B4D007903A01E0FDA3E0FE7C0003
:0B05C400903A01EF2DF0EC3EA3F02276
:0C05CF00AE82AF837D00E5117003F58261
:0105DB0022FD
:0A05DC007508647509007582A6C059
:0E05E60007C006C005120346E582D005D00608
:0705F400D00760030206B905
:0C05FB0090E679E510F0C007C006C005CE
:0E0607001202BCE582D005D006D007600302C7
:0206150006B924
:0E06170090E678E04440F0C007C006C005122F
:0D062500032C90E678E04480F01203129060
:0E063200E67974A7F01202BCE582D005D0066E
:0E064000D007707590E679E08E828F83F0C04F
:0E064E0007C006C0051202E9E582D005D006FD
:05065C00D0077059FCFD
:0C066100C3EC9511502A90E679E08E82DF
:0E066D008F83F0A3AE82AF83C007C006C00526
:0E067B00C0041202E9E582D004D005D006D0FA
:0806890007702D0C8C0580D0D8
:0E06910090E678E04420F090E679E0C0051293
:0E069F0002E9E582D005701290E678E0444052
:0C06AD00F090E679E0C00512032CD005A7
:0306B9008D82220D
:0A06BC00AE82AF837D0075086475FF
:0C06C60009007582A6C007C006C005121E
:0D06D2000346E582D005D006D007705A908F
:0C06DF00E679E512F0C007C006C0051265
:0D06EB0002BCE582D005D006D0077041FCAE
:0C06F800C3EC9513502C8E828F83E0FB26
:0E070400A3AE82AF8390E679EBF0C007C0068B
:0E071200C005C0041202BCE582D004D005D0A0
:0A07200006D00770130C8C0580CE84
:0E072A0090E678E04440F0C00512032CD005A4
:030738008D82228D
:07073B00903A19E0F511905E
:090742003A06E0F51090E74002D0
:02074B0005CFD8
:0D074D00AF8290E6017480F0000000009083
:0E075A00E670E4F090E671F0AEB45306F98E4E
:0E076800B475B2B674904FF58043B408AEA0DD
:0E0776005306F78EA090000AC007120265D04D
:0A0784000774024FF5807E007F002D
:0E078E0020A2208E028F037C007D00C3EA941F
:0E079C00FFEB94FFEC9400ED64809480500716
:0707AA000EBE00E00F80DD30
:0707B10030A2047FC88002A2
:0207B8007F645C
:0E07BA00903A0CEFF0903A08E4F0A3F0A3F0B0
:0707C800A3F0903A07F022B4
:0607CF0075820402074DD3
:0607D50075823402074D9D
:0307DB000207CF43
:0107DE0022F8
:0707DF0030A2047F16800226
:0207E6007F0B87
:0A07E800903A0CE0FEEF2EF07F00C7
:0307F200BF400005
:0907F5005007D284C2840F80F485
:0E07FE00D287D284C284D284C284D284C284C0
:0E080C00D284C28475B200AFB45307F78FB424
:08081A00308105D2811207DED6
:06082200D28143B2022264
:0C08280085B31475B3FF903A19E0FE9000
:0E0834003A08E0FAA3E0FBA3E0FCA3E0FD8E8F
:0E0842000079007E007F00903A08E82AF0E975
:0E0850003BA3F0EE3CA3F0EF3DA3F090E68B4F
:0E085E00E06022FA759B40759AE775AF07902F
:07086C003A07E0F990E67B7A
:0E087300E0F590D28429F9C284DAF5903A07B4
:02088100E9F09C
:0B0883008514B390E68BE0FFBF40003F
:05088E0050030207DF2A
:010893002242
:0E089400C0E0C082C083C007C006C005C0041B
:0E08A200C003C002C001C000C0D075D00085E8
:0C08B000B315C2E890E690E0FD7E0090D9
:0E08BC00E691E07B004206EB4205903A08E030
:0E08CA00F9A3E0FAA3E0FBA3E0FC8E00ED33FF
:0E08D80095E0FEFF903A08E829F0ED3AA3F013
:0E08E600EE3BA3F0EF3CA3F075B3FF90E6915C
:0E08F400E0FA5407FB90E690E0340013F9EAB6
:0E09020013FAE913F9EA13FAE913F9EA13FA02
:0E091000759B00759AF075AF0790E67BEB6063
:01091E000CCC
:0C091F00E0F590D284C284DBF7EA603A75
:0E092B00E0F590D284C284E0F590D284C284BC
:0E093900E0F590D284C284E0F590D284C284AE
:0E094700E0F590D284C284E0F590D284C284A0
:0E095500E0F590D284C284E0F590D284C28492
:02096300DAC6F2
:0C0965008515B390E6497482F000000094
:0E09710000AF915307EF8F9190E65F7410F086
:0E097F00D2E8D0D0D000D001D002D003D004F6
:0D098D00D005D006D007D083D082D0E03254
:0E099A0090E60174E2F090E6F3E4F090E6C31C
:0E09A800F090E6C1F090E6C27404F090E6C054
:0C09B600744EF090E6F4E4F0759B1A7E9D
:0A09C2001A7F3A8F068E9A759E6028
:0D09CC007E607FE48F068E9DC0027A2012AF
:0E09D90002ADD00290E6C6E4F090E6C77410BE
:0E09E700F090E6C8E4F090E6C9F090E6CAF0A1
:0E09F50090E6CBF090E6CCE4F090E6CDF090EA
:0E0A0300E60B7401F00000000090E604748021
:0E0A1100F00000000090E6047402F000000007
:0E0A1F000090E604E4F00000000090E618E409
:0E0A2D00F00000000090E6187410F0000000C9
:0E0A3B000090E6D27401F00000000090E6CEBC
:0E0A49007401F00000000090E6CFE4F0000021
:0E0A5700000090E6D0E4F00000000090E6D130
:0E0A6500E4F00000000090E6D474FFF0000002
:0E0A73000000AFB25307EF8FB243B201C28052
:010A81002252
:0E0A820090E6017480F090E60B7403F0000023
:0D0A9000000090E6047480F000000000906B
:0E0A9D00E6047402F00000000090E604E4F0AD
:0E0AAB000000000090E618E4F000000000904B
:0E0AB900E6497482F00000000090E649748265
:0E0AC700F00000000090E6497482F00000008C
:0E0AD5000090E6497482F000000000900132AB
:0D0AE300E0903A10F0A3E4F0900131E090B3
:090AF0003A0EF0A3E4F07E947FBD
:0C0AF900088F05900131EDF0900132EE05
:0E0B0500F0AF915307EF8F9190E65F7410F000
:010B130022BF
:01006C00286B
:01006D000191
:04006E005A54455843
:040072000A0D000073
:010076000089
:010077000187
:060078006300000000001F
:0C007E0000000000000000000000000076
:0A008A00303030303030303030308C
:010B140022BE
:0E0B150090E683E4F090E6837420F07410F014
:0E0B23007430F07401F090E6837421F07411C8
:0E0B3100F07431F07402F090E6837422F0222A
:0A0B3F00AF82E51724E0500375179C
:010B49001F8C
:0D0B4A0090E6BFE0701090E6BEE0FEC3959F
:090B570017500690E6BEE0F51708
:0C0B600075AF078F9B85169A7E407FE7DB
:0D0B6C00EE04F59E7E407FE70EBE00010FF7
:0A0B79008F9D90E67C7403F07F006E
:0C0B8300C3EF9517501190E67BE0FE9048
:0B0B8F00E67CF090E67CE4F00F80E9CB
:0B0B9A00E5170425E0FF90E740F09015
:0E0BA500E7417403F090E68AE4F090E68BEFEF
:020BB300F0222E
:0E0BB500903A17E0FEA3E0FFC374409EE49F59
:080BC30050067C407D00800417
:040BCB008E048F0500
:0E0BCF00903A19ECF07D00903A17EEC39CF0BE
:050BDD00EF9DA3F022D2
:0A0BE200903A5AE0FFBF3102804B49
:040BEC00BF320122F1
:050BF000BF3402804546
:050BF500BF3502805D28
:050BFA00BF3902800874
:050BFF00BF3C02802A4A
:030C0400020C9A45
:0D0C0700903A05E4F0903A03F0A3E4F09079
:0E0C1400E6BBE0FE7F0090E6BAE07C004207FF
:0C0C2200EC4206903A01EFF0A3EEF02245
:090C2E0090E6BAE0903A06F022CB
:030C37000207DBD6
:0E0C3A001207DB90E6A3E054FEF090E6F5749E
:0C0C4800FFF0903A00E0FF6003020A8217
:030C540002099AF8
:0E0C5700903A00E0FF601C903A10E0FEA3E02F
:0E0C6500900132EEF0903A0EE0FEA3E0FF9018
:070C73000131EEF0020C97C5
:0E0C7A00D280D28443B21090E6F574FFF000F1
:0E0C880000000090E601E0FF54F0F0000000D4
:010C9600005D
:030C97000207DF72
:080C9A0090E6A0E04401F02205
:0C0CA200C020C0E0C0F0C082C083C007CA
:0E0CAE00C006C005C004C003C002C001C000E3
:0E0CBC00C0D075D00090E6B9E0FF903A5AF033
:0E0CCA0090E6B57401F090E6B9E0FF24F35017
:040CD8000302106E95
:070CDC00EF2F2F900CE373D2
:070CE300020D0A020DBE0222
:060CEA00106E020E3B0239
:060CF000106E02106E02FE
:060CF6000ED302100402FF
:060CFC00100602101702B1
:060D0200101C02102D027E
:020D08001032A7
:0A0D0A0090E6B8E0FFBF8002800D04
:050D1400BF8102801EFA
:050D1900BF8202802FE3
:030D1E0002106E52
:0E0D210090E740E4F090E741F090E68AF09011
:080D2F00E68B7402F002106E65
:0E0D370090E740E4F090E741F090E68AF090FB
:080D4500E68B7402F002106E4F
:0C0D4D0090E6BCE0FF600FBF01028019BF
:050D5900BF80028005CF
:050D5E00BF812F801E83
:0E0D630090E6A0E0FF53070190E740EFF0801C
:010D71003A47
:0E0D720090E6A1E0FF53070190E740EFF0800C
:010D80002B47
:0E0D810090E6A2E0FF53070190E740EFF080FC
:010D8F001C47
:0E0D900090E6BCE0C31314540324A3F582E4E0
:0E0D9E0034E6F583E0FF53070190E740EFF0E5
:0E0DAC0090E741E4F090E68AF090E68B740246
:040DBA00F002106EC5
:0A0DBE0090E6B8E0FFBF02028003D8
:030DC80002106EA8
:090DCB0090E6BAE0600302106E2C
:0C0DD40090E6BCE0FF600FBF010280153C
:050DE000BF8002800548
:050DE500BF8123801610
:0B0DEA0090E6A0E054FEFFF002106E47
:0B0DF50090E6A1E054FEFFF002106E3B
:0B0E000090E6A2E054FEFFF002106E2E
:0E0E0B0090E6BCE0C31314540324A3FEE434A9
:0E0E1900E6FF90E6BCE0C31314540324A3F5D7
:0E0E270082E434E6F583E0FD5305FE8E828FF3
:060E350083EDF002106ED7
:0A0E3B0090E6B8E0FFBF020280035A
:030E450002106E2A
:090E480090E6BAE0600302106EAE
:0C0E510090E6BCE0FF600FBF01028014BF
:050E5D00BF80028005CA
:050E6200BF8120801497
:0A0E670090E6A0E0FF4401F0804196
:0A0E710090E6A1E0FF4401F0803795
:0A0E7B0090E6A2E0FF4401F0802D94
:0E0E850090E6BCE0C31314540324A3FEE4342F
:0E0E9300E6FF90E6BCE0C31314540324A3F55D
:0E0EA10082E434E6F583E0FD4305FE8E828F89
:030EAF0083EDF0E0
:0E0EB20090E6BCE05480C423541FFF90E6BCC1
:0E0EC000E0FE740F5E420790E683EFF07420B0
:050ECE004FF002106E60
:0A0ED30090E6BBE0FFBF01028019AA
:050EDD00BF02028028A5
:050EE200BF0302805374
:060EE700BF0603020FB775
:060EED00BF0703020FCB5A
:030EF300020FFAF1
:0A0EF6007E427F188F0690E6B3EEEF
:0A0F0000F090E6B47442F002106EA7
:0B0F0A0090E680E0FF30E7147E5E7F81
:0C0F1500188F0690E6B3EEF090E6B4747E
:050F21005EF002106EFD
:0A0F26007E867F188F0690E6B3EE7A
:0A0F3000F090E6B47486F002106E33
:0A0F3A0090E6BAE0FFBF0102800F4D
:050F4400BF0202801E47
:050F4900BF0302802D32
:050F4E00BF0452803CCD
:060F53007582157E157F7A
:060F5900188F068E1675CC
:060F5F001705120B3F0212
:020F6500106E0C
:060F670075821A7E1A7F5C
:060F6D00188F068E1675B8
:060F73001720120B3F02E3
:020F7900106EF8
:0C0F7B0075828A7E8A7F008F068E1675B4
:060F8700170A120B3F02E5
:020F8D00106EE4
:060F8F0075823A7E3A7FF4
:060F9500188F068E167590
:060F9B001708120B3F02D3
:020FA100106ED0
:0A0FA3007EAE7F188F0690E6B3EED5
:0A0FAD00F090E6B474AEF002106E8E
:0A0FB7007E547F188F0690E6B3EE1B
:0A0FC100F090E6B47454F002106ED4
:0B0FCB0090E680E0FF30E7147E867F98
:0C0FD600188F0690E6B3EEF090E6B474BD
:050FE20086F002106E14
:0A0FE7007E5E7F188F0690E6B3EEE1
:090FF100F090E6B4745EF0807427
:0A0FFA0090E6A0E0FF4401F0806AD9
:02100400806802
:0E10060090E740E4F090E68AF090E68B7401EB
:03101400F0805712
:05101700120B158052D0
:0E101C0090E740E4F090E68AF090E68B7401D5
:03102A00F0804112
:05102D00120B15803CD0
:0E10320090E6B8E0FFBF823490E6BCE0C31346
:0B10400014540325E0245CF582E43426
:0C104B003AF583E4F0A3F090E685E09015
:0D105700E740F090E684E0FF90E741F09064
:0A106400E68AE4F090E68B7402F0D7
:0B106E0090E6B8E0FFBF400302120054
:05107900BFC00280036E
:03107E0002122E2D
:0E10810090E6BFE0FE7F0090E6BEE07C0042FD
:0D108F0007EC4206903A17EFF0A3EEF012C6
:0C109C000BB590E6B9E0FFBF22028025F2
:0610A800BF300302118EAF
:0610AE00BF33030211DF55
:0510B400BF380280318D
:0510B900BF3A02805760
:0610BE00BF3B03021154C8
:0610C400BF3D0302116DA7
:0310CA000211F61A
:0E10CD0090E6B5E4F090E68AF090E68B742889
:0D10DB00F090E6B3E4F090E6B4746CF0021F
:0210E800122EC6
:0E10EA0090E6BBE0FE7F0090E6BAE07C00429C
:0D10F80007EC4206903A01EFF0A3EEF090F5
:0E110500E68AE4F012056EE58290E68BF002B9
:02111300122E9A
:0E111500903A03E0FEA3E0FF8E0590E740ED68
:0D112300F08F0690E741EEF0903A05E09065
:0A113000E742F0750800750901752B
:0D113A0082A2120346AF8290E743EFF090CF
:0D114700E68AE4F090E68B7404F002122EAC
:0E11540090E6BAE0903A06F090E68AE4F012D7
:0B116200073BE58290E68BF002122EA6
:0A116D007508007509017582A612CD
:0E1177000346AF8290E740EFF090E68AE4F086
:0911850090E68B7401F002122EB9
:06118E00759B077E077F40
:0C1194003A8F068E9A759E417E417FE7DF
:0E11A0008F068E9DC0027A071202ADD002AFFC
:0E11AE00B25307FD8FB230810C90E740E4F0A1
:0711BC00D28143B202800959
:0911C30090E7407401F01207CF1F
:0E11CC0090E7487401F090E68AE4F090E68B1C
:0511DA007409F0804FD4
:0E11DF0090E7407402F090E741E4F090E68A59
:0911ED00F090E68B7402F08038EA
:0A11F60090E6A0E0FF4401F0802E17
:0C12000090E6BFE0700690E6BEE0601AC9
:0E120C00903A5B7401F090E68BE4F0AF9153E2
:0C121A0007EF8F9190E65D7401F0801DDD
:08122600120BE290E68BE4F0EC
:0E122E00AF915307EF8F9190E65D7401F09041
:07123C00E6A0E0FF4480F092
:0E124300D0D0D000D001D002D003D004D0050E
:0D125100D006D007D083D082D0F0D0E0D0FE
:02125E0020323C
:0E126000C0E0C082C083C007C0D075D000AF10
:0E126E00915307EF8F9190E65D7402F0D0D09F
:09127C00D007D083D082D0E0320B
:0E128500C0E0C082C083C007C0D075D000AFEB
:0E129300915307EF8F9190E65D7404F0D0D078
:0912A100D007D083D082D0E032E6
:0E12AA00C0E0C082C083C007C0D075D000AFC6
:0E12B800915307EF8F9190E65D7408F0D0D04F
:0912C600D007D083D082D0E032C1
:0E12CF00C0E0C082C083C007C0D075D000AFA1
:0E12DD00915307EF8F9190E65D7410F0D0D022
:0912EB00D007D083D082D0E0329C
:0E12F400C0E0C082C083C007C0D075D000AF7C
:0E130200915307EF8F9190E65D7420F0D0D0EC
:09131000D007D083D082D0E03276
:0E131900C0E0C082C083C007C0D075D000AF56
:0E132700915307EF8F9190E65D7440F0D0D0A7
:09133500D007D083D082D0E03251
:0C133E00C020C0E0C0F0C082C083C00727
:0E134A00C006C005C004C003C002C001C00040
:0E135800C0D075D000C2E8120BB5903A5AE032
:06136600FFBF30028042CF
:05136C00BF3302803DCB
:05137100BF3802800FEF
:05137600BF3A028033C4
:05137B00BF3B028015DC
:05138000BF3D228029A1
:0E13850090E68AE4F012056EE58290E68BF0A9
:021393008019BF
:0E13950090E68AE4F012073BE58290E68BF0CA
:0213A3008009BF
:0913A50090E68AE4F090E68BF07A
:0E13AE00AF915307EF8F9190E65F7401F0D27C
:0E13BC00E8D0D0D000D001D002D003D004D0B1
:0E13CA0005D006D007D083D082D0F0D0E0D07E
:0213D8002032C1
:0C13DA00C020C0E0C0F0C082C083C0078B
:0E13E600C006C005C004C003C002C001C000A4
:0E13F400C0D075D000C2E8903A5BE0FF6022E6
:0D140200903A5BE4F090E6BFE0FE7F0090C2
:0E140F00E6BEE07C004207EC4206903A17EF82
:07141D00F0A3EEF0120BE258
:0D142400120BB5903A5AE0FFBF3102803B39
:05143100BF3202803310
:05143600BF340280310B
:05143B00BF3502802C0A
:05144000BF3902800528
:05144500BF3C24800BF8
:0B144A0090E68BE0F5821205A28017EF
:0B145500903A06E0F51290E68BE0F5FF
:091460001390E7401206BC800362
:031469001208283E
:0D146C0090E68BE4F0AF915307EF8F919065
:0E147900E65F7402F0903A17E0FEA3E0FF4E2B
:0A148700700890E6A0E0FF4480F03A
:0E149100D2E8D0D0D000D001D002D003D004D9
:0E149F00D005D006D007D083D082D0F0D0E0A8
:0314AD00D020321A
:0E14B000C0E0C082C083C007C0D075D000AFBE
:0E14BE00915307EF8F9190E65F7404F0D0D049
:0914CC00D007D083D082D0E032B9
:0E14D500C0E0C082C083C007C0D075D000AF99
:0E14E300915307EF8F9190E65F7408F0D0D020
:0914F100D007D083D082D0E03294
:0E14FA00C0E0C082C083C007C0D075D000AF74
:0E150800915307EF8F9190E65F7410F0D0D0F2
:09151600D007D083D082D0E0326E
:0E151F00C0E0C082C083C007C0D075D000AF4E
:0E152D00915307EF8F9190E65F7420F0D0D0BD
:09153B00D007D083D082D0E03249
:0E154400C0E0C082C083C007C0D075D000AF29
:0E155200915307EF8F9190E65F7440F0D0D078
:09156000D007D083D082D0E03224
:0E156900C0E0C082C083C007C0D075D000AF04
:0E157700915307EF8F9190E65F7480F0D0D013
:09158500D007D083D082D0E032FF
:02158E007F00DC
:03159000BF0A008F
:0E1593005012EF248AF582E43400F583E0FE66
:0615A100BE30540F80E98A
:0715A7007510FB75110590A2
:0915AE003A121205CF7F007E0005
:0315B700BE05006E
:0A15BA00503CEE2412F582E4343AAE
:0E15C400F583E0FDEF248AFBE43400FCEDC467
:0E15D200540F9018B293FA8B828C83F00FEFB7
:0E15E000248AFBE43400FC740F5D9018B29373
:0A15EE00FD8B828C83F00F0E80BF8E
:0115F80022D0
:0E15F90090E680E04408F090E6007412F09056
:0E1607000002120265AF8E5307F88F8ED2815B
:0E16150043B202C2AFC2E89000437402F090EC
:0E16230000447401F090004574B8F090E66841
:0C163100E04408F09001007402F07EA27A
:0C163D007F0C8F05900101EDF090010280
:0B164900EEF09001047402F07E607F60
:0C165400128F05900105EDF0900106EEEC
:0A166000F09001087402F07E857F0F
:0C166A00128F05900109EDF090010AEECE
:0A167600F090010C7402F07EAA7FD0
:0C168000128F0590010DEDF090010EEEB0
:0A168C00F09001107402F07ECF7F91
:0C169600128F05900111EDF0900112EE92
:0A16A200F09001147402F07EF47F52
:0C16AC00128F05900115EDF0900116EE74
:0A16B800F09001187402F07E197F13
:0C16C200138F05900119EDF090011AEE55
:0A16CE00F09001207402F07E3E7FD0
:0C16D800138F05900121EDF0900122EE2F
:0A16E400F09001247402F07EDA7F1A
:0C16EE00138F05900125EDF0900126EE11
:0A16FA00F09001287402F07EB07F2A
:0C170400148F05900129EDF090012AEEF1
:0A171000F090012C7402F07ED57FEA
:0C171A00148F0590012DEDF090012EEED3
:0A172600F09001307402F07EFA7FAB
:0C173000148F05900131EDF0900132EEB5
:0A173C00F09001347402F07E1F7F6C
:0C174600158F05900135EDF0900136EE96
:0A175200F09001387402F07E447F2D
:0C175C00158F05900139EDF090013AEE78
:0A176800F090013C7402F07E697FEE
:0C177200158F0590013DEDF090013EEE5A
:0E177E00F0AF915307EF8F9190E65D747FF00E
:0E178C0090E65CE0FF447FF090E65F74FFF0B3
:0E179A0090E65E74FFF0D2E8D2AF90E61174D4
:0E17A800A0F00000000090E61074A0F0000019
:0D17B600000090E61274A0F000000000900A
:0E17C300E613E4F00000000090E614E4F000ED
:0E17D10000000090E615E4F000000000AFB24A
:0E17DF005307F78FB2308307903A00E4F08092
:0117ED0006F5
:0617EE00903A007401F0C6
:0E17F40012158E90E680E04482F090000A12FA
:0A180200026590E680E054F7F02242
:03180C001215F9B9
:02180F0080FE59
:051815005A5445580083
:0E181A005553422D46504741204D6F64756C6A
:0E1828006520312E31356420286465666175B7
:041836006C742900A5
:08183A0064656661756C7400C1
:0E18420012010002FFFFFF401A220001000009
:04185000010203018D
:0A1854000A060002FFFFFF4001003A
:0E185E0009022700010104C032090400000342
:0E186C00FFFFFF0007058102000200070501D3
:0B187A0002000200070502020002004D
:011885000062
:0E18860009022700010104C03209040000031A
:0E189400FFFFFF00070581024000000705016D
:0B18A2000240000007050202400000A9
:0118AD00003A
:0418AE00040300002F
:0E18B200303132333435363738394142434411
:0318C0004546009A
:0218C300000023
:0118C5000022
:0E18C60001880101010101070207020202026E
:0E18D4000200040000000000000400360000C6
:0418E2000000003FC3
:0E18E600020190010101010702020702020245
:0E18F4000200040000000000000400003600A6
:041902000000003FA2
:01190600FFE1
:0119070000DF
:081908000000000000000000D7
:06023700E478FFF6D8FD9B
:08021500794DE94400601B7AF9
:05021D00019018C378F8
:03022200177592BB
:0A0225003AE493F2A308B8000205C2
:08022F0092D9F4DAF27592FF96
:08023D007800E84400600A7932
:03024500007592AF
:060248003AE4F309D8FCC2
:08024E007817E84400600C7908
:0B02560001903A00E4F0A3D8FCD9FAB4
:03020800758120DD
:0A020B00121811E5826003020203DD
:0418110075820022BA
:00000001FF
