:03020000020208EF
:0302610002020393
:050203001216E180FE6F
:03000000020200F9
:0100030032CA
:01000B0032C2
:0100130032BA
:01001B0032B2
:0100230032AA
:01002B0032A2
:01003300329A
:01003B003292
:01004300328A
:01004B003282
:01005300327A
:01005B003272
:01006300326A
:0101000032CC
:0101040032C8
:0101080032C4
:01010C0032C0
:0101100032BC
:0101140032B8
:0101180032B4
:0101200032AC
:0101240032A8
:0101280032A4
:01012C0032A0
:01013000329C
:010134003298
:010138003294
:01013C003290
:01014000328C
:010148003284
:01014C003280
:01015000327C
:010154003278
:010158003274
:01015C003270
:01016000326C
:01017000325C
:010174003258
:010178003254
:01017C003250
:01018000324C
:010184003248
:010188003244
:01018C003240
:01019000323C
:010194003238
:010198003234
:01019C003230
:0101A000322C
:0101A8003224
:0101AC003220
:0101B000321C
:0101B4003218
:0101B8003214
:010264002277
:08026500AA82AB837C007D003E
:0B026D00C3EC9AED9B50147EB07F04A0
:050278001EBEFF011F86
:0B027D00EE4F70F70CBC00E80D80E5B0
:010288002253
:08028900AA82AB837C007D001A
:0B029100C3EC9AED9B50147E0A7F0026
:05029C001EBEFF011F62
:0B02A100EE4F70F70CBC00E80D80E58C
:0102AC00222F
:0E02AD0075AF0790E67BE090E67CF0DAF32276
:0102BB002220
:0202BC007A00C6
:0302BE00BAFF0084
:0D02C100500B90E678E0FB20E0030A80F08F
:0C02CE0090E678E0FA20E204EA20E10B60
:0B02DA0090E678E04440F075820122BD
:0402E50075820022FC
:0202E9007A0099
:0302EB00BAFF0057
:0D02EE00500B90E678E0FB20E0030A80F062
:0E02FB0090E678E0FA30E20B90E678E04440BE
:05030900F075820122E5
:04030E0075820022D2
:020312007A006F
:03031400BAFF002D
:0E031700500F90E678E0FB20E2047582002291
:030325000A80EC5F
:0403280075820122B7
:02032C007A0055
:03032E00BAFF0013
:0E033100500F90E678E0FB20E6047582002273
:03033F000A80EC45
:04034200758201229D
:09034600AA82C3E49508E433FB2C
:0E034F0090E678E04480F0C002C00312031272
:0E035D00D003D00290E679EAF0C002C003128D
:0C036B0002BCE582D003D0027012E5094C
:0C037700600A90E678E04440F012032C8D
:04038300758200225D
:0E038700EB601090000AC002C003120289D081
:0503950003D00280B559
:0C039A00E509600890E678E0FA4440F0C5
:0403A6007582012239
:0C03AA00AA82AB837C00E50C7003F58296
:0103B6002224
:0A03B7007508647509007582A2C084
:0E03C10002C003C004120346E582D004D0033C
:0703CF00D00260030204B03C
:0C03D60090E679E50BF0C002C003C00403
:0E03E2001202BCE582D004D003D002600302F8
:0203F00004B057
:0C03F20090E679E50AF0C002C003C004E8
:0E03FE001202BCE582D004D003D002600302DC
:02040C0004B03A
:0E040E0090E678E04440F0C002C003C0041243
:0D041C00032C90E678E04480F0120312906B
:0E042900E67974A3F01202BCE582D004D00381
:0E043700D002707590E679E08A828B83F0C067
:0E04450002C003C0041202E9E582D004D00315
:05045300D0027059FD0C
:0C045800C3ED950C502A90E679E08A82F2
:0E0464008B83F0A3AA82AB83C002C003C00446
:0E047200C0051202E9E582D005D004D003D007
:0804800002702D0D8D0480D0E7
:0E04880090E678E04420F090E679E0C004129F
:0E04960002E9E582D004701290E678E044405E
:0C04A400F090E679E0C00412032CD004B4
:0304B0008C822219
:0A04B300AA82AB837C007508647513
:0C04BD0009007582A2C002C003C0041236
:0D04C9000346E582D004D003D00260030298
:0204D6000569B6
:0C04D80090E679E50EF0C002C003C004FD
:0E04E4001202BCE582D004D003D002600302F5
:0204F20005699A
:0C04F40090E679E50DF0C002C003C004E2
:0E0500001202BCE582D004D003D002705CFD74
:0C050E00C3ED950F50478A828B83E0FEFE
:0E051A00A3AA82AB8390E679EEF0903A05E05A
:0D052800FFEE2FF0903A03E0FEA3E0FF90FD
:0E0535003A0374012EF0E43FA3F0C002C003AD
:0E054300C004C0051202BCE582D005D004D071
:0A05510003D00270130D8D0480B377
:0E055B0090E678E04440F0C00412032CD00477
:030569008C82225F
:0A056C00903A19E0FA903A01E0F528
:060576000AA3E0F50B8A68
:0C057C000C90E740C0021203AAAB82D032
:0E058800027C00903A01E0FDA3E0FE903A01F3
:0A059600EA2DF0EC3EA3F08B822268
:0B05A000AA82903A01E0F50DA3E0F5FF
:0905AB000E8A0F90E740C0021215
:0E05B40004B3D0027B00903A01E0FCA3E0FD0E
:0B05C200903A01EA2CF0EB3DA3F02280
:0C05CD00AA82AB837C00E5117003F5826C
:0105D90022FF
:0A05DA007508647509007582A6C05B
:0E05E40002C003C004120346E582D004D00317
:0705F200D00260030206B70E
:0C05F90090E679E510F0C002C003C004D9
:0E0605001202BCE582D004D003D002600302D2
:0206130006B728
:0E06150090E678E04440F0C002C003C004123A
:0D062300032C90E678E04480F01203129062
:0E063000E67974A7F01202BCE582D004D00374
:0E063E00D002707590E679E08A828B83F0C05E
:0E064C0002C003C0041202E9E582D004D0030C
:05065A00D0027059FD03
:0C065F00C3ED9511502A90E679E08A82E4
:0E066B008B83F0A3AA82AB83C002C003C0043D
:0E067900C0051202E9E582D005D004D003D0FE
:0806870002702D0D8D0480D0DE
:0E068F0090E678E04420F090E679E0C0041296
:0E069D0002E9E582D004701290E678E0444055
:0C06AB00F090E679E0C00412032CD004AB
:0306B7008C822210
:0A06BA00AA82AB837C00750864750A
:0C06C40009007582A6C002C003C0041229
:0D06D0000346E582D004D003D002705A909A
:0C06DD00E679E512F0C002C003C0041270
:0D06E90002BCE582D004D003D0027041FDB8
:0C06F600C3ED9513502C8A828B83E0FE2C
:0E070200A3AA82AB8390E679EEF0C002C0039A
:0E071000C004C0051202BCE582D005D004D0A2
:0A071E0003D00270130D8D0480CE8D
:0E07280090E678E04440F0C00412032CD004A8
:030736008C822290
:07073900903A19E0F5119060
:090740003A06E0F51090E74002D2
:0207490005CDDC
:0D074B00AA8290E6017480F000000000908A
:0E075800E670E4F090E671F053B4F975B2B6B5
:0E07660074904AF58043B40853A0F790000A3F
:0E077400C002120265D00274024AF5807A00BB
:020782007B00FA
:0E07840020A2208A048B057E007F00C3EC9427
:0E079200FFED94FFEE9400EF6480948050071A
:0707A0000ABA00E00B80DD46
:0707A70030A2047AC88002B1
:0207AE007A646B
:0E07B000903A0CEAF0903A08E4F0A3F0A3F0BF
:0807BE00A3F0903A07E4F022D9
:0607C60075820402074BDE
:0607CC0075823402074BA8
:0307D2000207C655
:0107D5002201
:0707D60030A2047A16800234
:0207DD007A0B95
:0A07DF00903A0CE0FBEA2BF07A00E0
:0307E900BA400013
:0907EC005007D284C2840A80F493
:0E07F500D287D284C284D284C284D284C284C9
:0E080300D284C28475B20053B4F7308105D29E
:04081100811207D574
:06081500D28143B2022271
:0C081B0085B31475B3FF903A19E0FB9010
:0E0827003A08E0FCA3E0FDA3E0FEA3E0FF78AA
:0E0835000079007A00903A08EB2CF0E83DA321
:0E084300F0E93EA3F0EA3FA3F090E68BE06000
:0E08510022FA759B40759AE775AF07903A073B
:05085F00E0F990E67BCA
:0E086400E0F590D28429F9C284DAF5903A07C3
:02087200E9F0AB
:0B0874008514B390E68BE0FABA400058
:05087F0050030207D642
:010884002251
:0E088500C0E0C082C083C002C003C004C00532
:0E089300C006C007C000C001C0D075D00085EF
:0C08A100B315C2E890E690E0FC7B0090EC
:0E08AD00E691E07E004203EE4204903A08E03D
:0E08BB00FDA3E0FEA3E0FFA3E0F8EC3395E020
:0E08C900F9FA903A08EB2DF0EC3EA3F0E93F6F
:0E08D700A3F0EA38A3F075B3FF90E691E0FAC3
:0E08E5005407FB90E690E0340013F9EA13FA92
:0E08F300E913F9EA13FAE913F9EA13FA759B0F
:0D09010000759AF075AF0790E67BEB600C77
:0C090E00E0F590D284C284DBF7EA603A86
:0E091A00E0F590D284C284E0F590D284C284CD
:0E092800E0F590D284C284E0F590D284C284BF
:0E093600E0F590D284C284E0F590D284C284B1
:0E094400E0F590D284C284E0F590D284C284A3
:02095200DAC603
:0C0954008515B390E6497482F0000000A5
:0E096000005391EF90E65F7410F0D2E8D0D013
:0E096E00D001D000D007D006D005D004D003B1
:09097C00D002D083D082D0E03219
:0E09850090E60174E2F090E6F3E4F090E6C331
:0E099300F090E6C1F090E6C27404F090E6C069
:0C09A100744EF090E6F4E4F0759B1A7AB6
:0A09AD001A7B3A8B9A759E60759DC7
:0E09B700E4C0027A201202ADD00290E6C6E43F
:0D09C500F090E6C77410F090E6C8E4F090E2
:0E09D200E6C9F090E6CAF090E6CBF090E6CCD5
:0E09E000E4F090E6CDF090E60B7401F000001C
:0D09EE00000090E6047480F000000000900E
:0E09FB00E6047402F00000000090E604E4F050
:0E0A09000000000090E618E4F00000000090ED
:0E0A1700E6187410F00000000090E6D27401A2
:0E0A2500F00000000090E6CE7401F00000002A
:0E0A33000090E6CFE4F00000000090E6D0E472
:0E0A4100F00000000090E6D1E4F0000000009C
:0E0A4F0090E6D474FFF00000000053B2EF43B5
:050A5D00B201C280227D
:0E0A620090E6017480F090E60B7403F0000043
:0D0A7000000090E6047480F000000000908B
:0E0A7D00E6047402F00000000090E604E4F0CD
:0E0A8B000000000090E618E4F000000000906B
:0E0A9900E6497482F00000000090E649748285
:0E0AA700F00000000090E6497482F0000000AC
:0E0AB5000090E6497482F000000000900132CB
:0D0AC300E0903A10F0A3E4F0900131E090D3
:090AD0003A0EF0A3E4F07A857BF4
:0C0AD900088B04900131ECF0900132EA2F
:0B0AE500F05391EF90E65F7410F022D8
:01006C00286B
:01006D000191
:04006E005A54455843
:040072000A0D000073
:010076000089
:010077000187
:060078006300000000001F
:0C007E0000000000000000000000000076
:0A008A00303030303030303030308C
:010AF00022E3
:0E0AF10090E683E4F07420F07410F07430F09E
:0E0AFF0090E6837401F07421F07411F07431EC
:0B0B0D00F090E6837402F07422F022E6
:0A0B1800AA82E51724E050037517C8
:010B22001FB3
:0D0B230090E6BFE0701090E6BEE0FBC395C9
:090B300017500690E6BEE0F5172F
:0C0B390075AF078A9B85169A759E417562
:0A0B45009DE790E67C7403F07A004F
:0C0B4F00C3EA9517501190E67BE0FB9084
:0B0B5B00E67CF090E67CE4F00A80E904
:0B0B6600E5170425E0FA90E740F0904E
:0E0B7100E7417403F090E68AE4F090E68BEA28
:020B7F00F02262
:0E0B8100903A17E0FAA3E0FBC374409AE49B9D
:080B8F0050067C407D0080044B
:040B97008A048B053C
:0E0B9B00903A19ECF07D00903A17EAC39CF0F6
:050BA900EB9DA3F0220A
:0A0BAE00903A5AE0FABA310280488A
:040BB800BA3201222A
:050BBC00BA3402804282
:050BC100BA3502805A64
:050BC600BA39028008AD
:050BCB00BA3C02802786
:030BD000020C63B1
:0E0BD300903A05E4F0903A03F0A3F090E6BBF0
:0E0BE100E0FB7A0090E6BAE0FC7D00903A015D
:080BEF00EC4AF0ED4BA3F022EB
:090BF70090E6BAE0903A06F02203
:030C00000207D216
:0E0C03001207D290E6A3E054FEF090E6F574DE
:0C0C1100FFF0903A00E0FA6003020A6273
:030C1D0002098544
:0E0C2000903A00E0FA601C903A10E0FAA3E06F
:0E0C2E00900132EAF0903A0EE0FAA3E0FB905B
:070C3C000131EAF0020C6037
:0E0C4300D280D28443B21090E6F574FFF00028
:0E0C510000000090E601E0FA54F0F000000010
:010C5F000094
:030C60000207D6B2
:080C630090E6A0E04401F0223C
:0C0C6B00C020C0E0C0F0C082C083C00206
:0E0C7700C003C004C005C006C007C000C00115
:0E0C8500C0D075D00090E6B9E0FA903A5AF06F
:0E0C930090E6B57401F090E6B9E0FA24F35053
:040CA1000302102119
:070CA500EA2A2A900CAC734F
:070CAC00020CD3020D8702C8
:060CB3001021020E0402F4
:060CB900102102102102CF
:060CBF000E9C020FB702BB
:060CC5000FB9020FCA0284
:060CCB000FCF020FE00252
:020CD1000FE52D
:0A0CD30090E6B8E0FABA8002800D46
:050CDD00BA8102801E37
:050CE200BA8202802F20
:030CE700021021D7
:0E0CEA0090E740E4F090E741F090E68AF09049
:080CF800E68B7402F0021021EA
:0E0D000090E740E4F090E741F090E68AF09032
:080D0E00E68B7402F0021021D3
:0C0D160090E6BCE0FA600FBA0102801900
:050D2200BA800280050B
:050D2700BA812F801EBF
:0E0D2C0090E6A0E0FA53020190E740EAF08062
:010D3A003A7E
:0E0D3B0090E6A1E0FA53020190E740EAF08052
:010D49002B7E
:0E0D4A0090E6A2E0FA53020190E740EAF08042
:010D58001C7E
:0E0D590090E6BCE0C31314540324A3F582E417
:0E0D670034E6F583E0FA53020190E740EAF02B
:0E0D750090E741E4F090E68AF090E68B74027D
:040D8300F002102149
:0A0D870090E6B8E0FABA0202800319
:030D91000210212C
:090D940090E6BAE06003021021B0
:0C0D9D0090E6BCE0FA600FBA010280157D
:050DA900BA8002800584
:050DAE00BA812380164C
:0B0DB30090E6A0E0FA54FEF0021021D0
:0B0DBE0090E6A1E0FA54FEF0021021C4
:0B0DC90090E6A2E0FA54FEF0021021B8
:0E0DD40090E6BCE0C31314540324A3FAE434E5
:0E0DE200E6FB90E6BCE0C31314540324A3F513
:0E0DF00082E434E6F583E0FC5304FE8A828B35
:060DFE0083ECF00210215D
:0A0E040090E6B8E0FABA020280039B
:030E0E00021021AE
:090E110090E6BAE0600302102132
:0C0E1A0090E6BCE0FA600FBA0102801400
:050E2600BA8002800506
:050E2B00BA81208014D3
:0A0E300090E6A0E0FA4401F08041D2
:0A0E3A0090E6A1E0FA4401F08037D1
:0A0E440090E6A2E0FA4401F0802DD0
:0E0E4E0090E6BCE0C31314540324A3FAE4346A
:0E0E5C00E6FB90E6BCE0C31314540324A3F598
:0E0E6A0082E434E6F583E0FC4304FE8A828BCA
:030E780083ECF018
:0E0E7B0090E6BCE05480C423541FFA90E6BCFD
:0E0E8900E0FB740F5B420290E683EAF07420F7
:050E97004AF0021021E9
:0A0E9C0090E6BBE0FABA01028019EB
:050EA600BA02028026E3
:050EAB00BA0302804DB6
:060EB000BA0603020F70F8
:060EB600BA0703020F82DF
:030EBC00020FAD75
:0A0EBF007A187B1790E6B3EBF09071
:080EC900E6B47418F0021021D8
:0B0ED10090E680E0FA30E7127A347BF4
:0A0EDC001790E6B3EBF090E6B47453
:050EE60034F0021021B0
:0A0EEB007A5C7B1790E6B3EBF09001
:080EF500E6B4745CF002102168
:0A0EFD0090E6BAE0FABA0102800F95
:050F0700BA0202801C8B
:050F0C00BA0302802978
:050F1100BA044A80361D
:060F16007582EA7AEA7B15
:040F1C00168B1675A5
:060F20001705120B180278
:020F2600102198
:060F28007582EF7AEF7BF9
:040F2E00168B167593
:060F32001720120B18024B
:020F3800102186
:0A0F3A0075828A7A8A7B008B167597
:060F4400170A120B18024F
:020F4A00102174
:060F4C0075820F7A0F7B95
:040F5200178B16756E
:060F56001708120B18023F
:020F5C00102162
:0A0F5E007A847B1790E6B3EBF09065
:080F6800E6B47484F0021021CC
:0A0F70007A2A7B1790E6B3EBF090AD
:080F7A00E6B4742AF002102114
:0B0F820090E680E0FA30E7127A5C7B1A
:0A0F8D001790E6B3EBF090E6B474A1
:050F97005CF0021021D6
:0A0F9C007A347B1790E6B3EBF09077
:070FA600E6B47434F080741E
:0A0FAD0090E6A0E0FA4401F0806A2B
:020FB700806850
:0E0FB90090E740E4F090E68AF090E68B740139
:030FC700F0805760
:050FCA00120AF1805243
:0E0FCF0090E740E4F090E68AF090E68B740123
:030FDD00F0804160
:050FE000120AF1803C43
:0E0FE50090E6B8E0FABA823490E6BCE0C3139E
:0B0FF30014540325E0245CF582E43474
:0C0FFE003AF583E4F0A3F090E685E09063
:0D100A00E740F090E684E0FA90E741F090B6
:0A101700E68AE4F090E68B7402F024
:0B10210090E6B8E0FABA40030211A705
:05102C00BAC0028003C0
:031031000211D1D8
:0E10340090E6BFE0FB7A0090E6BEE0FC7D0097
:0E104200903A17EC4AF0ED4BA3F0120B8190A0
:09105000E6B9E0FABA220280259B
:06105900BA300302113D54
:06105F00BA330302118602
:05106500BA38028031E1
:05106A00BA3A028055B6
:06106F00BA3B030211036D
:06107500BA3D0302111C4C
:03107B0002119DC2
:0E107E0090E6B5E4F090E68AF090E68B7428D8
:0D108C00F090E6B3E4F090E6B4746CF0026E
:0210990011D173
:0E109B0090E6BBE0FB7A0090E6BAE0FC7D0038
:0E10A900903A01EC4AF0ED4BA3F090E68AE499
:0D10B700F012056CE58290E68BF00211D17D
:0E10C400903A03E0FAA3E0FB8A0490E740ECC8
:0D10D200F08B0290E741EAF0903A05E090C3
:0A10DF00E742F0750800750901757D
:0D10E90082A2120346AA8290E743EAF0902B
:0D10F600E68AE4F090E68B7404F00211D15C
:0E11030090E6BAE0903A06F090E68AE4F01228
:0B1111000739E58290E68BF00211D157
:0A111C007508007509017582A6121E
:0E1126000346AA8290E740EAF090E68AE4F0E1
:0911340090E68B7401F00211D168
:06113D00759B077A077B99
:0C1143003A8B9A759E417A417BE78B9DA8
:0E114F00C0027A071202ADD00253B2FD308109
:0D115D000C90E740E4F0D28143B20280091B
:09116A0090E7407401F01207C681
:0E11730090E7487401F090E68AE4F090E68B75
:051181007409F0804B31
:0E11860090E7407402F090E741E4F090E68AB2
:09119400F090E68B7402F0803447
:0A119D0090E6A0E0FA4401F0802A79
:0C11A70090E6BFE0700690E6BEE0601627
:0E11B300903A5B7401F090E68BE4F05391EFFC
:0811C10090E65D7401F0801955
:0811C900120BAE90E68BE4F07E
:0E11D1005391EF90E65D7401F090E6A0E0FA15
:0311DF004480F059
:0E11E200D0D0D001D000D007D006D005D00468
:0D11F000D003D002D083D082D0F0D0E0D068
:0211FD0020329E
:0E11FF00C0E0C082C0835391EF90E65D7402A1
:08120D00F0D083D082D0E03262
:0E121500C0E0C082C0835391EF90E65D740488
:08122300F0D083D082D0E0324C
:0E122B00C0E0C082C0835391EF90E65D74086E
:08123900F0D083D082D0E03236
:0E124100C0E0C082C0835391EF90E65D741050
:08124F00F0D083D082D0E03220
:0E125700C0E0C082C0835391EF90E65D74202A
:08126500F0D083D082D0E0320A
:0E126D00C0E0C082C0835391EF90E65D7440F4
:08127B00F0D083D082D0E032F4
:0C128300C020C0E0C0F0C082C083C002E8
:0E128F00C003C004C005C006C007C000C001F7
:0E129D00C0D075D000C2E8120B81903A5AE022
:0612AB00FABA3002804295
:0512B100BA3302803D8C
:0512B600BA3802800FB0
:0512BB00BA3A02803385
:0512C000BA3B0280159D
:0512C500BA3D22802962
:0E12CA0090E68AE4F012056CE58290E68BF067
:0212D80080197B
:0E12DA0090E68AE4F0120739E58290E68BF088
:0212E80080097B
:0912EA0090E68AE4F090E68BF036
:0E12F3005391EF90E65F7401F0D2E8D0D0D0B6
:0E13010001D000D007D006D005D004D003D014
:0C130F0002D083D082D0F0D0E0D0203299
:0C131B00C020C0E0C0F0C082C083C0024F
:0E132700C003C004C005C006C007C000C0015E
:0E133500C0D075D000C2E8903A5BE0FA6020AC
:0D134300903A5BE4F090E6BFE0FB7A00908A
:0E135000E6BEE0FC7D00903A17EC4AF0ED4B53
:05135E00A3F0120BAE2C
:0D136300120B81903A5AE0FABA3102803B39
:05137000BA32028033D7
:05137500BA34028031D2
:05137A00BA3502802CD1
:05137F00BA39028005EF
:05138400BA3C24800BBF
:0B13890090E68BE0F5821205A08017B3
:0B139400903A06E0F51290E68BE0F5C1
:09139F001390E7401206BA800326
:0313A80012081B0D
:0E13AB0090E68BE4F05391EF90E65F7402F051
:0E13B900903A17E0FAA3E0FB4A700890E6A015
:0513C700E0FA4480F093
:0E13CC00D2E8D0D0D001D000D007D006D00596
:0E13DA00D004D003D002D083D082D0F0D0E077
:0313E800D02032E0
:0E13EB00C0E0C082C0835391EF90E65F7404AF
:0813F900F0D083D082D0E03275
:0E140100C0E0C082C0835391EF90E65F740894
:08140F00F0D083D082D0E0325E
:0E141700C0E0C082C0835391EF90E65F741076
:08142500F0D083D082D0E03248
:0E142D00C0E0C082C0835391EF90E65F742050
:08143B00F0D083D082D0E03232
:0E144300C0E0C082C0835391EF90E65F74401A
:08145100F0D083D082D0E0321C
:0E145900C0E0C082C0835391EF90E65F7480C4
:08146700F0D083D082D0E03206
:02146F007A0001
:03147100BA0A00B4
:0E1474005012EA248AF582E43400F583E0FB8E
:06148200BB30540A80E9B2
:071488007510FB75110590C2
:09148F003A121205CD7A007B002F
:03149800BB050091
:0A149B00503CEB2412F582E4343AD1
:0E14A500F583E0FCEA248AFDE43400FEECC48A
:0E14B300540F90178893FF8D828E83F00AEA03
:0E14C100248AFDE43400FE740F5C90178893BB
:0A14CF00FC8D828E83F00A0B80BFB3
:0114D90022F0
:0E14DA0090E680E04408F090E6007412F09076
:0E14E8000002120265538EF8D28143B202C296
:0E14F600AFC2E89000437402F090004474010D
:0E150400F090004574B8F090E668E04408F0FE
:0A1512009001007402F07A6B7B0C6C
:0D151C008B04900101ECF0900102EAF090C8
:0A15290001047402F07AFF7B118BBD
:0E15330004900105ECF0900106EAF09001082A
:0A1541007402F07A157B128B0490FF
:0E154B000109ECF090010AEAF090010C740224
:0A155900F07A2B7B128B0490010D39
:0E156300ECF090010EEAF09001107402F07AA4
:0A157100417B128B04900111ECF095
:0C157B00900112EAF09001147402F07A62
:0A158700577B128B04900115ECF065
:0C159100900116EAF09001187402F07A44
:0A159D006D7B128B04900119ECF035
:0C15A70090011AEAF09001207402F07A22
:0A15B300837B128B04900121ECF001
:0C15BD00900122EAF09001247402F07A00
:0A15C9001B7B138B04900125ECF04E
:0C15D300900126EAF09001287402F07AE2
:0A15DF00EB7B138B04900129ECF064
:0C15E90090012AEAF090012C7402F07AC4
:0A15F500017B148B0490012DECF033
:0C15FF0090012EEAF09001307402F07AA6
:0A160B00177B148B04900131ECF002
:0C161500900132EAF09001347402F07A87
:0A1621002D7B148B04900135ECF0D2
:0C162B00900136EAF09001387402F07A69
:0A163700437B148B04900139ECF0A2
:0C16410090013AEAF090013C7402F07A4B
:0A164D00597B148B0490013DECF072
:0E16570090013EEAF05391EF90E65D747FF053
:0E16650090E65CE0FA447FF090E65F74FFF0E0
:0E16730090E65E74FFF0D2E8D2AF90E61174FC
:0E168100A0F00000000090E61074A0F0000041
:0D168F00000090E61274A0F0000000009032
:0E169C00E613E4F00000000090E614E4F00015
:0E16AA0000000090E615E4F00000000053B2CE
:0B16B800F7308307903A00E4F0800652
:0616C300903A007401F0F2
:0E16C90012146F90E680E04482F090000A1246
:0A16D700026590E680E054F7F0226F
:0316E1001214DA06
:0216E40080FE86
:0516EA005A54455800B0
:0E16EF005553422D46504741204D6F64756C97
:0E16FD006520312E31357820286465666175D0
:04170B006C742900D1
:08170F0064656661756C7400ED
:0117170000D1
:0E17180012010002FFFFFF401A220001000034
:0417260001020301B8
:0A172A000A060002FFFFFF40010065
:0E17340009022700010104C03209040000036D
:0E174200FFFFFF0007058102000200070501FE
:0B175000020002000705020200020078
:01175B00008D
:0E175C0009022700010104C032090400000345
:0E176A00FFFFFF000705810240000007050198
:0B1778000240000007050202400000D4
:011783000065
:04178400040300005A
:0E17880030313233343536373839414243443C
:03179600454600C5
:0217990000004E
:01179B00004D
:0E179C00018801010101010702070202020299
:0E17AA000200040000000000000400360000F1
:0417B8000000003FEE
:0E17BC00020190010101010702020702020270
:0E17CA000200040000000000000400003600D1
:0417D8000000003FCE
:0117DC00FF0D
:0117DD00000B
:0817DE00000000000000000003
:06023700E478FFF6D8FD9B
:08021500794DE94400601B7AF9
:05021D00019017997823
:03022200177592BB
:0A0225003AE493F2A308B8000205C2
:08022F0092D9F4DAF27592FF96
:08023D007800E84400600A7932
:03024500007592AF
:060248003AE4F309D8FCC2
:08024E007817E84400600C7908
:0B02560001903A00E4F0A3D8FCD9FAB4
:03020800758120DD
:0A020B001216E6E58260030202030A
:0416E60075820022E7
:00000001FF
