:03020000020208EF
:0302610002020393
:0502030012219180FEB4
:03000000020200F9
:0100030032CA
:01000B0032C2
:0100130032BA
:01001B0032B2
:0100230032AA
:01002B0032A2
:01003300329A
:01003B003292
:01004300328A
:01004B003282
:01005300327A
:01005B003272
:01006300326A
:0101000032CC
:0101040032C8
:0101080032C4
:01010C0032C0
:0101100032BC
:0101140032B8
:0101180032B4
:0101200032AC
:0101240032A8
:0101280032A4
:01012C0032A0
:01013000329C
:010134003298
:010138003294
:01013C003290
:01014000328C
:010148003284
:01014C003280
:01015000327C
:010154003278
:010158003274
:01015C003270
:01016000326C
:01017000325C
:010174003258
:010178003254
:01017C003250
:01018000324C
:010184003248
:010188003244
:01018C003240
:01019000323C
:010194003238
:010198003234
:01019C003230
:0101A000322C
:0101A8003224
:0101AC003220
:0101B000321C
:0101B4003218
:0101B8003214
:010264002277
:08026500AA82AB837C007D003E
:0B026D00C3EC9AED9B50147EB07F04A0
:050278001EBEFF011F86
:0B027D00EE4F70F70CBC00E80D80E5B0
:010288002253
:08028900AA82AB837C007D001A
:0B029100C3EC9AED9B50147E0A7F0026
:05029C001EBEFF011F62
:0B02A100EE4F70F70CBC00E80D80E58C
:0102AC00222F
:0E02AD0075AF0790E67BE090E67CF0DAF32276
:0102BB002220
:0202BC007A00C6
:0302BE00BAFF0084
:0D02C100500B90E678E0FB20E0030A80F08F
:0C02CE0090E678E0FA20E204EA20E10B60
:0B02DA0090E678E04440F075820122BD
:0402E50075820022FC
:0202E9007A0099
:0302EB00BAFF0057
:0D02EE00500B90E678E0FB20E0030A80F062
:0E02FB0090E678E0FA30E20B90E678E04440BE
:05030900F075820122E5
:04030E0075820022D2
:020312007A006F
:03031400BAFF002D
:0E031700500F90E678E0FB20E2047582002291
:030325000A80EC5F
:0403280075820122B7
:02032C007A0055
:03032E00BAFF0013
:0E033100500F90E678E0FB20E6047582002273
:03033F000A80EC45
:04034200758201229D
:09034600AA82C3E49508E433FB2C
:0E034F0090E678E04480F0C002C00312031272
:0E035D00D003D00290E679EAF0C002C003128D
:0C036B0002BCE582D003D0027012E5094C
:0C037700600A90E678E04440F012032C8D
:04038300758200225D
:0E038700EB601090000AC002C003120289D081
:0503950003D00280B559
:0C039A00E509600890E678E0FA4440F0C5
:0403A6007582012239
:0C03AA00AA82AB837C00E50C7003F58296
:0103B6002224
:0A03B7007508647509007582A2C084
:0E03C10002C003C004120346E582D004D0033C
:0703CF00D00260030204B03C
:0C03D60090E679E50BF0C002C003C00403
:0E03E2001202BCE582D004D003D002600302F8
:0203F00004B057
:0C03F20090E679E50AF0C002C003C004E8
:0E03FE001202BCE582D004D003D002600302DC
:02040C0004B03A
:0E040E0090E678E04440F0C002C003C0041243
:0D041C00032C90E678E04480F0120312906B
:0E042900E67974A3F01202BCE582D004D00381
:0E043700D002707590E679E08A828B83F0C067
:0E04450002C003C0041202E9E582D004D00315
:05045300D0027059FD0C
:0C045800C3ED950C502A90E679E08A82F2
:0E0464008B83F0A3AA82AB83C002C003C00446
:0E047200C0051202E9E582D005D004D003D007
:0804800002702D0D8D0480D0E7
:0E04880090E678E04420F090E679E0C004129F
:0E04960002E9E582D004701290E678E044405E
:0C04A400F090E679E0C00412032CD004B4
:0304B0008C822219
:0A04B300AA82AB837C007508647513
:0C04BD0009007582A2C002C003C0041236
:0D04C9000346E582D004D003D00260030298
:0204D6000569B6
:0C04D80090E679E50EF0C002C003C004FD
:0E04E4001202BCE582D004D003D002600302F5
:0204F20005699A
:0C04F40090E679E50DF0C002C003C004E2
:0E0500001202BCE582D004D003D002705CFD74
:0C050E00C3ED950F50478A828B83E0FEFE
:0E051A00A3AA82AB8390E679EEF0903A04E05B
:0D052800FFEE2FF0903A02E0FEA3E0FF90FE
:0E0535003A0274012EF0E43FA3F0C002C003AE
:0E054300C004C0051202BCE582D005D004D071
:0A05510003D00270130D8D0480B377
:0E055B0090E678E04440F0C00412032CD00477
:030569008C82225F
:0A056C00903A30E0FA903A00E0F512
:060576000AA3E0F50B8A68
:0C057C000C90E740C0021203AAAB82D032
:0E058800027C00903A00E0FDA3E0FE903A00F5
:0A059600EA2DF0EC3EA3F08B822268
:0B05A000AA82903A00E0F50DA3E0F500
:0905AB000E8A0F90E740C0021215
:0E05B40004B3D0027B00903A00E0FCA3E0FD0F
:0B05C200903A00EA2CF0EB3DA3F02281
:0C05CD00AA82AB837C00E5117003F5826C
:0105D90022FF
:0A05DA007508647509007582A6C05B
:0E05E40002C003C004120346E582D004D00317
:0705F200D00260030206B70E
:0C05F90090E679E510F0C002C003C004D9
:0E0605001202BCE582D004D003D002600302D2
:0206130006B728
:0E06150090E678E04440F0C002C003C004123A
:0D062300032C90E678E04480F01203129062
:0E063000E67974A7F01202BCE582D004D00374
:0E063E00D002707590E679E08A828B83F0C05E
:0E064C0002C003C0041202E9E582D004D0030C
:05065A00D0027059FD03
:0C065F00C3ED9511502A90E679E08A82E4
:0E066B008B83F0A3AA82AB83C002C003C0043D
:0E067900C0051202E9E582D005D004D003D0FE
:0806870002702D0D8D0480D0DE
:0E068F0090E678E04420F090E679E0C0041296
:0E069D0002E9E582D004701290E678E0444055
:0C06AB00F090E679E0C00412032CD004AB
:0306B7008C822210
:0A06BA00AA82AB837C00750864750A
:0C06C40009007582A6C002C003C0041229
:0D06D0000346E582D004D003D002705A909A
:0C06DD00E679E512F0C002C003C0041270
:0D06E90002BCE582D004D003D0027041FDB8
:0C06F600C3ED9513502C8A828B83E0FE2C
:0E070200A3AA82AB8390E679EEF0C002C0039A
:0E071000C004C0051202BCE582D005D004D0A2
:0A071E0003D00270130D8D0480CE8D
:0E07280090E678E04440F0C00412032CD004A8
:030736008C822290
:07073900903A30E0F5119049
:090740003A05E0F51090E74002D3
:0207490005CDDC
:02074B00AA8280
:08074D00D2A600C2A6DAF922CF
:0E075500A2A4D2A633C2A6A2A4D2A633C2A6E4
:0E076300A2A4D2A633C2A6A2A4D2A633C2A6D6
:0E077100A2A4D2A633C2A6A2A4D2A633C2A6C8
:0E077F00A2A4D2A633C2A6A2A4D2A633C2A6BA
:07078D00F5822275820022B3
:02079400AA15A4
:0E079600A2A4D2A633C2A6A2A4D2A633C2A6A3
:0E07A400A2A4D2A633C2A6A2A4D2A633C2A695
:0E07B200A2A4D2A633C2A6A2A4D2A633C2A687
:0E07C000A2A4D2A633C2A6A2A4D2A633C2A679
:0507CE00F0A3DAC422D3
:0E07D300E5823392A7D2A633C2A692A7D2A681
:0E07E10033C2A692A7D2A633C2A692A7D2A672
:0E07EF0033C2A692A7D2A633C2A692A7D2A664
:0E07FD0033C2A692A7D2A633C2A692A7D2A656
:04080B0000C2A6225F
:02080F00AA1528
:0E081100E03392A7D2A633C2A692A7D2A63396
:0E081F00C2A692A7D2A633C2A692A7D2A63333
:0E082D00C2A692A7D2A633C2A692A7D2A63325
:0E083B00C2A692A7D2A633C2A692A7D2A6A3A7
:05084900C2A6DAC42282
:0D084E00903A0D7403F043A0807A007B0007
:0E085B00C002C003120755AC82D003D002BC0D
:04086900FF028020EA
:0E086D008A048B057E007F00C3EC94FFED949F
:0E087B00FFEE9400EF6480948050070ABA00EC
:04088900D10B80CE41
:0E088D00E5A030E409903A0DE4F075820022F7
:04089B00758201223F
:0D089F0043A02075820812074B53A0DF0212
:0208AC00084EF4
:0E08AE0043A08075820812074B43A02075827C
:0408BC000802074BDC
:0508C00043A0807A5501
:0A08C500120755E58230E702DAF66B
:0B08CF00903A0FF0F5822275820022A3
:0708DA0043A0807A007B00BF
:0E08E100C002C003120755AC82D003D002BC87
:0408EF00FE02800D78
:0508F3000ABA00010B30
:0808F800EA4B70E57582012254
:0409000075820022DA
:0E090400AA82AB83ACF0FDE5A020E50475826D
:020912000422BD
:0E091400C002C003C004C00512089FE582D0D7
:0E09220005D004D003D00260071208AE758223
:020930000322A0
:0E093200758208C002C003C004C00512074B46
:0E094000D005D004D003D002903A0E7412F00D
:0E094E00903A117452F0903A10E0FE7028EAD0
:0E095C002AFAEB33FBEC33FCED33FD8C0690F6
:0E096A003A12EEF08B06903A13EEF08A0690E9
:0B0978003A14EEF0903A15E4F0801AFB
:0E0983008D06903A12EEF08C06903A13EEF0CC
:0C0991008B06903A14EEF0903A15EAF054
:0A099D00903A167401F075150690EB
:0609A7003A1112080F12C4
:0A09AD0008C0903A0FE0FA6007124C
:0609B70008AE758201226A
:0E09BD001208DAE58260071208AE7582022287
:0409CB00758200220F
:0E09CF0075821012074B1208DAE582600712DB
:0609DD0008AE7582022243
:0409E30075820022F7
:0409E700AA82AB83B2
:0E09EB00C374209AE49B5018758200C002C0AD
:0E09F9000312074BD003D002EA24E0FAEB34DD
:040A0700FFFB80E091
:0E0A0B00EA4B600AEAC40354F8F58212074B66
:0D0A190075821012074B75820812074B9072
:0C0A26003A0E740CF0903A11744CF090F1
:090A32003A12E4F0903A13F0903E
:080A3B003A14F0903A15F09016
:090A43003A167401F075150690D5
:060A4C003A1112080F121E
:090A520008C075820812074B026E
:020A5B0008AEE3
:0E0A5D00AA82AB83ACF0FDE5A020E504758213
:020A6B00042263
:0E0A6D00C002C003C004C00512089FE582D07D
:0E0A7B0005D004D003D00260071208AE7582C9
:020A8900032246
:0E0A8B00758208C002C003C004C00512074BEC
:0E0A9900D005D004D003D002903A0E7419F0AC
:0E0AA700903A117459F0903A10E0FE7028EA6F
:0E0AB5002AFAEB33FBEC33FCED33FD8C06909C
:0E0AC3003A12EEF08B06903A13EEF08A06908F
:0B0AD1003A14EEF0903A15E4F0801AA1
:0E0ADC008D06903A12EEF08C06903A13EEF072
:0C0AEA008B06903A14EEF0903A15EAF0FA
:0A0AF600903A167401F07515069091
:060B00003A1112080F1269
:0A0B060008C0903A0FE0FA600712F1
:060B100008AE758201220F
:0D0B160043A08075820812074B7582FC1207
:060B230007D375820022D9
:070B2900AA82AB8353A07FF9
:0E0B3000C374209AE49B5018758200C002C066
:0E0B3E000312074BD003D002EA24E0FAEB3496
:040B4C00FFFB80E04B
:0E0B5000EA4B600AEAC40354F8F58212074B20
:0E0B5E0043A08075821012074B120755E582E6
:080B6C00540FFABA050280489B
:0D0B7400903A0D7406F075820812074B9040
:0C0B81003A0E740CF0903A11744CF09095
:090B8D003A12E4F0903A13F090E2
:080B96003A14F0903A15F090BA
:090B9E003A167401F07515069079
:060BA7003A1112080F12C2
:090BAD0008C075820812074B1202
:060BB60008AE7582062264
:040BBC00758200221C
:0D0BC00012084E7582FD1207D375820812CF
:050BCD00074B0208AE19
:090BD20012084E7582FC0207D3E3
:0E0BDB00903A067401F0903A07E4F0A3740219
:0E0BE900F0903A10E4F043B4E053B4EF43A0B0
:0E0BF7008043A02075820012074B12089F90C9
:0C0C05003A0D7403F075820812074B9042
:0B0C11003A0EE4F0903A117440F090AD
:090C1C003A12E4F0903A13F09052
:080C25003A14F0903A15F0902A
:090C2D003A167495F07515069055
:060C36003A1112080F1232
:0E0C3C0008C0903A0FE0FA7B0054FE7003EB04
:020C4A00604BFD
:0D0C4C0090003212026575820812074B906D
:0B0C59003A0EE4F0903A117440F09065
:090C64003A12E4F0903A13F0900A
:080C6D003A14F0903A15F090E2
:090C75003A167495F0751506900D
:060C7E003A1112080F12EA
:0E0C840008C0903A0FE0FA7B0054FE7003EBBC
:020C92006003FD
:030C9400021081CA
:0D0C970075820812074B903A0E7408F09019
:0B0CA4003A117448F0903A12E4F0900E
:0A0CAF003A13F0903A147401F0902B
:0C0CB9003A1574AAF0903A167487F07592
:060CC5001506903A111221
:060CCB00080F1208C090A2
:0D0CD1003A0FE0FA20E235EA54FE6003021B
:020CDE00108183
:070CE000751504903A111292
:0E0CE7000794903A13E0FA53020FBA010A90F4
:090CF5003A14E0FABAAA028009DF
:090CFE00903A0D7407F002108712
:060D0700903A107401F0A7
:090D0D00903A10E0FA6002744013
:0E0D1600FA758208C00212074B903A0E74372D
:0D0D2400F0903A117477F0903A12E4F090DC
:080D31003A13F0903A14F0901F
:0A0D39003A15F0903A167401F075B7
:060D43001506903A1112A2
:080D4900080F1208C0D002904F
:0E0D51003A0FE0FB54FE703E758208C002129D
:0B0D5F00074BD002903A0E7429F09070
:0B0D6A003A117469F0903A12EAF09020
:090D75003A13E4F0903A14F090F6
:0A0D7E003A15F0903A167401F07572
:080D88001506903A11C0021299
:070D9000080F1208C0D00299
:0A0D9700903A0FE0FB5303FE7C00CE
:0B0DA100903A0FE0FDBD0003020EA120
:030DAC00BCFF0089
:050DAF004003020EA14B
:0E0DB400900004C002C003C004120265D00407
:0E0DC200D003D002EB6051758208C002C0035E
:0E0DD000C00412074BD004D003D002903A0E9C
:0E0DDE007401F0903A117441F0903A12EAF06C
:0A0DEC00903A13E4F0903A14F090EE
:0A0DF6003A15F0903A1674FFF075FC
:0C0E00001506903A11C002C003C0041295
:0C0E0C00080F1208C0D004D003D002026E
:020E18000E9D2D
:0D0E1A00758208C002C003C00412074B908F
:0C0E27003A0E7437F0903A117477F09096
:090E33003A12E4F0903A13F09039
:080E3C003A14F0903A15F09011
:090E44003A167401F075150690D0
:060E4D003A1112080F1219
:0E0E530008C075820812074BD004D003D002ED
:0D0E6100903A0E7429F0903A117469F090E7
:0A0E6E003A12EAF0903A13E4F09013
:080E78003A14F0903A15F090D5
:090E80003A167401F07515069094
:0C0E89003A11C002C003C00412080F128E
:080E950008C0D004D003D00214
:040E9D000C020DA195
:0A0EA100903A0FE0FA60030210819E
:0E0EAB00903A10E0FA605575820812074B90DD
:0C0EB9003A0E743AF0903A11747AF090FE
:090EC5003A12E4F0903A13F090A7
:080ECE003A14F0903A15F0907F
:090ED6003A167401F0751506903E
:060EDF003A1112080F1287
:0A0EE50008C0903A0FE0FA60030223
:020EEF00108170
:070EF100751504903A11127F
:0B0EF8000794903A11E0FA20E6059004
:040F03003A10E4F0CC
:0D0F070075820812074B903A0E7409F090A5
:0B0F14003A117449F0903A12E4F0909A
:080F1F003A13F0903A14F0902F
:0A0F27003A15F0903A167401F075C7
:060F31001506903A1112B2
:060F3700080F1208C012B1
:0D0F3D0008DAE5826009903A0D7402F002B6
:020F4A0010870E
:070F4C00751510903A111217
:090F5300079475821012074B90FF
:0E0F5C003A11E0FA5302C0903A11EAF0EA545A
:060F6A00C06003020FF25B
:0E0F7000903A16E0FA53020F903A1BE0235419
:0E0F7E0001FB903A1AE0540325E04B2A24F9B7
:0E0F8C00FA903A19E023235403FB903A18E040
:0E0F9A00FCE4CC25E0CC33CC25E0CC33FD7E4E
:0E0FA80000EB4204EE4205903A17E05403FBC2
:0E0FB6002B25E0FEE4FB4204EE42050CBC00DD
:020FC400010D1D
:0C0FC600ED3395E0FBFE8AF005F0800C96
:0C0FD200EC2CFCED33FDEB33FBEE33FEAA
:0E0FDE00D5F0F1903A09ECF0A3EDF0A3EBF0A2
:060FEC00A3EEF0021079F3
:0E0FF200903A11E0FA5302C0BA4074903A18D7
:0E100000E0FA53023F7B008B058A047B007AE6
:0E100E0000903A19E0FF7E003395E0F8F9EE0D
:0E101C004202EF4203E84204E94205903A1A0C
:0E102A00E0FEE4FFF8F9EE4202EF4203E84276
:0E10380004E942050ABA00090BBB00050CBC16
:0310460000010D99
:0E104900EB2BCC33CC25E0CC33FDEA2A25E09E
:0E105700FBEA232354034CFC7A00903A09EA8A
:0C106500F0A3EBF0A3ECF0A3EDF080088A
:08107100903A0D7407F0800EA7
:08107900903A0DE4F00208AE0C
:06108100903A0D7401F02D
:08108700903A06E4F00208AE05
:0D108F00903A21E0FA6050903A21E4F0120E
:0E109C0008DAE5826044903A0D7402F0758225
:0B10AA000812074B903A0E740CF090F7
:0B10B5003A11744CF0903A12E4F090F5
:0810C0003A13F0903A14F0908D
:0A10C8003A15F0903A167401F07525
:0610D2001506903A111210
:0910D800080F1208C0758208120D
:0510E100074B0208AE00
:0A10E600903A30E0F51590E7401253
:0E10F0000794903A2EE0FAA3E0FB4A70447594
:0C10FE00821012074B75820812074B90FD
:0C110A003A0E740CF0903A11744CF09006
:091116003A12E4F0903A13F09053
:08111F003A14F0903A15F0902B
:091127003A167401F075150690EA
:061130003A1112080F1233
:0911360008C075820812074B0283
:02113F0008AEF8
:07114100EA7004EB30E0014D
:011148002284
:0D11490075821012074B903A217401F022BC
:0D115600903A21E0FA600E903A21E4F01288
:08116300084E7582FC1207D34F
:0A116B00903A30E0F51590E74012CD
:0E117500080F903A2EE0FAA3E0FBEA7004EBBC
:0311830030E00158
:011186002246
:0E11870043A08075821012074B120755E582B7
:08119500540FFABA0502804470
:0D119D00903A0D7406F075820812074B9011
:0C11AA003A0E740CF0903A11744CF09066
:0911B6003A12E4F0903A13F090B3
:0811BF003A14F0903A15F0908B
:0911C7003A167401F0751506904A
:0611D0003A1112080F1293
:0911D60008C075820812074B12D3
:0211DF0008AE58
:0E11E100903A2EE0FAA3E0FB4A6007903A2114
:0411EF007401F02275
:0D11F30012084E7582FD1207D37582081296
:05120000074B0208AEDF
:0D120500AA8290E6017480F00000000090C5
:0E121200E670E4F090E671F053B4F975B2B6F0
:0E12200074904AF58043B40853A0F790000A7A
:0E122E00C002120265D00274024AF5807A00F6
:02123C007B0035
:0E123E0020A2208A048B057E007F00C3EC9462
:0E124C00FFED94FFEE9400EF64809480500755
:07125A000ABA00E00B80DD81
:0712610030A2047AC88002EC
:021268007A64A6
:0E126A00903A27EAF0903A23E4F0A3F0A3F0C4
:08127800A3F0903A22E4F022F9
:0612800075820402120554
:061286007582340212051E
:03128C00021280CB
:01128F00223C
:0712900030A2047A1680026F
:021297007A0BD0
:0A129900903A27E0FBEA2BF07A0000
:0312A300BA40004E
:0912A6005007D284C2840A80F4CE
:0E12AF00D287D284C284D284C284D284C28404
:0E12BD00D284C28475B20053B4F7308105D2DA
:0412CB008112128FEB
:0612CF00D28143B20222AD
:0C12D50085B31475B3FF903A30E0FB9035
:0E12E1003A23E0FCA3E0FDA3E0FEA3E0FF78CB
:0E12EF000079007A00903A23EB2CF0E83DA342
:0E12FD00F0E93EA3F0EA3FA3F090E68BE0603C
:0E130B0022FA759B40759AE775AF07903A225B
:05131900E0F990E67B05
:0E131E00E0F590D28429F9C284DAF5903A22E3
:02132C00E9F0E6
:0B132E008514B390E68BE0FABA400093
:051339005003021290B8
:01133E00228C
:01006C00286B
:01006D000191
:04006E005A54455843
:040072000A0D000073
:010076000089
:010077000187
:060078004700000000003B
:0C007E0000000000000000000000000076
:0A008A00303030303030303030308C
:01133F00228B
:0E13400090E683E4F07420F07410F07430F046
:0E134E0090E6837401F07421F07411F0743194
:02135C00F0227D
:0A135E00AA82E51624E0500375167C
:011368001F65
:0D13690090E6BFE0701090E6BEE0FBC3957B
:0913760016500690E6BEE0F516E3
:0C137F0075AF078A9B85159A759E417515
:0A138B009DE790E67C7403F07A0001
:0C139500C3EA9516501190E67BE0FB9037
:0B13A100E67CF090E67CE4F00A80E9B6
:0B13AC00E5160425E0FA90E740F09001
:0E13B700E7417403F090E68AE4F090E68BEADA
:0213C500F02214
:0E13C700903A2EE0FAA3E0FBC374409AE49B38
:0813D50050067C407D008004FD
:0413DD008A048B05EE
:0E13E100903A30ECF07D00903A2EEAC39CF07A
:0513EF00EB9DA3F022BC
:0B13F400903A31E0FABA310302151BF9
:0413FF00BA320122DB
:05140300BA3902800D62
:05140800BA3C02802C3B
:05140D00BA420280302C
:0314120002151EA2
:0E141500903A04E4F0903A02F0A3F090E6BBA7
:0E142300E0FB7A0090E6BAE0FC7D00903A0013
:08143100EC4AF0ED4BA3F022A0
:0914390090E6BAE0903A05F022B9
:0E144200E5A020E515903A0D7404F090E6A0A8
:0C145000E04401F0903A2EE4F0A3F022FA
:0E145C0012089FE58260121208AE90E6A0E032
:0B146A004401F0903A2EE4F0A3F022C1
:0D14750075820812074B903A0E7419F09022
:0D1482003A117459F0903A10E0FA6003023C
:02148F0014B493
:0E149100C390E6BAE0903A1433F090E6BBE068
:0E149F00903A1333F090E6BCE0903A1233F02E
:0714AD00903A15E4F08021E4
:0D14B40090E6BDE0903A12F090E6BCE090AA
:0E14C1003A13F090E6BBE0903A14F090E6BAD1
:0614CF00E0FA903A15F06E
:0A14D500903A167401F075150690A8
:0614DF003A1112080F1281
:0A14E50008C0903A0FE0FA6018907A
:0E14EF003A0D7401F01208AE90E6A0E0440140
:0914FD00F0903A2EE4F0A3F02275
:0D15060043A08075820812074B7582FC120D
:0815130007D3903A21E4F02215
:03151B0002128C2D
:08151E0090E6A0E04401F02278
:0C152600C020C0E0C0F0C082C083C00242
:0E153200C003C004C005C006C007C000C00151
:0E154000C0D075D00090E6B9E0FA903A31F0D4
:0E154E0090E6B57401F090E6B9E0FA24F3508F
:04155C00030218DC92
:07156000EA2A2A90156773C7
:0715670002158E021642027C
:06156E0018DC0216BF02AA
:0615740018DC0218DC0285
:06157A001757021872026F
:0615800018740218850238
:06158600188A02189B0206
:02158C0018A0A5
:0A158E0090E6B8E0FABA8002800D82
:05159800BA8102801E73
:05159D00BA8202802F5C
:0315A2000218DC50
:0E15A50090E740E4F090E741F090E68AF09085
:0815B300E68B7402F00218DC63
:0E15BB0090E740E4F090E741F090E68AF0906F
:0815C900E68B7402F00218DC4D
:0C15D10090E6BCE0FA600FBA010280193D
:0515DD00BA8002800548
:0515E200BA812F801EFC
:0E15E70090E6A0E0FA53020190E740EAF0809F
:0115F5003ABB
:0E15F60090E6A1E0FA53020190E740EAF0808F
:011604002BBA
:0E16050090E6A2E0FA53020190E740EAF0807E
:011613001CBA
:0E16140090E6BCE0C31314540324A3F582E453
:0E16220034E6F583E0FA53020190E740EAF067
:0E16300090E741E4F090E68AF090E68B7402B9
:04163E00F00218DCC2
:0A16420090E6B8E0FABA0202800355
:03164C000218DCA5
:09164F0090E6BAE060030218DC29
:0C16580090E6BCE0FA600FBA01028015B9
:05166400BA80028005C0
:05166900BA8123801688
:0B166E0090E6A0E0FA54FEF00218DC49
:0B16790090E6A1E0FA54FEF00218DC3D
:0B16840090E6A2E0FA54FEF00218DC31
:0E168F0090E6BCE0C31314540324A3FAE43421
:0E169D00E6FB90E6BCE0C31314540324A3F54F
:0E16AB0082E434E6F583E0FC5304FE8A828B71
:0616B90083ECF00218DCD6
:0A16BF0090E6B8E0FABA02028003D8
:0316C9000218DC28
:0916CC0090E6BAE060030218DCAC
:0C16D50090E6BCE0FA600FBA010280143D
:0516E100BA8002800543
:0516E600BA8120801410
:0A16EB0090E6A0E0FA4401F080410F
:0A16F50090E6A1E0FA4401F080370E
:0A16FF0090E6A2E0FA4401F0802D0D
:0E17090090E6BCE0C31314540324A3FAE434A6
:0E171700E6FB90E6BCE0C31314540324A3F5D4
:0E17250082E434E6F583E0FC4304FE8A828B06
:0317330083ECF054
:0E17360090E6BCE05480C423541FFA90E6BC39
:0E174400E0FB740F5B420290E683EAF0742033
:051752004AF00218DC62
:0A17570090E6BBE0FABA0102801927
:05176100BA020280261F
:05176600BA0302804DF2
:06176B00BA060302182B70
:06177100BA070302183D57
:03177700021868ED
:0A177A007AC07B2190E6B3EBF090FB
:08178400E6B474C0F00218DCA9
:0B178C0090E680E0FA30E7127ADC7B88
:0A1797002190E6B3EBF090E6B47485
:0517A100DCF00218DC81
:0A17A6007AFE7B2190E6B3EBF09091
:0817B000E6B474FEF00218DC3F
:0A17B80090E6BAE0FABA0102800FD1
:0517C200BA0202801CC8
:0517C700BA03028029B5
:0517CC00BA044A80365A
:0617D10075829A7A9A7BF2
:0417D700218B1575D8
:0617DB00160512135E0268
:0217E10018DC12
:0617E30075829F7A9F7BD6
:0417E900218B1575C6
:0617ED00161812135E0243
:0217F30018DC00
:0A17F50075828A7A8A7B008B1575D5
:0617FF00160A12135E023F
:0218050018DCED
:061807007582B77AB77B81
:04180D00218B1575A1
:06181100160812135E022E
:0218170018DCDB
:0A1819007A207B2290E6B3EBF090FA
:08182300E6B47420F00218DCA9
:0A182B007AD27B2190E6B3EBF09037
:08183500E6B474D2F00218DCE5
:0B183D0090E680E0FA30E7127AFE7BB4
:0A1848002190E6B3EBF090E6B474D3
:05185200FEF00218DCAD
:0A1857007ADC7B2190E6B3EBF09001
:07186100E6B474DCF08074B2
:0A18680090E6A0E0FA4401F0806A67
:0218720080688C
:0E18740090E740E4F090E68AF090E68B740175
:03188200F080579C
:05188500121340805227
:0E188A0090E740E4F090E68AF090E68B74015F
:03189800F080419C
:05189B00121340803C27
:0E18A00090E6B8E0FABA823490E6BCE0C313DA
:0B18AE0014540325E02433F582E434D9
:0C18B9003AF583E4F0A3F090E685E0909F
:0D18C500E740F090E684E0FA90E741F090F3
:0A18D200E68AE4F090E68B7402F061
:0B18DC0090E6B8E0FABA4003021C01DD
:0518E700BAC0028003FD
:0318EC00021C2BB0
:0E18EF0090E6BFE0FB7A0090E6BEE0FC7D00D4
:0E18FD00903A2EEC4AF0ED4BA3F01213C79078
:09190B00E6B9E0FABA22028031CB
:06191400BA3003021BAE15
:05191A00BA3802804311
:05191F00BA3A028067E6
:06192400BA3B030219CAE0
:06192A00BA3D030219E3BF
:06193000BA4003021A0494
:06193600BA4103021A2A67
:06193C00BA4303021B2A5E
:03194200021BF78E
:0E19450090E6B5E4F090E68AF090E68B742808
:0D195300F090E6B3E4F090E6B4746CF0029E
:021960001C2B3E
:0E19620090E6BBE0FB7A0090E6BAE0FC7D0068
:0E197000903A00EC4AF0ED4BA3F090E68AE4CA
:0D197E00F012056CE58290E68BF0021C2B48
:0E198B00903A02E0FAA3E0FB8A0490E740ECF9
:0D199900F08B0290E741EAF0903A04E090F4
:0A19A600E742F075080075090175AD
:0D19B00082A2120346AA8290E743EAF0905B
:0D19BD00E68AE4F090E68B7404F0021C2B27
:0E19CA0090E6BAE0903A05F090E68AE4F0125A
:0B19D8000739E58290E68BF0021C2B23
:0A19E3007508007509017582A6124F
:0E19ED000346AA8290E740EAF090E68AE4F012
:0919FB0090E68B7401F0021C2B34
:061A0400759B067A067BCB
:0C1A0A003A8B9A759E40759DE7C0027AE9
:0E1A1600081202ADD00290E68AE4F090E68B52
:061A24007408F0021C2B07
:0E1A2A00E5A020E518903A0D7404F090E6A0B7
:0D1A3800E0FA4401F0903A2EE4F0A3F00231
:021A45001C2B58
:0E1A470012089FE58260151208AE90E6A0E03E
:0E1A5500FA4401F0903A2EE4F0A3F0021C2BAC
:0D1A630075820812074B903A0E7412F09035
:0D1A70003A117452F0903A10E0FA6003024F
:021A7D001AA2AB
:0E1A7F00C390E6BAE0903A1433F090E6BBE074
:0E1A8D00903A1333F090E6BCE0903A1233F03A
:071A9B00903A15E4F08021F0
:0D1AA20090E6BDE0903A12F090E6BCE090B6
:0E1AAF003A13F090E6BBE0903A14F090E6BADD
:061ABD00E0FA903A15F07A
:0A1AC300903A167401F075150690B4
:061ACD003A1112080F128D
:0A1AD30008C0903A0FE0FA601B9083
:0E1ADD003A0D7401F01208AE90E6A0E0FA4453
:0C1AEB0001F0903A2EE4F0A3F0021C2B56
:0A1AF700903A217401F012108F9054
:0E1B01003A0DE0FA601290E6A0E0FA4401F01E
:0A1B0F00903A2EE4F0A3F0021C2B24
:0E1B190090E68AE4F0903A30E0FA90E68BF025
:031B2700021C2B72
:061B2A00759B0D7A0D7B96
:0C1B30003A8B9A759E427A427BE78B9DAF
:0E1B3C00C0027A141202ADD002741055A0FA45
:051B4A00E4BA000104F3
:0E1B4F0090E756F012089F75820812074B901F
:0C1B5D003A0E740DF0903A11744DF090A7
:091B69003A12E4F0903A13F090F6
:081B72003A14F0903A15F090CE
:091B7A003A167401F0751506908D
:061B83003A1112080F12D6
:0B1B890008C0903A0FE090E740F01217
:0D1B94000755AA8290E741EAF01208AE90D2
:0D1BA100E68AE4F090E68B7417F0021C2B2E
:061BAE00759B227A227BE8
:0C1BB4003A8B9A759E417A417BE78B9D2D
:0E1BC000C0027A071202ADD00253B2FD30818E
:0D1BCE000C90E740E4F0D28143B2028009A0
:091BDB0090E7407401F012128041
:0E1BE40090E7487401F090E68AE4F090E68BFA
:051BF2007409F08034CD
:0A1BF70090E6A0E0FA4401F0802A15
:0C1C010090E6BFE0700690E6BEE06016C2
:0E1C0D00903A327401F090E68BE4F05391EFC0
:081C1B0090E65D7401F08019F0
:081C23001213F490E68BE4F0CB
:0E1C2B005391EF90E65D7401F090E6A0E0FAB0
:031C39004480F0F4
:0E1C3C00D0D0D001D000D007D006D005D00403
:0D1C4A00D003D002D083D082D0F0D0E0D003
:021C5700203239
:0E1C5900C0E0C082C0835391EF90E65D74023C
:081C6700F0D083D082D0E032FE
:0E1C6F00C0E0C082C0835391EF90E65D740424
:081C7D00F0D083D082D0E032E8
:0E1C8500C0E0C082C0835391EF90E65D74080A
:081C9300F0D083D082D0E032D2
:0E1C9B00C0E0C082C0835391EF90E65D7410EC
:081CA900F0D083D082D0E032BC
:0E1CB100C0E0C082C0835391EF90E65D7420C6
:081CBF00F0D083D082D0E032A6
:0E1CC700C0E0C082C0835391EF90E65D744090
:081CD500F0D083D082D0E03290
:0C1CDD00C020C0E0C0F0C082C083C00284
:0E1CE900C003C004C005C006C007C000C00193
:0E1CF700C0D075D000C2E81213C7903A31E099
:071D0500FABA3003021D923F
:051D0C00BA380280213D
:061D1100BA3A03021D9224
:051D1700BA3B0280262A
:061D1C00BA3D03021D9216
:061D2200BA4003021D920D
:051D2800BA4102802514
:051D2D00BA435980607B
:0E1D320090E68AE4F012056CE58290E68BF0F4
:021D40008050D1
:0E1D420090E68AE4F0120739E58290E68BF015
:021D50008040D1
:0D1D5200903A30E0FA6020903A0DE4F01273
:0E1D5F00108F903A0DE0FA601190E6A0E0FAC5
:0C1D6D004401F0903A2EE4F0A3F080193D
:0E1D790090E68AE4F0903A30E0FA90E68BF0C3
:021D87008009D1
:091D890090E68AE4F090E68BF08C
:0E1D92005391EF90E65F7401F0D2E8D0D0D00C
:0E1DA00001D000D007D006D005D004D003D06B
:0C1DAE0002D083D082D0F0D0E0D02032F0
:0C1DBA00C020C0E0C0F0C082C083C002A6
:0E1DC600C003C004C005C006C007C000C001B5
:0E1DD400C0D075D000C2E8903A32E0FA60202C
:0D1DE200903A32E4F090E6BFE0FB7A00900A
:0E1DEF00E6BEE0FC7D00903A2EEC4AF0ED4B93
:051DFD00A3F01213F435
:0D1E02001213C7903A31E0FABA3102805D48
:051E0F00BA320280550B
:051E1400BA3902800A4A
:051E1900BA3C0280103C
:051E1E00BA424B801FD9
:0B1E230090E68BE0F5821205A0803EE7
:0B1E2E00903A05E0F51290E68BE0F51D
:091E39001390E7401206BA802A5A
:0D1E4200903A30E0FA6023903A0DE4F0127F
:0E1E4F001156903A0DE0FA601490E6A0E0FA09
:0C1E5D004401F0903A2EE4F0A3F0800362
:031E69001212D57D
:0E1E6C0090E68BE4F05391EF90E65F7402F085
:0E1E7A00903A2EE0FAA3E0FB4A700890E6A032
:051E8800E0FA4480F0C7
:0E1E8D00D2E8D0D0D001D000D007D006D005CA
:0E1E9B00D004D003D002D083D082D0F0D0E0AB
:031EA900D0203214
:0E1EAC00C0E0C082C0835391EF90E65F7404E3
:081EBA00F0D083D082D0E032A9
:0E1EC200C0E0C082C0835391EF90E65F7408C9
:081ED000F0D083D082D0E03293
:0E1ED800C0E0C082C0835391EF90E65F7410AB
:081EE600F0D083D082D0E0327D
:0E1EEE00C0E0C082C0835391EF90E65F742085
:081EFC00F0D083D082D0E03267
:0E1F0400C0E0C082C0835391EF90E65F74404E
:081F1200F0D083D082D0E03250
:0E1F1A00C0E0C082C0835391EF90E65F7480F8
:081F2800F0D083D082D0E0323A
:021F30007A0035
:031F3200BA0A00E8
:0E1F35005012EA248AF582E43400F583E0FBC2
:061F4300BB30540A80E9E6
:071F49007510FB75110590F6
:091F50003A291205CD7A007B004C
:031F5900BB0500C5
:0A1F5C00503CEB2429F582E4343AEE
:0E1F6600F583E0FCEA248AFDE43400FEECC4BE
:0E1F7400540F90222493FF8D828E83F00AEA90
:0E1F8200248AFDE43400FE740F5C9022249348
:0A1F9000FC8D828E83F00A0B80BFE7
:011F9A002224
:0E1F9B0090E680E04408F090E6007412F090AA
:0E1FA9000002120265538EF8D28143B202C2CA
:0E1FB700AFC2E89000437402F0900044740141
:0E1FC500F090004574B8F090E668E04408F033
:0A1FD3009001007402F07A267B15DD
:0D1FDD008B04900101ECF0900102EAF090FD
:0A1FEA0001047402F07A597B1C8B8D
:0E1FF40004900105ECF0900106EAF09001085F
:0A2002007402F07A6F7B1C8B0490CF
:0E200C000109ECF090010AEAF090010C740258
:0A201A00F07A857B1C8B0490010D09
:0E202400ECF090010EEAF09001107402F07AD8
:0A2032009B7B1C8B04900111ECF065
:0C203C00900112EAF09001147402F07A96
:0A204800B17B1C8B04900115ECF035
:0C205200900116EAF09001187402F07A78
:0A205E00C77B1C8B04900119ECF005
:0C20680090011AEAF09001207402F07A56
:0A207400DD7B1C8B04900121ECF0D1
:0C207E00900122EAF09001247402F07A34
:0A208A00BA7B1D8B04900125ECF0D9
:0C209400900126EAF09001287402F07A16
:0A20A000AC7B1E8B04900129ECF0CC
:0C20AA0090012AEAF090012C7402F07AF8
:0A20B600C27B1E8B0490012DECF09C
:0C20C00090012EEAF09001307402F07ADA
:0A20CC00D87B1E8B04900131ECF06C
:0C20D600900132EAF09001347402F07ABC
:0A20E200EE7B1E8B04900135ECF03C
:0C20EC00900136EAF09001387402F07A9E
:0A20F800047B1F8B04900139ECF00B
:0C21020090013AEAF090013C7402F07A7F
:0A210E001A7B1F8B0490013DECF0DA
:0E21180090013EEAF05391EF90E65D747FF087
:0E21260090E65CE0FA447FF090E65F74FFF014
:0E21340090E65E74FFF0D2E8D2AF90E6117430
:0E214200A0F00000000090E61074A0F0000075
:0E215000000090E612E4F00000000090E6139C
:0E215E00E4F00000000090E614E4F000000041
:0E216C000090E615E4F000000000120BDB12FC
:0D217A001F3090E680E04482F090000A12D1
:0A218700026590E680E054F7F022B4
:03219100121F9B7F
:0221940080FECB
:05219A005A54455800F5
:0E219F00666C61736862656E636820666F72BD
:0A21AD002055464D20312E3135003B
:0821B70064656661756C74003B
:0121BF00001F
:0E21C00012010002FFFFFF401A220001000082
:0421CE000102030106
:0A21D2000A060002FFFFFF400100B3
:0E21DC0009022000010104C0320904000002C3
:0E21EA00FFFFFF00070581020002000705014C
:0421F80002000200DF
:0221FC000000E1
:0E21FE0009022000010104C0320904000002A1
:0E220C00FFFFFF0007058102400000070501EB
:04221A00024000007E
:02221E000000BE
:0422200004030000B3
:0E222400303132333435363738394142434495
:032232004546001E
:022235000000A7
:0122370000A6
:01223800FFA6
:0122390000A4
:08223A0000000000000000009C
:06023700E478FFF6D8FD9B
:08021500790DE94400601B7A39
:05021D0001902235787C
:030222002E7592A4
:0A0225003AE493F2A308B8000205C2
:08022F0092D9F4DAF27592FF96
:08023D007800E84400600A7932
:03024500007592AF
:060248003AE4F309D8FCC2
:08024E00782EE84400600C79F1
:0B02560001903A00E4F0A3D8FCD9FAB4
:03020800758120DD
:0A020B00122196E58260030202034F
:04219600758200222C
:00000001FF
