:03020000020208EF
:0302610002020393
:050203001215BA80FE97
:03000000020200F9
:0100030032CA
:01000B0032C2
:0100130032BA
:01001B0032B2
:0100230032AA
:01002B0032A2
:01003300329A
:01003B003292
:01004300328A
:01004B003282
:01005300327A
:01005B003272
:01006300326A
:0101000032CC
:0101040032C8
:0101080032C4
:01010C0032C0
:0101100032BC
:0101140032B8
:0101180032B4
:0101200032AC
:0101240032A8
:0101280032A4
:01012C0032A0
:01013000329C
:010134003298
:010138003294
:01013C003290
:01014000328C
:010148003284
:01014C003280
:01015000327C
:010154003278
:010158003274
:01015C003270
:01016000326C
:01017000325C
:010174003258
:010178003254
:01017C003250
:01018000324C
:010184003248
:010188003244
:01018C003240
:01019000323C
:010194003238
:010198003234
:01019C003230
:0101A000322C
:0101A8003224
:0101AC003220
:0101B000321C
:0101B4003218
:0101B8003214
:010264002277
:08026500AA82AB837C007D003E
:0B026D00C3EC9AED9B50147EB07F04A0
:050278001EBEFF011F86
:0B027D00EE4F70F70CBC00E80D80E5B0
:010288002253
:08028900AA82AB837C007D001A
:0B029100C3EC9AED9B50147E0A7F0026
:05029C001EBEFF011F62
:0B02A100EE4F70F70CBC00E80D80E58C
:0102AC00222F
:0E02AD0075AF0790E67BE090E67CF0DAF32276
:0102BB002220
:0202BC007A00C6
:0302BE00BAFF0084
:0D02C100500B90E678E0FB20E0030A80F08F
:0C02CE0090E678E0FA20E204EA20E10B60
:0B02DA0090E678E04440F075820122BD
:0402E50075820022FC
:0202E9007A0099
:0302EB00BAFF0057
:0D02EE00500B90E678E0FB20E0030A80F062
:0E02FB0090E678E0FA30E20B90E678E04440BE
:05030900F075820122E5
:04030E0075820022D2
:020312007A006F
:03031400BAFF002D
:0E031700500F90E678E0FB20E2047582002291
:030325000A80EC5F
:0403280075820122B7
:02032C007A0055
:03032E00BAFF0013
:0E033100500F90E678E0FB20E6047582002273
:03033F000A80EC45
:04034200758201229D
:09034600AA82C3E49508E433FB2C
:0E034F0090E678E04480F0C002C00312031272
:0E035D00D003D00290E679EAF0C002C003128D
:0C036B0002BCE582D003D0027012E5094C
:0C037700600A90E678E04440F012032C8D
:04038300758200225D
:0E038700EB601090000AC002C003120289D081
:0503950003D00280B559
:0C039A00E509600890E678E0FA4440F0C5
:0403A6007582012239
:0C03AA00AA82AB837C00E50C7003F58296
:0103B6002224
:0A03B7007508647509007582A2C084
:0E03C10002C003C004120346E582D004D0033C
:0703CF00D00260030204B03C
:0C03D60090E679E50BF0C002C003C00403
:0E03E2001202BCE582D004D003D002600302F8
:0203F00004B057
:0C03F20090E679E50AF0C002C003C004E8
:0E03FE001202BCE582D004D003D002600302DC
:02040C0004B03A
:0E040E0090E678E04440F0C002C003C0041243
:0D041C00032C90E678E04480F0120312906B
:0E042900E67974A3F01202BCE582D004D00381
:0E043700D002707590E679E08A828B83F0C067
:0E04450002C003C0041202E9E582D004D00315
:05045300D0027059FD0C
:0C045800C3ED950C502A90E679E08A82F2
:0E0464008B83F0A3AA82AB83C002C003C00446
:0E047200C0051202E9E582D005D004D003D007
:0804800002702D0D8D0480D0E7
:0E04880090E678E04420F090E679E0C004129F
:0E04960002E9E582D004701290E678E044405E
:0C04A400F090E679E0C00412032CD004B4
:0304B0008C822219
:0A04B300AA82AB837C007508647513
:0C04BD0009007582A2C002C003C0041236
:0D04C9000346E582D004D003D00260030298
:0204D6000569B6
:0C04D80090E679E50EF0C002C003C004FD
:0E04E4001202BCE582D004D003D002600302F5
:0204F20005699A
:0C04F40090E679E50DF0C002C003C004E2
:0E0500001202BCE582D004D003D002705CFD74
:0C050E00C3ED950F50478A828B83E0FEFE
:0E051A00A3AA82AB8390E679EEF0903A04E05B
:0D052800FFEE2FF0903A02E0FEA3E0FF90FE
:0E0535003A0274012EF0E43FA3F0C002C003AE
:0E054300C004C0051202BCE582D005D004D071
:0A05510003D00270130D8D0480B377
:0E055B0090E678E04440F0C00412032CD00477
:030569008C82225F
:0A056C00903A14E0FA903A00E0F52E
:060576000AA3E0F50B8A68
:0C057C000C90E740C0021203AAAB82D032
:0E058800027C00903A00E0FDA3E0FE903A00F5
:0A059600EA2DF0EC3EA3F08B822268
:0B05A000AA82903A00E0F50DA3E0F500
:0905AB000E8A0F90E740C0021215
:0E05B40004B3D0027B00903A00E0FCA3E0FD0F
:0B05C200903A00EA2CF0EB3DA3F02281
:0C05CD00AA82AB837C00E5117003F5826C
:0105D90022FF
:0A05DA007508647509007582A6C05B
:0E05E40002C003C004120346E582D004D00317
:0705F200D00260030206B70E
:0C05F90090E679E510F0C002C003C004D9
:0E0605001202BCE582D004D003D002600302D2
:0206130006B728
:0E06150090E678E04440F0C002C003C004123A
:0D062300032C90E678E04480F01203129062
:0E063000E67974A7F01202BCE582D004D00374
:0E063E00D002707590E679E08A828B83F0C05E
:0E064C0002C003C0041202E9E582D004D0030C
:05065A00D0027059FD03
:0C065F00C3ED9511502A90E679E08A82E4
:0E066B008B83F0A3AA82AB83C002C003C0043D
:0E067900C0051202E9E582D005D004D003D0FE
:0806870002702D0D8D0480D0DE
:0E068F0090E678E04420F090E679E0C0041296
:0E069D0002E9E582D004701290E678E0444055
:0C06AB00F090E679E0C00412032CD004AB
:0306B7008C822210
:0A06BA00AA82AB837C00750864750A
:0C06C40009007582A6C002C003C0041229
:0D06D0000346E582D004D003D002705A909A
:0C06DD00E679E512F0C002C003C0041270
:0D06E90002BCE582D004D003D0027041FDB8
:0C06F600C3ED9513502C8A828B83E0FE2C
:0E070200A3AA82AB8390E679EEF0C002C0039A
:0E071000C004C0051202BCE582D005D004D0A2
:0A071E0003D00270130D8D0480CE8D
:0E07280090E678E04440F0C00412032CD004A8
:030736008C822290
:07073900903A14E0F5119065
:090740003A05E0F51090E74002D3
:0207490005CDDC
:0D074B00AA8290E6017480F000000000908A
:0E075800E670E4F090E671F053B4F975B2B6B5
:0E07660074904AF58043B40853A0F790000A3F
:0E077400C002120265D00274024AF5807A00BB
:020782007B00FA
:0E07840020A2208A048B057E007F00C3EC9427
:0E079200FFED94FFEE9400EF6480948050071A
:0707A0000ABA00E00B80DD46
:0707A70030A2047AC88002B1
:0207AE007A646B
:0E07B000903A0BEAF0903A07E4F0A3F0A3F0C1
:0807BE00A3F0903A06E4F022DA
:0607C60075820402074BDE
:0607CC0075823402074BA8
:0307D2000207C655
:0E07D500D28743B280C2A075B40190E6A3E0C3
:0E07E300FA54FEF090E60B7403F000000000E4
:0E07F10090E60174A3F00000000090E618747A
:0E07FF0009F00000000090E6207402F00000F7
:0E080D00000090E621E4F00000000090E604F8
:0E081B007480F00000000090E6047402F0000B
:0D08290000000090E604E4F00000000090E4
:0E083600E609E4F00000000090E602E4F000A5
:0E08440000000090E603E4F000000000C28710
:010852002283
:0708530030A2047A168002B6
:02085A007A0B17
:0A085C00903A0BE0FBEA2BF07A0063
:03086600BA400095
:090869005007D284C2840A80F415
:0E087200D287D284C284D284C284D284C2844B
:0E088000D284C28475B20053B4F7308105D221
:04088E00811207D5F7
:06089200D28143B20222F4
:0C08980085B31475B3FF903A14E0FB9098
:0E08A4003A07E0FCA3E0FDA3E0FEA3E0FF782E
:0E08B2000079007A00903A07EB2CF0E83DA3A5
:0E08C000F0E93EA3F0EA3FA3F090E68BE06083
:0E08CE0022FA759B40759AE775AF07903A06BF
:0508DC00E0F990E67B4D
:0E08E100E0F590D28429F9C284DAF5903A0647
:0208EF00E9F02E
:0B08F1008514B390E68BE0FABA4000DB
:0508FC00500302085347
:0109010022D3
:0E09020090E60174E2F090E6F3E4F090E6C3B4
:0E091000F090E6C1F090E6C27404F090E6C0EC
:0C091E00744EF090E6F4E4F0759B157A3E
:0A092A00157B3A8B9A759E60759D4F
:0E093400E4C0027A201202ADD00290E6C6E4C2
:0D094200F090E6C77410F090E6C8E4F09065
:0E094F00E6C9F090E6CAF090E6CBF090E6CC58
:0E095D00E4F090E6CDF090E60B7401F000009F
:0D096B00000090E6047480F0000000009091
:0E097800E6047406F00000000090E604E4F0CF
:0E0986000000000090E61AE4F000000000906F
:0E099400E61A7410F00000000090E6E2740114
:0E09A200F00000000090E6CE7401F0000000AE
:0E09B0000090E6CFE4F00000000090E6D0E4F6
:0E09BE00F00000000090E6D1E4F00000000020
:0E09CC0090E6E474FFF00000000053B2EF4329
:0509DA00B201C2802201
:01006C00286B
:01006D000191
:04006E005A54455843
:040072000A0D000073
:010076000089
:010077000187
:060078006300000000001F
:0C007E0000000000000000000000000076
:0A008A00303030303030303030308C
:0109DF0022F5
:0E09E00090E683E4F07420F07410F07430F0B0
:0E09EE0090E6837401F07421F07411F07431FE
:0E09FC00F090E6837412F07432F07406F0741A
:030A0A0026F022B1
:0A0A0D00AA82E51624E050037516D6
:010A17001FBF
:0D0A180090E6BFE0701090E6BEE0FBC395D5
:090A250016500690E6BEE0F5163D
:0C0A2E0075AF078A9B85159A759E41756F
:0A0A3A009DE790E67C7403F07A005B
:0C0A4400C3EA9516501190E67BE0FB9091
:0B0A5000E67CF090E67CE4F00A80E910
:0B0A5B00E5160425E0FA90E740F0905B
:0E0A6600E7417403F090E68AE4F090E68BEA34
:020A7400F0226E
:0E0A7600903A12E0FAA3E0FBC374409AE49BAE
:080A840050067C407D00800457
:040A8C008A048B0548
:0E0A9000903A14ECF07D00903A12EAC39CF00C
:050A9E00EB9DA3F02216
:0A0AA300903A55E0FABA3102805A89
:040AAD00BA32012236
:050AB100BA340280547C
:050AB600BA3502806268
:050ABB00BA3902801AA7
:050AC000BA3C02803980
:050AC500BA600280038D
:030ACA00020B3DDF
:0D0ACD00D28790E6BAE024FF92A0C28722F3
:0E0ADA00903A04E4F0903A02F0A3F090E6BBEC
:0E0AE800E0FB7A0090E6BAE0FC7D00903A0058
:080AF600EC4AF0ED4BA3F022E5
:090AFE0090E6BAE0903A05F022FE
:030B07000207D210
:0E0B0A001207D290E6A5E054FEF090E6F574D6
:050B1800FFF0020902DC
:0E0B1D00D280D28443B21090E6F574FFF0004F
:0E0B2B0000000090E601E0FA54F0F000000037
:040B3900000208535B
:080B3D0090E6A0E04401F02263
:0C0B4500C020C0E0C0F0C082C083C0022D
:0E0B5100C003C004C005C006C007C000C0013C
:0E0B5F00C0D075D00090E6B9E0FA903A55F09B
:0E0B6D0090E6B57401F090E6B9E0FA24F3507A
:040B7B0003020EFB68
:070B7F00EA2A2A900B86739D
:070B8600020BAD020C61023D
:060B8D000EFB020CDE026B
:060B93000EFB020EFB0246
:060B99000D76020E910230
:060B9F000E93020EA402F9
:060BA5000EA9020EBA02C7
:020BAB000EBF7B
:0A0BAD0090E6B8E0FABA8002800D6D
:050BB700BA8102801E5E
:050BBC00BA8202802F47
:030BC100020EFB26
:0E0BC40090E740E4F090E741F090E68AF09070
:080BD200E68B7402F0020EFB39
:0E0BDA0090E740E4F090E741F090E68AF0905A
:080BE800E68B7402F0020EFB23
:0C0BF00090E6BCE0FA600FBA0102801928
:050BFC00BA8002800533
:050C0100BA812F801EE6
:0E0C060090E6A0E0FA53020190E740EAF08089
:010C14003AA5
:0E0C150090E6A1E0FA53020190E740EAF08079
:010C23002BA5
:0E0C240090E6A2E0FA53020190E740EAF08069
:010C32001CA5
:0E0C330090E6BCE0C31314540324A3F582E43E
:0E0C410034E6F583E0FA53020190E740EAF052
:0E0C4F0090E741E4F090E68AF090E68B7402A4
:040C5D00F0020EFB98
:0A0C610090E6B8E0FABA0202800340
:030C6B00020EFB7B
:090C6E0090E6BAE06003020EFBFF
:0C0C770090E6BCE0FA600FBA01028015A4
:050C8300BA80028005AB
:050C8800BA8123801673
:0B0C8D0090E6A0E0FA54FEF0020EFB1F
:0B0C980090E6A1E0FA54FEF0020EFB13
:0B0CA30090E6A2E0FA54FEF0020EFB07
:0E0CAE0090E6BCE0C31314540324A3FAE4340C
:0E0CBC00E6FB90E6BCE0C31314540324A3F53A
:0E0CCA0082E434E6F583E0FC5304FE8A828B5C
:060CD80083ECF0020EFBAC
:0A0CDE0090E6B8E0FABA02028003C3
:030CE800020EFBFE
:090CEB0090E6BAE06003020EFB82
:0C0CF40090E6BCE0FA600FBA0102801428
:050D0000BA800280052D
:050D0500BA81208014FA
:0A0D0A0090E6A0E0FA4401F08041F9
:0A0D140090E6A1E0FA4401F08037F8
:0A0D1E0090E6A2E0FA4401F0802DF7
:0E0D280090E6BCE0C31314540324A3FAE43491
:0E0D3600E6FB90E6BCE0C31314540324A3F5BF
:0E0D440082E434E6F583E0FC4304FE8A828BF1
:030D520083ECF03F
:0E0D550090E6BCE05480C423541FFA90E6BC24
:0E0D6300E0FB740F5B420290E683EAF074201E
:050D71004AF0020EFB38
:0A0D760090E6BBE0FABA0102801912
:050D8000BA020280260A
:050D8500BA0302804DDD
:060D8A00BA0603020E4A46
:060D9000BA0703020E5C2D
:030D9600020E87C3
:0A0D99007AF07B1590E6B3EBF090C2
:080DA300E6B474F0F0020EFB4F
:0B0DAB0090E680E0FA30E7127A0C7B43
:0A0DB6001690E6B3EBF090E6B4747B
:050DC0000CF0020EFB27
:0A0DC5007A3C7B1690E6B3EBF09049
:080DCF00E6B4743CF0020EFBD7
:0A0DD70090E6BAE0FABA0102800FBC
:050DE100BA0202801CB3
:050DE600BA03028029A0
:050DEB00BA044A803645
:060DF0007582C37AC37B8B
:040DF600158B1575CF
:060DFA001605120A0D02AD
:020E00000EFBE7
:060E02007582C87AC87B6E
:040E0800158B1575BC
:060E0C00161F120A0D0280
:020E12000EFBD5
:0A0E140075828A7A8A7B008B1575BF
:060E1E00160A120A0D0283
:020E24000EFBC3
:060E26007582E77AE77B0C
:040E2C00158B157598
:060E30001608120A0D0273
:020E36000EFBB1
:0A0E38007A6C7B1690E6B3EBF090A5
:080E4200E6B4746CF0020EFB33
:0A0E4A007A027B1690E6B3EBF090FD
:080E5400E6B47402F0020EFB8B
:0B0E5C0090E680E0FA30E7127A3C7B61
:0A0E67001690E6B3EBF090E6B474C9
:050E71003CF0020EFB45
:0A0E76007A0C7B1690E6B3EBF090C7
:070E8000E6B4740CF080746D
:0A0E870090E6A0E0FA4401F0806A52
:020E9100806877
:0E0E930090E740E4F090E68AF090E68B740160
:030EA100F0805787
:050EA4001209E080527C
:0E0EA90090E740E4F090E68AF090E68B74014A
:030EB700F0804187
:050EBA001209E0803C7C
:0E0EBF0090E6B8E0FABA823490E6BCE0C313C5
:0B0ECD0014540325E02457F582E434A0
:0C0ED8003AF583E4F0A3F090E685E0908A
:0D0EE400E740F090E684E0FA90E741F090DE
:0A0EF100E68AE4F090E68B7402F04C
:0B0EFB0090E6B8E0FABA400302108154
:050F0600BAC0028003E7
:030F0B000210AB26
:0E0F0E0090E6BFE0FB7A0090E6BEE0FC7D00BE
:0E0F1C00903A12EC4AF0ED4BA3F0120A7690D8
:090F2A00E6B9E0FABA22028025C2
:060F3300BA3003021017A2
:060F3900BA330302106050
:050F3F00BA3802803108
:050F4400BA3A028055DD
:060F4900BA3B03020FDDBC
:060F4F00BA3D03020FF69B
:030F550002107710
:0E0F580090E6B5E4F090E68AF090E68B7428FF
:0D0F6600F090E6B3E4F090E6B4746CF00295
:020F730010ABC1
:0E0F750090E6BBE0FB7A0090E6BAE0FC7D005F
:0E0F8300903A00EC4AF0ED4BA3F090E68AE4C1
:0D0F9100F012056CE58290E68BF00210ABCB
:0E0F9E00903A02E0FAA3E0FB8A0490E740ECF0
:0D0FAC00F08B0290E741EAF0903A04E090EB
:0A0FB900E742F075080075090175A4
:0D0FC30082A2120346AA8290E743EAF09052
:0D0FD000E68AE4F090E68B7404F00210ABAA
:0E0FDD0090E6BAE0903A05F090E68AE4F01251
:0B0FEB000739E58290E68BF00210ABA6
:0A0FF6007508007509017582A61246
:0E1000000346AA8290E740EAF090E68AE4F008
:09100E0090E68B7401F00210ABB6
:06101700759B067A067BC2
:0C101D003A8B9A759E417A417BE78B9DCF
:0E102900C0027A071202ADD00253B2FD308130
:0D1037000C90E740E4F0D28143B202800942
:0910440090E7407401F01207C6A8
:0E104D0090E7487401F090E68AE4F090E68B9C
:05105B007409F0804B58
:0E10600090E7407406F090E741E4F090E68AD5
:09106E00F090E68B7402F080346E
:0A10770090E6A0E0FA4401F0802AA0
:0C10810090E6BFE0700690E6BEE060164E
:0E108D00903A567401F090E68BE4F05391EF28
:08109B0090E65D7401F080197C
:0810A300120AA390E68BE4F0B1
:0E10AB005391EF90E65D7401F090E6A0E0FA3C
:0310B9004480F080
:0E10BC00D0D0D001D000D007D006D005D0048F
:0D10CA00D003D002D083D082D0F0D0E0D08F
:0210D7002032C5
:0E10D900C0E0C082C0835391EF90E65D7402C8
:0810E700F0D083D082D0E0328A
:0E10EF00C0E0C082C0835391EF90E65D7404B0
:0810FD00F0D083D082D0E03274
:0E110500C0E0C082C0835391EF90E65D740895
:08111300F0D083D082D0E0325D
:0E111B00C0E0C082C0835391EF90E65D741077
:08112900F0D083D082D0E03247
:0E113100C0E0C082C0835391EF90E65D742051
:08113F00F0D083D082D0E03231
:0E114700C0E0C082C0835391EF90E65D74401B
:08115500F0D083D082D0E0321B
:0C115D00C020C0E0C0F0C082C083C0020F
:0E116900C003C004C005C006C007C000C0011E
:0E117700C0D075D000C2E8120A76903A55E05A
:06118500FABA30028042BC
:05118B00BA3302803DB3
:05119000BA3802800FD7
:05119500BA3A028033AC
:05119A00BA3B028015C4
:05119F00BA3D22802989
:0E11A40090E68AE4F012056CE58290E68BF08E
:0211B2008019A2
:0E11B40090E68AE4F0120739E58290E68BF0AF
:0211C2008009A2
:0911C40090E68AE4F090E68BF05D
:0E11CD005391EF90E65F7401F0D2E8D0D0D0DD
:0E11DB0001D000D007D006D005D004D003D03C
:0C11E90002D083D082D0F0D0E0D02032C1
:0C11F500C020C0E0C0F0C082C083C00277
:0E120100C003C004C005C006C007C000C00185
:0E120F00C0D075D000C2E8903A56E0FA6020D8
:0D121D00903A56E4F090E6BFE0FB7A0090B6
:0E122A00E6BEE0FC7D00903A12EC4AF0ED4B7F
:05123800A3F0120AA35F
:0C123D00120A76903A55E0FABA3103022A
:021249001296FB
:06124B00BA320302129307
:06125100BA3403021296FC
:06125700BA3503021296F5
:06125D00BA39030212740D
:06126300BA3C0302127FF9
:05126900BA60028003E1
:03126E00021296D3
:03127100008022D8
:0B12740090E68BE0F5821205A08017C9
:0B127F00903A05E0F51290E68BE0F5D8
:09128A001390E7401206BA80033C
:03129300120898A6
:0E12960090E68BE4F05391EF90E65F7402F067
:0E12A400903A12E0FAA3E0FB4A700890E6A030
:0512B200E0FA4480F0A9
:0E12B700D2E8D0D0D001D000D007D006D005AC
:0E12C500D004D003D002D083D082D0F0D0E08D
:0312D300D02032F6
:0E12D600C0E0C082C0835391EF90E65F7404C5
:0812E400F0D083D082D0E0328B
:0E12EC00C0E0C082C0835391EF90E65F7408AB
:0812FA00F0D083D082D0E03275
:0E130200C0E0C082C0835391EF90E65F74108C
:08131000F0D083D082D0E0325E
:0E131800C0E0C082C0835391EF90E65F742066
:08132600F0D083D082D0E03248
:0E132E00C0E0C082C0835391EF90E65F744030
:08133C00F0D083D082D0E03232
:0E134400C0E0C082C0835391EF90E65F7480DA
:08135200F0D083D082D0E0321C
:02135A007A0017
:03135C00BA0A00CA
:0E135F005012EA248AF582E43400F583E0FBA4
:06136D00BB30540A80E9C8
:071373007510FB75110590D8
:09137A003A0D1205CD7A007B004A
:03138300BB0500A7
:0A138600503CEB240DF582E4343AEC
:0E139000F583E0FCEA248AFDE43400FEECC4A0
:0E139E00540F90167093FF8D828E83F00AEA32
:0E13AC00248AFDE43400FE740F5C90167093EA
:0A13BA00FC8D828E83F00A0B80BFC9
:0113C4002206
:0E13C50090E680E04408F090E6007412F0908C
:0E13D3000002120265538EF8D28143B202C2AC
:0E13E100AFC2E89000437402F0900044740123
:0E13EF00F090004574B8F090E668E04408F015
:0A13FD009001007402F07A457B0BAA
:0D1407008B04900101ECF0900102EAF090DE
:0A14140001047402F07AD97B108BFA
:0E141E0004900105ECF0900106EAF090010840
:0A142C007402F07AEF7B108B04903D
:0E1436000109ECF090010AEAF090010C74023A
:0A144400F07A057B118B0490010D76
:0E144E00ECF090010EEAF09001107402F07ABA
:0A145C001B7B118B04900111ECF0D2
:0C146600900112EAF09001147402F07A78
:0A147200317B118B04900115ECF0A2
:0C147C00900116EAF09001187402F07A5A
:0A148800477B118B04900119ECF072
:0C14920090011AEAF09001207402F07A38
:0A149E005D7B118B04900121ECF03E
:0C14A800900122EAF09001247402F07A16
:0A14B400F57B118B04900125ECF08C
:0C14BE00900126EAF09001287402F07AF8
:0A14CA00D67B128B04900129ECF090
:0C14D40090012AEAF090012C7402F07ADA
:0A14E000EC7B128B0490012DECF060
:0C14EA0090012EEAF09001307402F07ABC
:0A14F600027B138B04900131ECF02F
:0C150000900132EAF09001347402F07A9D
:0A150C00187B138B04900135ECF0FE
:0C151600900136EAF09001387402F07A7F
:0A1522002E7B138B04900139ECF0CE
:0C152C0090013AEAF090013C7402F07A61
:0A153800447B138B0490013DECF09E
:0E15420090013EEAF05391EF90E65D747FF069
:0E15500090E65CE0FA447FF090E65F74FFF0F6
:0E155E0090E65E74FFF0D2E8D2AF90E6117412
:0E156C00A0F00000000090E61074A0F0000057
:0D157A00000090E61274E0F0000000009008
:0E158700E613E4F00000000090E61474A2F0F9
:0E1595000000000090E615E4F00000000012D7
:0D15A300135A90E680E04482F090000A1296
:0A15B000026590E680E054F7F02297
:0315BA001213C544
:0215BD0080FEAE
:0515C3005A54455800D8
:0E15C800696E74726166666963206578616D94
:0E15D600706C6520666F722055464D20312ED8
:0315E4003135009E
:0815E70064656661756C740017
:0115EF0000FB
:0E15F00012010002FFFFFF401A22000100005E
:0415FE0001020301E2
:0A1602000A060002FFFFFF4001008E
:0E160C0009022E00010104C03209040000048E
:0E161A00FFFFFF000705810200020007050127
:0E16280002000200070582020002000705060C
:0416360002000200AC
:02163A000000AE
:0E163C0009022E00010104C03209040000045E
:0E164A00FFFFFF0007058102400000070501B9
:0E165800024000000705820240000007050660
:04166600024000003E
:02166A0000007E
:04166C000403000073
:0E167000303132333435363738394142434455
:03167E00454600DE
:02168100000067
:011683000066
:0E1684000188010101010107020702020202B2
:0E16920002000400000000000004003600000A
:0416A0000000003F07
:0E16A400020190010101010702020702020289
:0E16B2000200040000000000000400003600EA
:0416C0000000003FE7
:0116C400FF26
:0116C5000024
:0816C60000000000000000001C
:06023700E478FFF6D8FD9B
:08021500794DE94400601B7AF9
:05021D0001901681783C
:03022200127592C0
:0A0225003AE493F2A308B8000205C2
:08022F0092D9F4DAF27592FF96
:08023D007800E84400600A7932
:03024500007592AF
:060248003AE4F309D8FCC2
:08024E007812E84400600C790D
:0B02560001903A00E4F0A3D8FCD9FAB4
:03020800758120DD
:0A020B001215BFE582600302020332
:0415BF00758200220F
:00000001FF
