:03020000020208EF
:0302610002020393
:0502030012159280FEBF
:03000000020200F9
:0100030032CA
:01000B0032C2
:0100130032BA
:01001B0032B2
:0100230032AA
:01002B0032A2
:01003300329A
:01003B003292
:01004300328A
:01004B003282
:01005300327A
:01005B003272
:01006300326A
:0101000032CC
:0101040032C8
:0101080032C4
:01010C0032C0
:0101100032BC
:0101140032B8
:0101180032B4
:0101200032AC
:0101240032A8
:0101280032A4
:01012C0032A0
:01013000329C
:010134003298
:010138003294
:01013C003290
:01014000328C
:010148003284
:01014C003280
:01015000327C
:010154003278
:010158003274
:01015C003270
:01016000326C
:01017000325C
:010174003258
:010178003254
:01017C003250
:01018000324C
:010184003248
:010188003244
:01018C003240
:01019000323C
:010194003238
:010198003234
:01019C003230
:0101A000322C
:0101A8003224
:0101AC003220
:0101B000321C
:0101B4003218
:0101B8003214
:010264002277
:08026500AA82AB837C007D003E
:0B026D00C3EC9AED9B50147EB07F04A0
:050278001EBEFF011F86
:0B027D00EE4F70F70CBC00E80D80E5B0
:010288002253
:08028900AA82AB837C007D001A
:0B029100C3EC9AED9B50147E0A7F0026
:05029C001EBEFF011F62
:0B02A100EE4F70F70CBC00E80D80E58C
:0102AC00222F
:0E02AD0075AF0790E67BE090E67CF0DAF32276
:0102BB002220
:0202BC007A00C6
:0302BE00BAFF0084
:0D02C100500B90E678E0FB20E0030A80F08F
:0C02CE0090E678E0FA20E204EA20E10B60
:0B02DA0090E678E04440F075820122BD
:0402E50075820022FC
:0202E9007A0099
:0302EB00BAFF0057
:0D02EE00500B90E678E0FB20E0030A80F062
:0E02FB0090E678E0FA30E20B90E678E04440BE
:05030900F075820122E5
:04030E0075820022D2
:020312007A006F
:03031400BAFF002D
:0E031700500F90E678E0FB20E2047582002291
:030325000A80EC5F
:0403280075820122B7
:02032C007A0055
:03032E00BAFF0013
:0E033100500F90E678E0FB20E6047582002273
:03033F000A80EC45
:04034200758201229D
:09034600AA82C3E49508E433FB2C
:0E034F0090E678E04480F0C002C00312031272
:0E035D00D003D00290E679EAF0C002C003128D
:0C036B0002BCE582D003D0027012E5094C
:0C037700600A90E678E04440F012032C8D
:04038300758200225D
:0E038700EB601090000AC002C003120289D081
:0503950003D00280B559
:0C039A00E509600890E678E0FA4440F0C5
:0403A6007582012239
:0C03AA00AA82AB837C00E50C7003F58296
:0103B6002224
:0A03B7007508647509007582A2C084
:0E03C10002C003C004120346E582D004D0033C
:0703CF00D00260030204B03C
:0C03D60090E679E50BF0C002C003C00403
:0E03E2001202BCE582D004D003D002600302F8
:0203F00004B057
:0C03F20090E679E50AF0C002C003C004E8
:0E03FE001202BCE582D004D003D002600302DC
:02040C0004B03A
:0E040E0090E678E04440F0C002C003C0041243
:0D041C00032C90E678E04480F0120312906B
:0E042900E67974A3F01202BCE582D004D00381
:0E043700D002707590E679E08A828B83F0C067
:0E04450002C003C0041202E9E582D004D00315
:05045300D0027059FD0C
:0C045800C3ED950C502A90E679E08A82F2
:0E0464008B83F0A3AA82AB83C002C003C00446
:0E047200C0051202E9E582D005D004D003D007
:0804800002702D0D8D0480D0E7
:0E04880090E678E04420F090E679E0C004129F
:0E04960002E9E582D004701290E678E044405E
:0C04A400F090E679E0C00412032CD004B4
:0304B0008C822219
:0A04B300AA82AB837C007508647513
:0C04BD0009007582A2C002C003C0041236
:0D04C9000346E582D004D003D00260030298
:0204D6000569B6
:0C04D80090E679E50EF0C002C003C004FD
:0E04E4001202BCE582D004D003D002600302F5
:0204F20005699A
:0C04F40090E679E50DF0C002C003C004E2
:0E0500001202BCE582D004D003D002705CFD74
:0C050E00C3ED950F50478A828B83E0FEFE
:0E051A00A3AA82AB8390E679EEF0903A05E05A
:0D052800FFEE2FF0903A03E0FEA3E0FF90FD
:0E0535003A0374012EF0E43FA3F0C002C003AD
:0E054300C004C0051202BCE582D005D004D071
:0A05510003D00270130D8D0480B377
:0E055B0090E678E04440F0C00412032CD00477
:030569008C82225F
:0A056C00903A15E0FA903A01E0F52C
:060576000AA3E0F50B8A68
:0C057C000C90E740C0021203AAAB82D032
:0E058800027C00903A01E0FDA3E0FE903A01F3
:0A059600EA2DF0EC3EA3F08B822268
:0B05A000AA82903A01E0F50DA3E0F5FF
:0905AB000E8A0F90E740C0021215
:0E05B40004B3D0027B00903A01E0FCA3E0FD0E
:0B05C200903A01EA2CF0EB3DA3F02280
:0C05CD00AA82AB837C00E5117003F5826C
:0105D90022FF
:0A05DA007508647509007582A6C05B
:0E05E40002C003C004120346E582D004D00317
:0705F200D00260030206B70E
:0C05F90090E679E510F0C002C003C004D9
:0E0605001202BCE582D004D003D002600302D2
:0206130006B728
:0E06150090E678E04440F0C002C003C004123A
:0D062300032C90E678E04480F01203129062
:0E063000E67974A7F01202BCE582D004D00374
:0E063E00D002707590E679E08A828B83F0C05E
:0E064C0002C003C0041202E9E582D004D0030C
:05065A00D0027059FD03
:0C065F00C3ED9511502A90E679E08A82E4
:0E066B008B83F0A3AA82AB83C002C003C0043D
:0E067900C0051202E9E582D005D004D003D0FE
:0806870002702D0D8D0480D0DE
:0E068F0090E678E04420F090E679E0C0041296
:0E069D0002E9E582D004701290E678E0444055
:0C06AB00F090E679E0C00412032CD004AB
:0306B7008C822210
:0A06BA00AA82AB837C00750864750A
:0C06C40009007582A6C002C003C0041229
:0D06D0000346E582D004D003D002705A909A
:0C06DD00E679E512F0C002C003C0041270
:0D06E90002BCE582D004D003D0027041FDB8
:0C06F600C3ED9513502C8A828B83E0FE2C
:0E070200A3AA82AB8390E679EEF0C002C0039A
:0E071000C004C0051202BCE582D005D004D0A2
:0A071E0003D00270130D8D0480CE8D
:0E07280090E678E04440F0C00412032CD004A8
:030736008C822290
:07073900903A15E0F5119064
:090740003A06E0F51090E74002D2
:0207490005CDDC
:0D074B00AA8290E6017480F000000000908A
:0E075800E670E4F090E671F053B4F975B2B6B5
:0E07660074904AF58043B40853A0F790000A3F
:0E077400C002120265D00274024AF5807A00BB
:020782007B00FA
:0E07840020A2208A048B057E007F00C3EC9427
:0E079200FFED94FFEE9400EF6480948050071A
:0707A0000ABA00E00B80DD46
:0707A70030A2047AC88002B1
:0207AE007A646B
:0E07B000903A0CEAF0903A08E4F0A3F0A3F0BF
:0807BE00A3F0903A07E4F022D9
:0607C60075820402074BDE
:0607CC0075823402074BA8
:0807D200903A00E4F00207C6B2
:0E07DA0090E6017480F00000000090E618E444
:0E07E800F00000000090E619E4F000000000B0
:0E07F60090E60BE4F00000000090E6A3E0FAAD
:0E08040054FEF00000000090E6A4E0FA54FE5E
:0E081200F00000000090E6957480F0000000F9
:0E0820000090E6957480F090E6047480F0007D
:0E082E0000000090E6047482F00000000090CC
:0E083C00E604E4F00000000075B4FF903A00FE
:04084A007401F02223
:07084E0030A2047A168002BB
:020855007A0B1C
:0A085700903A0CE0FBEA2BF07A0067
:03086100BA40009A
:090864005007D284C2840A80F41A
:0E086D00D287D284C284D284C284D284C28450
:0E087B00D284C28475B20053B4F7308105D226
:04088900811207DAF7
:06088D00D28143B20222F9
:0C08930085B31475B3FF903A15E0FB909C
:0E089F003A08E0FCA3E0FDA3E0FEA3E0FF7832
:0E08AD000079007A00903A08EB2CF0E83DA3A9
:0E08BB00F0E93EA3F0EA3FA3F090E68BE06088
:0E08C90022FA759B40759AE775AF07903A07C3
:0508D700E0F990E67B52
:0E08DC00E0F590D28429F9C284DAF5903A074B
:0208EA00E9F033
:0B08EC008514B390E68BE0FABA4000E0
:0508F700500302084E51
:0108FC0022D9
:0E08FD0090E60174E2F090E6F3E4F090E6C3BA
:0E090B00F090E6C1F090E6C27404F090E6C0F1
:0C091900744EF090E6F4E4F0759B167A42
:0A092500167B3A8B9A759E60759D53
:0E092F00E4C0027A201202ADD00290E6C6E4C7
:0D093D00F090E6C77410F090E6C8E4F0906A
:0E094A00E6C9F090E6CAF090E6CBF090E6CC5D
:0E095800E4F090E6CDF090E60B7401F00000A4
:0D096600000090E6047480F0000000009096
:0E097300E6047404F00000000090E604E4F0D6
:0E0981000000000090E619E4F0000000009075
:0E098F00E6197410F00000000090E6DA740122
:0E099D00F00000000090E6CE7401F0000000B3
:0E09AB000090E6CFE4F00000000090E6D0E4FB
:0E09B900F00000000090E6D1E4F00000000025
:0E09C70090E6DC74FFF00000000053B2EF4336
:0509D500B201C2802206
:01006C00286B
:01006D000191
:04006E005A54455843
:040072000A0D000073
:010076000089
:010077000187
:060078006300000000001F
:0C007E0000000000000000000000000076
:0A008A00303030303030303030308C
:0109DA0022FA
:0E09DB0090E683E4F07420F07410F07430F0B5
:0E09E90090E6837401F07421F07411F0743103
:0E09F700F090E6837412F07432F07404F07421
:030A050024F022B8
:0A0A0800AA82E51624E050037516DB
:010A12001FC4
:0D0A130090E6BFE0701090E6BEE0FBC395DA
:090A200016500690E6BEE0F51642
:0C0A290075AF078A9B85159A759E417574
:0A0A35009DE790E67C7403F07A0060
:0C0A3F00C3EA9516501190E67BE0FB9096
:0B0A4B00E67CF090E67CE4F00A80E915
:0B0A5600E5160425E0FA90E740F09060
:0E0A6100E7417403F090E68AE4F090E68BEA39
:020A6F00F02273
:0E0A7100903A13E0FAA3E0FBC374409AE49BB2
:080A7F0050067C407D0080045C
:040A87008A048B054D
:0E0A8B00903A15ECF07D00903A13EAC39CF00F
:050A9900EB9DA3F0221B
:0A0A9E00903A56E0FABA310280489F
:040AA800BA3201223B
:050AAC00BA3402804293
:050AB100BA350280507F
:050AB600BA39028008BE
:050ABB00BA3C02802797
:030AC000020B2600
:0E0AC300903A05E4F0903A03F0A3F090E6BB01
:0E0AD100E0FB7A0090E6BAE0FC7D00903A016E
:080ADF00EC4AF0ED4BA3F022FC
:090AE70090E6BAE0903A06F02214
:030AF0000207D228
:0E0AF3001207D290E6A4E054FEF090E6F574EF
:050B0100FFF00208FDF9
:0E0B0600D280D28443B21090E6F574FFF00066
:0E0B140000000090E601E0FA54F0F00000004E
:040B22000002084E77
:080B260090E6A0E04401F0227A
:0C0B2E00C020C0E0C0F0C082C083C00244
:0E0B3A00C003C004C005C006C007C000C00153
:0E0B4800C0D075D00090E6B9E0FA903A56F0B1
:0E0B560090E6B57401F090E6B9E0FA24F35091
:040B640003020EE496
:070B6800EA2A2A900B6F73CB
:070B6F00020B96020C4A0282
:060B76000EE4020CC702B0
:060B7C000EE4020EE4028B
:060B82000D5F020E7A0275
:060B88000E7C020E8D023E
:060B8E000E92020EA3020C
:020B94000EA8A9
:0A0B960090E6B8E0FABA8002800D84
:050BA000BA8102801E75
:050BA500BA8202802F5E
:030BAA00020EE454
:0E0BAD0090E740E4F090E741F090E68AF09087
:080BBB00E68B7402F0020EE467
:0E0BC30090E740E4F090E741F090E68AF09071
:080BD100E68B7402F0020EE451
:0C0BD90090E6BCE0FA600FBA010280193F
:050BE500BA800280054A
:050BEA00BA812F801EFE
:0E0BEF0090E6A0E0FA53020190E740EAF080A1
:010BFD003ABD
:0E0BFE0090E6A1E0FA53020190E740EAF08091
:010C0C002BBC
:0E0C0D0090E6A2E0FA53020190E740EAF08080
:010C1B001CBC
:0E0C1C0090E6BCE0C31314540324A3F582E455
:0E0C2A0034E6F583E0FA53020190E740EAF069
:0E0C380090E741E4F090E68AF090E68B7402BB
:040C4600F0020EE4C6
:0A0C4A0090E6B8E0FABA0202800357
:030C5400020EE4A9
:090C570090E6BAE06003020EE42D
:0C0C600090E6BCE0FA600FBA01028015BB
:050C6C00BA80028005C2
:050C7100BA812380168A
:0B0C760090E6A0E0FA54FEF0020EE44D
:0B0C810090E6A1E0FA54FEF0020EE441
:0B0C8C0090E6A2E0FA54FEF0020EE435
:0E0C970090E6BCE0C31314540324A3FAE43423
:0E0CA500E6FB90E6BCE0C31314540324A3F551
:0E0CB30082E434E6F583E0FC5304FE8A828B73
:060CC10083ECF0020EE4DA
:0A0CC70090E6B8E0FABA02028003DA
:030CD100020EE42C
:090CD40090E6BAE06003020EE4B0
:0C0CDD0090E6BCE0FA600FBA010280143F
:050CE900BA8002800545
:050CEE00BA8120801412
:0A0CF30090E6A0E0FA4401F0804111
:0A0CFD0090E6A1E0FA4401F0803710
:0A0D070090E6A2E0FA4401F0802D0E
:0E0D110090E6BCE0C31314540324A3FAE434A8
:0E0D1F00E6FB90E6BCE0C31314540324A3F5D6
:0E0D2D0082E434E6F583E0FC4304FE8A828B08
:030D3B0083ECF056
:0E0D3E0090E6BCE05480C423541FFA90E6BC3B
:0E0D4C00E0FB740F5B420290E683EAF0742035
:050D5A004AF0020EE466
:0A0D5F0090E6BBE0FABA0102801929
:050D6900BA0202802621
:050D6E00BA0302804DF4
:060D7300BA0603020E3374
:060D7900BA0703020E455B
:030D7F00020E70F1
:0A0D82007A447B1690E6B3EBF09084
:080D8C00E6B47444F0020EE429
:0B0D940090E680E0FA30E7127A607B06
:0A0D9F001690E6B3EBF090E6B47492
:050DA90060F0020EE401
:0A0DAE007A907B1690E6B3EBF0900C
:080DB800E6B47490F0020EE4B1
:0A0DC00090E6BAE0FABA0102800FD3
:050DCA00BA0202801CCA
:050DCF00BA03028029B7
:050DD400BA044A80365C
:060DD90075821B7A1B7BF2
:040DDF00168B1575E5
:060DE3001605120A0802C9
:020DE9000EE416
:060DEB007582207A207BD6
:040DF100168B1575D3
:060DF500161C120A0802A0
:020DFB000EE404
:0A0DFD0075828A7A8A7B008B1575D7
:060E0700160A120A08029F
:020E0D000EE4F1
:060E0F0075823C7A3C7B79
:040E1500168B1575AE
:060E19001608120A08028F
:020E1F000EE4DF
:0A0E21007AC07B1690E6B3EBF09068
:080E2B00E6B474C0F0020EE40D
:0A0E33007A567B1690E6B3EBF090C0
:080E3D00E6B47456F0020EE465
:0B0E450090E680E0FA30E7127A907B24
:0A0E50001690E6B3EBF090E6B474E0
:050E5A0090F0020EE41F
:0A0E5F007A607B1690E6B3EBF0908A
:070E6900E6B47460F0807430
:0A0E700090E6A0E0FA4401F0806A69
:020E7A0080688E
:0E0E7C0090E740E4F090E68AF090E68B740177
:030E8A00F080579E
:050E8D001209DB805298
:0E0E920090E740E4F090E68AF090E68B740161
:030EA000F080419E
:050EA3001209DB803C98
:0E0EA80090E6B8E0FABA823490E6BCE0C313DC
:0B0EB60014540325E02458F582E434B6
:0C0EC1003AF583E4F0A3F090E685E090A1
:0D0ECD00E740F090E684E0FA90E741F090F5
:0A0EDA00E68AE4F090E68B7402F063
:0B0EE40090E6B8E0FABA400302106A82
:050EEF00BAC0028003FF
:030EF40002109455
:0E0EF70090E6BFE0FB7A0090E6BEE0FC7D00D6
:0E0F0500903A13EC4AF0ED4BA3F0120A7190F3
:090F1300E6B9E0FABA22028025D9
:060F1C00BA3003021000D0
:060F2200BA33030210497E
:050F2800BA380280311F
:050F2D00BA3A028055F4
:060F3200BA3B03020FC6EA
:060F3800BA3D03020FDFC9
:030F3E000210603E
:0E0F410090E6B5E4F090E68AF090E68B742816
:0D0F4F00F090E6B3E4F090E6B4746CF002AC
:020F5C001094EF
:0E0F5E0090E6BBE0FB7A0090E6BAE0FC7D0076
:0E0F6C00903A01EC4AF0ED4BA3F090E68AE4D7
:0D0F7A00F012056CE58290E68BF0021094F9
:0E0F8700903A03E0FAA3E0FB8A0490E740EC06
:0D0F9500F08B0290E741EAF0903A05E09001
:0A0FA200E742F075080075090175BB
:0D0FAC0082A2120346AA8290E743EAF09069
:0D0FB900E68AE4F090E68B7404F0021094D8
:0E0FC60090E6BAE0903A06F090E68AE4F01267
:0B0FD4000739E58290E68BF0021094D4
:0A0FDF007508007509017582A6125D
:0E0FE9000346AA8290E740EAF090E68AE4F020
:090FF70090E68B7401F0021094E5
:06100000759B077A077BD7
:0C1006003A8B9A759E417A417BE78B9DE6
:0E101200C0027A071202ADD00253B2FD308147
:0D1020000C90E740E4F0D28143B202800959
:09102D0090E7407401F01207C6BF
:0E10360090E7487401F090E68AE4F090E68BB3
:051044007409F0804B6F
:0E10490090E7407404F090E741E4F090E68AEE
:09105700F090E68B7402F0803485
:0A10600090E6A0E0FA4401F0802AB7
:0C106A0090E6BFE0700690E6BEE0601665
:0E107600903A577401F090E68BE4F05391EF3E
:0810840090E65D7401F0801993
:08108C00120A9E90E68BE4F0CD
:0E1094005391EF90E65D7401F090E6A0E0FA53
:0310A2004480F097
:0E10A500D0D0D001D000D007D006D005D004A6
:0D10B300D003D002D083D082D0F0D0E0D0A6
:0210C0002032DC
:0E10C200C0E0C082C0835391EF90E65D7402DF
:0810D000F0D083D082D0E032A1
:0E10D800C0E0C082C0835391EF90E65D7404C7
:0810E600F0D083D082D0E0328B
:0E10EE00C0E0C082C0835391EF90E65D7408AD
:0810FC00F0D083D082D0E03275
:0E110400C0E0C082C0835391EF90E65D74108E
:08111200F0D083D082D0E0325E
:0E111A00C0E0C082C0835391EF90E65D742068
:08112800F0D083D082D0E03248
:0E113000C0E0C082C0835391EF90E65D744032
:08113E00F0D083D082D0E03232
:0C114600C020C0E0C0F0C082C083C00226
:0E115200C003C004C005C006C007C000C00135
:0E116000C0D075D000C2E8120A71903A56E075
:06116E00FABA30028042D3
:05117400BA3302803DCA
:05117900BA3802800FEE
:05117E00BA3A028033C3
:05118300BA3B028015DB
:05118800BA3D228029A0
:0E118D0090E68AE4F012056CE58290E68BF0A5
:02119B008019B9
:0E119D0090E68AE4F0120739E58290E68BF0C6
:0211AB008009B9
:0911AD0090E68AE4F090E68BF074
:0E11B6005391EF90E65F7401F0D2E8D0D0D0F4
:0E11C40001D000D007D006D005D004D003D053
:0C11D20002D083D082D0F0D0E0D02032D8
:0C11DE00C020C0E0C0F0C082C083C0028E
:0E11EA00C003C004C005C006C007C000C0019D
:0E11F800C0D075D000C2E8903A57E0FA6020EF
:0D120600903A57E4F090E6BFE0FB7A0090CC
:0E121300E6BEE0FC7D00903A13EC4AF0ED4B95
:05122100A3F0120A9E7B
:0D122600120A71903A56E0FABA3102803B8C
:05123300BA3202803315
:05123800BA3402803110
:05123D00BA3502802C0F
:05124200BA390280052D
:05124700BA3C24800BFD
:0B124C0090E68BE0F5821205A08017F1
:0B125700903A06E0F51290E68BE0F5FF
:091262001390E7401206BA800364
:03126B00120893D3
:0E126E0090E68BE4F05391EF90E65F7402F08F
:0E127C00903A13E0FAA3E0FB4A700890E6A057
:05128A00E0FA4480F0D1
:0E128F00D2E8D0D0D001D000D007D006D005D4
:0E129D00D004D003D002D083D082D0F0D0E0B5
:0312AB00D020321E
:0E12AE00C0E0C082C0835391EF90E65F7404ED
:0812BC00F0D083D082D0E032B3
:0E12C400C0E0C082C0835391EF90E65F7408D3
:0812D200F0D083D082D0E0329D
:0E12DA00C0E0C082C0835391EF90E65F7410B5
:0812E800F0D083D082D0E03287
:0E12F000C0E0C082C0835391EF90E65F74208F
:0812FE00F0D083D082D0E03271
:0E130600C0E0C082C0835391EF90E65F744058
:08131400F0D083D082D0E0325A
:0E131C00C0E0C082C0835391EF90E65F748002
:08132A00F0D083D082D0E03244
:021332007A003F
:03133400BA0A00F2
:0E1337005012EA248AF582E43400F583E0FBCC
:06134500BB30540A80E9F0
:07134B007510FB7511059000
:091352003A0E1205CD7A007B0071
:03135B00BB0500CF
:0A135E00503CEB240EF582E4343A13
:0E136800F583E0FCEA248AFDE43400FEECC4C8
:0E137600540F9016C493FF8D828E83F00AEA06
:0E138400248AFDE43400FE740F5C9016C493BE
:0A139200FC8D828E83F00A0B80BFF1
:01139C00222E
:0E139D0090E680E04408F090E6007412F090B4
:0E13AB000002120265538EF8D28143B202C2D4
:0E13B900AFC2E89000437402F090004474014B
:0E13C700F090004574B8F090E668E04408F03D
:0A13D5009001007402F07A2E7B0BE9
:0D13DF008B04900101ECF0900102EAF09007
:0A13EC0001047402F07AC27B108B3A
:0E13F60004900105ECF0900106EAF090010869
:0A1404007402F07AD87B108B04907C
:0E140E000109ECF090010AEAF090010C740262
:0A141C00F07AEE7B108B0490010DB6
:0E142600ECF090010EEAF09001107402F07AE2
:0A143400047B118B04900111ECF011
:0C143E00900112EAF09001147402F07AA0
:0A144A001A7B118B04900115ECF0E1
:0C145400900116EAF09001187402F07A82
:0A146000307B118B04900119ECF0B1
:0C146A0090011AEAF09001207402F07A60
:0A147600467B118B04900121ECF07D
:0C148000900122EAF09001247402F07A3E
:0A148C00DE7B118B04900125ECF0CB
:0C149600900126EAF09001287402F07A20
:0A14A200AE7B128B04900129ECF0E0
:0C14AC0090012AEAF090012C7402F07A02
:0A14B800C47B128B0490012DECF0B0
:0C14C20090012EEAF09001307402F07AE4
:0A14CE00DA7B128B04900131ECF080
:0C14D800900132EAF09001347402F07AC6
:0A14E400F07B128B04900135ECF050
:0C14EE00900136EAF09001387402F07AA8
:0A14FA00067B138B04900139ECF01F
:0C15040090013AEAF090013C7402F07A89
:0A1510001C7B138B0490013DECF0EE
:0E151A0090013EEAF05391EF90E65D747FF091
:0E15280090E65CE0FA447FF090E65F74FFF01E
:0E15360090E65E74FFF0D2E8D2AF90E611743A
:0E154400A0F00000000090E61074A0F000007F
:0D155200000090E61274E2F000000000902E
:0E155F00E61374A2F00000000090E614E4F021
:0E156D000000000090E615E4F00000000012FF
:0D157B00133290E680E04482F090000A12E6
:0A158800026590E680E054F7F022BF
:0315920012139D94
:0E159500903A00E0FA60F990E6A4E0FA20E255
:0E15A300F190E694E0FB7A0090E695E0FC7D86
:0D15B100004202ED4203EA4B700302160AED
:0B15BE00C3E49A74029B500302160A5B
:0B15C90090E6A3E0FC30E30302160AEA
:0415D4007C007D001A
:0E15D800C3EC9AED9B501B8C8274F42DF583AE
:0E15E600E0F5A08C8274F02DF583E590F00CFA
:0615F400BC00E10D80DEE9
:0E15FA0090E690EBF0000000007B0090E69180
:02160800EAF006
:0D160A000000000090E6957480F002159538
:05161B005A544558007F
:0E16200075636563686F206578616D706C6539
:0E162E0020666F722055464D20312E3135005A
:08163C0064656661756C7400C1
:0E16440012010002FFFFFF401A220001000009
:04165200010203018D
:0A1656000A060002FFFFFF4001003A
:0E16600009022E00010104C03209040000043A
:0E166E00FFFFFF0007058102000200070501D3
:0E167C000200020007058202000200070504BA
:04168A000200020058
:02168E0000005A
:0E16900009022E00010104C03209040000040A
:0E169E00FFFFFF000705810240000007050165
:0E16AC0002400000070582024000000705040E
:0416BA0002400000EA
:0216BE0000002A
:0416C000040300001F
:0E16C400303132333435363738394142434401
:0316D2004546008A
:0216D500000013
:0116D7000012
:0E16D80001880101010101070207020202025E
:0E16E6000200040000000000000400360000B6
:0416F4000000003FB3
:0E16F800020190010101010702020702020235
:0E170600020004000000000000040000360095
:041714000000003F92
:01171800FFD1
:0117190000CF
:08171A000000000000000000C7
:06023700E478FFF6D8FD9B
:08021500794DE94400601B7AF9
:05021D00019016D578E8
:03022200137592BF
:0A0225003AE493F2A308B8000205C2
:08022F0092D9F4DAF27592FF96
:08023D007800E84400600A7932
:03024500007592AF
:060248003AE4F309D8FCC2
:08024E007813E84400600C790C
:0B02560001903A00E4F0A3D8FCD9FAB4
:03020800758120DD
:0A020B00121617E5826003020203D9
:0416170075820022B6
:00000001FF
