:03020000020208EF
:0302610002020393
:050203001216E080FE70
:03000000020200F9
:0100030032CA
:01000B0032C2
:0100130032BA
:01001B0032B2
:0100230032AA
:01002B0032A2
:01003300329A
:01003B003292
:01004300328A
:01004B003282
:01005300327A
:01005B003272
:01006300326A
:0101000032CC
:0101040032C8
:0101080032C4
:01010C0032C0
:0101100032BC
:0101140032B8
:0101180032B4
:0101200032AC
:0101240032A8
:0101280032A4
:01012C0032A0
:01013000329C
:010134003298
:010138003294
:01013C003290
:01014000328C
:010148003284
:01014C003280
:01015000327C
:010154003278
:010158003274
:01015C003270
:01016000326C
:01017000325C
:010174003258
:010178003254
:01017C003250
:01018000324C
:010184003248
:010188003244
:01018C003240
:01019000323C
:010194003238
:010198003234
:01019C003230
:0101A000322C
:0101A8003224
:0101AC003220
:0101B000321C
:0101B4003218
:0101B8003214
:010264002277
:08026500AA82AB837C007D003E
:0B026D00C3EC9AED9B50147EB07F04A0
:050278001EBEFF011F86
:0B027D00EE4F70F70CBC00E80D80E5B0
:010288002253
:08028900AA82AB837C007D001A
:0B029100C3EC9AED9B50147E0A7F0026
:05029C001EBEFF011F62
:0B02A100EE4F70F70CBC00E80D80E58C
:0102AC00222F
:0E02AD0075AF0790E67BE090E67CF0DAF32276
:0102BB002220
:0202BC007A00C6
:0302BE00BAFF0084
:0D02C100500B90E678E0FB20E0030A80F08F
:0C02CE0090E678E0FA20E204EA20E10B60
:0B02DA0090E678E04440F075820122BD
:0402E50075820022FC
:0202E9007A0099
:0302EB00BAFF0057
:0D02EE00500B90E678E0FB20E0030A80F062
:0E02FB0090E678E0FA30E20B90E678E04440BE
:05030900F075820122E5
:04030E0075820022D2
:020312007A006F
:03031400BAFF002D
:0E031700500F90E678E0FB20E2047582002291
:030325000A80EC5F
:0403280075820122B7
:02032C007A0055
:03032E00BAFF0013
:0E033100500F90E678E0FB20E6047582002273
:03033F000A80EC45
:04034200758201229D
:09034600AA82C3E49508E433FB2C
:0E034F0090E678E04480F0C002C00312031272
:0E035D00D003D00290E679EAF0C002C003128D
:0C036B0002BCE582D003D0027012E5094C
:0C037700600A90E678E04440F012032C8D
:04038300758200225D
:0E038700EB601090000AC002C003120289D081
:0503950003D00280B559
:0C039A00E509600890E678E0FA4440F0C5
:0403A6007582012239
:0C03AA00AA82AB837C00E50C7003F58296
:0103B6002224
:0A03B7007508647509007582A2C084
:0E03C10002C003C004120346E582D004D0033C
:0703CF00D00260030204B03C
:0C03D60090E679E50BF0C002C003C00403
:0E03E2001202BCE582D004D003D002600302F8
:0203F00004B057
:0C03F20090E679E50AF0C002C003C004E8
:0E03FE001202BCE582D004D003D002600302DC
:02040C0004B03A
:0E040E0090E678E04440F0C002C003C0041243
:0D041C00032C90E678E04480F0120312906B
:0E042900E67974A3F01202BCE582D004D00381
:0E043700D002707590E679E08A828B83F0C067
:0E04450002C003C0041202E9E582D004D00315
:05045300D0027059FD0C
:0C045800C3ED950C502A90E679E08A82F2
:0E0464008B83F0A3AA82AB83C002C003C00446
:0E047200C0051202E9E582D005D004D003D007
:0804800002702D0D8D0480D0E7
:0E04880090E678E04420F090E679E0C004129F
:0E04960002E9E582D004701290E678E044405E
:0C04A400F090E679E0C00412032CD004B4
:0304B0008C822219
:0A04B300AA82AB837C007508647513
:0C04BD0009007582A2C002C003C0041236
:0D04C9000346E582D004D003D00260030298
:0204D6000569B6
:0C04D80090E679E50EF0C002C003C004FD
:0E04E4001202BCE582D004D003D002600302F5
:0204F20005699A
:0C04F40090E679E50DF0C002C003C004E2
:0E0500001202BCE582D004D003D002705CFD74
:0C050E00C3ED950F50478A828B83E0FEFE
:0E051A00A3AA82AB8390E679EEF0903A04E05B
:0D052800FFEE2FF0903A02E0FEA3E0FF90FE
:0E0535003A0274012EF0E43FA3F0C002C003AE
:0E054300C004C0051202BCE582D005D004D071
:0A05510003D00270130D8D0480B377
:0E055B0090E678E04440F0C00412032CD00477
:030569008C82225F
:0A056C00903A18E0FA903A00E0F52A
:060576000AA3E0F50B8A68
:0C057C000C90E740C0021203AAAB82D032
:0E058800027C00903A00E0FDA3E0FE903A00F5
:0A059600EA2DF0EC3EA3F08B822268
:0B05A000AA82903A00E0F50DA3E0F500
:0905AB000E8A0F90E740C0021215
:0E05B40004B3D0027B00903A00E0FCA3E0FD0F
:0B05C200903A00EA2CF0EB3DA3F02281
:0C05CD00AA82AB837C00E5117003F5826C
:0105D90022FF
:0A05DA007508647509007582A6C05B
:0E05E40002C003C004120346E582D004D00317
:0705F200D00260030206B70E
:0C05F90090E679E510F0C002C003C004D9
:0E0605001202BCE582D004D003D002600302D2
:0206130006B728
:0E06150090E678E04440F0C002C003C004123A
:0D062300032C90E678E04480F01203129062
:0E063000E67974A7F01202BCE582D004D00374
:0E063E00D002707590E679E08A828B83F0C05E
:0E064C0002C003C0041202E9E582D004D0030C
:05065A00D0027059FD03
:0C065F00C3ED9511502A90E679E08A82E4
:0E066B008B83F0A3AA82AB83C002C003C0043D
:0E067900C0051202E9E582D005D004D003D0FE
:0806870002702D0D8D0480D0DE
:0E068F0090E678E04420F090E679E0C0041296
:0E069D0002E9E582D004701290E678E0444055
:0C06AB00F090E679E0C00412032CD004AB
:0306B7008C822210
:0A06BA00AA82AB837C00750864750A
:0C06C40009007582A6C002C003C0041229
:0D06D0000346E582D004D003D002705A909A
:0C06DD00E679E512F0C002C003C0041270
:0D06E90002BCE582D004D003D0027041FDB8
:0C06F600C3ED9513502C8A828B83E0FE2C
:0E070200A3AA82AB8390E679EEF0C002C0039A
:0E071000C004C0051202BCE582D005D004D0A2
:0A071E0003D00270130D8D0480CE8D
:0E07280090E678E04440F0C00412032CD004A8
:030736008C822290
:07073900903A18E0F5119061
:090740003A05E0F51090E74002D3
:0207490005CDDC
:0E074B0075B11F75B6FF903A0DE4F0903A0CB0
:0E075900F0903A0E7410F0903A0F7410F09079
:060767003A107401F022BB
:0E076D0090E6017480F00000000090E670E459
:0E077B00F090E671F0D2A243B40453B2BF5323
:0E078900B4FDC2A343B40843B2AEC2854380A0
:0E0797008E903A10E0F4FA53020F903A0FE001
:0E07A5004AF5B175B6FF900001120265C287D9
:0E07B300C281903A0FE0FA740F4AF5B153B4C8
:0507C100FB7A007B0043
:0E07C60020A2208A048B057E007F00C3EC94E5
:0E07D400FFED94FFEE9400EF648094805007D8
:0707E2000ABA00E00B80DD04
:0707E90030A2047AC880026F
:0207F0007A6429
:0E07F200903A0BEAF0903A07E4F0A3F0A3F07F
:08080000A3F0903A06E4F02297
:0308080002076D77
:01080B0022CA
:0B080C00903A0BE0FA74162AF07A0014
:03081700BAFF0025
:09081A005007D281C2810A80F46A
:0E082300D287D284C284D284C284D284C2849A
:0E083100D284C28453B27153B4F775B6F090FE
:0D083F003A10E0FA55B1FBB5020312080BA8
:0E084C00903A0EE0FA740F4AF5B175B6FF222D
:0C085A0085B31475B3FF903A18E0FB90D2
:0E0866003A07E0FCA3E0FDA3E0FEA3E0FF786C
:0E0874000079007A00903A07EB2CF0E83DA3E3
:0E088200F0E93EA3F0EA3FA3F090E68BE060C1
:0E08900022FA759B40759AE775AF07903A06FD
:05089E00E0F990E67B8B
:0E08A300E0F590D28129F9C281DAF5903A068B
:0208B100E9F06C
:0B08B3008514B390E68BE0FABA400019
:0508BE00500302080CCC
:0108C3002212
:0E08C40090E60174C2F090E6F3E4F090E6C313
:0E08D200F090E6C1F090E6C27420F090E6C00F
:0C08E000744EF090E6F4E4F0759B197A79
:0A08EC00197B3A8B9A759E60759D8A
:0E08F600E4C0027A201202ADD00290E6C6E401
:0D090400F090E6C77410F090E6C8E4F090A3
:0E091100E6C9F090E6CAF090E6CBF090E6CC96
:0E091F00E4F090E6CDF090E60B7401F00000DD
:0D092D00000090E6047480F00000000090CF
:0E093A00E6047402F00000000090E604E4F011
:0E0948000000000090E618E4F00000000090AF
:0E095600E6187410F00000000090E6D2740164
:0E096400F00000000090E6CE7401F0000000EC
:0E0972000090E6CFE4F00000000090E6D0E434
:0E098000F00000000090E6D1E4F0000000005E
:0D098E0090E6D474FFF000000000C2832248
:0C099B00AA82903A0CE0FB903A0DF0901C
:0E09A7003A0C74035AF08AF005F074108002C6
:0209B50025E03B
:0E09B700D5F0FBFA903A0EF0903A0FEAF07489
:0709C5000FF5B14AF5B12264
:01006C00286B
:01006D000191
:04006E005A54455843
:040072000A0F000071
:010076000089
:010077000187
:06007800E300000000009F
:0C007E0000000000000000000000000076
:0A008A00303030303030303030308C
:0109CC002208
:0E09CD0090E678E04480F012031290E6797410
:0A09DB0090F01202BCE582600122D8
:0E09E50090E6797444F01202BCE582600122B3
:0E09F30090E6797414F090E678E04440F0123B
:070A0100032CE582600122D5
:0E0A0800900079E0FA430201900079EAF022B2
:0E0A160090E683E4F07420F07410F07430F079
:0E0A240090E6837401F07421F07411F07431C7
:0B0A3200F090E6837402F07422F022C2
:0A0A3D00AA82E51624E050037516A6
:010A47001F8F
:0D0A480090E6BFE0701090E6BEE0FBC395A5
:090A550016500690E6BEE0F5160D
:0C0A5E0075AF078A9B85159A759E41753F
:0A0A6A009DE790E67C7403F07A002B
:0C0A7400C3EA9516501190E67BE0FB9061
:0B0A8000E67CF090E67CE4F00A80E9E0
:0B0A8B00E5160425E0FA90E740F0902B
:0E0A9600E7417403F090E68AE4F090E68BEA04
:020AA400F0223E
:0E0AA600903A16E0FAA3E0FBC374409AE49B7A
:080AB40050067C407D00800427
:040ABC008A048B0518
:0E0AC000903A18ECF07D00903A16EAC39CF0D4
:050ACE00EB9DA3F022E6
:0A0AD300903A59E0FABA3102804E61
:040ADD00BA32012206
:050AE100BA3402804858
:050AE600BA3502805644
:050AEB00BA3902800E83
:050AF000BA3C02802D5C
:060AF500BA5103020B5C84
:030AFB00020B816A
:0E0AFE00903A04E4F0903A02F0A3F090E6BBC8
:0E0B0C00E0FB7A0090E6BAE0FC7D00903A0033
:080B1A00EC4AF0ED4BA3F022C0
:090B220090E6BAE0903A05F022D9
:030B2B00020808B5
:0E0B2E0012080890E6A3E054FEF090E6F5747D
:050B3C00FFF00208C4F7
:0D0B4100D28390E6F574FFF00000000090F4
:0E0B4E00E601E0FA54F0F00000000002080C8E
:0E0B5C0090E6BCE0FABA0108903A0F74F0F08F
:020B6A00800900
:090B6C0090E6BAE0F58212099B43
:0C0B7500903A0FE0C4540F903A10F022A8
:080B810090E6A0E04401F0221F
:0C0B8900C020C0E0C0F0C082C083C002E9
:0E0B9500C003C004C005C006C007C000C001F8
:0E0BA300C0D075D00090E6B9E0FA903A59F053
:0E0BB10090E6B57401F090E6B9E0FA24F35036
:040BBF0003020F3FDF
:070BC300EA2A2A900BCA7315
:070BCA00020BF1020CA50271
:060BD1000F3F020D22029D
:060BD7000F3F020F3F0278
:060BDD000DBA020ED50264
:060BE3000ED7020EE8022D
:060BE9000EED020EFE02FB
:020BEF000F03F2
:0A0BF10090E6B8E0FABA8002800D29
:050BFB00BA8102801E1A
:050C0000BA8202802F02
:030C0500020F3F9C
:0E0C080090E740E4F090E741F090E68AF0902B
:080C1600E68B7402F0020F3FAF
:0E0C1E0090E740E4F090E741F090E68AF09015
:080C2C00E68B7402F0020F3F99
:0C0C340090E6BCE0FA600FBA01028019E3
:050C4000BA80028005EE
:050C4500BA812F801EA2
:0E0C4A0090E6A0E0FA53020190E740EAF08045
:010C58003A61
:0E0C590090E6A1E0FA53020190E740EAF08035
:010C67002B61
:0E0C680090E6A2E0FA53020190E740EAF08025
:010C76001C61
:0E0C770090E6BCE0C31314540324A3F582E4FA
:0E0C850034E6F583E0FA53020190E740EAF00E
:0E0C930090E741E4F090E68AF090E68B740260
:040CA100F0020F3F0F
:0A0CA50090E6B8E0FABA02028003FC
:030CAF00020F3FF2
:090CB20090E6BAE06003020F3F76
:0C0CBB0090E6BCE0FA600FBA0102801560
:050CC700BA8002800567
:050CCC00BA812380162F
:0B0CD10090E6A0E0FA54FEF0020F3F96
:0B0CDC0090E6A1E0FA54FEF0020F3F8A
:0B0CE70090E6A2E0FA54FEF0020F3F7E
:0E0CF20090E6BCE0C31314540324A3FAE434C8
:0E0D0000E6FB90E6BCE0C31314540324A3F5F5
:0E0D0E0082E434E6F583E0FC5304FE8A828B17
:060D1C0083ECF0020F3F22
:0A0D220090E6B8E0FABA020280037E
:030D2C00020F3F74
:090D2F0090E6BAE06003020F3FF8
:0C0D380090E6BCE0FA600FBA01028014E3
:050D4400BA80028005E9
:050D4900BA81208014B6
:0A0D4E0090E6A0E0FA4401F08041B5
:0A0D580090E6A1E0FA4401F08037B4
:0A0D620090E6A2E0FA4401F0802DB3
:0E0D6C0090E6BCE0C31314540324A3FAE4344D
:0E0D7A00E6FB90E6BCE0C31314540324A3F57B
:0E0D880082E434E6F583E0FC4304FE8A828BAD
:030D960083ECF0FB
:0E0D990090E6BCE05480C423541FFA90E6BCE0
:0E0DA700E0FB740F5B420290E683EAF07420DA
:050DB5004AF0020F3FAF
:0A0DBA0090E6BBE0FABA01028019CE
:050DC400BA02028026C6
:050DC900BA0302804D99
:060DCE00BA0603020E8EBE
:060DD400BA0703020EA0A5
:030DDA00020ECB3B
:0A0DDD007A167B1790E6B3EBF09056
:080DE700E6B47416F0020F3FA0
:0B0DEF0090E680E0FA30E7127A327BD9
:0A0DFA001790E6B3EBF090E6B47436
:050E040032F0020F3F77
:0A0E09007A5A7B1790E6B3EBF090E5
:080E1300E6B4745AF0020F3F2F
:0A0E1B0090E6BAE0FABA0102800F77
:050E2500BA0202801C6E
:050E2A00BA030280295B
:050E2F00BA044A803600
:060E34007582E97AE97BFA
:040E3A00168B157589
:060E3E001605120A3D0238
:020E44000F3F5E
:060E46007582EE7AEE7BDE
:040E4C00168B157577
:060E50001620120A3D020B
:020E56000F3F4C
:0A0E580075828A7A8A7B008B15757B
:060E6200160A120A3D020F
:020E68000F3F3A
:060E6A0075820E7A0E7B7A
:040E7000178B157552
:060E74001608120A3D02FF
:020E7A000F3F28
:0A0E7C007A827B1790E6B3EBF0904A
:080E8600E6B47482F0020F3F94
:0A0E8E007A287B1790E6B3EBF09092
:080E9800E6B47428F0020F3FDC
:0B0EA00090E680E0FA30E7127A5A7BFF
:0A0EAB001790E6B3EBF090E6B47484
:050EB5005AF0020F3F9E
:0A0EBA007A327B1790E6B3EBF0905C
:070EC400E6B47432F0807403
:0A0ECB0090E6A0E0FA4401F0806A0E
:020ED500806833
:0E0ED70090E740E4F090E68AF090E68B74011C
:030EE500F0805743
:050EE800120A16805201
:0E0EED0090E740E4F090E68AF090E68B740106
:030EFB00F0804143
:050EFE00120A16803C01
:0E0F030090E6B8E0FABA823490E6BCE0C31380
:0B0F110014540325E0245BF582E43457
:0C0F1C003AF583E4F0A3F090E685E09045
:0D0F2800E740F090E684E0FA90E741F09099
:0A0F3500E68AE4F090E68B7402F007
:0B0F3F0090E6B8E0FABA400302119DF2
:050F4A00BAC0028003A3
:030F4F000211C7C5
:0E0F520090E6BFE0FB7A0090E6BEE0FC7D007A
:0E0F6000903A16EC4AF0ED4BA3F0120AA69060
:090F6E00E6B9E0FABA2202803172
:060F7700BA30030210670E
:060F7D00BA33030210C3A9
:050F8300BA3802803DB8
:050F8800BA3A0280618D
:060F8D00BA3B0302102D27
:060F9300BA3D0302104606
:060F9900BA50030210DB58
:060F9F00BA58030210FC29
:030FA500021193A3
:0E0FA80090E6B5E4F090E68AF090E68B7428AF
:0D0FB600F090E6B3E4F090E6B4746CF00245
:020FC30011C754
:0E0FC50090E6BBE0FB7A0090E6BAE0FC7D000F
:0E0FD300903A00EC4AF0ED4BA3F090E68AE471
:0D0FE100F012056CE58290E68BF00211C75E
:0E0FEE00903A02E0FAA3E0FB8A0490E740ECA0
:0D0FFC00F08B0290E741EAF0903A04E0909B
:0A100900E742F07508007509017553
:0D10130082A2120346AA8290E743EAF09001
:0D102000E68AE4F090E68B7404F00211C73C
:0E102D0090E6BAE0903A05F090E68AE4F01200
:0B103B000739E58290E68BF00211C738
:0A1046007508007509017582A612F5
:0E1050000346AA8290E740EAF090E68AE4F0B8
:09105E0090E68B7401F00211C749
:06106700759B067A067B72
:0C106D003A8B9A759E417A417BE78B9D7F
:0D107900C0027A061202ADD00275B6F090EA
:0E1086003A10E0FA55B1FBB5021490E740E4D1
:0E109400F0903A0EE0FA740F4AF5B175B6FF0F
:0210A2008009C3
:0910A40090E7407401F012076DA1
:0E10AD0090E747E4F090E748F090E68AF09074
:0810BB00E68B7409F00211C775
:0E10C30090E7407402F090E741E4F090E68A76
:0A10D100F090E68B7402F00211C7E4
:0E10DB0090E7407403F0903A0CE0FA90E74181
:0E10E900F090E742E4F090E68AF090E68B7417
:0510F70003F00211C727
:0E10FC0090E678E04480F012031290E67974DA
:0E110A0091F01202BC90E7407401F090E6797B
:0D111800E090E741F01202E990E679E090E6
:0E112500E741F01202E990E679E090E742F02F
:0E1133001202E990E679E090E743F01202E93B
:0E11410090E679E090E744F01202E990E6793A
:0D114F00E090E741F01202E990E679E090AF
:0E115C00E742F01202E990E678E04420F090BD
:0E116A00E679E090E743F01202E990E678E0C3
:0E1178004440F090E679E090E744F012032C3A
:0D11860090E68AE4F090E68B7405F080346A
:0A11930090E6A0E0FA4401F0802A83
:0C119D0090E6BFE0700690E6BEE0601631
:0E11A900903A5A7401F090E68BE4F05391EF07
:0811B70090E65D7401F080195F
:0811BF00120AD390E68BE4F064
:0E11C7005391EF90E65D7401F090E6A0E0FA1F
:0311D5004480F063
:0E11D800D0D0D001D000D007D006D005D00472
:0D11E600D003D002D083D082D0F0D0E0D072
:0211F3002032A8
:0E11F500C0E0C082C0835391EF90E65D7402AB
:08120300F0D083D082D0E0326C
:0E120B00C0E0C082C0835391EF90E65D740492
:08121900F0D083D082D0E03256
:0E122100C0E0C082C0835391EF90E65D740878
:08122F00F0D083D082D0E03240
:0E123700C0E0C082C0835391EF90E65D74105A
:08124500F0D083D082D0E0322A
:0E124D00C0E0C082C0835391EF90E65D742034
:08125B00F0D083D082D0E03214
:0E126300C0E0C082C0835391EF90E65D7440FE
:08127100F0D083D082D0E032FE
:0C127900C020C0E0C0F0C082C083C002F2
:0E128500C003C004C005C006C007C000C00101
:0E129300C0D075D000C2E8120AA6903A59E009
:0612A100FABA3002804C95
:0512A700BA330280478C
:0512AC00BA38028019B0
:0512B100BA3A02803D85
:0512B600BA3B02801F9D
:0512BB00BA3D02803382
:0512C000BA5002802E6F
:0512C500BA5822802947
:0E12CA0090E68AE4F012056CE58290E68BF067
:0212D80080197B
:0E12DA0090E68AE4F0120739E58290E68BF088
:0212E80080097B
:0912EA0090E68AE4F090E68BF036
:0E12F3005391EF90E65F7401F0D2E8D0D0D0B6
:0E13010001D000D007D006D005D004D003D014
:0C130F0002D083D082D0F0D0E0D0203299
:0C131B00C020C0E0C0F0C082C083C0024F
:0E132700C003C004C005C006C007C000C0015E
:0E133500C0D075D000C2E8903A5AE0FA6020AD
:0D134300903A5AE4F090E6BFE0FB7A00908B
:0E135000E6BEE0FC7D00903A16EC4AF0ED4B54
:05135E00A3F0120AD308
:0C136300120AA6903A59E0FABA310302CF
:02136F0013BCAD
:05137100BA3202803FCA
:06137600BA34030213BCAF
:06137C00BA35030213BCA8
:05138200BA3902800DE4
:05138700BA3C028014D5
:05138C00BA5102802AA5
:031391000213BC88
:0C13940090E68BE0F5821205A00213BC6D
:0B13A000903A05E0F51290E68BE0F5B6
:0813AB001390E7401206BA029C
:0213B30013BC69
:0613B50012085A0213BCED
:0113BB000031
:0E13BC0090E68BE4F05391EF90E65F7402F040
:0E13CA00903A16E0FAA3E0FB4A700890E6A005
:0513D800E0FA4480F082
:0E13DD00D2E8D0D0D001D000D007D006D00585
:0E13EB00D004D003D002D083D082D0F0D0E066
:0313F900D02032CF
:0E13FC00C0E0C082C0835391EF90E65F74049E
:08140A00F0D083D082D0E03263
:0E141200C0E0C082C0835391EF90E65F740883
:08142000F0D083D082D0E0324D
:0E142800C0E0C082C0835391EF90E65F741065
:08143600F0D083D082D0E03237
:0E143E00C0E0C082C0835391EF90E65F74203F
:08144C00F0D083D082D0E03221
:0E145400C0E0C082C0835391EF90E65F744009
:08146200F0D083D082D0E0320B
:0E146A00C0E0C082C0835391EF90E65F7480B3
:08147800F0D083D082D0E032F5
:021480007A00F0
:03148200BA0A00A3
:0E1485005012EA248AF582E43400F583E0FB7D
:06149300BB30540A80E9A1
:071499007510FB75110590B1
:0914A0003A111205CD7A007B001F
:0314A900BB050080
:0A14AC00503CEB2411F582E4343AC1
:0E14B600F583E0FCEA248AFDE43400FEECC479
:0E14C400540F90178693FF8D828E83F00AEAF4
:0E14D200248AFDE43400FE740F5C90178693AC
:0A14E000FC8D828E83F00A0B80BFA2
:0114EA0022DF
:0E14EB0090E680E04408F090E6007412F09065
:0E14F9000002120265538EF812074BC2AFC2FA
:0E150700E89000437402F09000447401F090EC
:0D151500004574B8F090E668E04408F090DE
:0A15220001007402F07A897B0B8B44
:0E152C0004900101ECF0900102EAF09001043D
:0A153A007402F07AF57B118B049027
:0E1544000105ECF0900106EAF0900108740237
:0A155200F07A0B7B128B0490010964
:0E155C00ECF090010AEAF090010C7402F07AB3
:0A156A00217B128B0490010DECF0C0
:0C15740090010EEAF09001107402F07A71
:0A158000377B128B04900111ECF090
:0C158A00900112EAF09001147402F07A53
:0A1596004D7B128B04900115ECF060
:0C15A000900116EAF09001187402F07A35
:0A15AC00637B128B04900119ECF030
:0C15B60090011AEAF09001207402F07A13
:0A15C200797B128B04900121ECF0FC
:0C15CC00900122EAF09001247402F07AF1
:0A15D8001B7B138B04900125ECF03F
:0C15E200900126EAF09001287402F07AD3
:0A15EE00FC7B138B04900129ECF044
:0C15F80090012AEAF090012C7402F07AB5
:0A160400127B148B0490012DECF012
:0C160E0090012EEAF09001307402F07A96
:0A161A00287B148B04900131ECF0E2
:0C162400900132EAF09001347402F07A78
:0A1630003E7B148B04900135ECF0B2
:0C163A00900136EAF09001387402F07A5A
:0A164600547B148B04900139ECF082
:0C16500090013AEAF090013C7402F07A3C
:0A165C006A7B148B0490013DECF052
:0E16660090013EEAF05391EF90E65D747FF044
:0E16740090E65CE0FA447FF090E65F74FFF0D1
:0E16820090E65E74FFF0D2E8D2AF90E61174ED
:0E169000A0F00000000090E61074A0F0000032
:0D169E00000090E61274A0F0000000009023
:0E16AB00E613E4F00000000090E614E4F00006
:0D16B90000000090E615E4F00000000012B3
:0D16C60014801209CD90E680E04482F0907F
:0D16D300000A12026590E680E054F7F02254
:0316E0001214EBF6
:0216E30080FE87
:0516E9005A54455800B1
:0E16EE005553422D46504741204D6F64756C98
:0E16FC006520312E31357920286465666175D0
:04170A006C742900D2
:08170E0064656661756C7400EE
:0E17160012010002FFFFFF401A220001000036
:0417240001020301BA
:0A1728000A060002FFFFFF40010067
:0E17320009022700010104C03209040000036F
:0E174000FFFFFF000705810200020007050100
:0B174E0002000200070502020002007A
:01175900008F
:0E175A0009022700010104C032090400000347
:0E176800FFFFFF00070581024000000705019A
:0B1776000240000007050202400000D6
:011781000067
:04178200040300005C
:0E17860030313233343536373839414243443E
:03179400454600C7
:02179700000050
:01179900004F
:0E179A0001880101010101070207020202029B
:0E17A8000200200000000000002000360000BB
:0417B6000000003FF0
:0E17BA00020190010101010702020702020272
:0E17C80002002000000000000020000036009B
:0417D6000000003FD0
:0117DA00FF0F
:0117DB00000D
:0817DC00000000000000000005
:06023700E478FFF6D8FD9B
:08021500794DE94400601B7AF9
:05021D00019017977825
:03022200167592BC
:0A0225003AE493F2A308B8000205C2
:08022F0092D9F4DAF27592FF96
:08023D007800E84400600A7932
:03024500007592AF
:060248003AE4F309D8FCC2
:08024E007816E84400600C7909
:0B02560001903A00E4F0A3D8FCD9FAB4
:03020800758120DD
:0A020B001216E5E58260030202030B
:0416E50075820022E8
:00000001FF
