:03020000020208EF
:0302610002020393
:0502030012227280FED2
:03000000020200F9
:0100030032CA
:01000B0032C2
:0100130032BA
:01001B0032B2
:0100230032AA
:01002B0032A2
:01003300329A
:01003B003292
:01004300328A
:01004B003282
:01005300327A
:01005B003272
:01006300326A
:0101000032CC
:0101040032C8
:0101080032C4
:01010C0032C0
:0101100032BC
:0101140032B8
:0101180032B4
:0101200032AC
:0101240032A8
:0101280032A4
:01012C0032A0
:01013000329C
:010134003298
:010138003294
:01013C003290
:01014000328C
:010148003284
:01014C003280
:01015000327C
:010154003278
:010158003274
:01015C003270
:01016000326C
:01017000325C
:010174003258
:010178003254
:01017C003250
:01018000324C
:010184003248
:010188003244
:01018C003240
:01019000323C
:010194003238
:010198003234
:01019C003230
:0101A000322C
:0101A8003224
:0101AC003220
:0101B000321C
:0101B4003218
:0101B8003214
:010264002277
:08026500AA82AB837C007D003E
:0B026D00C3EC9AED9B50147EB07F04A0
:050278001EBEFF011F86
:0B027D00EE4F70F70CBC00E80D80E5B0
:010288002253
:08028900AA82AB837C007D001A
:0B029100C3EC9AED9B50147E0A7F0026
:05029C001EBEFF011F62
:0B02A100EE4F70F70CBC00E80D80E58C
:0102AC00222F
:0E02AD0075AF0790E67BE090E67CF0DAF32276
:0102BB002220
:0202BC007A00C6
:0302BE00BAFF0084
:0D02C100500B90E678E0FB20E0030A80F08F
:0C02CE0090E678E0FA20E204EA20E10B60
:0B02DA0090E678E04440F075820122BD
:0402E50075820022FC
:0202E9007A0099
:0302EB00BAFF0057
:0D02EE00500B90E678E0FB20E0030A80F062
:0E02FB0090E678E0FA30E20B90E678E04440BE
:05030900F075820122E5
:04030E0075820022D2
:020312007A006F
:03031400BAFF002D
:0E031700500F90E678E0FB20E2047582002291
:030325000A80EC5F
:0403280075820122B7
:02032C007A0055
:03032E00BAFF0013
:0E033100500F90E678E0FB20E6047582002273
:03033F000A80EC45
:04034200758201229D
:09034600AA82C3E49508E433FB2C
:0E034F0090E678E04480F0C002C00312031272
:0E035D00D003D00290E679EAF0C002C003128D
:0C036B0002BCE582D003D0027012E5094C
:0C037700600A90E678E04440F012032C8D
:04038300758200225D
:0E038700EB601090000AC002C003120289D081
:0503950003D00280B559
:0C039A00E509600890E678E0FA4440F0C5
:0403A6007582012239
:0C03AA00AA82AB837C00E50C7003F58296
:0103B6002224
:0A03B7007508647509007582A2C084
:0E03C10002C003C004120346E582D004D0033C
:0703CF00D00260030204B03C
:0C03D60090E679E50BF0C002C003C00403
:0E03E2001202BCE582D004D003D002600302F8
:0203F00004B057
:0C03F20090E679E50AF0C002C003C004E8
:0E03FE001202BCE582D004D003D002600302DC
:02040C0004B03A
:0E040E0090E678E04440F0C002C003C0041243
:0D041C00032C90E678E04480F0120312906B
:0E042900E67974A3F01202BCE582D004D00381
:0E043700D002707590E679E08A828B83F0C067
:0E04450002C003C0041202E9E582D004D00315
:05045300D0027059FD0C
:0C045800C3ED950C502A90E679E08A82F2
:0E0464008B83F0A3AA82AB83C002C003C00446
:0E047200C0051202E9E582D005D004D003D007
:0804800002702D0D8D0480D0E7
:0E04880090E678E04420F090E679E0C004129F
:0E04960002E9E582D004701290E678E044405E
:0C04A400F090E679E0C00412032CD004B4
:0304B0008C822219
:0A04B300AA82AB837C007508647513
:0C04BD0009007582A2C002C003C0041236
:0D04C9000346E582D004D003D00260030298
:0204D6000569B6
:0C04D80090E679E50EF0C002C003C004FD
:0E04E4001202BCE582D004D003D002600302F5
:0204F20005699A
:0C04F40090E679E50DF0C002C003C004E2
:0E0500001202BCE582D004D003D002705CFD74
:0C050E00C3ED950F50478A828B83E0FEFE
:0E051A00A3AA82AB8390E679EEF0903A04E05B
:0D052800FFEE2FF0903A02E0FEA3E0FF90FE
:0E0535003A0274012EF0E43FA3F0C002C003AE
:0E054300C004C0051202BCE582D005D004D071
:0A05510003D00270130D8D0480B377
:0E055B0090E678E04440F0C00412032CD00477
:030569008C82225F
:0A056C00903A2AE0FA903A00E0F518
:060576000AA3E0F50B8A68
:0C057C000C90E740C0021203AAAB82D032
:0E058800027C00903A00E0FDA3E0FE903A00F5
:0A059600EA2DF0EC3EA3F08B822268
:0B05A000AA82903A00E0F50DA3E0F500
:0905AB000E8A0F90E740C0021215
:0E05B40004B3D0027B00903A00E0FCA3E0FD0F
:0B05C200903A00EA2CF0EB3DA3F02281
:0A05CD00AA82E5B154DFFB4420FCD4
:0805D7008CB1008BB1DAF922AE
:0E05DF00E5B154DFFA4420FBE5B154108BB1B6
:0E05ED00940133FC8AB1E5B154108BB1940136
:0E05FB00EC33FC8AB1E5B154108BB19401ECE5
:0E06090033FC8AB1E5B154108BB19401EC338F
:0E061700FC8AB1E5B154108BB19401EC33FCB8
:0E0625008AB1E5B154108BB19401EC33FC8A1C
:0E063300B1E5B154108BB19401EC33FC8AB1E7
:0E064100E5B154108BB19401EC3364FF8AB123
:07064F00F5822275820022F2
:0A065600AA10E5B154DFFD4420FBBB
:0E066000E5B154108BB1940133FC8DB1E5B1BE
:0E066E0054108BB19401EC33FC8DB1E5B15406
:0E067C00108BB19401EC33FC8DB1E5B154103C
:0E068A008BB19401EC33FC8DB1E5B154108BB3
:0E069800B19401EC33FC8DB1E5B154108BB17F
:0E06A6009401EC33FC8DB1E5B154108BB1948E
:0E06B40001EC33FC8DB1E5B154108BB1940113
:0B06C200EC3364FF8DB1F0A3DA94224A
:0E06CD00E5B1549FFBE582338BB1500343B17E
:0106DB0040DE
:0B06DC0043B120338BB1500343B14009
:0B06E70043B120338BB1500343B140FE
:0B06F20043B120338BB1500343B140F3
:0B06FD0043B120338BB1500343B140E8
:0B07080043B120338BB1500343B140DC
:0B07130043B120338BB1500343B140D1
:0B071E0043B120338BB1500343B140C6
:0607290043B1208BB12258
:07072F00AA10E5B1549FFB85
:09073600E0338BB1500343B140E4
:0B073F0043B120338BB1500343B140A5
:0B074A0043B120338BB1500343B1409A
:0B07550043B120338BB1500343B1408F
:0B07600043B120338BB1500343B14084
:0B076B0043B120338BB1500343B14079
:0B07760043B120338BB1500343B1406E
:0B07810043B120338BB1500343B14063
:09078C0043B120A3DAA48BB122D1
:0D079500903A0C7403F043B1407A007B00F1
:0E07A200C002C0031205DFAC82D003D002BC3F
:0407B000FF028020A4
:0E07B4008A048B057E007F00C3EC94FFED9459
:0E07C200FFEE9400EF6480948050070ABA00A6
:0407D000D10B80CEFB
:0E07D400E5B130E409903A0CE4F075820022A1
:0407E20075820122F9
:0D07E60043B1807582081205CD53B17F022A
:0207F300079568
:0E07F50043B1407582081205CD43B180758274
:04080300080205CD15
:0508070043B1407A55E9
:0A080C001205DFE58230E702DAF69C
:0B081600903A0EF0F58222758200225D
:0708210043B1407A007B00A7
:0E082800C002C0031205DFAC82D003D002BCB8
:04083600FE02800D31
:05083A000ABA00010BE9
:08083F00EA4B70E5758201220D
:040847007582002294
:0E084B00AA82AB83ACF0FDE5B120E704758214
:02085900042277
:0E085B00C002C003C004C0051207E6E582D04B
:0E08690005D004D003D00260071207F5758297
:0208770003225A
:0E087900758208C002C003C004C0051205CD80
:0E088700D005D004D003D002903A0D7412F0C8
:0E089500903A107452F0903A0FE0FE7028EA8C
:0E08A3002AFAEB33FBEC33FCED33FD8C0690B0
:0E08B1003A11EEF08B06903A12EEF08A0690A5
:0B08BF003A13EEF0903A14E4F0801AB7
:0E08CA008D06903A11EEF08C06903A12EEF088
:0C08D8008B06903A13EEF0903A14EAF010
:0A08E400903A157401F075100690AB
:0608EE003A1012072F1260
:0A08F4000807903A0EE0FA600712C0
:0608FE0007F575820122DE
:0E090400120821E58260071207F575820222B3
:0409120075820022C8
:0E0916007582101205CD120821E582600712CD
:0609240007F575820222B6
:04092A0075820022B0
:04092E00AA82AB836B
:0E093200C374209AE49B5018758200C002C066
:0E094000031205CDD003D002EA24E0FAEB3416
:04094E00FFFB80E04B
:0E095200EA4B600AEAC40354F8F5821205CDA0
:0D0960007582101205CD7582081205CD902C
:0C096D003A0D740CF0903A10744CF090AD
:090979003A11E4F0903A12F090FA
:080982003A13F0903A14F090D2
:09098A003A157401F07510069095
:060993003A1012072F12BA
:0909990008077582081205CD0261
:0209A20007F557
:0E09A400AA82AB83ACF0FDE5B120E7047582BA
:0209B20004221D
:0E09B400C002C003C004C0051207E6E582D0F1
:0E09C20005D004D003D00260071207F575823D
:0209D000032200
:0E09D200758208C002C003C004C0051205CD26
:0E09E000D005D004D003D002903A0D7419F067
:0E09EE00903A107459F0903A0FE0FE7028EA2B
:0E09FC002AFAEB33FBEC33FCED33FD8C069056
:0E0A0A003A11EEF08B06903A12EEF08A06904A
:0B0A18003A13EEF0903A14E4F0801A5C
:0E0A23008D06903A11EEF08C06903A12EEF02D
:0C0A31008B06903A13EEF0903A14EAF0B5
:0A0A3D00903A157401F07510069050
:060A47003A1012072F1205
:0A0A4D000807903A0EE0FA60071265
:060A570007F57582012283
:0D0A5D0043B1407582081205CD7582FC1270
:060A6A0006CD758200229A
:070A7000AA82AB8353B1BF62
:0E0A7700C374209AE49B5018758200C002C020
:0E0A8500031205CDD003D002EA24E0FAEB34D0
:040A9300FFFB80E005
:0E0A9700EA4B600AEAC40354F8F5821205CD5A
:0E0AA50043B1407582101205CD1205DFE582C7
:080AB300540FFABA0502804855
:0D0ABB00903A0C7406F07582081205CD907B
:0C0AC8003A0D740CF0903A10744CF09051
:090AD4003A11E4F0903A12F0909E
:080ADD003A13F0903A14F09076
:090AE5003A157401F07510069039
:060AEE003A1012072F125E
:090AF40008077582081205CD12F5
:060AFD0007F575820622D8
:040B030075820022D5
:0D0B07001207957582FD1206CD7582081249
:050B140005CD0207F50C
:090B19001207957582FC0206CD5D
:0E0B2200903A057401F0903A06E4F0A37402D4
:0E0B3000F0903A0FE4F043B6E053B6EF43B155
:0E0B3E004043B1807582001205CD1207E6908B
:0C0B4C003A0C7403F07582081205CD907D
:0B0B58003A0DE4F0903A107440F09069
:090B63003A11E4F0903A12F0900E
:080B6C003A13F0903A14F090E6
:090B74003A157495F07510069015
:060B7D003A1012072F12CE
:0E0B83000807903A0EE0FA7B0054FE7003EB78
:020B9100604BB7
:0D0B93009000321202657582081205CD90A7
:0B0BA0003A0DE4F0903A107440F09021
:090BAB003A11E4F0903A12F090C6
:080BB4003A13F0903A14F0909E
:090BBC003A157495F075100690CD
:060BC5003A1012072F1286
:0E0BCB000807903A0EE0FA7B0054FE7003EB30
:020BD9006003B7
:030BDB00020FC83E
:0D0BDE007582081205CD903A0D7408F09054
:0B0BEB003A107448F0903A11E4F090CA
:0A0BF6003A12F0903A137401F090E7
:0C0C00003A1474AAF0903A157487F0754D
:060C0C001006903A1012E0
:060C1200072F12080790F5
:0D0C18003A0EE0FA20E235EA54FE600302D5
:020C25000FC8F6
:070C2700751004903A101251
:0E0C2E000656903A12E0FA53020FBA010A90ED
:090C3C003A13E0FABAAA02800999
:090C4500903A0C7407F0020FCE86
:060C4E00903A0F7401F062
:090C5400903A0FE0FA60027440CE
:0E0C5D00FA758208C0021205CD903A0D743768
:0D0C6B00F0903A107477F0903A11E4F09098
:080C78003A12F0903A13F090DB
:0A0C80003A14F0903A157401F07573
:060C8A001006903A101262
:080C9000072F120807D00290A3
:0E0C98003A0EE0FB54FE703E758208C0021258
:0B0CA60005CDD002903A0D7429F090AB
:0B0CB1003A107469F0903A11EAF090DC
:090CBC003A12E4F0903A13F090B2
:0A0CC5003A14F0903A157401F0752E
:080CCF001006903A10C0021259
:070CD700072F120807D002ED
:0A0CDE00903A0EE0FB5303FE7C0089
:0B0CE800903A0EE0FDBD0003020DE895
:030CF300BCFF0043
:050CF6004003020DE8BF
:0E0CFB00900004C002C003C004120265D004C1
:0E0D0900D003D002EB6051758208C002C00317
:0E0D1700C0041205CDD004D003D002903A0DD6
:0E0D25007401F0903A107441F0903A11EAF027
:0A0D3300903A12E4F0903A13F090A9
:0A0D3D003A14F0903A1574FFF075B7
:0C0D47001006903A10C002C003C0041255
:0C0D5300072F120807D004D003D00202C2
:020D5F000DE4A1
:0D0D6100758208C002C003C0041205CD90C9
:0C0D6E003A0D7437F0903A107477F09052
:090D7A003A11E4F0903A12F090F5
:080D83003A13F0903A14F090CD
:090D8B003A157401F07510069090
:060D94003A1012072F12B5
:0E0D9A0008077582081205CDD004D003D002E0
:0D0DA800903A0D7429F0903A107469F090A3
:0A0DB5003A11EAF0903A12E4F090CF
:080DBF003A13F0903A14F09091
:090DC7003A157401F07510069054
:0C0DD0003A10C002C003C00412072F122A
:080DDC000807D004D003D00287
:040DE4000C020CE809
:0A0DE800903A0EE0FA6003020FC813
:0E0DF200903A0FE0FA60557582081205CD9018
:0C0E00003A0D743AF0903A10747AF090B9
:090E0C003A11E4F0903A12F09062
:080E15003A13F0903A14F0903A
:090E1D003A157401F075100690FD
:060E26003A1012072F1222
:0A0E2C000807903A0EE0FA60030296
:020E36000FC8E3
:070E3800751004903A10123E
:0B0E3F000656903A10E0FA20E60590FD
:040E4A003A0FE4F087
:0D0E4E007582081205CD903A0D7409F090E0
:0B0E5B003A107449F0903A11E4F09056
:080E66003A12F0903A13F090EB
:0A0E6E003A14F0903A157401F07583
:060E78001006903A101272
:060E7E00072F1208071205
:0D0E84000821E5826009903A0C7402F0022A
:020E91000FCE82
:070E9300751010903A1012D7
:090E9A0006567582101205CD9078
:0E0EA3003A10E0FA5302C0903A10EAF0EA5416
:060EB100C06003020F39CE
:0E0EB700903A15E0FA53020F903A1AE02354D5
:0E0EC50001FB903A19E0540325E04B2A24F972
:0E0ED300FA903A18E023235403FB903A17E0FC
:0E0EE100FCE4CC25E0CC33CC25E0CC33FD7E08
:0E0EEF0000EB4204EE4205903A16E05403FB7D
:0E0EFD002B25E0FEE4FB4204EE42050CBC0097
:020F0B00010DD6
:0C0F0D00ED3395E0FBFE8AF005F0800C4F
:0C0F1900EC2CFCED33FDEB33FBEE33FE63
:0E0F2500D5F0F1903A08ECF0A3EDF0A3EBF05C
:060F3300A3EEF0020FC066
:0E0F3900903A10E0FA5302C0BA4074903A1792
:0E0F4700E0FA53023F7B008B058A047B007AA0
:0E0F550000903A18E0FF7E003395E0F8F9EEC8
:0E0F63004202EF4203E84204E94205903A19C7
:0E0F7100E0FEE4FFF8F9EE4202EF4203E84230
:0E0F7F0004E942050ABA00090BBB00050CBCD0
:030F8D0000010D53
:0E0F9000EB2BCC33CC25E0CC33FDEA2A25E058
:0E0F9E00FBEA232354034CFC7A00903A08EA45
:0C0FAC00F0A3EBF0A3ECF0A3EDF0800844
:080FB800903A0C7407F0800E62
:080FC000903A0CE4F00207F581
:060FC800903A0C7401F0E8
:080FCE00903A05E4F00207F57A
:0D0FD600903A20E0FA6050903A20E4F012CA
:0E0FE3000821E5826044903A0C7402F0758299
:0B0FF100081205CD903A0D740CF09032
:0B0FFC003A10744CF0903A11E4F090B1
:081007003A12F0903A13F09048
:0A100F003A14F0903A157401F075E0
:061019001006903A1012CF
:09101F00072F1208077582081260
:0510280005CD0207F5F3
:0A102D00903A2AE0F51090E7401217
:0E1037000656903A28E0FAA3E0FB4A70447592
:0C10450082101205CD7582081205CD90B6
:0C1051003A0D740CF0903A10744CF090C2
:09105D003A11E4F0903A12F0900F
:081066003A13F0903A14F090E7
:09106E003A157401F075100690AA
:061077003A1012072F12CF
:09107D0008077582081205CD0276
:0210860007F56C
:07108800EA7004EB30E00107
:01108F00223E
:0D1090007582101205CD903A207401F022F7
:0D109D00903A20E0FA600E903A20E4F01244
:0810AA0007957582FC1206CDCA
:0A10B200903A2AE0F51090E7401292
:0E10BC00072F903A28E0FAA3E0FBEA7004EB5D
:0310CA0030E00112
:0110CD002200
:0E10CE0043B1407582101205CD1205DFE58298
:0810DC00540FFABA050280442A
:0D10E400903A0C7406F07582081205CD904C
:0C10F1003A0D740CF0903A10744CF09022
:0910FD003A11E4F0903A12F0906F
:081106003A13F0903A14F09046
:09110E003A157401F07510069009
:061117003A1012072F122E
:09111D0008077582081205CD12C5
:0211260007F5CB
:0E112800903A28E0FAA3E0FB4A6007903A20D4
:041136007401F0222E
:0D113A001207957582FD1206CD7582081210
:0511470005CD0207F5D3
:0E114C0090E6017480F00000000090E670E470
:0E115A00F090E671F075B202C28190000A12A8
:0E116800026575B3FF75B40C75A00875B5016E
:0A117600C2B0D281D2B07A007B0033
:0E11800020A0208A048B057E007F00C3EC9423
:0E118E00FFED94FFEE9400EF64809480500714
:07119C000ABA00E00B80DD40
:0711A30030A0047AC88002AD
:0211AA007A6465
:0E11AC00903A26EAF0903A22E4F0A3F0A3F085
:0B11BA00A3F0903A21E4F075A00022A1
:0311C50002114CC8
:0111C8002204
:0711C90030A0047A1480023B
:0211D0007A0A99
:0E11D200903A26E0FBEA2BF0C2B0759000D2F6
:0E11E000B0C2B0D2B0C2B0D2B0C2B0D2B0C2B3
:0E11EE00B0D2B0C2B0D2B0C2B0D2B0C2B0D295
:0E11FC00B0C2B0D2B0C2B0D2B0C2B0D2B075E4
:0E120A00B30075B40075B50075B20030A004D5
:041218007A028002D4
:02121C007A0155
:0E121E00903A26E0FBEA2BF0308105D28112D7
:02122C0011C8E7
:06122E00D28143B202224E
:0E123400903A2AE0FA903A22E0FBA3E0FCA3F5
:0E124200E0FDA3E0FE7F0078007900903A22E4
:0E125000EA2BF0EF3CA3F0E83DA3F0E93EA34B
:0E125E00F090E68BE06022FA759B40759AE7EF
:0B126C0075AF07903A21E0F990E67B97
:0E127700C2B0E0F59029F9D2B0DAF5903A2134
:02128500E9F08E
:0812870090E68BE0FABA40008A
:05128F0050030211C92B
:011294002237
:0E129500AD82AE83903A22E0F9A3E0FAA3E026
:0E12A300FBA3E0FC903A22ED29F0EE3AA3F016
:0E12B10074003BA3F074003CA3F0903A21E0DF
:0112BF00FF2F
:0C12C000BD0009BE0006903A21EFF022AC
:0E12CC00C2B01205DFE582F5902FFFD2B01DF3
:0712DA00BDFFE31E80E022CE
:0E12E100E582FA700F53B2FD308109D28143CD
:0612EF00B202758201222B
:0E12F50012114C900000E4F5F012084BE58257
:0613030060047582022265
:041309007A007B00EB
:0E130D00C3EA9408EB94005025C002C00312FE
:0C131B0005DFAC82D003D002EA247BF591
:0C13270082EB3422F583E493FDECB50565
:08133300070ABA00D50B80D2B5
:08133B00BA0805BB000280188E
:0E134300903A06E0FCA3E0FDECC39AF582EDC3
:0A1351009BF58312092E758203221A
:0E135B001205DFAA827B00C002C0031205DF6C
:0E136900AC82D003D0028C05E44202ED4203B8
:0E137700C002C0031205DFAC827D00C004C0BE
:0E138500051205DFAE82D005D0048E07E442CB
:0E13930004EF4205903A06E0FEA3E0FFEE24D0
:0D13A100F4F582EF34FFF583C004C005129F
:0E13AE00092ED005D004D003D002EA4B700403
:0413BC007582032211
:0E13C000900001E4F5F0C002C003C004C005B7
:0E13CE0012084BE582D005D004D003D0026097
:0513DC000475820222ED
:0413E1007E017F000A
:0E13E500C3EE9AEF9B5039903A06E0F8A3E071
:0E13F300F988828983C002C003C004C005C00F
:0E14010006C007121295120916E582D007D018
:0E140F0006D005D004D003D00260047582021E
:01141D0022AC
:07141E000EBE00C30F80C0E9
:0E1425008C828D83C004C005121295D005D0B4
:0E14330004903A06E0FAA3E0FBEAC39CF582BF
:0E144100EB9DF58312092E1211C953B2FD3036
:0B144F008109D28143B20275820022A5
:09145A00D28143B2027582042222
:0B146300900000E4F5F012084B7A0046
:03146E00BA0800B9
:0D1471005016C0021205DFAB82D002EA90D7
:0B147E00227B93FCEBB504030A80E521
:05148900BA0802801A00
:0E148E007B00903A06E0FCA3E0FDECC39AF56B
:0C149C0082ED9BF58312092E90000022C7
:0D14A8001205DFAA82C0021205DFAB8290A0
:0E14B5003A06E0FCA3E0FDEC24F6F582ED34EF
:0E14C300FFF583C00312092ED003D0028B0464
:0E14D100E4FBFDEA4203ED42048B828C83A310
:0114DF0022EA
:0E14E000903A05E0FA7007903A277402F02265
:0E14EE007582001212E1AA82903A27EAF0BA43
:0514FC0001030211C80C
:0E150100BA040C7582001212E1E582903A27BE
:01150F00F0EB
:0115100022B8
:01006C00286B
:01006D000191
:04006E005A54455843
:040072000A0B000075
:010076000089
:010077000187
:060078000700000000007B
:0C007E0000000000000000000000000076
:0A008A00303030303030303030308C
:0115110022B7
:0E15120090E683E4F07420F07410F07430F072
:0E15200090E6837401F07421F07411F07431C0
:02152E00F022A9
:0A153000AA82E51124E050037511B2
:01153A001F91
:0D153B0090E6BFE0701090E6BEE0FBC395A7
:0915480011500690E6BEE0F51119
:0C15510075AF078A9B85109A759E417546
:0A155D009DE790E67C7403F07A002D
:0C156700C3EA9511501190E67BE0FB9068
:0B157300E67CF090E67CE4F00A80E9E2
:0B157E00E5110425E0FA90E740F09032
:0E158900E7417403F090E68AE4F090E68BEA06
:02159700F02240
:0E159900903A28E0FAA3E0FBC374409AE49B6A
:0815A70050067C407D00800429
:0415AF008A048B051A
:0E15B300903A2AECF07D00903A28EAC39CF0B2
:0515C100EB9DA3F022E8
:0B15C600903A2BE0FABA31030216DF66
:0415D100BA32012207
:0515D500BA3902800894
:0515DA00BA4202802767
:0315DF000216E20F
:0E15E200903A04E4F0903A02F0A3F090E6BBD9
:0E15F000E0FB7A0090E6BAE0FC7D00903A0045
:0815FE00EC4AF0ED4BA3F022D2
:0E160600E5B120E715903A0C7404F090E6A0D0
:0C161400E04401F0903A28E4F0A3F0223A
:0E1620001207E6E58260121207F590E6A0E0E0
:0B162E004401F0903A28E4F0A3F02201
:0D1639007582081205CD903A0D7419F090DD
:0D1646003A107459F0903A0FE0FA60030278
:02165300167807
:0E165500C390E6BAE0903A1333F090E6BBE0A3
:0E166300903A1233F090E6BCE0903A1133F06A
:07167100903A14E4F080211F
:0D16780090E6BDE0903A11F090E6BCE090E5
:0E1685003A12F090E6BBE0903A13F090E6BA0D
:06169300E0FA903A14F0A9
:0A169900903A157401F075100690E8
:0616A3003A1012072F129D
:0A16A9000807903A0EE0FA6018906E
:0E16B3003A0C7401F01207F590E6A0E0440135
:0916C100F0903A28E4F0A3F022B5
:0D16CA0043B1407582081205CD7582FC12F7
:0816D70006CD903A20E4F02258
:0316DF000211C530
:0816E20090E6A0E04401F022B3
:0C16EA00C020C0E0C0F0C082C083C0027D
:0E16F600C003C004C005C006C007C000C0018C
:0E170400C0D075D00090E6B9E0FA903A2BF014
:0E17120090E6B57401F090E6B9E0FA24F350C9
:0417200003021AA006
:07172400EA2A2A90172B733B
:07172B00021752021806022A
:061732001AA00218830258
:061738001AA0021AA00233
:06173E00191B021A36021D
:061744001A38021A4902E6
:06174A001A4E021A5F02B4
:021750001A6419
:0A17520090E6B8E0FABA8002800DBC
:05175C00BA8102801EAD
:05176100BA8202802F96
:03176600021AA0C4
:0E17690090E740E4F090E741F090E68AF090BF
:08177700E68B7402F0021AA0D7
:0E177F0090E740E4F090E741F090E68AF090A9
:08178D00E68B7402F0021AA0C1
:0C17950090E6BCE0FA600FBA0102801977
:0517A100BA8002800582
:0517A600BA812F801E36
:0E17AB0090E6A0E0FA53020190E740EAF080D9
:0117B9003AF5
:0E17BA0090E6A1E0FA53020190E740EAF080C9
:0117C8002BF5
:0E17C90090E6A2E0FA53020190E740EAF080B9
:0117D7001CF5
:0E17D80090E6BCE0C31314540324A3F582E48E
:0E17E60034E6F583E0FA53020190E740EAF0A2
:0E17F40090E741E4F090E68AF090E68B7402F4
:04180200F0021AA036
:0A18060090E6B8E0FABA020280038F
:03181000021AA019
:0918130090E6BAE06003021AA09D
:0C181C0090E6BCE0FA600FBA01028015F3
:05182800BA80028005FA
:05182D00BA81238016C2
:0B18320090E6A0E0FA54FEF0021AA0BD
:0B183D0090E6A1E0FA54FEF0021AA0B1
:0B18480090E6A2E0FA54FEF0021AA0A5
:0E18530090E6BCE0C31314540324A3FAE4345B
:0E186100E6FB90E6BCE0C31314540324A3F589
:0E186F0082E434E6F583E0FC5304FE8A828BAB
:06187D0083ECF0021AA04A
:0A18830090E6B8E0FABA0202800312
:03188D00021AA09C
:0918900090E6BAE06003021AA020
:0C18990090E6BCE0FA600FBA0102801477
:0518A500BA800280057D
:0518AA00BA812080144A
:0A18AF0090E6A0E0FA4401F0804149
:0A18B90090E6A1E0FA4401F0803748
:0A18C30090E6A2E0FA4401F0802D47
:0E18CD0090E6BCE0C31314540324A3FAE434E1
:0E18DB00E6FB90E6BCE0C31314540324A3F50F
:0E18E90082E434E6F583E0FC4304FE8A828B41
:0318F70083ECF08F
:0E18FA0090E6BCE05480C423541FFA90E6BC74
:0E190800E0FB740F5B420290E683EAF074206D
:051916004AF0021AA0D6
:0A191B0090E6BBE0FABA0102801961
:05192500BA0202802659
:05192A00BA0302804D2C
:06192F00BA06030219EFE5
:06193500BA0703021A01CB
:03193B00021A2C61
:0A193E007AAC7B2290E6B3EBF09048
:08194800E6B474ACF0021AA031
:0B19500090E680E0FA30E7127AC87BD6
:0A195B002290E6B3EBF090E6B474BE
:05196500C8F0021AA009
:0A196A007AEA7B2290E6B3EBF090DE
:08197400E6B474EAF0021AA0C7
:0A197C0090E6BAE0FABA0102800F0B
:05198600BA0202801C02
:05198B00BA03028029EF
:05199000BA044A803694
:061995007582837A837B5A
:04199B00228B107516
:06199F00110512153002D3
:0219A5001AA086
:0619A7007582887A887B3E
:0419AD00228B107504
:0619B100111C12153002AA
:0219B7001AA074
:0A19B90075828A7A8A7B008B107514
:0619C300110A12153002AA
:0219C9001AA062
:0619CB007582A47AA47BE2
:0419D100228B1075E0
:0619D5001108121530029A
:0219DB001AA050
:0A19DD007A0C7B2390E6B3EBF09048
:0819E700E6B4740CF0021AA032
:0A19EF007ABE7B2290E6B3EBF09085
:0819F900E6B474BEF0021AA06E
:0B1A010090E680E0FA30E7127AEA7B02
:0A1A0C002290E6B3EBF090E6B4740C
:051A1600EAF0021AA035
:0A1A1B007AC87B2290E6B3EBF0904E
:071A2500E6B474C8F0807400
:0A1A2C0090E6A0E0FA4401F0806AA1
:021A36008068C6
:0E1A380090E740E4F090E68AF090E68B7401AF
:031A4600F08057D6
:051A490012151280528D
:0E1A4E0090E740E4F090E68AF090E68B740199
:031A5C00F08041D6
:051A5F00121512803C8D
:0E1A640090E6B8E0FABA823490E6BCE0C31314
:0B1A720014540325E0242DF582E43419
:0C1A7D003AF583E4F0A3F090E685E090D9
:0D1A8900E740F090E684E0FA90E741F0902D
:0A1A9600E68AE4F090E68B7402F09B
:0B1AA00090E6B8E0FABA4003021D7D9A
:051AAB00BAC002800337
:031AB000021DA76D
:0E1AB30090E6BFE0FB7A0090E6BEE0FC7D000E
:0E1AC100903A28EC4AF0ED4BA3F012159990E4
:091ACF00E6B9E0FABA2202802512
:061AD800BA3003021D2CD0
:051ADE00BA3802803758
:051AE300BA3A02805B2D
:061AE800BA4003021B825C
:061AEE00BA4103021BA82F
:061AF400BA4303021CA826
:031AFA00021D7357
:0E1AFD0090E6B5E4F090E68AF090E68B74284F
:0D1B0B00F090E6B3E4F090E6B4746CF002E4
:021B18001DA707
:0E1B1A0090E6BBE0FB7A0090E6BAE0FC7D00AE
:0E1B2800903A00EC4AF0ED4BA3F090E68AE410
:0D1B3600F012056CE58290E68BF0021DA711
:0E1B4300903A02E0FAA3E0FB8A0490E740EC3F
:0D1B5100F08B0290E741EAF0903A04E0903A
:0A1B5E00E742F075080075090175F3
:0D1B680082A2120346AA8290E743EAF090A1
:0D1B7500E68AE4F090E68B7404F0021DA7F0
:061B8200759B057A057B4E
:0C1B88003A8B9A759E40759DE7C0027A6A
:0E1B9400081202ADD00290E68AE4F090E68BD3
:061BA2007408F0021DA70B
:0E1BA800E5B120E718903A0C7404F090E6A026
:0D1BB600E0FA4401F0903A28E4F0A3F002B8
:021BC3001DA75C
:0E1BC5001207E6E58260151207F590E6A0E033
:0E1BD300FA4401F0903A28E4F0A3F0021DA7B6
:0D1BE1007582081205CD903A0D7412F09037
:0D1BEE003A107452F0903A0FE0FA600302D2
:021BFB001C20AC
:0E1BFD00C390E6BAE0903A1333F090E6BBE0F6
:0E1C0B00903A1233F090E6BCE0903A1133F0BC
:071C1900903A14E4F0802171
:0D1C200090E6BDE0903A11F090E6BCE09037
:0E1C2D003A12F090E6BBE0903A13F090E6BA5F
:061C3B00E0FA903A14F0FB
:0A1C4100903A157401F0751006903A
:061C4B003A1012072F12EF
:0A1C51000807903A0EE0FA601B90BD
:0E1C5B003A0C7401F01207F590E6A0E0FA448E
:0C1C690001F0903A28E4F0A3F0021DA75F
:0A1C7500903A207401F0120FD6908F
:0E1C7F003A0CE0FA601290E6A0E0FA4401F0A0
:0A1C8D00903A28E4F0A3F0021DA72E
:0E1C970090E68AE4F0903A2AE0FA90E68BF0AC
:031CA500021DA776
:061CA800759B0C7A0C7B19
:0C1CAE003A8B9A759E427A427BE78B9D30
:0E1CBA00C0027A141202ADD002741055B1FAB5
:051CC800E4BA00010474
:0E1CCD0090E756F01207E67582081205CD90DA
:0C1CDB003A0D740DF0903A10744DF0902A
:091CE7003A11E4F0903A12F09079
:081CF0003A13F0903A14F09051
:091CF8003A157401F07510069014
:061D01003A1012072F1238
:0B1D07000807903A0EE090E740F01251
:0D1D120005DFAA8290E741EAF01207F59084
:0D1D1F00E68AE4F090E68B7417F0021DA731
:061D2C00759B217A217B6A
:0C1D32003A8B9A759E417A417BE78B9DAD
:0E1D3E00C0027A071202ADD00253B2FD30810E
:0D1D4C000C90E740E4F0D28143B202800920
:091D590090E7407401F012114CF6
:0E1D620090E748E4F090E68AF090E68B740972
:031D7000F08034CC
:0A1D730090E6A0E0FA4401F0802A97
:0C1D7D0090E6BFE0700690E6BEE0601645
:0E1D8900903A2C7401F090E68BE4F05391EF49
:081D970090E65D7401F0801973
:081D9F001215C690E68BE4F07A
:0E1DA7005391EF90E65D7401F090E6A0E0FA33
:031DB5004480F077
:0E1DB800D0D0D001D000D007D006D005D00486
:0D1DC600D003D002D083D082D0F0D0E0D086
:021DD3002032BC
:0E1DD500C0E0C082C0835391EF90E65D7402BF
:081DE300F0D083D082D0E03281
:0E1DEB00C0E0C082C0835391EF90E65D7404A7
:081DF900F0D083D082D0E0326B
:0E1E0100C0E0C082C0835391EF90E65D74088C
:081E0F00F0D083D082D0E03254
:0E1E1700C0E0C082C0835391EF90E65D74106E
:081E2500F0D083D082D0E0323E
:0E1E2D00C0E0C082C0835391EF90E65D742048
:081E3B00F0D083D082D0E03228
:0E1E4300C0E0C082C0835391EF90E65D744012
:081E5100F0D083D082D0E03212
:0C1E5900C020C0E0C0F0C082C083C00206
:0E1E6500C003C004C005C006C007C000C00115
:0E1E7300C0D075D000C2E8121599903A2BE04D
:071E8100FABA3003021EF162
:051E8800BA38028014CD
:051E8D00BA3A02805F7B
:051E9200BA4002805A75
:051E9700BA41028015B4
:051E9C00BA434980502B
:0E1EA10090E68AE4F012056CE58290E68BF084
:021EAF00804071
:0D1EB100903A2AE0FA6020903A0CE4F0121A
:0E1EBE000FD6903A0CE0FA601190E6A0E0FA20
:0C1ECC004401F0903A28E4F0A3F08019E3
:0E1ED80090E68AE4F0903A2AE0FA90E68BF069
:021EE600800971
:091EE80090E68AE4F090E68BF02C
:0E1EF1005391EF90E65F7401F0D2E8D0D0D0AC
:0E1EFF0001D000D007D006D005D004D003D00B
:0C1F0D0002D083D082D0F0D0E0D020328F
:0C1F1900C020C0E0C0F0C082C083C00245
:0E1F2500C003C004C005C006C007C000C00154
:0E1F3300C0D075D000C2E8903A2CE0FA6020D1
:0D1F4100903A2CE4F090E6BFE0FB7A0090AF
:0E1F4E00E6BEE0FC7D00903A28EC4AF0ED4B38
:051F5C00A3F01215C600
:0D1F6100121599903A2BE0FABA3102804433
:051F6E00BA3202803CC4
:051F7300BA39028005EF
:051F7800BA4237800BA6
:0B1F7D0090E68BE0F5821205A0802AA0
:0D1F8800903A2AE0FA6023903A0CE4F0123F
:0E1F9500109D903A0CE0FA601490E6A0E0FA7D
:0C1FA3004401F0903A28E4F0A3F0800321
:031FAF00121234D7
:0E1FB20090E68BE4F05391EF90E65F7402F03E
:0E1FC000903A28E0FAA3E0FB4A700890E6A0F1
:051FCE00E0FA4480F080
:0E1FD300D2E8D0D0D001D000D007D006D00583
:0E1FE100D004D003D002D083D082D0F0D0E064
:031FEF00D02032CD
:0E1FF200C0E0C082C0835391EF90E65F74049C
:08200000F0D083D082D0E03261
:0E200800C0E0C082C0835391EF90E65F740881
:08201600F0D083D082D0E0324B
:0E201E00C0E0C082C0835391EF90E65F741063
:08202C00F0D083D082D0E03235
:0E203400C0E0C082C0835391EF90E65F74203D
:08204200F0D083D082D0E0321F
:0E204A00C0E0C082C0835391EF90E65F744007
:08205800F0D083D082D0E03209
:0E206000C0E0C082C0835391EF90E65F7480B1
:08206E00F0D083D082D0E032F3
:0E20760090E680E04408F090E6007412F090CE
:0E2084000002120265538EF8D28143B2029020
:0E2092003A2774FFF0C2AFC2E8900043740218
:0E20A000F09000447401F090004574B8F09088
:0D20AE00E668E04408F09001007402F07A4A
:0A20BB00EA7B168B04900101ECF0A3
:0C20C500900102EAF09001047402F07A2D
:0A20D100D57B1D8B04900105ECF097
:0C20DB00900106EAF09001087402F07A0F
:0A20E700EB7B1D8B04900109ECF067
:0C20F10090010AEAF090010C7402F07AF1
:0A20FD00017B1E8B0490010DECF036
:0C21070090010EEAF09001107402F07AD2
:0A211300177B1E8B04900111ECF005
:0C211D00900112EAF09001147402F07AB4
:0A2129002D7B1E8B04900115ECF0D5
:0C213300900116EAF09001187402F07A96
:0A213F00437B1E8B04900119ECF0A5
:0C21490090011AEAF09001207402F07A74
:0A215500597B1E8B04900121ECF071
:0C215F00900122EAF09001247402F07A52
:0A216B00197B1F8B04900125ECF096
:0C217500900126EAF09001287402F07A34
:0A218100F27B1F8B04900129ECF0A3
:0C218B0090012AEAF090012C7402F07A16
:0A219700087B208B0490012DECF072
:0C21A10090012EEAF09001307402F07AF8
:0A21AD001E7B208B04900131ECF042
:0C21B700900132EAF09001347402F07ADA
:0A21C300347B208B04900135ECF012
:0C21CD00900136EAF09001387402F07ABC
:0A21D9004A7B208B04900139ECF0E2
:0C21E30090013AEAF090013C7402F07A9E
:0A21EF00607B208B0490013DECF0B2
:0E21F90090013EEAF05391EF90E65D747FF0A6
:0E22070090E65CE0FA447FF090E65F74FFF032
:0E22150090E65E74FFF0D2E8D2AF90E611744E
:0E222300A0F00000000090E61074A0F0000093
:0E223100000090E612E4F00000000090E613BA
:0E223F00E4F00000000090E614E4F00000005F
:0E224D000090E615E4F000000000120B2212D3
:0D225B0014E090E680E04482F090000A124A
:0A226800026590E680E054F7F022D2
:03227200122076C1
:0222750080FEE9
:08227B005A5445584253010179
:052283005A544558000B
:0E22880055464D20312E32207374616E646114
:0E2296006C6F6E65206669726D77617265000F
:0822A40064656661756C74004D
:0E22AC0012010002FFFFFF401A220001000095
:0422BA000102030119
:0A22BE000A060002FFFFFF400100C6
:0E22C80009022000010104C0320904000002D6
:0E22D600FFFFFF00070581020002000705015F
:0422E40002000200F2
:0222E8000000F4
:0E22EA0009022000010104C0320904000002B4
:0E22F800FFFFFF0007058102400000070501FF
:042306000240000091
:02230A000000D1
:04230C0004030000C6
:022310000000CB
:0123120000CA
:01231300FFCA
:0123140000C8
:082315000000000000000000C0
:06023700E478FFF6D8FD9B
:08021500790DE94400601B7A39
:05021D000190231078A0
:03022200287592AA
:0A0225003AE493F2A308B8000205C2
:08022F0092D9F4DAF27592FF96
:08023D007800E84400600A7932
:03024500007592AF
:060248003AE4F309D8FCC2
:08024E007828E84400600C79F7
:0B02560001903A00E4F0A3D8FCD9FAB4
:03020800758120DD
:0A020B00122277E58260030202036D
:04227700758200224A
:00000001FF
