:03020000020208EF
:0302610002020393
:0502030012116A80FEEB
:03000000020200F9
:0100030032CA
:01000B0032C2
:0100130032BA
:01001B0032B2
:0100230032AA
:01002B0032A2
:01003300329A
:01003B003292
:01004300328A
:01004B003282
:01005300327A
:01005B003272
:01006300326A
:0101000032CC
:0101040032C8
:0101080032C4
:01010C0032C0
:0101100032BC
:0101140032B8
:0101180032B4
:0101200032AC
:0101240032A8
:0101280032A4
:01012C0032A0
:01013000329C
:010134003298
:010138003294
:01013C003290
:01014000328C
:010148003284
:01014C003280
:01015000327C
:010154003278
:010158003274
:01015C003270
:01016000326C
:01017000325C
:010174003258
:010178003254
:01017C003250
:01018000324C
:010184003248
:010188003244
:01018C003240
:01019000323C
:010194003238
:010198003234
:01019C003230
:0101A000322C
:0101A8003224
:0101AC003220
:0101B000321C
:0101B4003218
:0101B8003214
:010264002277
:08026500AA82AB837C007D003E
:0B026D00C3EC9AED9B50147EB07F04A0
:050278001EBEFF011F86
:0B027D00EE4F70F70CBC00E80D80E5B0
:010288002253
:08028900AA82AB837C007D001A
:0B029100C3EC9AED9B50147E0A7F0026
:05029C001EBEFF011F62
:0B02A100EE4F70F70CBC00E80D80E58C
:0102AC00222F
:0E02AD0075AF0790E67BE090E67CF0DAF32276
:0102BB002220
:0202BC007A00C6
:0302BE00BAFF0084
:0D02C100500B90E678E0FB20E0030A80F08F
:0C02CE0090E678E0FA20E204EA20E10B60
:0B02DA0090E678E04440F075820122BD
:0402E50075820022FC
:0202E9007A0099
:0302EB00BAFF0057
:0D02EE00500B90E678E0FB20E0030A80F062
:0E02FB0090E678E0FA30E20B90E678E04440BE
:05030900F075820122E5
:04030E0075820022D2
:020312007A006F
:03031400BAFF002D
:0E031700500F90E678E0FB20E2047582002291
:030325000A80EC5F
:0403280075820122B7
:02032C007A0055
:03032E00BAFF0013
:0E033100500F90E678E0FB20E6047582002273
:03033F000A80EC45
:04034200758201229D
:09034600AA82C3E49508E433FB2C
:0E034F0090E678E04480F0C002C00312031272
:0E035D00D003D00290E679EAF0C002C003128D
:0C036B0002BCE582D003D0027012E5094C
:0C037700600A90E678E04440F012032C8D
:04038300758200225D
:0E038700EB601090000AC002C003120289D081
:0503950003D00280B559
:0C039A00E509600890E678E0FA4440F0C5
:0403A6007582012239
:0C03AA00AA82AB837C00E50C7003F58296
:0103B6002224
:0A03B7007508647509007582A2C084
:0E03C10002C003C004120346E582D004D0033C
:0703CF00D00260030204B03C
:0C03D60090E679E50BF0C002C003C00403
:0E03E2001202BCE582D004D003D002600302F8
:0203F00004B057
:0C03F20090E679E50AF0C002C003C004E8
:0E03FE001202BCE582D004D003D002600302DC
:02040C0004B03A
:0E040E0090E678E04440F0C002C003C0041243
:0D041C00032C90E678E04480F0120312906B
:0E042900E67974A3F01202BCE582D004D00381
:0E043700D002707590E679E08A828B83F0C067
:0E04450002C003C0041202E9E582D004D00315
:05045300D0027059FD0C
:0C045800C3ED950C502A90E679E08A82F2
:0E0464008B83F0A3AA82AB83C002C003C00446
:0E047200C0051202E9E582D005D004D003D007
:0804800002702D0D8D0480D0E7
:0E04880090E678E04420F090E679E0C004129F
:0E04960002E9E582D004701290E678E044405E
:0C04A400F090E679E0C00412032CD004B4
:0304B0008C822219
:0A04B300AA82AB837C007508647513
:0C04BD0009007582A2C002C003C0041236
:0D04C9000346E582D004D003D00260030298
:0204D6000569B6
:0C04D80090E679E50EF0C002C003C004FD
:0E04E4001202BCE582D004D003D002600302F5
:0204F20005699A
:0C04F40090E679E50DF0C002C003C004E2
:0E0500001202BCE582D004D003D002705CFD74
:0C050E00C3ED950F50478A828B83E0FEFE
:0E051A00A3AA82AB8390E679EEF0903A04E05B
:0D052800FFEE2FF0903A02E0FEA3E0FF90FE
:0E0535003A0274012EF0E43FA3F0C002C003AE
:0E054300C004C0051202BCE582D005D004D071
:0A05510003D00270130D8D0480B377
:0E055B0090E678E04440F0C00412032CD00477
:030569008C82225F
:0A056C00903A0EE0FA903A00E0F534
:060576000AA3E0F50B8A68
:0C057C000C90E740C0021203AAAB82D032
:0E058800027C00903A00E0FDA3E0FE903A00F5
:0A059600EA2DF0EC3EA3F08B822268
:0B05A000AA82903A00E0F50DA3E0F500
:0905AB000E8A0F90E740C0021215
:0E05B40004B3D0027B00903A00E0FCA3E0FD0F
:0B05C200903A00EA2CF0EB3DA3F02281
:0E05CD0090E6017480F00000000090E670E4FB
:0E05DB00F090E671F075B202C28190000A1233
:0E05E900026575B3FF75B40C75A00875B501F9
:0A05F700C2B0D281D2B07A007B00BE
:0E06010020A0208A048B057E007F00C3EC94AD
:0E060F00FFED94FFEE9400EF6480948050079E
:07061D000ABA00E00B80DDCA
:0706240030A0047AC8800237
:02062B007A64EF
:0E062D00903A0AEAF0903A06E4F0A3F0A3F047
:0B063B00A3F0903A05E4F075A0002247
:030646000205CDDD
:0406490075B4FF2263
:07064D0030A0047A148002C2
:020654007A0A20
:0E065600903A0AE0FBEA2BF0C2B0759000D299
:0E066400B0C2B0D2B0C2B0D2B0C2B0D2B0C23A
:0E067200B0D2B0C2B0D2B0C2B0D2B0C2B0D21C
:0E068000B0C2B0D2B0C2B0D2B0C2B0D2B0756B
:0E068E00B30075B40075B50075B20030A0045D
:04069C007A0280025C
:0206A0007A01DD
:0E06A200903A0AE0FBEA2BF0308105D281127B
:0206B0000649F9
:0606B200D28143B20222D6
:0E06B800903A0EE0FA903A06E0FBA3E0FCA3B5
:0E06C600E0FDA3E0FE7F0078007900903A0688
:0E06D400EA2BF0EF3CA3F0E83DA3F0E93EA3D3
:0E06E200F090E68BE06022FA759B40759AE777
:0B06F00075AF07903A05E0F990E67B3B
:0E06FB00C2B0E0F59029F9D2B0DAF5903A05D8
:02070900E9F015
:08070B0090E68BE0FABA400011
:05071300500302064D39
:0107180022BE
:01006C00286B
:01006D000191
:04006E005A54455843
:040072000A0B000075
:010076000089
:010077000187
:060078000300000000007F
:0C007E0000000000000000000000000076
:0A008A00303030303030303030308C
:0107190022BD
:0E071A0090E683E4F07420F07410F07430F078
:0E07280090E6837401F07421F07411F07431C6
:0E073600F090E6837412F07432F07404F074E4
:0307440024F0227C
:0A074700AA82E51124E050037511A9
:010751001F88
:0D07520090E6BFE0701090E6BEE0FBC3959E
:09075F0011500690E6BEE0F51110
:0C07680075AF078A9B85109A759E41753D
:0A0774009DE790E67C7403F07A0024
:0C077E00C3EA9511501190E67BE0FB905F
:0B078A00E67CF090E67CE4F00A80E9D9
:0B079500E5110425E0FA90E740F09029
:0E07A000E7417403F090E68AE4F090E68BEAFD
:0207AE00F02237
:0E07B000903A0CE0FAA3E0FBC374409AE49B7D
:0807BE0050067C407D00800420
:0407C6008A048B0511
:0E07CA00903A0EECF07D00903A0CEAC39CF0E1
:0507D800EB9DA3F022DF
:0A07DD00903A0FE0FABA3102802BC7
:0407E700BA320122FF
:0E07EB00BA3927903A04E4F0903A02F0A3F0F5
:0E07F90090E6BBE0FB7A0090E6BAE0FC7D00E3
:0B080700903A00EC4AF0ED4BA3F02209
:0308120002064695
:0808150090E6A0E04401F0228E
:0C081D00C020C0E0C0F0C082C083C00258
:0E082900C003C004C005C006C007C000C00167
:0E083700C0D075D00090E6B9E0FA903A0FF00C
:0E08450090E6B57401F090E6B9E0FA24F350A5
:0408530003020BD3BE
:07085700EA2A2A90085E73F3
:07085E0002088502093902BE
:060865000BD30209B602EC
:06086B000BD3020BD302C7
:060871000A4E020B6902B1
:060877000B6B020B7C027A
:06087D000B81020B920248
:020883000B97D1
:0A08850090E6B8E0FABA8002800D98
:05088F00BA8102801E89
:05089400BA8202802F72
:03089900020BD37C
:0E089C0090E740E4F090E741F090E68AF0909B
:0808AA00E68B7402F0020BD38F
:0E08B20090E740E4F090E741F090E68AF09085
:0808C000E68B7402F0020BD379
:0C08C80090E6BCE0FA600FBA0102801953
:0508D400BA800280055E
:0508D900BA812F801E12
:0E08DE0090E6A0E0FA53020190E740EAF080B5
:0108EC003AD1
:0E08ED0090E6A1E0FA53020190E740EAF080A5
:0108FB002BD1
:0E08FC0090E6A2E0FA53020190E740EAF08095
:01090A001CD0
:0E090B0090E6BCE0C31314540324A3F582E469
:0E09190034E6F583E0FA53020190E740EAF07D
:0E09270090E741E4F090E68AF090E68B7402CF
:04093500F0020BD3EE
:0A09390090E6B8E0FABA020280036B
:03094300020BD3D1
:0909460090E6BAE06003020BD355
:0C094F0090E6BCE0FA600FBA01028015CF
:05095B00BA80028005D6
:05096000BA812380169E
:0B09650090E6A0E0FA54FEF0020BD375
:0B09700090E6A1E0FA54FEF0020BD369
:0B097B0090E6A2E0FA54FEF0020BD35D
:0E09860090E6BCE0C31314540324A3FAE43437
:0E099400E6FB90E6BCE0C31314540324A3F565
:0E09A20082E434E6F583E0FC5304FE8A828B87
:0609B00083ECF0020BD302
:0A09B60090E6B8E0FABA02028003EE
:0309C000020BD354
:0909C30090E6BAE06003020BD3D8
:0C09CC0090E6BCE0FA600FBA0102801453
:0509D800BA8002800559
:0509DD00BA8120801426
:0A09E20090E6A0E0FA4401F0804125
:0A09EC0090E6A1E0FA4401F0803724
:0A09F60090E6A2E0FA4401F0802D23
:0E0A000090E6BCE0C31314540324A3FAE434BC
:0E0A0E00E6FB90E6BCE0C31314540324A3F5EA
:0E0A1C0082E434E6F583E0FC4304FE8A828B1C
:030A2A0083ECF06A
:0E0A2D0090E6BCE05480C423541FFA90E6BC4F
:0E0A3B00E0FB740F5B420290E683EAF0742049
:050A49004AF0020BD38E
:0A0A4E0090E6BBE0FABA010280193D
:050A5800BA0202802635
:050A5D00BA0302804D08
:060A6200BA0603020B229C
:060A6800BA0703020B3483
:030A6E00020B5F19
:0A0A71007A5A7B1290E6B3EBF09086
:080A7B00E6B4745AF0020BD33B
:0B0A830090E680E0FA30E7127A767B04
:0A0A8E001290E6B3EBF090E6B474AA
:050A980076F0020BD313
:0A0A9D007AA67B1290E6B3EBF0900E
:080AA700E6B474A6F0020BD3C3
:0A0AAF0090E6BAE0FABA0102800FE7
:050AB900BA0202801CDE
:050ABE00BA03028029CB
:050AC300BA044A803670
:060AC8007582317A317BDA
:040ACE00128B107502
:060AD200110512074702A6
:020AD8000BD33E
:060ADA007582367A367BBE
:040AE000128B1075F0
:060AE400111B120747027E
:020AEA000BD32C
:0A0AEC0075828A7A8A7B008B1075F0
:060AF600110A120747027D
:020AFC000BD31A
:060AFE007582517A517B64
:040B0400128B1075CB
:060B08001108120747026C
:020B0E000BD307
:0A0B10007AD67B1290E6B3EBF0906A
:080B1A00E6B474D6F0020BD31F
:0A0B22007A6C7B1290E6B3EBF090C2
:080B2C00E6B4746CF0020BD377
:0B0B340090E680E0FA30E7127AA67B22
:0A0B3F001290E6B3EBF090E6B474F8
:050B4900A6F0020BD331
:0A0B4E007A767B1290E6B3EBF0908C
:070B5800E6B47476F080742E
:0A0B5F0090E6A0E0FA4401F0806A7D
:020B69008068A2
:0E0B6B0090E740E4F090E68AF090E68B74018B
:030B7900F08057B2
:050B7C0012071A80526F
:0E0B810090E740E4F090E68AF090E68B740175
:030B8F00F08041B2
:050B920012071A803C6F
:0E0B970090E6B8E0FABA823490E6BCE0C313F0
:0B0BA50014540325E02411F582E43411
:0C0BB0003AF583E4F0A3F090E685E090B5
:0D0BBC00E740F090E684E0FA90E741F09009
:0A0BC900E68AE4F090E68B7402F077
:0B0BD30090E6B8E0FABA4003020CF410
:050BDE00BAC002800313
:030BE300020D1EE2
:0E0BE60090E6BFE0FB7A0090E6BEE0FC7D00EA
:0E0BF400903A0CEC4AF0ED4BA3F01207B090D3
:090C0200E6B9E0FABA22028013FF
:060C0B00BA3003020CA345
:050C1100BA3802802545
:050C1600BA3A0280491A
:030C1B00020CEADE
:0E0C1E0090E6B5E4F090E68AF090E68B74283C
:0D0C2C00F090E6B3E4F090E6B4746CF002D2
:020C39000D1E8E
:0E0C3B0090E6BBE0FB7A0090E6BAE0FC7D009C
:0E0C4900903A00EC4AF0ED4BA3F090E68AE4FE
:0D0C5700F012056CE58290E68BF0020D1E98
:0E0C6400903A02E0FAA3E0FB8A0490E740EC2D
:0D0C7200F08B0290E741EAF0903A04E09028
:0A0C7F00E742F075080075090175E1
:0D0C890082A2120346AA8290E743EAF0908F
:0D0C9600E68AE4F090E68B7404F0020D1E77
:060CA300759B057A057B3C
:0C0CA9003A8B9A759E417A417BE78B9D47
:0E0CB500C0027A071202ADD00253B2FD3081A8
:0D0CC3000C90E740E4F0D28143B2028009BA
:090CD00090E7407401F01205CD1B
:0E0CD90090E748E4F090E68AF090E68B74090C
:030CE700F0803466
:0A0CEA0090E6A0E0FA4401F0802A31
:0C0CF40090E6BFE0700690E6BEE06016DF
:0E0D0000903A107401F090E68BE4F05391EFFE
:080D0E0090E65D7401F080190C
:080D16001207DD90E68BE4F00A
:0E0D1E005391EF90E65D7401F090E6A0E0FACC
:030D2C004480F010
:0E0D2F00D0D0D001D000D007D006D005D0041F
:0D0D3D00D003D002D083D082D0F0D0E0D01F
:020D4A00203255
:0E0D4C00C0E0C082C0835391EF90E65D740258
:080D5A00F0D083D082D0E0321A
:0E0D6200C0E0C082C0835391EF90E65D740440
:080D7000F0D083D082D0E03204
:0E0D7800C0E0C082C0835391EF90E65D740826
:080D8600F0D083D082D0E032EE
:0E0D8E00C0E0C082C0835391EF90E65D741008
:080D9C00F0D083D082D0E032D8
:0E0DA400C0E0C082C0835391EF90E65D7420E2
:080DB200F0D083D082D0E032C2
:0E0DBA00C0E0C082C0835391EF90E65D7440AC
:080DC800F0D083D082D0E032AC
:0C0DD000C020C0E0C0F0C082C083C002A0
:0E0DDC00C003C004C005C006C007C000C001AF
:0E0DEA00C0D075D000C2E81207B0903A0FE0FA
:060DF800FABA300280236C
:050DFE00BA3802800577
:050E0300BA3A1280194B
:0E0E080090E68AE4F012056CE58290E68BF02D
:020E1600800951
:090E180090E68AE4F090E68BF00C
:0E0E21005391EF90E65F7401F0D2E8D0D0D08C
:0E0E2F0001D000D007D006D005D004D003D0EB
:0C0E3D0002D083D082D0F0D0E0D0203270
:0C0E4900C020C0E0C0F0C082C083C00226
:0E0E5500C003C004C005C006C007C000C00135
:0E0E6300C0D075D000C2E8903A10E0FA6020CE
:0D0E7100903A10E4F090E6BFE0FB7A0090AC
:0E0E7E00E6BEE0FC7D00903A0CEC4AF0ED4B35
:050E8C00A3F01207DDD8
:0D0E91001207B0903A0FE0FABA3102801655
:050E9E00BA3202800ED3
:0E0EA300BA390E90E68BE0F5821205A08003AE
:030EB1001206B86E
:0E0EB40090E68BE4F05391EF90E65F7402F04D
:0E0EC200903A0CE0FAA3E0FB4A700890E6A01C
:050ED000E0FA4480F08F
:0E0ED500D2E8D0D0D001D000D007D006D00592
:0E0EE300D004D003D002D083D082D0F0D0E073
:030EF100D02032DC
:0E0EF400C0E0C082C0835391EF90E65F7404AB
:080F0200F0D083D082D0E03270
:0E0F0A00C0E0C082C0835391EF90E65F740890
:080F1800F0D083D082D0E0325A
:0E0F2000C0E0C082C0835391EF90E65F741072
:080F2E00F0D083D082D0E03244
:0E0F3600C0E0C082C0835391EF90E65F74204C
:080F4400F0D083D082D0E0322E
:0E0F4C00C0E0C082C0835391EF90E65F744016
:080F5A00F0D083D082D0E03218
:0E0F6200C0E0C082C0835391EF90E65F7480C0
:080F7000F0D083D082D0E03202
:0E0F780090E680E04408F090E6007412F090DD
:0E0F86000002120265538EF8D28143B202C2FD
:0E0F9400AFC2E89000437402F0900044740174
:0E0FA200F090004574B8F090E668E04408F066
:0A0FB0009001007402F07A1D7B0826
:0D0FBA008B04900101ECF0900102EAF09030
:0A0FC70001047402F07A4C7B0D8BDC
:0E0FD10004900105ECF0900106EAF090010892
:0A0FDF007402F07A627B0D8B04901F
:0E0FE9000109ECF090010AEAF090010C74028C
:0A0FF700F07A787B0D8B0490010D59
:0E100100ECF090010EEAF09001107402F07A0B
:0A100F008E7B0D8B04900111ECF0B4
:0C101900900112EAF09001147402F07AC9
:0A102500A47B0D8B04900115ECF084
:0C102F00900116EAF09001187402F07AAB
:0A103B00BA7B0D8B04900119ECF054
:0C10450090011AEAF09001207402F07A89
:0A105100D07B0D8B04900121ECF020
:0C105B00900122EAF09001247402F07A67
:0A106700497B0E8B04900125ECF08C
:0C107100900126EAF09001287402F07A49
:0A107D00F47B0E8B04900129ECF0C7
:0C10870090012AEAF090012C7402F07A2B
:0A1093000A7B0F8B0490012DECF096
:0C109D0090012EEAF09001307402F07A0D
:0A10A900207B0F8B04900131ECF066
:0C10B300900132EAF09001347402F07AEF
:0A10BF00367B0F8B04900135ECF036
:0C10C900900136EAF09001387402F07AD1
:0A10D5004C7B0F8B04900139ECF006
:0C10DF0090013AEAF090013C7402F07AB3
:0A10EB00627B0F8B0490013DECF0D6
:0E10F50090013EEAF05391EF90E65D747FF0BB
:0E11030090E65CE0FA447FF090E65F74FFF047
:0E11110090E65E74FFF0D2E8D2AF90E6117463
:0E111F00A0F00000000090E61074A0F00000A8
:0D112D00000090E61274E2F0000000009057
:0E113A00E61374A2F00000000090E614E4F04A
:0E1148000000000090E615E4F00000000090AA
:0D115600E680E04482F090000A12026590ED
:07116300E680E054F7F022E2
:0E116A00120F7890E6A3E0FA54FEF0000000A9
:0E1178000090E6A4E0FA54FEF00000000090A3
:0E118600E6957480F00000000090E6957480FD
:0E119400F090E6047480F00000000090E60485
:0E11A2007402F00000000090E604E4F000008B
:0211B00000003D
:0E11B20090E6A4E0FA20E2F890E694E0FB7AE2
:0E11C0000090E695E0FC7D004202ED4203EA5D
:0611CE004B700302122029
:0B11D400C3E49A74029B500302122037
:0B11DF0090E6A3E0FC30E303021220C6
:0411EA007C007D0008
:0E11EE00C3EC9AED9B501B8C8274F42DF5839C
:0E11FC00E0F5A08C8274F02DF583E590F00CE8
:06120A00BC00E10D80DED6
:0E12100090E690EBF0000000007B0090E6916D
:02121E00EAF0F4
:0D1220000000000090E6957480F00211B20D
:051231005A544558006D
:0E12360075636563686F206578616D706C6527
:0D12440020666F722055464D20312E32007D
:0812510064656661756C7400B0
:011259000094
:0E125A0012010002FFFFFF401A2200010000F7
:04126800010203017B
:0A126C000A060002FFFFFF40010028
:0E12760009022E00010104C032090400000428
:0E128400FFFFFF0007058102000200070501C1
:0E1292000200020007058202000200070504A8
:0412A0000200020046
:0212A400000048
:0E12A60009022E00010104C0320904000004F8
:0E12B400FFFFFF000705810240000007050153
:0E12C2000240000007058202400000070504FC
:0412D00002400000D8
:0212D400000018
:0412D600040300000D
:0212DA00000012
:0112DC000011
:0112DD00FF11
:0112DE00000F
:0812DF00000000000000000007
:06023700E478FFF6D8FD9B
:08021500790DE94400601B7A39
:05021D00019012DA78E7
:030222000C7592C6
:0A0225003AE493F2A308B8000205C2
:08022F0092D9F4DAF27592FF96
:08023D007800E84400600A7932
:03024500007592AF
:060248003AE4F309D8FCC2
:08024E00780CE84400600C7913
:0B02560001903A00E4F0A3D8FCD9FAB4
:03020800758120DD
:0A020B0012122DE5826003020203C7
:04122D0075820022A4
:00000001FF
