:03020000020208EF
:0302610002020393
:050203001225E980FE58
:03000000020200F9
:0100030032CA
:01000B0032C2
:0100130032BA
:01001B0032B2
:0100230032AA
:01002B0032A2
:01003300329A
:01003B003292
:01004300328A
:01004B003282
:01005300327A
:01005B003272
:01006300326A
:0101000032CC
:0101040032C8
:0101080032C4
:01010C0032C0
:0101100032BC
:0101140032B8
:0101180032B4
:0101200032AC
:0101240032A8
:0101280032A4
:01012C0032A0
:01013000329C
:010134003298
:010138003294
:01013C003290
:01014000328C
:010148003284
:01014C003280
:01015000327C
:010154003278
:010158003274
:01015C003270
:01016000326C
:01017000325C
:010174003258
:010178003254
:01017C003250
:01018000324C
:010184003248
:010188003244
:01018C003240
:01019000323C
:010194003238
:010198003234
:01019C003230
:0101A000322C
:0101A8003224
:0101AC003220
:0101B000321C
:0101B4003218
:0101B8003214
:010264002277
:08026500AA82AB837C007D003E
:0B026D00C3EC9AED9B50147EB07F04A0
:050278001EBEFF011F86
:0B027D00EE4F70F70CBC00E80D80E5B0
:010288002253
:08028900AA82AB837C007D001A
:0B029100C3EC9AED9B50147E0A7F0026
:05029C001EBEFF011F62
:0B02A100EE4F70F70CBC00E80D80E58C
:0102AC00222F
:0E02AD0075AF0790E67BE090E67CF0DAF32276
:0102BB002220
:0202BC007A00C6
:0302BE00BAFF0084
:0D02C100500B90E678E0FB20E0030A80F08F
:0C02CE0090E678E0FA20E204EA20E10B60
:0B02DA0090E678E04440F075820122BD
:0402E50075820022FC
:0202E9007A0099
:0302EB00BAFF0057
:0D02EE00500B90E678E0FB20E0030A80F062
:0E02FB0090E678E0FA30E20B90E678E04440BE
:05030900F075820122E5
:04030E0075820022D2
:020312007A006F
:03031400BAFF002D
:0E031700500F90E678E0FB20E2047582002291
:030325000A80EC5F
:0403280075820122B7
:02032C007A0055
:03032E00BAFF0013
:0E033100500F90E678E0FB20E6047582002273
:03033F000A80EC45
:04034200758201229D
:09034600AA82C3E49508E433FB2C
:0E034F0090E678E04480F0C002C00312031272
:0E035D00D003D00290E679EAF0C002C003128D
:0C036B0002BCE582D003D0027012E5094C
:0C037700600A90E678E04440F012032C8D
:04038300758200225D
:0E038700EB601090000AC002C003120289D081
:0503950003D00280B559
:0C039A00E509600890E678E0FA4440F0C5
:0403A6007582012239
:0C03AA00AA82AB837C00E50C7003F58296
:0103B6002224
:0A03B7007508647509007582A2C084
:0E03C10002C003C004120346E582D004D0033C
:0703CF00D00260030204B03C
:0C03D60090E679E50BF0C002C003C00403
:0E03E2001202BCE582D004D003D002600302F8
:0203F00004B057
:0C03F20090E679E50AF0C002C003C004E8
:0E03FE001202BCE582D004D003D002600302DC
:02040C0004B03A
:0E040E0090E678E04440F0C002C003C0041243
:0D041C00032C90E678E04480F0120312906B
:0E042900E67974A3F01202BCE582D004D00381
:0E043700D002707590E679E08A828B83F0C067
:0E04450002C003C0041202E9E582D004D00315
:05045300D0027059FD0C
:0C045800C3ED950C502A90E679E08A82F2
:0E0464008B83F0A3AA82AB83C002C003C00446
:0E047200C0051202E9E582D005D004D003D007
:0804800002702D0D8D0480D0E7
:0E04880090E678E04420F090E679E0C004129F
:0E04960002E9E582D004701290E678E044405E
:0C04A400F090E679E0C00412032CD004B4
:0304B0008C822219
:0A04B300AA82AB837C007508647513
:0C04BD0009007582A2C002C003C0041236
:0D04C9000346E582D004D003D00260030298
:0204D6000569B6
:0C04D80090E679E50EF0C002C003C004FD
:0E04E4001202BCE582D004D003D002600302F5
:0204F20005699A
:0C04F40090E679E50DF0C002C003C004E2
:0E0500001202BCE582D004D003D002705CFD74
:0C050E00C3ED950F50478A828B83E0FEFE
:0E051A00A3AA82AB8390E679EEF0903A04E05B
:0D052800FFEE2FF0903A02E0FEA3E0FF90FE
:0E0535003A0274012EF0E43FA3F0C002C003AE
:0E054300C004C0051202BCE582D005D004D071
:0A05510003D00270130D8D0480B377
:0E055B0090E678E04440F0C00412032CD00477
:030569008C82225F
:0A056C00903A30E0FA903A00E0F512
:060576000AA3E0F50B8A68
:0C057C000C90E740C0021203AAAB82D032
:0E058800027C00903A00E0FDA3E0FE903A00F5
:0A059600EA2DF0EC3EA3F08B822268
:0B05A000AA82903A00E0F50DA3E0F500
:0905AB000E8A0F90E740C0021215
:0E05B40004B3D0027B00903A00E0FCA3E0FD0F
:0B05C200903A00EA2CF0EB3DA3F02281
:0C05CD00AA82AB837C00E5117003F5826C
:0105D90022FF
:0A05DA007508647509007582A6C05B
:0E05E40002C003C004120346E582D004D00317
:0705F200D00260030206B70E
:0C05F90090E679E510F0C002C003C004D9
:0E0605001202BCE582D004D003D002600302D2
:0206130006B728
:0E06150090E678E04440F0C002C003C004123A
:0D062300032C90E678E04480F01203129062
:0E063000E67974A7F01202BCE582D004D00374
:0E063E00D002707590E679E08A828B83F0C05E
:0E064C0002C003C0041202E9E582D004D0030C
:05065A00D0027059FD03
:0C065F00C3ED9511502A90E679E08A82E4
:0E066B008B83F0A3AA82AB83C002C003C0043D
:0E067900C0051202E9E582D005D004D003D0FE
:0806870002702D0D8D0480D0DE
:0E068F0090E678E04420F090E679E0C0041296
:0E069D0002E9E582D004701290E678E0444055
:0C06AB00F090E679E0C00412032CD004AB
:0306B7008C822210
:0A06BA00AA82AB837C00750864750A
:0C06C40009007582A6C002C003C0041229
:0D06D0000346E582D004D003D002705A909A
:0C06DD00E679E512F0C002C003C0041270
:0D06E90002BCE582D004D003D0027041FDB8
:0C06F600C3ED9513502C8A828B83E0FE2C
:0E070200A3AA82AB8390E679EEF0C002C0039A
:0E071000C004C0051202BCE582D005D004D0A2
:0A071E0003D00270130D8D0480CE8D
:0E07280090E678E04440F0C00412032CD004A8
:030736008C822290
:07073900903A30E0F5119049
:090740003A05E0F51090E74002D3
:0207490005CDDC
:02074B00AA8280
:08074D00D2A600C2A6DAF922CF
:0E075500A2A4D2A633C2A6A2A4D2A633C2A6E4
:0E076300A2A4D2A633C2A6A2A4D2A633C2A6D6
:0E077100A2A4D2A633C2A6A2A4D2A633C2A6C8
:0E077F00A2A4D2A633C2A6A2A4D2A633C2A6BA
:07078D00F5822275820022B3
:02079400AA15A4
:0E079600A2A4D2A633C2A6A2A4D2A633C2A6A3
:0E07A400A2A4D2A633C2A6A2A4D2A633C2A695
:0E07B200A2A4D2A633C2A6A2A4D2A633C2A687
:0E07C000A2A4D2A633C2A6A2A4D2A633C2A679
:0507CE00F0A3DAC422D3
:0E07D300E5823392A7D2A633C2A692A7D2A681
:0E07E10033C2A692A7D2A633C2A692A7D2A672
:0E07EF0033C2A692A7D2A633C2A692A7D2A664
:0E07FD0033C2A692A7D2A633C2A692A7D2A656
:04080B0000C2A6225F
:02080F00AA1528
:0E081100E03392A7D2A633C2A692A7D2A63396
:0E081F00C2A692A7D2A633C2A692A7D2A63333
:0E082D00C2A692A7D2A633C2A692A7D2A63325
:0E083B00C2A692A7D2A633C2A692A7D2A6A3A7
:05084900C2A6DAC42282
:0D084E00903A0D7403F043A0807A007B0007
:0E085B00C002C003120755AC82D003D002BC0D
:04086900FF028020EA
:0E086D008A048B057E007F00C3EC94FFED949F
:0E087B00FFEE9400EF6480948050070ABA00EC
:04088900D10B80CE41
:0E088D00E5A030E409903A0DE4F075820022F7
:04089B00758201223F
:0D089F0043A02075820812074B53A0DF0212
:0208AC00084EF4
:0E08AE0043A08075820812074B43A02075827C
:0408BC000802074BDC
:0508C00043A0807A5501
:0A08C500120755E58230E702DAF66B
:0B08CF00903A0FF0F5822275820022A3
:0708DA0043A0807A007B00BF
:0E08E100C002C003120755AC82D003D002BC87
:0408EF00FE02800D78
:0508F3000ABA00010B30
:0808F800EA4B70E57582012254
:0409000075820022DA
:0E090400AA82AB83ACF0FDE5A020E50475826D
:020912000422BD
:0E091400C002C003C004C00512089FE582D0D7
:0E09220005D004D003D00260071208AE758223
:020930000322A0
:0E093200758208C002C003C004C00512074B46
:0E094000D005D004D003D002903A0E7412F00D
:0E094E00903A117452F0903A10E0FE7028EAD0
:0E095C002AFAEB33FBEC33FCED33FD8C0690F6
:0E096A003A12EEF08B06903A13EEF08A0690E9
:0B0978003A14EEF0903A15E4F0801AFB
:0E0983008D06903A12EEF08C06903A13EEF0CC
:0C0991008B06903A14EEF0903A15EAF054
:0A099D00903A167401F075150690EB
:0609A7003A1112080F12C4
:0A09AD0008C0903A0FE0FA6007124C
:0609B70008AE758201226A
:0E09BD001208DAE58260071208AE7582022287
:0409CB00758200220F
:0E09CF0075821012074B1208DAE582600712DB
:0609DD0008AE7582022243
:0409E30075820022F7
:0409E700AA82AB83B2
:0E09EB00C374209AE49B5018758200C002C0AD
:0E09F9000312074BD003D002EA24E0FAEB34DD
:040A0700FFFB80E091
:0E0A0B00EA4B600AEAC40354F8F58212074B66
:0D0A190075821012074B75820812074B9072
:0C0A26003A0E740CF0903A11744CF090F1
:090A32003A12E4F0903A13F0903E
:080A3B003A14F0903A15F09016
:090A43003A167401F075150690D5
:060A4C003A1112080F121E
:090A520008C075820812074B026E
:020A5B0008AEE3
:0E0A5D00AA82AB83ACF0FDE5A020E504758213
:020A6B00042263
:0E0A6D00C002C003C004C00512089FE582D07D
:0E0A7B0005D004D003D00260071208AE7582C9
:020A8900032246
:0E0A8B00758208C002C003C004C00512074BEC
:0E0A9900D005D004D003D002903A0E7419F0AC
:0E0AA700903A117459F0903A10E0FE7028EA6F
:0E0AB5002AFAEB33FBEC33FCED33FD8C06909C
:0E0AC3003A12EEF08B06903A13EEF08A06908F
:0B0AD1003A14EEF0903A15E4F0801AA1
:0E0ADC008D06903A12EEF08C06903A13EEF072
:0C0AEA008B06903A14EEF0903A15EAF0FA
:0A0AF600903A167401F07515069091
:060B00003A1112080F1269
:0A0B060008C0903A0FE0FA600712F1
:060B100008AE758201220F
:0D0B160043A08075820812074B7582FC1207
:060B230007D375820022D9
:070B2900AA82AB8353A07FF9
:0E0B3000C374209AE49B5018758200C002C066
:0E0B3E000312074BD003D002EA24E0FAEB3496
:040B4C00FFFB80E04B
:0E0B5000EA4B600AEAC40354F8F58212074B20
:0E0B5E0043A08075821012074B120755E582E6
:080B6C00540FFABA050280489B
:0D0B7400903A0D7406F075820812074B9040
:0C0B81003A0E740CF0903A11744CF09095
:090B8D003A12E4F0903A13F090E2
:080B96003A14F0903A15F090BA
:090B9E003A167401F07515069079
:060BA7003A1112080F12C2
:090BAD0008C075820812074B1202
:060BB60008AE7582062264
:040BBC00758200221C
:0D0BC00012084E7582FD1207D375820812CF
:050BCD00074B0208AE19
:090BD20012084E7582FC0207D3E3
:0E0BDB00903A067401F0903A07E4F0A3740219
:0E0BE900F0903A10E4F043B4E053B4EF43A0B0
:0E0BF7008043A02075820012074B12089F90C9
:0C0C05003A0D7403F075820812074B9042
:0B0C11003A0EE4F0903A117440F090AD
:090C1C003A12E4F0903A13F09052
:080C25003A14F0903A15F0902A
:090C2D003A167495F07515069055
:060C36003A1112080F1232
:0E0C3C0008C0903A0FE0FA7B0054FE7003EB04
:020C4A00604BFD
:0D0C4C0090003212026575820812074B906D
:0B0C59003A0EE4F0903A117440F09065
:090C64003A12E4F0903A13F0900A
:080C6D003A14F0903A15F090E2
:090C75003A167495F0751506900D
:060C7E003A1112080F12EA
:0E0C840008C0903A0FE0FA7B0054FE7003EBBC
:020C92006003FD
:030C9400021081CA
:0D0C970075820812074B903A0E7408F09019
:0B0CA4003A117448F0903A12E4F0900E
:0A0CAF003A13F0903A147401F0902B
:0C0CB9003A1574AAF0903A167487F07592
:060CC5001506903A111221
:060CCB00080F1208C090A2
:0D0CD1003A0FE0FA20E235EA54FE6003021B
:020CDE00108183
:070CE000751504903A111292
:0E0CE7000794903A13E0FA53020FBA010A90F4
:090CF5003A14E0FABAAA028009DF
:090CFE00903A0D7407F002108712
:060D0700903A107401F0A7
:090D0D00903A10E0FA6002744013
:0E0D1600FA758208C00212074B903A0E74372D
:0D0D2400F0903A117477F0903A12E4F090DC
:080D31003A13F0903A14F0901F
:0A0D39003A15F0903A167401F075B7
:060D43001506903A1112A2
:080D4900080F1208C0D002904F
:0E0D51003A0FE0FB54FE703E758208C002129D
:0B0D5F00074BD002903A0E7429F09070
:0B0D6A003A117469F0903A12EAF09020
:090D75003A13E4F0903A14F090F6
:0A0D7E003A15F0903A167401F07572
:080D88001506903A11C0021299
:070D9000080F1208C0D00299
:0A0D9700903A0FE0FB5303FE7C00CE
:0B0DA100903A0FE0FDBD0003020EA120
:030DAC00BCFF0089
:050DAF004003020EA14B
:0E0DB400900004C002C003C004120265D00407
:0E0DC200D003D002EB6051758208C002C0035E
:0E0DD000C00412074BD004D003D002903A0E9C
:0E0DDE007401F0903A117441F0903A12EAF06C
:0A0DEC00903A13E4F0903A14F090EE
:0A0DF6003A15F0903A1674FFF075FC
:0C0E00001506903A11C002C003C0041295
:0C0E0C00080F1208C0D004D003D002026E
:020E18000E9D2D
:0D0E1A00758208C002C003C00412074B908F
:0C0E27003A0E7437F0903A117477F09096
:090E33003A12E4F0903A13F09039
:080E3C003A14F0903A15F09011
:090E44003A167401F075150690D0
:060E4D003A1112080F1219
:0E0E530008C075820812074BD004D003D002ED
:0D0E6100903A0E7429F0903A117469F090E7
:0A0E6E003A12EAF0903A13E4F09013
:080E78003A14F0903A15F090D5
:090E80003A167401F07515069094
:0C0E89003A11C002C003C00412080F128E
:080E950008C0D004D003D00214
:040E9D000C020DA195
:0A0EA100903A0FE0FA60030210819E
:0E0EAB00903A10E0FA605575820812074B90DD
:0C0EB9003A0E743AF0903A11747AF090FE
:090EC5003A12E4F0903A13F090A7
:080ECE003A14F0903A15F0907F
:090ED6003A167401F0751506903E
:060EDF003A1112080F1287
:0A0EE50008C0903A0FE0FA60030223
:020EEF00108170
:070EF100751504903A11127F
:0B0EF8000794903A11E0FA20E6059004
:040F03003A10E4F0CC
:0D0F070075820812074B903A0E7409F090A5
:0B0F14003A117449F0903A12E4F0909A
:080F1F003A13F0903A14F0902F
:0A0F27003A15F0903A167401F075C7
:060F31001506903A1112B2
:060F3700080F1208C012B1
:0D0F3D0008DAE5826009903A0D7402F002B6
:020F4A0010870E
:070F4C00751510903A111217
:090F5300079475821012074B90FF
:0E0F5C003A11E0FA5302C0903A11EAF0EA545A
:060F6A00C06003020FF25B
:0E0F7000903A16E0FA53020F903A1BE0235419
:0E0F7E0001FB903A1AE0540325E04B2A24F9B7
:0E0F8C00FA903A19E023235403FB903A18E040
:0E0F9A00FCE4CC25E0CC33CC25E0CC33FD7E4E
:0E0FA80000EB4204EE4205903A17E05403FBC2
:0E0FB6002B25E0FEE4FB4204EE42050CBC00DD
:020FC400010D1D
:0C0FC600ED3395E0FBFE8AF005F0800C96
:0C0FD200EC2CFCED33FDEB33FBEE33FEAA
:0E0FDE00D5F0F1903A09ECF0A3EDF0A3EBF0A2
:060FEC00A3EEF0021079F3
:0E0FF200903A11E0FA5302C0BA4074903A18D7
:0E100000E0FA53023F7B008B058A047B007AE6
:0E100E0000903A19E0FF7E003395E0F8F9EE0D
:0E101C004202EF4203E84204E94205903A1A0C
:0E102A00E0FEE4FFF8F9EE4202EF4203E84276
:0E10380004E942050ABA00090BBB00050CBC16
:0310460000010D99
:0E104900EB2BCC33CC25E0CC33FDEA2A25E09E
:0E105700FBEA232354034CFC7A00903A09EA8A
:0C106500F0A3EBF0A3ECF0A3EDF080088A
:08107100903A0D7407F0800EA7
:08107900903A0DE4F00208AE0C
:06108100903A0D7401F02D
:08108700903A06E4F00208AE05
:0D108F00903A21E0FA6050903A21E4F0120E
:0E109C0008DAE5826044903A0D7402F0758225
:0B10AA000812074B903A0E740CF090F7
:0B10B5003A11744CF0903A12E4F090F5
:0810C0003A13F0903A14F0908D
:0A10C8003A15F0903A167401F07525
:0610D2001506903A111210
:0910D800080F1208C0758208120D
:0510E100074B0208AE00
:0A10E600903A30E0F51590E7401253
:0E10F0000794903A2EE0FAA3E0FB4A70447594
:0C10FE00821012074B75820812074B90FD
:0C110A003A0E740CF0903A11744CF09006
:091116003A12E4F0903A13F09053
:08111F003A14F0903A15F0902B
:091127003A167401F075150690EA
:061130003A1112080F1233
:0911360008C075820812074B0283
:02113F0008AEF8
:07114100EA7004EB30E0014D
:011148002284
:0D11490075821012074B903A217401F022BC
:0D115600903A21E0FA600E903A21E4F01288
:08116300084E7582FC1207D34F
:0A116B00903A30E0F51590E74012CD
:0E117500080F903A2EE0FAA3E0FBEA7004EBBC
:0311830030E00158
:011186002246
:0E11870043A08075821012074B120755E582B7
:08119500540FFABA0502804470
:0D119D00903A0D7406F075820812074B9011
:0C11AA003A0E740CF0903A11744CF09066
:0911B6003A12E4F0903A13F090B3
:0811BF003A14F0903A15F0908B
:0911C7003A167401F0751506904A
:0611D0003A1112080F1293
:0911D60008C075820812074B12D3
:0211DF0008AE58
:0E11E100903A2EE0FAA3E0FB4A6007903A2114
:0411EF007401F02275
:0D11F30012084E7582FD1207D37582081296
:05120000074B0208AEDF
:0D120500AA8290E6017480F00000000090C5
:0E121200E670E4F090E671F053B4F975B2B6F0
:0E12200074904AF58043B40853A0F790000A7A
:0E122E00C002120265D00274024AF5807A00F6
:02123C007B0035
:0E123E0020A2208A048B057E007F00C3EC9462
:0E124C00FFED94FFEE9400EF64809480500755
:07125A000ABA00E00B80DD81
:0712610030A2047AC88002EC
:021268007A64A6
:0E126A00903A27EAF0903A23E4F0A3F0A3F0C4
:08127800A3F0903A22E4F022F9
:0612800075820402120554
:061286007582340212051E
:03128C00021280CB
:01128F00223C
:0712900030A2047A1680026F
:021297007A0BD0
:0A129900903A27E0FBEA2BF07A0000
:0312A300BA40004E
:0912A6005007D284C2840A80F4CE
:0E12AF00D287D284C284D284C284D284C28404
:0E12BD00D284C28475B20053B4F7308105D2DA
:0412CB008112128FEB
:0612CF00D28143B20222AD
:0C12D50085B31475B3FF903A30E0FB9035
:0E12E1003A23E0FCA3E0FDA3E0FEA3E0FF78CB
:0E12EF000079007A00903A23EB2CF0E83DA342
:0E12FD00F0E93EA3F0EA3FA3F090E68BE0603C
:0E130B0022FA759B40759AE775AF07903A225B
:05131900E0F990E67B05
:0E131E00E0F590D28429F9C284DAF5903A22E3
:02132C00E9F0E6
:0B132E008514B390E68BE0FABA400093
:051339005003021290B8
:01133E00228C
:0E133F0090E60174E2F090E6F3E4F090E6C36D
:0E134D00F090E6C1F090E6C27404F090E6C0A5
:0C135B00744EF090E6F4E4F0759B317ADB
:0A136700317B3A8B9A759E60759DEC
:0E137100E4C0027A201202ADD00290E6C6E47B
:0D137F00F090E6C77410F090E6C8E4F0901E
:0E138C00E6C9F090E6CAF090E6CBF090E6CC11
:0E139A00E4F090E6CDF090E60B7401F0000058
:0D13A800000090E6047480F000000000904A
:0E13B500E6047402F00000000090E604E4F08C
:0E13C3000000000090E618E4F000000000902A
:0E13D100E6187410F00000000090E6D27401DF
:0E13DF00F00000000090E6CE7401F000000067
:0E13ED000090E6CFE4F00000000090E6D0E4AF
:0E13FB00F00000000090E6D1E4F000000000D9
:0E14090090E6D474FFF00000000053B2EF43F1
:05141700B201C28022B9
:0E141C00C0B3AD82AE83903A23E0F9A3E0FAAC
:0E142A00A3E0FBA3E0FC903A23ED29F0EE3A9C
:0E143800A3F074003BA3F074003CA3F0BD00D1
:0E1446002DBE022A75B30053B2EFD2A653B4E6
:0D145400BF43B208C283D28353B2F77A03BC
:0214610079E32D
:0E146300D9FEDAFAD28443B21043B440C2A6D6
:03147100D0B322D3
:0314740075B3014C
:09147700BD0006BE0003D0B32243
:0E148000A2A49290C284D284D2A6C2A6A2A434
:0E148E009290C284D284D2A6C2A6A2A492904A
:0E149C00C284D284D2A6C2A6A2A49290C28418
:0E14AA00D284D2A6C2A6A2A49290C284D284FA
:0E14B800D2A6C2A6A2A49290C284D284D2A6CA
:0E14C600C2A6A2A49290C284D284D2A6C2A6CC
:0E14D400A2A49290C284D284D2A6C2A61DBD4C
:0614E200FF931E80902222
:0E14E800E582FA700F53B2FD308109D28143C4
:0614F600B2027582012222
:0E14FC00121286900000E4F5F0120904E58259
:06150A006004758202225C
:041510007A007B00E2
:0E151400C3EA9408EB94005025C002C00312F5
:0C1522000755AC82D003D002EA24F2F599
:0C152E0082EB3425F583E493FDECB50559
:08153A00070ABA00D50B80D2AC
:08154200BA0805BB0002801885
:0E154A00903A07E0FCA3E0FDECC39AF582EDB9
:0A1558009BF5831209E77582032258
:0E156200120755AA827B00C002C00312075573
:0E157000AC82D003D0028C05E44202ED4203AF
:0E157E00C002C003120755AC827D00C004C03D
:0E158C0005120755AE82D005D0048E07E4424A
:0E159A0004EF4205903A07E0FEA3E0FFEE24C6
:0D15A800F4F582EF34FFF583C004C0051296
:0E15B50009E7D005D004D003D002EA4B700441
:0415C3007582032208
:0E15C700900001E4F5F0C002C003C004C005AE
:0E15D500120904E582D005D004D003D00260D4
:0515E3000475820222E4
:0415E8007E017F0001
:0E15EC00C3EE9AEF9B5039903A07E0F8A3E067
:0E15FA00F988828983C002C003C004C005C006
:0E16080006C00712141C1209CFE582D007D0CD
:0E16160006D005D004D003D002600475820215
:0116240022A3
:071625000EBE00C30F80C0E0
:0E162C008C828D83C004C00512141CD005D022
:0E163A0004903A07E0FAA3E0FBEAC39CF582B5
:0E164800EB9DF5831209E712129053B2FD30AC
:0B1656008109D28143B202758200229C
:09166100D28143B2027582042219
:0B166A00900000E4F5F01209047A0083
:03167500BA0800B0
:0D1678005016C002120755AB82D002EA9056
:0B16850025F293FCEBB504030A80E59E
:05169000BA0802801AF7
:0E1695007B00903A07E0FCA3E0FDECC39AF561
:0C16A30082ED9BF5831209E79000002205
:0D16AF00120755AA82C002120755AB8290A7
:0E16BC003A07E0FCA3E0FDEC24F6F582ED34E5
:0E16CA00FFF583C0031209E7D003D0028B04A2
:0E16D800E4FBFDEA4203ED42048B828C83A307
:0116E60022E1
:0E16E700903A06E0FA7007903A287402F0225A
:0E16F5007582001214E8AA82903A28EAF0BA30
:05170300010302128F3A
:0E170800BA040C7582001214E8E582903A28AB
:01171600F0E2
:0117170022AF
:01006C00286B
:01006D000191
:04006E005A54455843
:040072000A0D000073
:010076000089
:010077000187
:060078006700000000001B
:0C007E0000000000000000000000000076
:0A008A00303030303030303030308C
:0117180022AE
:0E17190090E683E4F07420F07410F07430F069
:0E17270090E6837401F07421F07411F07431B7
:0B173500F090E6837402F07422F022B2
:0A174000AA82E51624E05003751696
:01174A001F7F
:0D174B0090E6BFE0701090E6BEE0FBC39595
:0917580016500690E6BEE0F516FD
:0C17610075AF078A9B85159A759E41752F
:0A176D009DE790E67C7403F07A001B
:0C177700C3EA9516501190E67BE0FB9051
:0B178300E67CF090E67CE4F00A80E9D0
:0B178E00E5160425E0FA90E740F0901B
:0E179900E7417403F090E68AE4F090E68BEAF4
:0217A700F0222E
:0E17A900903A2EE0FAA3E0FBC374409AE49B52
:0817B70050067C407D00800417
:0417BF008A048B0508
:0E17C300903A30ECF07D00903A2EEAC39CF094
:0517D100EB9DA3F022D6
:0B17D600903A71E0FABA3103021909E1
:0417E100BA320122F5
:0617E500BA340302190CE6
:0617EB00BA350302191FCC
:0517F100BA3902800D71
:0517F600BA3C02802C4A
:0517FB00BA420280303B
:0318000002193F8B
:0E180300903A04E4F0903A02F0A3F090E6BBB5
:0E181100E0FB7A0090E6BAE0FC7D00903A0021
:08181F00EC4AF0ED4BA3F022AE
:0918270090E6BAE0903A05F022C7
:0E183000E5A020E515903A0D7404F090E6A0B6
:0C183E00E04401F0903A2EE4F0A3F02208
:0E184A0012089FE58260121208AE90E6A0E040
:0B1858004401F0903A2EE4F0A3F022CF
:0D18630075820812074B903A0E7419F09030
:0D1870003A117459F0903A10E0FA6003024A
:02187D0018A2AF
:0E187F00C390E6BAE0903A1433F090E6BBE076
:0E188D00903A1333F090E6BCE0903A1233F03C
:07189B00903A15E4F08021F2
:0D18A20090E6BDE0903A12F090E6BCE090B8
:0E18AF003A13F090E6BBE0903A14F090E6BADF
:0618BD00E0FA903A15F07C
:0A18C300903A167401F075150690B6
:0618CD003A1112080F128F
:0A18D30008C0903A0FE0FA60189088
:0E18DD003A0D7401F01208AE90E6A0E044014E
:0918EB00F0903A2EE4F0A3F02283
:0D18F40043A08075820812074B7582FC121C
:0819010007D3903A21E4F02223
:0319090002128C3B
:0E190C0012128C90E6A3E054FEF090E6F57403
:05191A00FFF002133F85
:0E191F00D280D28443B21090E6F574FFF0003F
:0E192D0000000090E601E0FA54F0F000000027
:04193B000002129004
:08193F0090E6A0E04401F02253
:0C194700C020C0E0C0F0C082C083C0021D
:0E195300C003C004C005C006C007C000C0012C
:0E196100C0D075D00090E6B9E0FA903A71F06F
:0E196F0090E6B57401F090E6B9E0FA24F3506A
:04197D0003021CFD48
:07198100EA2A2A901988737D
:071988000219AF021A63020D
:06198F001CFD021AE0023B
:061995001CFD021CFD0216
:06199B001B78021C930200
:0619A1001C95021CA602C9
:0619A7001CAB021CBC0297
:0219AD001CC15B
:0A19AF0090E6B8E0FABA8002800D5D
:0519B900BA8102801E4E
:0519BE00BA8202802F37
:0319C300021CFD06
:0E19C60090E740E4F090E741F090E68AF09060
:0819D400E68B7402F0021CFD19
:0E19DC0090E740E4F090E741F090E68AF0904A
:0819EA00E68B7402F0021CFD03
:0C19F20090E6BCE0FA600FBA0102801918
:0519FE00BA8002800523
:051A0300BA812F801ED6
:0E1A080090E6A0E0FA53020190E740EAF08079
:011A16003A95
:0E1A170090E6A1E0FA53020190E740EAF08069
:011A25002B95
:0E1A260090E6A2E0FA53020190E740EAF08059
:011A34001C95
:0E1A350090E6BCE0C31314540324A3F582E42E
:0E1A430034E6F583E0FA53020190E740EAF042
:0E1A510090E741E4F090E68AF090E68B740294
:041A5F00F0021CFD78
:0A1A630090E6B8E0FABA0202800330
:031A6D00021CFD5B
:091A700090E6BAE06003021CFDDF
:0C1A790090E6BCE0FA600FBA0102801594
:051A8500BA800280059B
:051A8A00BA8123801663
:0B1A8F0090E6A0E0FA54FEF0021CFDFF
:0B1A9A0090E6A1E0FA54FEF0021CFDF3
:0B1AA50090E6A2E0FA54FEF0021CFDE7
:0E1AB00090E6BCE0C31314540324A3FAE434FC
:0E1ABE00E6FB90E6BCE0C31314540324A3F52A
:0E1ACC0082E434E6F583E0FC5304FE8A828B4C
:061ADA0083ECF0021CFD8C
:0A1AE00090E6B8E0FABA02028003B3
:031AEA00021CFDDE
:091AED0090E6BAE06003021CFD62
:0C1AF60090E6BCE0FA600FBA0102801418
:051B0200BA800280051D
:051B0700BA81208014EA
:0A1B0C0090E6A0E0FA4401F08041E9
:0A1B160090E6A1E0FA4401F08037E8
:0A1B200090E6A2E0FA4401F0802DE7
:0E1B2A0090E6BCE0C31314540324A3FAE43481
:0E1B3800E6FB90E6BCE0C31314540324A3F5AF
:0E1B460082E434E6F583E0FC4304FE8A828BE1
:031B540083ECF02F
:0E1B570090E6BCE05480C423541FFA90E6BC14
:0E1B6500E0FB740F5B420290E683EAF074200E
:051B73004AF0021CFD18
:0A1B780090E6BBE0FABA0102801902
:051B8200BA02028026FA
:051B8700BA0302804DCD
:061B8C00BA0603021C4C26
:061B9200BA0703021C5E0D
:031B9800021C89A3
:0A1B9B007A247B2690E6B3EBF0906D
:081BA500E6B47424F0021CFDFB
:0B1BAD0090E680E0FA30E7127A407BFF
:0A1BB8002690E6B3EBF090E6B4745B
:051BC20040F0021CFDD3
:0A1BC7007A687B2690E6B3EBF090FD
:081BD100E6B47468F0021CFD8B
:0A1BD90090E6BAE0FABA0102800FAC
:051BE300BA0202801CA3
:051BE800BA0302802990
:051BED00BA044A803635
:061BF2007582FA7AFA7B0D
:041BF800258B1575AF
:061BFC001605121740025D
:021C02001CFDC7
:061C04007582FF7AFF7BF0
:041C0A00258B15759C
:061C0E00161D1217400232
:021C14001CFDB5
:0A1C160075828A7A8A7B008B1575AF
:061C2000160A1217400233
:021C26001CFDA3
:061C280075821C7A1C7B92
:041C2E00268B157577
:061C320016081217400223
:021C38001CFD91
:0A1C3A007A907B2690E6B3EBF09061
:081C4400E6B47490F0021CFDEF
:0A1C4C007A367B2690E6B3EBF090A9
:081C5600E6B47436F0021CFD37
:0B1C5E0090E680E0FA30E7127A687B25
:0A1C69002690E6B3EBF090E6B474A9
:051C730068F0021CFDF9
:0A1C78007A407B2690E6B3EBF09073
:071C8200E6B47440F0807429
:0A1C890090E6A0E0FA4401F0806A42
:021C9300806867
:0E1C950090E740E4F090E68AF090E68B740150
:031CA300F0805777
:051CA600121719805225
:0E1CAB0090E740E4F090E68AF090E68B74013A
:031CB900F0804177
:051CBC00121719803C25
:0E1CC10090E6B8E0FABA823490E6BCE0C313B5
:0B1CCF0014540325E02473F582E43474
:0C1CDA003AF583E4F0A3F090E685E0907A
:0D1CE600E740F090E684E0FA90E741F090CE
:0A1CF300E68AE4F090E68B7402F03C
:0B1CFD0090E6B8E0FABA400302203F76
:051D0800BAC0028003D7
:031D0D0002206948
:0E1D100090E6BFE0FB7A0090E6BEE0FC7D00AE
:0E1D1E00903A2EEC4AF0ED4BA3F01217A9906C
:091D2C00E6B9E0FABA22028037A0
:061D3500BA3003021FD5C5
:061D3B00BA330302201E72
:051D4100BA38028043E6
:051D4600BA3A028067BB
:061D4B00BA3B03021DF18A
:061D5100BA3D03021E0A68
:061D5700BA4003021E2B3E
:061D5D00BA4103021E5111
:061D6300BA4303021F5108
:031D690002203520
:0E1D6C0090E6B5E4F090E68AF090E68B7428DD
:0D1D7A00F090E6B3E4F090E6B4746CF00273
:021D87002069D1
:0E1D890090E6BBE0FB7A0090E6BAE0FC7D003D
:0E1D9700903A00EC4AF0ED4BA3F090E68AE49F
:0D1DA500F012056CE58290E68BF0022069DB
:0E1DB200903A02E0FAA3E0FB8A0490E740ECCE
:0D1DC000F08B0290E741EAF0903A04E090C9
:0A1DCD00E742F07508007509017582
:0D1DD70082A2120346AA8290E743EAF09030
:0D1DE400E68AE4F090E68B7404F0022069BA
:0E1DF10090E6BAE0903A05F090E68AE4F0122F
:0B1DFF000739E58290E68BF0022069B6
:0A1E0A007508007509017582A61223
:0E1E14000346AA8290E740EAF090E68AE4F0E6
:091E220090E68B7401F0022069C6
:061E2B00759B067A067BA0
:0C1E31003A8B9A759E40759DE7C0027ABE
:0E1E3D00081202ADD00290E68AE4F090E68B27
:061E4B007408F00220699A
:0E1E5100E5A020E518903A0D7404F090E6A08C
:0D1E5F00E0FA4401F0903A2EE4F0A3F00206
:021E6C002069EB
:0E1E6E0012089FE58260151208AE90E6A0E013
:0E1E7C00FA4401F0903A2EE4F0A3F00220693F
:0D1E8A0075820812074B903A0E7412F0900A
:0D1E97003A117452F0903A10E0FA60030224
:021EA4001EC955
:0E1EA600C390E6BAE0903A1433F090E6BBE049
:0E1EB400903A1333F090E6BCE0903A1233F00F
:071EC200903A15E4F08021C5
:0D1EC90090E6BDE0903A12F090E6BCE0908B
:0E1ED6003A13F090E6BBE0903A14F090E6BAB2
:061EE400E0FA903A15F04F
:0A1EEA00903A167401F07515069089
:061EF4003A1112080F1262
:0A1EFA0008C0903A0FE0FA601B9058
:0E1F04003A0D7401F01208AE90E6A0E0FA4427
:0C1F120001F0903A2EE4F0A3F0022069E8
:0A1F1E00903A217401F012108F9028
:0E1F28003A0DE0FA601290E6A0E0FA4401F0F3
:0A1F3600903A2EE4F0A3F0022069B7
:0E1F400090E68AE4F0903A30E0FA90E68BF0FA
:031F4E0002206905
:061F5100759B0D7A0D7B6B
:0C1F57003A8B9A759E427A427BE78B9D84
:0E1F6300C0027A141202ADD002741055A0FA1A
:051F7100E4BA000104C8
:0E1F760090E756F012089F75820812074B90F4
:0C1F84003A0E740DF0903A11744DF0907C
:091F90003A12E4F0903A13F090CB
:081F99003A14F0903A15F090A3
:091FA1003A167401F07515069062
:061FAA003A1112080F12AB
:0B1FB00008C0903A0FE090E740F012EC
:0D1FBB000755AA8290E741EAF01208AE90A7
:0D1FC800E68AE4F090E68B7417F0022069C1
:061FD500759B227A227BBD
:0C1FDB003A8B9A759E417A417BE78B9D02
:0E1FE700C0027A071202ADD00253B2FD308163
:0D1FF5000C90E740E4F0D28143B202800975
:0920020090E7407401F012128015
:0E200B0090E7487401F090E68AE4F090E68BCE
:052019007409F0804B8A
:0E201E0090E7407402F090E741E4F090E68A0B
:09202C00F090E68B7402F08034A0
:0A20350090E6A0E0FA4401F0802AD2
:0C203F0090E6BFE0700690E6BEE0601680
:0E204B00903A727401F090E68BE4F05391EF3E
:0820590090E65D7401F08019AE
:082061001217D690E68BE4F0A3
:0E2069005391EF90E65D7401F090E6A0E0FA6E
:032077004480F0B2
:0E207A00D0D0D001D000D007D006D005D004C1
:0D208800D003D002D083D082D0F0D0E0D0C1
:022095002032F7
:0E209700C0E0C082C0835391EF90E65D7402FA
:0820A500F0D083D082D0E032BC
:0E20AD00C0E0C082C0835391EF90E65D7404E2
:0820BB00F0D083D082D0E032A6
:0E20C300C0E0C082C0835391EF90E65D7408C8
:0820D100F0D083D082D0E03290
:0E20D900C0E0C082C0835391EF90E65D7410AA
:0820E700F0D083D082D0E0327A
:0E20EF00C0E0C082C0835391EF90E65D742084
:0820FD00F0D083D082D0E03264
:0E210500C0E0C082C0835391EF90E65D74404D
:08211300F0D083D082D0E0324D
:0C211B00C020C0E0C0F0C082C083C00241
:0E212700C003C004C005C006C007C000C00150
:0E213500C0D075D000C2E81217A9903A71E030
:07214300FABA30030221D6B5
:06214A00BA33030221D6A6
:05215000BA38028021F5
:06215500BA3A030221D694
:05215B00BA3B028026E2
:06216000BA3D030221D686
:06216600BA40030221D67D
:05216C00BA41028025CC
:05217100BA4359806033
:0E21760090E68AE4F012056CE58290E68BF0AC
:02218400805089
:0E21860090E68AE4F0120739E58290E68BF0CD
:02219400804089
:0D219600903A30E0FA6020903A0DE4F0122B
:0E21A300108F903A0DE0FA601190E6A0E0FA7D
:0C21B1004401F0903A2EE4F0A3F08019F5
:0E21BD0090E68AE4F0903A30E0FA90E68BF07B
:0221CB00800989
:0921CD0090E68AE4F090E68BF044
:0E21D6005391EF90E65F7401F0D2E8D0D0D0C4
:0E21E40001D000D007D006D005D004D003D023
:0C21F20002D083D082D0F0D0E0D02032A8
:0C21FE00C020C0E0C0F0C082C083C0025E
:0E220A00C003C004C005C006C007C000C0016C
:0E221800C0D075D000C2E8903A72E0FA6020A3
:0D222600903A72E4F090E6BFE0FB7A009081
:0E223300E6BEE0FC7D00903A2EEC4AF0ED4B4A
:05224100A3F01217D606
:0D2246001217A9903A71E0FABA31028067D0
:05225300BA3202805FB9
:05225800BA3402805DB4
:05225D00BA35028058B3
:05226200BA3902800AF8
:05226700BA3C028010EA
:05226C00BA424B801F87
:0B22710090E68BE0F5821205A0803E95
:0B227C00903A05E0F51290E68BE0F5CB
:092287001390E7401206BA802A08
:0D229000903A30E0FA6023903A0DE4F0122D
:0E229D001156903A0DE0FA601490E6A0E0FAB7
:0C22AB004401F0903A2EE4F0A3F0800310
:0322B7001212D52B
:0E22BA0090E68BE4F05391EF90E65F7402F033
:0E22C800903A2EE0FAA3E0FB4A700890E6A0E0
:0522D600E0FA4480F075
:0E22DB00D2E8D0D0D001D000D007D006D00578
:0E22E900D004D003D002D083D082D0F0D0E059
:0322F700D02032C2
:0E22FA00C0E0C082C0835391EF90E65F740491
:08230800F0D083D082D0E03256
:0E231000C0E0C082C0835391EF90E65F740876
:08231E00F0D083D082D0E03240
:0E232600C0E0C082C0835391EF90E65F741058
:08233400F0D083D082D0E0322A
:0E233C00C0E0C082C0835391EF90E65F742032
:08234A00F0D083D082D0E03214
:0E235200C0E0C082C0835391EF90E65F7440FC
:08236000F0D083D082D0E032FE
:0E236800C0E0C082C0835391EF90E65F7480A6
:08237600F0D083D082D0E032E8
:02237E007A00E3
:03238000BA0A0096
:0E2383005012EA248AF582E43400F583E0FB70
:06239100BB30540A80E994
:072397007510FB75110590A4
:09239E003A291205CD7A007B00FA
:0323A700BB050073
:0A23AA00503CEB2429F582E4343A9C
:0E23B400F583E0FCEA248AFDE43400FEECC46C
:0E23C200540F90269493FF8D828E83F00AEACA
:0E23D000248AFDE43400FE740F5C9026949382
:0A23DE00FC8D828E83F00A0B80BF95
:0123E80022D2
:0E23E90090E680E04408F090E6007412F09058
:0E23F7000002120265538EF8D28143B20290AA
:0E2405003A2874FFF0C2AFC2E89000437402A0
:0E241300F09000447401F090004574B8F09011
:0D242100E668E04408F09001007402F07AD3
:0A242E00477B198B04900101ECF0CC
:0C243800900102EAF09001047402F07AB6
:0A244400977B208B04900105ECF05B
:0C244E00900106EAF09001087402F07A98
:0A245A00AD7B208B04900109ECF02B
:0C24640090010AEAF090010C7402F07A7A
:0A247000C37B208B0490010DECF0FB
:0C247A0090010EEAF09001107402F07A5C
:0A248600D97B208B04900111ECF0CB
:0C249000900112EAF09001147402F07A3E
:0A249C00EF7B208B04900115ECF09B
:0C24A600900116EAF09001187402F07A20
:0A24B200057B218B04900119ECF06A
:0C24BC0090011AEAF09001207402F07AFE
:0A24C8001B7B218B04900121ECF036
:0C24D200900122EAF09001247402F07ADC
:0A24DE00FE7B218B04900125ECF039
:0C24E800900126EAF09001287402F07ABE
:0A24F400FA7B228B04900129ECF022
:0C24FE0090012AEAF090012C7402F07AA0
:0A250A00107B238B0490012DECF0F0
:0C25140090012EEAF09001307402F07A81
:0A252000267B238B04900131ECF0C0
:0C252A00900132EAF09001347402F07A63
:0A2536003C7B238B04900135ECF090
:0C254000900136EAF09001387402F07A45
:0A254C00527B238B04900139ECF060
:0C25560090013AEAF090013C7402F07A27
:0A256200687B238B0490013DECF030
:0E256C0090013EEAF05391EF90E65D747FF02F
:0E257A0090E65CE0FA447FF090E65F74FFF0BC
:0E25880090E65E74FFF0D2E8D2AF90E61174D8
:0E259600A0F00000000090E61074A0F000001D
:0D25A400000090E61274A0F000000000900E
:0E25B100E613E4F00000000090E614E4F000F1
:0D25BF0000000090E615E4F000000000129E
:0625CC000BDB1216E71202
:0D25D200237E90E680E04482F090000A1223
:0A25DF00026590E680E054F7F02258
:0325E9001223E9D1
:0225EC0080FE6F
:0825F2005A54455842530101FF
:0525FA005A5445580091
:0E25FF0055464D20312E3135207374616E64C7
:0E260D00616C6F6E65206669726D7761726533
:01261B0000BE
:08261C0064656661756C7400D1
:0E26240012010002FFFFFF401A220001000019
:04263200010203019D
:0A2636000A060002FFFFFF4001004A
:0E26400009022700010104C032090400000352
:0E264E00FFFFFF0007058102000200070501E3
:0B265C0002000200070502020002005D
:012667000072
:0E26680009022700010104C03209040000032A
:0E267600FFFFFF00070581024000000705017D
:0B2684000240000007050202400000B9
:01268F00004A
:04269000040300003F
:0E269400303132333435363738394142434421
:0326A200454600AA
:0226A500000033
:0126A7000032
:0E26A80001880101010101070207020202027E
:0E26B6000200040000000000000400360000D6
:0426C4000000003FD3
:0E26C800020190010101010702020702020255
:0E26D6000200040000000000000400003600B6
:0426E4000000003FB3
:0126E800FFF2
:0126E90000F0
:0826EA000000000000000000E8
:06023700E478FFF6D8FD9B
:08021500794DE94400601B7AF9
:05021D00019026A57808
:030222002E7592A4
:0A0225003AE493F2A308B8000205C2
:08022F0092D9F4DAF27592FF96
:08023D007800E84400600A7932
:03024500007592AF
:060248003AE4F309D8FCC2
:08024E00782EE84400600C79F1
:0B02560001903A00E4F0A3D8FCD9FAB4
:03020800758120DD
:0A020B001225EEE5826003020203F3
:0425EE0075820022D0
:00000001FF
