:03020000020208EF
:0302610002020393
:050203001225E080FE61
:03000000020200F9
:0100030032CA
:01000B0032C2
:0100130032BA
:01001B0032B2
:0100230032AA
:01002B0032A2
:01003300329A
:01003B003292
:01004300328A
:01004B003282
:01005300327A
:01005B003272
:01006300326A
:0101000032CC
:0101040032C8
:0101080032C4
:01010C0032C0
:0101100032BC
:0101140032B8
:0101180032B4
:0101200032AC
:0101240032A8
:0101280032A4
:01012C0032A0
:01013000329C
:010134003298
:010138003294
:01013C003290
:01014000328C
:010148003284
:01014C003280
:01015000327C
:010154003278
:010158003274
:01015C003270
:01016000326C
:01017000325C
:010174003258
:010178003254
:01017C003250
:01018000324C
:010184003248
:010188003244
:01018C003240
:01019000323C
:010194003238
:010198003234
:01019C003230
:0101A000322C
:0101A8003224
:0101AC003220
:0101B000321C
:0101B4003218
:0101B8003214
:010264002277
:08026500AA82AB837C007D003E
:0B026D00C3EC9AED9B50147EB07F04A0
:050278001EBEFF011F86
:0B027D00EE4F70F70CBC00E80D80E5B0
:010288002253
:08028900AA82AB837C007D001A
:0B029100C3EC9AED9B50147E0A7F0026
:05029C001EBEFF011F62
:0B02A100EE4F70F70CBC00E80D80E58C
:0102AC00222F
:0E02AD0075AF0790E67BE090E67CF0DAF32276
:0102BB002220
:0202BC007A00C6
:0302BE00BAFF0084
:0D02C100500B90E678E0FB20E0030A80F08F
:0C02CE0090E678E0FA20E204EA20E10B60
:0B02DA0090E678E04440F075820122BD
:0402E50075820022FC
:0202E9007A0099
:0302EB00BAFF0057
:0D02EE00500B90E678E0FB20E0030A80F062
:0E02FB0090E678E0FA30E20B90E678E04440BE
:05030900F075820122E5
:04030E0075820022D2
:020312007A006F
:03031400BAFF002D
:0E031700500F90E678E0FB20E2047582002291
:030325000A80EC5F
:0403280075820122B7
:02032C007A0055
:03032E00BAFF0013
:0E033100500F90E678E0FB20E6047582002273
:03033F000A80EC45
:04034200758201229D
:09034600AA82C3E49521E433FB13
:0E034F0090E678E04480F0C002C00312031272
:0E035D00D003D00290E679EAF0C002C003128D
:0C036B0002BCE582D003D0027012E52233
:0C037700600A90E678E04440F012032C8D
:04038300758200225D
:0E038700EB601090000AC002C003120289D081
:0503950003D00280B559
:0C039A00E522600890E678E0FA4440F0AC
:0403A6007582012239
:0C03AA00AA82AB837C00E5257003F5827D
:0103B6002224
:0A03B7007521647522007582A2C052
:0E03C10002C003C004120346E582D004D0033C
:0703CF00D00260030204B03C
:0C03D60090E679E524F0C002C003C004EA
:0E03E2001202BCE582D004D003D002600302F8
:0203F00004B057
:0C03F20090E679E523F0C002C003C004CF
:0E03FE001202BCE582D004D003D002600302DC
:02040C0004B03A
:0E040E0090E678E04440F0C002C003C0041243
:0D041C00032C90E678E04480F0120312906B
:0E042900E67974A3F01202BCE582D004D00381
:0E043700D002707590E679E08A828B83F0C067
:0E04450002C003C0041202E9E582D004D00315
:05045300D0027059FD0C
:0C045800C3ED9525502A90E679E08A82D9
:0E0464008B83F0A3AA82AB83C002C003C00446
:0E047200C0051202E9E582D005D004D003D007
:0804800002702D0D8D0480D0E7
:0E04880090E678E04420F090E679E0C004129F
:0E04960002E9E582D004701290E678E044405E
:0C04A400F090E679E0C00412032CD004B4
:0304B0008C822219
:0A04B300AA82AB837C0075216475FA
:0C04BD0022007582A2C002C003C004121D
:0D04C9000346E582D004D003D00260030298
:0204D6000569B6
:0C04D80090E679E527F0C002C003C004E4
:0E04E4001202BCE582D004D003D002600302F5
:0204F20005699A
:0C04F40090E679E526F0C002C003C004C9
:0E0500001202BCE582D004D003D002705CFD74
:0C050E00C3ED952850478A828B83E0FEE5
:0E051A00A3AA82AB8390E679EEF0903A04E05B
:0D052800FFEE2FF0903A02E0FEA3E0FF90FE
:0E0535003A0274012EF0E43FA3F0C002C003AE
:0E054300C004C0051202BCE582D005D004D071
:0A05510003D00270130D8D0480B377
:0E055B0090E678E04440F0C00412032CD00477
:030569008C82225F
:0A056C00903A39E0FA903A00E0F509
:0605760023A3E0F5248A36
:0C057C002590E740C0021203AAAB82D019
:0E058800027C00903A00E0FDA3E0FE903A00F5
:0A059600EA2DF0EC3EA3F08B822268
:0B05A000AA82903A00E0F526A3E0F5E7
:0905AB00278A2890E740C00212E3
:0E05B40004B3D0027B00903A00E0FCA3E0FD0F
:0B05C200903A00EA2CF0EB3DA3F02281
:0205CD00AA8200
:0805CF00D2A500C2A5DAF92251
:0E05D700A2A4D2A533C2A5A2A4D2A533C2A568
:0E05E500A2A4D2A533C2A5A2A4D2A533C2A55A
:0E05F300A2A4D2A533C2A5A2A4D2A533C2A54C
:0E060100A2A4D2A533C2A5A2A4D2A533C2A53D
:07060F00F582227582002232
:02061600AA0830
:0E061800A2A4D2A533C2A5A2A4D2A533C2A526
:0E062600A2A4D2A533C2A5A2A4D2A533C2A518
:0E063400A2A4D2A533C2A5A2A4D2A533C2A50A
:0E064200A2A4D2A533C2A5A2A4D2A533C2A5FC
:05065000F0A3DAC42252
:0E065500E5823392A6D2A533C2A592A6D2A505
:0E06630033C2A592A6D2A533C2A592A6D2A5F7
:0E06710033C2A592A6D2A533C2A592A6D2A5E9
:0E067F0033C2A592A6D2A533C2A592A6D2A5DB
:04068D0000C2A522E0
:02069100AA08B5
:0E069300E03392A6D2A533C2A592A6D2A5331B
:0E06A100C2A592A6D2A533C2A592A6D2A533B9
:0E06AF00C2A592A6D2A533C2A592A6D2A533AB
:0E06BD00C2A592A6D2A533C2A592A6D2A5A32D
:0506CB00C2A5DAC42203
:0D06D000903A0C7403F043A0407A007B00C8
:0E06DD00C002C0031205D7AC82D003D002BC0D
:0406EB00FF0280206A
:0E06EF008A048B057E007F00C3EC94FFED941F
:0E06FD00FFEE9400EF6480948050070ABA006C
:04070B00D10B80CEC0
:0E070F00E5A030E409903A0CE4F07582002277
:04071D0075820122BE
:0D07210043A0807582081205CD53A07F0211
:02072E0006D0F3
:0E07300043A0407582081205CD43A08075825B
:04073E00080205CDDB
:0507420043A0407A55C0
:0A0747001205D7E58230E702DAF66A
:0B075100903A0EF0F582227582002223
:07075C0043A0407A007B007E
:0E076300C002C0031205D7AC82D003D002BC86
:04077100FE02800DF7
:050775000ABA00010BAF
:08077A00EA4B70E575820122D3
:04078200758200225A
:0E078600AA82AB83ACF0FDE5A020E7047582EB
:0207940004223D
:0E079600C002C003C004C005120721E582D0D6
:0E07A40005D004D003D0026007120730758222
:0207B200032220
:0E07B400758208C002C003C004C0051205CD46
:0E07C200D005D004D003D002903A0D7412F08E
:0E07D000903A107452F0903A0FE0FE7028EA52
:0E07DE002AFAEB33FBEC33FCED33FD8C069076
:0E07EC003A11EEF08B06903A12EEF08A06906B
:0B07FA003A13EEF0903A14E4F0801A7D
:0E0805008D06903A11EEF08C06903A12EEF04D
:0C0813008B06903A13EEF0903A14EAF0D5
:0A081F00903A157401F07508069078
:060829003A1012069112C4
:0A082F000742903A0EE0FA6007124B
:0608390007307582012268
:0E083F0012075CE58260071207307582022204
:04084D00758200228E
:0E0851007582101205CD12075CE58260071259
:06085F0007307582022241
:040865007582002276
:04086900AA82AB8331
:0E086D00C374209AE49B5018758200C002C02C
:0E087B00031205CDD003D002EA24E0FAEB34DC
:04088900FFFB80E011
:0E088D00EA4B600AEAC40354F8F5821205CD66
:0D089B007582101205CD7582081205CD90F2
:0C08A8003A0D740CF0903A10744CF09073
:0908B4003A11E4F0903A12F090C0
:0808BD003A13F0903A14F09098
:0908C5003A157401F07508069063
:0608CE003A10120691121F
:0908D40007427582081205CD02ED
:0208DD000730E2
:0E08DF00AA82AB83ACF0FDE5A020E704758291
:0208ED000422E3
:0E08EF00C002C003C004C005120721E582D07C
:0E08FD0005D004D003D00260071207307582C8
:02090B000322C5
:0E090D00758208C002C003C004C0051205CDEB
:0E091B00D005D004D003D002903A0D7419F02C
:0E092900903A107459F0903A0FE0FE7028EAF0
:0E0937002AFAEB33FBEC33FCED33FD8C06901B
:0E0945003A11EEF08B06903A12EEF08A069010
:0B0953003A13EEF0903A14E4F0801A22
:0E095E008D06903A11EEF08C06903A12EEF0F3
:0C096C008B06903A13EEF0903A14EAF07B
:0A097800903A157401F0750806901E
:060982003A10120691126A
:0A0988000742903A0EE0FA600712F1
:060992000730758201220E
:0D09980043A0407582081205CD7582FC1247
:0609A500065575820022D8
:0709AB00AA82AB8353A0BF39
:0E09B200C374209AE49B5018758200C002C0E6
:0E09C000031205CDD003D002EA24E0FAEB3496
:0409CE00FFFB80E0CB
:0E09D200EA4B600AEAC40354F8F5821205CD20
:0E09E00043A0407582101205CD1205D7E582A6
:0809EE00540FFABA050280481B
:0D09F600903A0C7406F07582081205CD9041
:0C0A03003A0D740CF0903A10744CF09016
:090A0F003A11E4F0903A12F09063
:080A18003A13F0903A14F0903B
:090A20003A157401F07508069006
:060A29003A1012069112C2
:090A2F0007427582081205CD1280
:060A380007307582062262
:040A3E00758200229B
:0D0A42001206D07582FD120655758208124D
:050A4F0005CD02073097
:090A54001206D07582FC02065561
:0E0A5D00903A057401F0903A06E4F0A374029A
:0E0A6B00F0903A0FE4F043B4E053B4EF43A030
:0E0A79004043A0807582001205CD1207219027
:0C0A87003A0C7403F07582081205CD9043
:0B0A93003A0DE4F0903A107440F0902F
:090A9E003A11E4F0903A12F090D4
:080AA7003A13F0903A14F090AC
:090AAF003A157495F075080690E3
:060AB8003A101206911233
:0E0ABE000742903A0EE0FA7B0054FE7003EB04
:020ACC00604B7D
:0D0ACE009000321202657582081205CD906D
:0B0ADB003A0DE4F0903A107440F090E7
:090AE6003A11E4F0903A12F0908C
:080AEF003A13F0903A14F09064
:090AF7003A157495F0750806909B
:060B00003A1012069112EA
:0E0B06000742903A0EE0FA7B0054FE7003EBBB
:020B140060037C
:030B1600020F03C8
:0D0B19007582081205CD903A0D7408F09019
:0B0B26003A107448F0903A11E4F0908F
:0A0B31003A12F0903A137401F090AC
:0C0B3B003A1474AAF0903A157487F07513
:060B47000806903A1012AE
:060B4D0006911207429020
:0D0B53003A0EE0FA20E235EA54FE6003029B
:020B60000F0381
:070B6200750804903A10121F
:0E0B69000616903A12E0FA53020FBA010A90F3
:090B77003A13E0FABAAA0280095F
:090B8000903A0C7407F0020F0911
:060B8900903A0F7401F028
:090B8F00903A0FE0FA6002744094
:0E0B9800FA758208C0021205CD903A0D74372E
:0D0BA600F0903A107477F0903A11E4F0905E
:080BB3003A12F0903A13F090A1
:0A0BBB003A14F0903A157401F07539
:060BC5000806903A101230
:080BCB000691120742D00290CE
:0E0BD3003A0EE0FB54FE703E758208C002121E
:0B0BE10005CDD002903A0D7429F09071
:0B0BEC003A107469F0903A11EAF090A2
:090BF7003A12E4F0903A13F09078
:0A0C00003A14F0903A157401F075F3
:080C0A000806903A10C0021226
:070C12000691120742D00217
:0A0C1900903A0EE0FB5303FE7C004E
:0B0C2300903A0EE0FDBD0003020D231F
:030C2E00BCFF0008
:050C31004003020D2349
:0E0C3600900004C002C003C004120265D00486
:0E0C4400D003D002EB6051758208C002C003DD
:0E0C5200C0041205CDD004D003D002903A0D9C
:0E0C60007401F0903A107441F0903A11EAF0ED
:0A0C6E00903A12E4F0903A13F0906F
:0A0C78003A14F0903A1574FFF0757D
:0C0C82000806903A10C002C003C0041223
:0C0C8E000691120742D004D003D00202ED
:020C9A000D1F2C
:0D0C9C00758208C002C003C0041205CD908F
:0C0CA9003A0D7437F0903A107477F09018
:090CB5003A11E4F0903A12F090BB
:080CBE003A13F0903A14F09093
:090CC6003A157401F0750806905E
:060CCF003A10120691121A
:0E0CD50007427582081205CDD004D003D0026C
:0D0CE300903A0D7429F0903A107469F09069
:0A0CF0003A11EAF0903A12E4F09095
:080CFA003A13F0903A14F09057
:090D02003A157401F07508069021
:0C0D0B003A10C002C003C004120691128E
:080D17000742D004D003D00212
:040D1F000C020C2393
:0A0D2300903A0EE0FA6003020F039D
:0E0D2D00903A0FE0FA60557582081205CD90DD
:0C0D3B003A0D743AF0903A10747AF0907F
:090D47003A11E4F0903A12F09028
:080D50003A13F0903A14F09000
:090D58003A157401F075080690CB
:060D61003A101206911287
:0A0D67000742903A0EE0FA60030222
:020D71000F036E
:070D7300750804903A10120C
:0B0D7A000616903A10E0FA20E6059003
:040D85003A0FE4F04D
:0D0D89007582081205CD903A0D7409F090A6
:0B0D96003A107449F0903A11E4F0901C
:080DA1003A12F0903A13F090B1
:0A0DA9003A14F0903A157401F07549
:060DB3000806903A101240
:060DB90006911207421230
:0D0DBF00075CE5826009903A0C7402F002B6
:020DCC000F090D
:070DCE00750810903A1012A5
:090DD50006167582101205CD907E
:0E0DDE003A10E0FA5302C0903A10EAF0EA54DC
:060DEC00C06003020E745A
:0E0DF200903A15E0FA53020F903A1AE023549B
:0E0E000001FB903A19E0540325E04B2A24F937
:0E0E0E00FA903A18E023235403FB903A17E0C1
:0E0E1C00FCE4CC25E0CC33CC25E0CC33FD7ECD
:0E0E2A0000EB4204EE4205903A16E05403FB42
:0E0E38002B25E0FEE4FB4204EE42050CBC005C
:020E4600010D9C
:0C0E4800ED3395E0FBFE8AF005F0800C15
:0C0E5400EC2CFCED33FDEB33FBEE33FE29
:0E0E6000D5F0F1903A08ECF0A3EDF0A3EBF022
:060E6E00A3EEF0020EFBF2
:0E0E7400903A10E0FA5302C0BA4074903A1758
:0E0E8200E0FA53023F7B008B058A047B007A66
:0E0E900000903A18E0FF7E003395E0F8F9EE8E
:0E0E9E004202EF4203E84204E94205903A198D
:0E0EAC00E0FEE4FFF8F9EE4202EF4203E842F6
:0E0EBA0004E942050ABA00090BBB00050CBC96
:030EC80000010D19
:0E0ECB00EB2BCC33CC25E0CC33FDEA2A25E01E
:0E0ED900FBEA232354034CFC7A00903A08EA0B
:0C0EE700F0A3EBF0A3ECF0A3EDF080080A
:080EF300903A0C7407F0800E28
:080EFB00903A0CE4F00207300C
:060F0300903A0C7401F0AD
:080F0900903A05E4F002073004
:0D0F1100903A20E0FA6050903A20E4F0128F
:0E0F1E00075CE5826044903A0C7402F0758224
:0B0F2C00081205CD903A0D740CF090F7
:0B0F37003A10744CF0903A11E4F09076
:080F42003A12F0903A13F0900E
:0A0F4A003A14F0903A157401F075A6
:060F54000806903A10129D
:090F5A000691120742758208128B
:050F630005CD0207307E
:0A0F6800903A39E0F50890E74012D6
:0E0F72000616903A37E0FAA3E0FB4A70447589
:0C0F800082101205CD7582081205CD907C
:0C0F8C003A0D740CF0903A10744CF09088
:090F98003A11E4F0903A12F090D5
:080FA1003A13F0903A14F090AD
:090FA9003A157401F07508069078
:060FB2003A101206911234
:090FB80007427582081205CD0202
:020FC1000730F7
:070FC300EA7004EB30E001CD
:010FCA002204
:0D0FCB007582101205CD903A207401F022BD
:0D0FD800903A20E0FA600E903A20E4F0120A
:080FE50006D07582FC120655CE
:0A0FED00903A39E0F50890E7401251
:0E0FF7000691903A37E0FAA3E0FBEA7004EBB3
:0310050030E001D7
:0110080022C5
:0E10090043A0407582101205CD1205D7E58276
:08101700540FFABA05028044EF
:0D101F00903A0C7406F07582081205CD9011
:0C102C003A0D740CF0903A10744CF090E7
:091038003A11E4F0903A12F09034
:081041003A13F0903A14F0900C
:091049003A157401F075080690D7
:061052003A101206911293
:0910580007427582081205CD1251
:02106100073056
:0E106300903A37E0FAA3E0FB4A6007903A208B
:041071007401F022F4
:0D1075001206D07582FD1206557582081214
:0510820005CD0207305E
:0E10870043B202E582C281C28013D280928100
:0E109500C28013D2809281C28013D2809281D9
:0E10A300C28013D2809281C28013D2809281CB
:0E10B100C28013D2809281C28013D2809281BD
:0E10BF00C28013D2809281C28013D280A2D050
:0E10CD009281C280D280D281C280D280C28045
:0310DB00D280229E
:0910DE0053B2FDC280D280A900CA
:0A10E700A2815006C280D280D9F623
:0E10F100C280D280A28113C280D280A281135D
:0E10FF00C280D280A28113C280D280A281134F
:0E110D00C280D280A28113C280D280A2811340
:0E111B00C280D280A28113C280D280A2811332
:0D112900C280D280A281400520D018800332
:0311360030D013A3
:0E113900C280D280A281500FC280D280A281DB
:05114700500BF58222AF
:04114C00C280D2800B
:04115000C280D28007
:0A115400903A217401F07582002228
:0E115E005380FD43800143B203438002000032
:06116C00000000007A0003
:03117200BA1000B0
:0B11750050095380FE4380010A80F205
:0C1180007582C21210877582020210876F
:0E118C0075820C1210877582CF121087758243
:0E119A000112108775820012108775820112F3
:0511A80010870210DEBB
:0411AD007A007B0049
:0E11B1008A048B057E007F00C3EC9440ED9411
:0E11BF009CEE9400EF64809480501FC002C02C
:0E11CD000312118CE582D003D00230E70790A8
:0611DB003A21E0FC600176
:0111E10022EB
:0711E2000ABA00CB0B80C824
:0711E900903A217405F02289
:0D11F00012115E7582C112108775825912AE
:0C11FD0010877582E01210877582FF12C7
:0C12090010877582881210877582D81239
:0C12150010877582CD121087758245127B
:0C12210010877582AB121087758289124D
:0A122D0010877582121210877A00F4
:0E123700758280C0021210871210DEE582D090
:0D124500025402FB7007903A21E0FB6004A8
:041252007B0080029B
:021256007B011A
:071258000AEA6003EB70D805
:09125F00EB6006903A217402F0E4
:011268002263
:0E126900AA8275824CC002121087D0028A82BF
:0D1277001210877582011210877582001217
:09128400108775820112108785A4
:05128D00298202108718
:0D1292007582C112108775820012108775D9
:0C129F0029007582CA1212695380FD43B9
:0312AB008001229D
:0C12AE007529007582CA1212695380FD78
:0412BA00438001224A
:0C12BE00AA82AB83E52EFC7003F58222AF
:0C12CA007529437582CAC002C003C0042D
:0A12D60012126975826B121087ADC9
:0712E0002A8D8212108785A0
:0612E7002B821210878526
:0612ED002C82121087851F
:0912F3002D821210877582A012F1
:0E12FC001087D004EC14F582C0041210877520
:0D130A008224121087D004D003D0028C057D
:0E131700ED602A903A21E0FE7023C002C00370
:0E132500C004C0051210DEAE82D005D004D088
:0E13330003D0028A828B83EEF0A3AA82AB83E2
:031341001D80D339
:06134400ECC39DF58222BE
:08134A00AA82E535FB700122C7
:0C1352008A297582CAC0031212697582D4
:09135E006B121087AA318A821279
:061367001087853282129E
:06136D0010878533821297
:0613730010878534821290
:0E13790010877582A0121087D003EB14F58246
:0E138700C003121087758264121087D003AA6B
:031395002FAC304A
:0E139800EB601F8A828C83E0FDA3AA82AC83E7
:0E13A6008D82C002C003C004121087D004D094
:0613B40003D0021B80DEE5
:0113BA002210
:0C13BB008582297582CA12126975824C65
:0813C700121087AA368A821277
:0613CF0010878537821231
:0613D5001087853882122A
:0613DB0010878539821223
:0913E100108775820012108702CA
:0213EA0011AD43
:0B13EC00AA8275294C7582CAC002124B
:0E13F700126975824C121087D00274204AF5DC
:0E1405008212108775820012108775828F1276
:0914130010877582001210878514
:06141C003A821210870263
:0214220011AD0A
:0D14240043B2019000141202895380FE9023
:091431000005120289438001222A
:0C143A00903A28E4F0903A22F0A3F090E1
:0E1446003A247440F0E4A3F0903A277405F0C5
:0A145400903A267409F01211F0908E
:07145E003A21E0FA600122CF
:07146500752A90752B00753C
:06146C002C00752D017536
:061472002E03903A301237
:0A14780012BE903A21E0FA60012252
:0D148200121292903A30E0FABA1E02800772
:07148F00903A217403F022E2
:0A149600903A31E0FAE4BA9701043D
:0E14A000FB6019903A32E0FCBC4C11903A22ED
:0E14AE007410F0A37401F0903A2F7482F022B3
:0E14BC00EB6019903A32E0FBBB4E11903A22E1
:0E14CA007490F0A37401F0903A2F7483F02216
:0E14D800BA9822903A32E0FABA461A903A22B6
:0E14E6007410F0A37402F0903A247480F0E4C5
:0914F400A3F0903A2F7484F02259
:0714FD00903A217403F02274
:0A150400903A39E0FA7003F58222F4
:0E150E00C0021211F0D002903A21E0FBB401AD
:01151C0000CE
:0C151D00E433FB6022903A2BE0F52AA397
:0A152900E0F52BA3E0F52CA3E0F59C
:091533002D8A2E90E740C002123F
:08153C0012BEAB82D002800256
:021544007B002A
:0A1546008B3BC002121292D00290FB
:0E1550003A2BE0FCA3E0FDA3E0FEA3E0FF7851
:0E155E000079007B00903A2BEA2CF0E83DA3C8
:0C156C00F0E93EA3F0EB3FA3F0853B82CA
:011578002250
:0D157900903A39E0FAC0021211F0D0029051
:071586003A21E0FB600122A5
:07158D00752F407530E79057
:081594003A2BE0F531A3E0F56C
:08159C0032A3E0F533A3E0F5F2
:0915A400348A35758223C002125D
:0E15AD00134AD002903A37E0FBA3E0FC4B70EB
:0E15BB0036903A2BE0FBA3E0FCA3E0FDA3E09A
:0E15C900FE8D07903A2FE0F8C3EF9850047F94
:0315D7002580026A
:0215DA007F2D63
:0515DC008B368C378DF9
:0815E100388E398F82C002121E
:0915E90013BB121292D00280071C
:0715F200C0021212AED0028C
:0E15F900903A2BE0FBA3E0FCA3E0FDA3E0FE94
:0E1607007F0078007900903A2BEA2BF0EF3C40
:0B161500A3F0E83DA3F0E93EA3F022A3
:01006C00286B
:01006D000191
:04006E005A54455843
:040072000A1E000062
:010076000089
:010077000187
:060078001500000000006D
:0C007E0000000000000000000000000076
:0A008A00303030303030303030308C
:0116200022A7
:0E16210090E683E4F07420F07410F07430F062
:0E162F0090E6837401F07421F07411F07431B0
:02163D00F02299
:0A163F00AA82E50924E050037509B2
:011649001F81
:0D164A0090E6BFE0701090E6BEE0FBC39597
:0916570009500690E6BEE0F50919
:0C16600075AF078A9B85089A759E41753E
:0A166C009DE790E67C7403F07A001D
:0C167600C3EA9509501190E67BE0FB9060
:0B168200E67CF090E67CE4F00A80E9D2
:0B168D00E5090425E0FA90E740F0902A
:0E169800E7417403F090E68AE4F090E68BEAF6
:0216A600F02230
:0E16A800903A37E0FAA3E0FBC374409AE49B4B
:0816B60050067C407D00800419
:0416BE008A048B050A
:0E16C200903A39ECF07D00903A37EAC39CF084
:0516D000EB9DA3F022D8
:0A16D500903A3AE0FABA3902802098
:0516DF00BA4202803F49
:0616E400BA49030217FCE5
:0616EA00BA4B030217FFDA
:0616F000BA4C0302186C65
:0616F600BA4D03021925A4
:0316FC0002196B65
:0E16FF00903A04E4F0903A02F0A3F090E6BBBB
:0E170D00E0FB7A0090E6BAE0FC7D00903A0026
:08171B00EC4AF0ED4BA3F022B3
:0E172300E5A020E715903A0C7404F090E6A0C3
:0C173100E04401F0903A37E4F0A3F0220D
:0E173D00120721E582601212073090E6A0E04C
:0B174B004401F0903A37E4F0A3F022D4
:0D1756007582081205CD903A0D7419F090BF
:0D1763003A107459F0903A0FE0FA6003025A
:021770001795CB
:0E177200C390E6BAE0903A1333F090E6BBE085
:0E178000903A1233F090E6BCE0903A1133F04C
:07178E00903A14E4F0802101
:0D17950090E6BDE0903A11F090E6BCE090C7
:0E17A2003A12F090E6BBE0903A13F090E6BAEF
:0617B000E0FA903A14F08B
:0A17B600903A157401F075080690D2
:0617C0003A10120691121E
:0A17C6000742903A0EE0FA60189016
:0E17D0003A0C7401F012073090E6A0E04401DC
:0917DE00F0903A37E4F0A3F02288
:0D17E70043A0407582081205CD7582FC12EA
:0817F4000655903A20E4F022B2
:0317FC00021424B0
:0E17FF0090E6BAE0FAA3E0FBA3E0FCA3E0FD55
:0E180D00903A2BEAF0A3EBF074802CA3F0E4E9
:0E181B003DA3F090E6BAE0703390E6BBE0FA31
:0E18290020E02B90E6BFE0FABA022390E6BE64
:0E183700E0701D90E6BBE0FAA3E0C313CA13F5
:0E184500CAFB903A22E0FCA3E0FDC3EA9CEB54
:041853009D50012281
:0E185700903A217404F090E6A0E04401F09075
:071865003A37E4F0A3F02282
:0E186C0090E6BAE0FAA3E0FBA3E0FCA3E0FDE7
:0E187A00903A2BEAF0A3EBF0748C2CA3F0E470
:0E1888003DA3F090E6BAE0FA541F60028033F0
:0E18960090E6BFE0702D90E6BEE0FABA202585
:0E18A40090E6BAE0FAA3E0C403CAC4035407F6
:0E18B2006ACA5407CA6ACAFB903A24E0FCA333
:0918C000E0FDC3EA9CEB9D40151C
:0E18C900903A217404F090E6A0E04401F09003
:0718D7003A37E4F0A3F02210
:0B18DE001211F0903A21E0FA600122A4
:0718E900752F407530E790F8
:0818F0003A2BE0F531A3E0F50D
:0818F80032A3E0F533A3E0F593
:081900003475352075823312A5
:07190800134A903A2BE0F5B1
:08190F0036A3E0F537A3E0F573
:0919170038A3E0F53975823512A0
:0519200013BB0212924E
:0D19250090E6BEE0701590E6BFE0700F90F8
:0E193200E6BDE0700990E6BCE0FA24F850151E
:0E194000903A217404F090E6A0E04401F0908B
:07194E003A37E4F0A3F02298
:0D1955001211F090E6BCE0FA90E6BAE0F561
:071962003A8A821213EC0225
:021969001292D8
:08196B0090E6A0E04401F02227
:0C197300C020C0E0C0F0C082C083C002F1
:0E197F00C003C004C005C006C007C000C00100
:0E198D00C0D075D00090E6B9E0FA903A3AF07A
:0E199B0090E6B57401F090E6B9E0FA24F3503E
:0419A90003021D29EF
:0719AD00EA2A2A9019B47325
:0719B4000219DB021A8F0289
:0619BB001D29021B0C02B5
:0619C1001D29021D290290
:0619C7001BA4021CBF027C
:0619CD001CC1021CD20245
:0619D3001CD7021CE80213
:0219D9001CED03
:0A19DB0090E6B8E0FABA8002800D31
:0519E500BA8102801E22
:0519EA00BA8202802F0B
:0319EF00021D29AD
:0E19F20090E740E4F090E741F090E68AF09034
:081A0000E68B7402F0021D29BF
:0E1A080090E740E4F090E741F090E68AF0901D
:081A1600E68B7402F0021D29A9
:0C1A1E0090E6BCE0FA600FBA01028019EB
:051A2A00BA80028005F6
:051A2F00BA812F801EAA
:0E1A340090E6A0E0FA53020190E740EAF0804D
:011A42003A69
:0E1A430090E6A1E0FA53020190E740EAF0803D
:011A51002B69
:0E1A520090E6A2E0FA53020190E740EAF0802D
:011A60001C69
:0E1A610090E6BCE0C31314540324A3F582E402
:0E1A6F0034E6F583E0FA53020190E740EAF016
:0E1A7D0090E741E4F090E68AF090E68B740268
:041A8B00F0021D291F
:0A1A8F0090E6B8E0FABA0202800304
:031A9900021D2902
:091A9C0090E6BAE06003021D2986
:0C1AA50090E6BCE0FA600FBA0102801568
:051AB100BA800280056F
:051AB600BA8123801637
:0B1ABB0090E6A0E0FA54FEF0021D29A6
:0B1AC60090E6A1E0FA54FEF0021D299A
:0B1AD10090E6A2E0FA54FEF0021D298E
:0E1ADC0090E6BCE0C31314540324A3FAE434D0
:0E1AEA00E6FB90E6BCE0C31314540324A3F5FE
:0E1AF80082E434E6F583E0FC5304FE8A828B20
:061B060083ECF0021D2932
:0A1B0C0090E6B8E0FABA0202800386
:031B1600021D2984
:091B190090E6BAE06003021D2908
:0C1B220090E6BCE0FA600FBA01028014EB
:051B2E00BA80028005F1
:051B3300BA81208014BE
:0A1B380090E6A0E0FA4401F08041BD
:0A1B420090E6A1E0FA4401F08037BC
:0A1B4C0090E6A2E0FA4401F0802DBB
:0E1B560090E6BCE0C31314540324A3FAE43455
:0E1B6400E6FB90E6BCE0C31314540324A3F583
:0E1B720082E434E6F583E0FC4304FE8A828BB5
:031B800083ECF003
:0E1B830090E6BCE05480C423541FFA90E6BCE8
:0E1B9100E0FB740F5B420290E683EAF07420E2
:051B9F004AF0021D29BF
:0A1BA40090E6BBE0FABA01028019D6
:051BAE00BA02028026CE
:051BB300BA0302804DA1
:061BB800BA0603021C78CE
:061BBE00BA0703021C8AB5
:031BC400021CB54B
:0A1BC7007A087B2790E6B3EBF0905C
:081BD100E6B47408F0021D29BE
:0B1BD90090E680E0FA30E7127A247BEF
:0A1BE4002790E6B3EBF090E6B4742E
:051BEE0024F0021D2996
:0A1BF3007A467B2790E6B3EBF090F2
:081BFD00E6B47446F0021D2954
:0A1C050090E6BAE0FABA0102800F7F
:051C0F00BA0202801C76
:051C1400BA0302802963
:051C1900BA044A803608
:061C1E007582E37AE37B0E
:041C2400268B08758E
:061C2800090512163F023F
:021C2E001D296E
:061C30007582E87AE87BF2
:041C3600268B08757C
:061C3A00091712163F021B
:021C40001D295C
:0A1C420075828A7A8A7B008B087590
:061C4C00090A12163F0216
:021C52001D294A
:061C54007582FF7AFF7BA0
:041C5A00268B087558
:061C5E00090812163F0206
:021C64001D2938
:0A1C66007A687B2790E6B3EBF0905C
:081C7000E6B47468F0021D29BE
:0A1C78007A1A7B2790E6B3EBF09098
:081C8200E6B4741AF0021D29FA
:0B1C8A0090E680E0FA30E7127A467B1B
:0A1C95002790E6B3EBF090E6B4747C
:051C9F0046F0021D29C2
:0A1CA4007A247B2790E6B3EBF09062
:071CAE00E6B47424F0807419
:0A1CB50090E6A0E0FA4401F0806A16
:021CBF0080683B
:0E1CC10090E740E4F090E68AF090E68B740124
:031CCF00F080574B
:051CD2001216218052F2
:0E1CD70090E740E4F090E68AF090E68B74010E
:031CE500F080414B
:051CE800121621803CF2
:0E1CED0090E6B8E0FABA823490E6BCE0C31389
:0B1CFB0014540325E0243CF582E4347F
:0C1D06003AF583E4F0A3F090E685E0904D
:0D1D1200E740F090E684E0FA90E741F090A1
:0A1D1F00E68AE4F090E68B7402F00F
:0B1D290090E6B8E0FABA400302207B0D
:051D3400BAC0028003AB
:031D39000220A5E0
:0E1D3C0090E6BFE0FB7A0090E6BEE0FC7D0082
:0E1D4A00903A37EC4AF0ED4BA3F01216A89039
:091D5800E6B9E0FABA2202803D6E
:051D6100BA38028055B4
:051D6600BA3A02807989
:061D6B00BA4003021E2332
:061D7100BA4103021E4905
:061D7700BA4303021F49FC
:061D7D00BA4803021FCD6D
:061D8300BA4A03021FF33F
:061D8900BA4B03021FF338
:061D8F00BA4C03021FF331
:061D9500BA4D03021FF32A
:031D9B00022071B2
:0E1D9E0090E6B5E4F090E68AF090E68B7428AB
:0D1DAC00F090E6B3E4F090E6B4746CF00241
:021DB90020A563
:0E1DBB0090E6BBE0FB7A0090E6BAE0FC7D000B
:0E1DC900903A00EC4AF0ED4BA3F090E68AE46D
:0D1DD700F012056CE58290E68BF00220A56D
:0E1DE400903A02E0FAA3E0FB8A0490E740EC9C
:0D1DF200F08B0290E741EAF0903A04E09097
:0A1DFF00E742F0752100752201751E
:0D1E090082A2120346AA8290E743EAF090FD
:0D1E1600E68AE4F090E68B7404F00220A54B
:061E2300759B057A057BAA
:0C1E29003A8B9A759E40759DE7C0027AC6
:0E1E3500081202ADD00290E68AE4F090E68B2F
:061E43007408F00220A566
:0E1E4900E5A020E718903A0C7404F090E6A093
:0D1E5700E0FA4401F0903A37E4F0A3F00205
:021E640020A5B7
:0E1E6600120721E582601512073090E6A0E019
:0E1E7400FA4401F0903A37E4F0A3F00220A502
:0D1E82007582081205CD903A0D7412F09093
:0D1E8F003A107452F0903A0FE0FA6003022E
:021E9C001EC165
:0E1E9E00C390E6BAE0903A1333F090E6BBE052
:0E1EAC00903A1233F090E6BCE0903A1133F019
:071EBA00903A14E4F08021CE
:0D1EC10090E6BDE0903A11F090E6BCE09094
:0E1ECE003A12F090E6BBE0903A13F090E6BABC
:061EDC00E0FA903A14F058
:0A1EE200903A157401F0750806909F
:061EEC003A1012069112EB
:0A1EF2000742903A0EE0FA601B90E0
:0E1EFC003A0C7401F012073090E6A0E0FA44B0
:0C1F0A0001F0903A37E4F0A3F00220A5AB
:0A1F1600903A207401F0120F1190B0
:0E1F20003A0CE0FA601290E6A0E0FA4401F0FC
:0A1F2E00903A37E4F0A3F00220A57A
:0E1F380090E68AE4F0903A39E0FA90E68BF0F9
:031F46000220A5D1
:061F4900759B0C7A0C7B75
:0C1F4F003A8B9A759E427A427BE78B9D8C
:0E1F5B00C0027A141202ADD002741055A0FA22
:051F6900E4BA000104D0
:0E1F6E0090E756F01207217582081205CD90FB
:0C1F7C003A0D740DF0903A10744DF09086
:091F88003A11E4F0903A12F090D5
:081F91003A13F0903A14F090AD
:091F99003A157401F07508069078
:061FA2003A101206911234
:0B1FA8000742903A0EE090E740F01274
:0D1FB30005D7AA8290E741EAF012073090AE
:0D1FC000E68AE4F090E68B7417F00220A58D
:061FCD00759B217A217BC7
:0C1FD3003A8B9A759E40759DE7C0027A1B
:0E1FDF00071202ADD00290E68AE4F090E68B85
:061FED007407F00220A5BC
:0E1FF30090E6BAE0FAA3E0FBA3E0FCA3E0FD59
:0E200100903A2BEAF0A3EBF0A3ECF0A3EDF085
:0E200F0090E6B9E0FEBE4B13903A2BEAF0A328
:0D201D00EBF074802CA3F0E43DA3F08037BD
:0E202A0090E6B9E0FEBE4C13903A2BEAF0A30C
:0D203800EBF0748C2CA3F0E43DA3F0801CB1
:0E20450090E6B9E0FEBE4D14903A2B74202AAE
:0E205300F0E43BA3F0748F3CA3F0E43DA3F057
:0E20610090E68AE4F0121504E58290E68BF01A
:02206F008034BB
:0A20710090E6A0E0FA4401F0802A96
:0C207B0090E6BFE0700690E6BEE0601644
:0E208700903A3B7401F090E68BE4F05391EF39
:0820950090E65D7401F0801972
:08209D001216D590E68BE4F069
:0E20A5005391EF90E65D7401F090E6A0E0FA32
:0320B3004480F076
:0E20B600D0D0D001D000D007D006D005D00485
:0D20C400D003D002D083D082D0F0D0E0D085
:0220D1002032BB
:0E20D300C0E0C082C0835391EF90E65D7402BE
:0820E100F0D083D082D0E03280
:0E20E900C0E0C082C0835391EF90E65D7404A6
:0820F700F0D083D082D0E0326A
:0E20FF00C0E0C082C0835391EF90E65D74088C
:08210D00F0D083D082D0E03253
:0E211500C0E0C082C0835391EF90E65D74106D
:08212300F0D083D082D0E0323D
:0E212B00C0E0C082C0835391EF90E65D742047
:08213900F0D083D082D0E03227
:0E214100C0E0C082C0835391EF90E65D744011
:08214F00F0D083D082D0E03211
:0C215700C020C0E0C0F0C082C083C00205
:0E216300C003C004C005C006C007C000C00114
:0E217100C0D075D000C2E81216A8903A3AE02D
:06217F00FABA38028037B5
:06218500BA3A0302222217
:06218B00BA40030222220B
:05219100BA4102803795
:06219600BA4303022222FD
:05219C00BA4802806555
:0621A100BA4A0302220904
:0621A700BA4B03022209FD
:0621AD00BA4C03022209F6
:0621B300BA4D03022209EF
:0321B900022219E6
:0E21BC0090E68AE4F012056CE58290E68BF066
:0321CA00022222CC
:0D21CD00903A39E0FA6021903A0CE4F012EB
:0E21DA000F11903A0CE0FA601290E6A0E0FAC5
:0D21E8004401F0903A37E4F0A3F002222207
:0E21F50090E68AE4F0903A39E0FA90E68BF03A
:0322030002222292
:032206000080193C
:0E22090090E68AE4F0121504E58290E68BF070
:0222170080093C
:0922190090E68AE4F090E68BF0F7
:0E2222005391EF90E65F7401F0D2E8D0D0D077
:0E22300001D000D007D006D005D004D003D0D6
:0C223E0002D083D082D0F0D0E0D020325B
:0C224A00C020C0E0C0F0C082C083C00211
:0E225600C003C004C005C006C007C000C00120
:0E226400C0D075D000C2E8903A3BE0FA60208E
:0D227200903A3BE4F090E6BFE0FB7A00906C
:0E227F00E6BEE0FC7D00903A37EC4AF0ED4BF5
:05228D00A3F01216D5BC
:0D2292001216A8903A3AE0FABA3902801FFD
:05229F00BA4202802696
:0522A400BA4902804F61
:0622A900BA4B030222FC07
:0622AF00BA4C0302232BD0
:0622B500BA4D0302232ACA
:0322BB0002232BD0
:0C22BE0090E68BE0F5821205A002232BB5
:0A22CA00903A39E0FA700302232B6A
:0922D400903A0CE4F0120FD890CE
:0922DD003A0CE0FA700302232B15
:0E22E60090E6A0E0FA4401F0903A37E4F0A34D
:0422F400F002232BA6
:0422F8000002232B92
:0A22FC00903A39E0FA700302232B38
:09230600903A21E4F012157990DF
:09230F003A21E0FA700302232BCD
:0E23180090E6A0E0FA4401F0903A37E4F0A31A
:04232600F002232B73
:01232A0000B2
:0E232B0090E68BE4F05391EF90E65F7402F0C1
:0E233900903A37E0FAA3E0FB4A700890E6A065
:05234700E0FA4480F003
:0E234C00D2E8D0D0D001D000D007D006D00506
:0E235A00D004D003D002D083D082D0F0D0E0E7
:03236800D0203250
:0E236B00C0E0C082C0835391EF90E65F74041F
:08237900F0D083D082D0E032E5
:0E238100C0E0C082C0835391EF90E65F740805
:08238F00F0D083D082D0E032CF
:0E239700C0E0C082C0835391EF90E65F7410E7
:0823A500F0D083D082D0E032B9
:0E23AD00C0E0C082C0835391EF90E65F7420C1
:0823BB00F0D083D082D0E032A3
:0E23C300C0E0C082C0835391EF90E65F74408B
:0823D100F0D083D082D0E0328D
:0E23D900C0E0C082C0835391EF90E65F748035
:0823E700F0D083D082D0E03277
:0E23EF0090E680E04408F090E6007412F09052
:0D23FD000002120265538EF8C2AFC2E890D4
:0E240A0000437402F09000447401F09000450D
:0E24180074B8F090E668E04408F0900100749B
:0924260002F07A737B198B04901B
:0E242F000101ECF0900102EAF0900104740249
:0A243D00F07AD37B208B0490010598
:0E244700ECF0900106EAF09001087402F07AC1
:0A245500E97B208B04900109ECF0F4
:0C245F0090010AEAF090010C7402F07A7F
:0A246B00FF7B208B0490010DECF0C4
:0C24750090010EEAF09001107402F07A61
:0A248100157B218B04900111ECF093
:0C248B00900112EAF09001147402F07A43
:0A2497002B7B218B04900115ECF063
:0C24A100900116EAF09001187402F07A25
:0A24AD00417B218B04900119ECF033
:0C24B70090011AEAF09001207402F07A03
:0A24C300577B218B04900121ECF0FF
:0C24CD00900122EAF09001247402F07AE1
:0A24D9004A7B228B04900125ECF0F1
:0C24E300900126EAF09001287402F07AC3
:0A24EF006B7B238B04900129ECF0B5
:0C24F90090012AEAF090012C7402F07AA5
:0A250500817B238B0490012DECF084
:0C250F0090012EEAF09001307402F07A86
:0A251B00977B238B04900131ECF054
:0C252500900132EAF09001347402F07A68
:0A253100AD7B238B04900135ECF024
:0C253B00900136EAF09001387402F07A4A
:0A254700C37B238B04900139ECF0F4
:0C25510090013AEAF090013C7402F07A2C
:0A255D00D97B238B0490013DECF0C4
:0E25670090013EEAF05391EF90E65D747FF034
:0E25750090E65CE0FA447FF090E65F74FFF0C1
:0E25830090E65E74FFF0D2E8D2AF90E61174DD
:0E259100A0F00000000090E61074A0F0000022
:0E259F00000090E612E4F00000000090E61349
:0E25AD00E4F00000000090E614E4F0000000EE
:0E25BB000090E615E4F000000000120A5D1228
:0D25C900143A90E680E04482F090000A127F
:0A25D600026590E680E054F7F02261
:0B25E0001223EF903A05E0FA700302AE
:0225EB0026D0F8
:0C25ED00900000E4F5F012078675080469
:0725F900903A331206169020
:0E2600003A06E0FAA3E0FBEA24FCF582EB3494
:0E260E00FFF583120869903A33E0FAA3E0FB6F
:0E261C00A3E0FCA3E0FD903A3374012AF0E441
:0E262A003BA3F0E43CA3F0E43DA3F0903A3370
:0E263800E0FAA3E0FBA3E0FCA3E0FD903A086B
:0E264600E0FEA3E0FFA3E0F8A3E0F9C3EE9AE4
:0E265400EF9BE89CE99D4006EA4B4C4D700D53
:0D266200903A337401F0E4A3F0A3F0A3F06C
:0C266F00900000E4F5F01208DF7508048C
:07267B00903A331206919022
:0E2682003A06E0FAA3E0FBEA24FCF582EB3412
:0A269000FFF5831209AB120A429015
:0E269A003A33E0FAA3E0FBA3E0FCA3E08A825F
:0B26A8008B838CF01208DF9026D675A3
:0626B300080D12069190D3
:0E26B9003A06E0FAA3E0FBEA24F3F582EB34E4
:0926C700FFF5831209AB120A426F
:0226D00080FE8A
:0D26D60048656C6C6F20576F726C642100BA
:0526E3005A54455800A7
:0E26E800466C6173682064656D6F20666F72CA
:0926F6002055584D20312E300012
:0826FF0064656661756C7400EE
:0127070000D1
:0E27080012010002FFFFFF401A220001000034
:0427160001020301B8
:0A271A000A060002FFFFFF40010065
:0E27240009022000010104C032090400000275
:0E273200FFFFFF0007058102000200070501FE
:042740000200020091
:02274400000093
:0E27460009022000010104C032090400000253
:0E275400FFFFFF00070581024000000705019E
:042762000240000031
:02276600000071
:042768000403000066
:02276C0000006B
:01276E00006A
:01276F00FF6A
:012770000068
:08277100000000000000000060
:06023700E478FFF6D8FD9B
:08021500790DE94400601B7A39
:05021D000190276C7840
:030222003775929B
:0A0225003AE493F2A308B8000205C2
:08022F0092D9F4DAF27592FF96
:08023D007800E84400600A7932
:03024500007592AF
:060248003AE4F309D8FCC2
:08024E007837E84400600C79E8
:0B02560001903A00E4F0A3D8FCD9FAB4
:0302080075813BC2
:0A020B001226D2E58260030202030E
:0426D20075820022EB
:00000001FF
