:03020000020208EF
:0302610002020393
:05020300121A7380FED9
:03000000020200F9
:0100030032CA
:01000B0032C2
:0100130032BA
:01001B0032B2
:0100230032AA
:01002B0032A2
:01003300329A
:01003B003292
:01004300328A
:01004B003282
:01005300327A
:01005B003272
:01006300326A
:0101000032CC
:0101040032C8
:0101080032C4
:01010C0032C0
:0101100032BC
:0101140032B8
:0101180032B4
:0101200032AC
:0101240032A8
:0101280032A4
:01012C0032A0
:01013000329C
:010134003298
:010138003294
:01013C003290
:01014000328C
:010148003284
:01014C003280
:01015000327C
:010154003278
:010158003274
:01015C003270
:01016000326C
:01017000325C
:010174003258
:010178003254
:01017C003250
:01018000324C
:010184003248
:010188003244
:01018C003240
:01019000323C
:010194003238
:010198003234
:01019C003230
:0101A000322C
:0101A8003224
:0101AC003220
:0101B000321C
:0101B4003218
:0101B8003214
:010264002277
:08026500AA82AB837C007D003E
:0B026D00C3EC9AED9B50147EB07F04A0
:050278001EBEFF011F86
:0B027D00EE4F70F70CBC00E80D80E5B0
:010288002253
:08028900AA82AB837C007D001A
:0B029100C3EC9AED9B50147E0A7F0026
:05029C001EBEFF011F62
:0B02A100EE4F70F70CBC00E80D80E58C
:0102AC00222F
:0E02AD0075AF0790E67BE090E67CF0DAF32276
:0102BB002220
:0202BC007A00C6
:0302BE00BAFF0084
:0D02C100500B90E678E0FB20E0030A80F08F
:0C02CE0090E678E0FA20E204EA20E10B60
:0B02DA0090E678E04440F075820122BD
:0402E50075820022FC
:0202E9007A0099
:0302EB00BAFF0057
:0D02EE00500B90E678E0FB20E0030A80F062
:0E02FB0090E678E0FA30E20B90E678E04440BE
:05030900F075820122E5
:04030E0075820022D2
:020312007A006F
:03031400BAFF002D
:0E031700500F90E678E0FB20E2047582002291
:030325000A80EC5F
:0403280075820122B7
:02032C007A0055
:03032E00BAFF0013
:0E033100500F90E678E0FB20E6047582002273
:03033F000A80EC45
:04034200758201229D
:09034600AA82C3E49521E433FB13
:0E034F0090E678E04480F0C002C00312031272
:0E035D00D003D00290E679EAF0C002C003128D
:0C036B0002BCE582D003D0027012E52233
:0C037700600A90E678E04440F012032C8D
:04038300758200225D
:0E038700EB601090000AC002C003120289D081
:0503950003D00280B559
:0C039A00E522600890E678E0FA4440F0AC
:0403A6007582012239
:0C03AA00AA82AB837C00E5257003F5827D
:0103B6002224
:0A03B7007521647522007582A2C052
:0E03C10002C003C004120346E582D004D0033C
:0703CF00D00260030204B03C
:0C03D60090E679E524F0C002C003C004EA
:0E03E2001202BCE582D004D003D002600302F8
:0203F00004B057
:0C03F20090E679E523F0C002C003C004CF
:0E03FE001202BCE582D004D003D002600302DC
:02040C0004B03A
:0E040E0090E678E04440F0C002C003C0041243
:0D041C00032C90E678E04480F0120312906B
:0E042900E67974A3F01202BCE582D004D00381
:0E043700D002707590E679E08A828B83F0C067
:0E04450002C003C0041202E9E582D004D00315
:05045300D0027059FD0C
:0C045800C3ED9525502A90E679E08A82D9
:0E0464008B83F0A3AA82AB83C002C003C00446
:0E047200C0051202E9E582D005D004D003D007
:0804800002702D0D8D0480D0E7
:0E04880090E678E04420F090E679E0C004129F
:0E04960002E9E582D004701290E678E044405E
:0C04A400F090E679E0C00412032CD004B4
:0304B0008C822219
:0A04B300AA82AB837C0075216475FA
:0C04BD0022007582A2C002C003C004121D
:0D04C9000346E582D004D003D00260030298
:0204D6000569B6
:0C04D80090E679E527F0C002C003C004E4
:0E04E4001202BCE582D004D003D002600302F5
:0204F20005699A
:0C04F40090E679E526F0C002C003C004C9
:0E0500001202BCE582D004D003D002705CFD74
:0C050E00C3ED952850478A828B83E0FEE5
:0E051A00A3AA82AB8390E679EEF0903A04E05B
:0D052800FFEE2FF0903A02E0FEA3E0FF90FE
:0E0535003A0274012EF0E43FA3F0C002C003AE
:0E054300C004C0051202BCE582D005D004D071
:0A05510003D00270130D8D0480B377
:0E055B0090E678E04440F0C00412032CD00477
:030569008C82225F
:0A056C00903A20E0FA903A00E0F522
:0605760023A3E0F5248A36
:0C057C002590E740C0021203AAAB82D019
:0E058800027C00903A00E0FDA3E0FE903A00F5
:0A059600EA2DF0EC3EA3F08B822268
:0B05A000AA82903A00E0F526A3E0F5E7
:0905AB00278A2890E740C00212E3
:0E05B40004B3D0027B00903A00E0FCA3E0FD0F
:0B05C200903A00EA2CF0EB3DA3F02281
:0E05CD0090E6017480F00000000090E670E4FB
:0E05DB00F090E671F075B202C28190000A1233
:0E05E900026575B3FF75B40C75A00875B501F9
:0A05F700C2B0D281D2B07A007B00BE
:0E06010020A0208A048B057E007F00C3EC94AD
:0E060F00FFED94FFEE9400EF6480948050079E
:07061D000ABA00E00B80DDCA
:0706240030A0047AC8800237
:02062B007A64EF
:0E062D00903A0AEAF0903A06E4F0A3F0A3F047
:0B063B00A3F0903A05E4F075A0002247
:030646000205CDDD
:01064900228E
:07064A0030A0047A148002C5
:020651007A0A23
:0E065300903A0AE0FBEA2BF0C2B0759000D29C
:0E066100B0C2B0D2B0C2B0D2B0C2B0D2B0C23D
:0E066F00B0D2B0C2B0D2B0C2B0D2B0C2B0D21F
:0E067D00B0C2B0D2B0C2B0D2B0C2B0D2B0756E
:0E068B00B30075B40075B50075B20030A00460
:040699007A0280025F
:02069D007A01E0
:0E069F00903A0AE0FBEA2BF0308105D281127E
:0206AD000649FC
:0606AF00D28143B20222D9
:0E06B500903A20E0FA903A06E0FBA3E0FCA3A6
:0E06C300E0FDA3E0FE7F0078007900903A068B
:0E06D100EA2BF0EF3CA3F0E83DA3F0E93EA3D6
:0E06DF00F090E68BE06022FA759B40759AE77A
:0B06ED0075AF07903A05E0F990E67B3E
:0E06F800C2B0E0F59029F9D2B0DAF5903A05DB
:02070600E9F018
:0807080090E68BE0FABA400014
:05071000500302064A3F
:0107150022C1
:0E07160043B610E58253B1EF53B1DF1343B188
:090724002053B1EF500343B11062
:0E072D0053B1DF1343B12053B1EF500343B17A
:01073B0010AD
:0E073C0053B1DF1343B12053B1EF500343B16B
:01074A00109E
:0E074B0053B1DF1343B12053B1EF500343B15C
:01075900108F
:0E075A0053B1DF1343B12053B1EF500343B14D
:010768001080
:0E07690053B1DF1343B12053B1EF500343B13E
:010777001071
:0E07780053B1DF1343B12053B1EF500343B12F
:010786001062
:0E07870053B1DF1343B12053B1EF500343B120
:010795001053
:0E07960053B1DF1343B12053B1EF30D0034312
:0207A400B11092
:0E07A60053B1DF43B12043B11053B1DF43B173
:0807B4002053B1DF43B1202204
:0B07BC0053B6EF53B1DF43B120A9009A
:0E07C700E5B15410600853B1DF43B120D9F200
:0E07D50053B1DF43B120E5B154109401E91394
:0E07E300F953B1DF43B120E5B154109401E9A0
:0E07F10013F953B1DF43B120E5B15410940168
:0E07FF00E913F953B1DF43B120E5B154109472
:0E080D0001E913F953B1DF43B120E5B15410F6
:0E081B009401E913F953B1DF43B120E5B15464
:0E082900109401E913F953B1DF43B120E5B19A
:0E08370054109401E913F953B1DF43B120E5E9
:0E084500B154109401E91364FFF953B1DF437D
:0E085300B120E5B154109401E9500520D020E9
:02086100800312
:0308630030D01B77
:0E08660053B1DF43B120E5B15410601553B11A
:0D087400DF43B120E5B154106009898222F4
:0608810053B1DF43B1207A
:0608870053B1DF43B12074
:0A088D00903A0C7401F0758200220D
:0E08970053B1EF43B12043B63043B11000001F
:0608A500000000007A00D3
:0308AB00BA100080
:0B08AE00500953B1DF43B1200A80F273
:0C08B9007582C212071675820202071633
:0E08C50075820C1207167582CF120716758207
:0E08D3000112071675820012071675820112B7
:0508E10007160207BC30
:0408E6007A007B0019
:0E08EA008A048B057E007F00C3EC9440ED94E1
:0E08F8009CEE9400EF64809480501FC002C0FC
:0E090600031208C5E582D003D00230E7079047
:060914003A0CE0FC60015A
:01091A0022BA
:07091B000ABA00CB0B80C8F3
:07092200903A0C7405F0226D
:0D0929001208977582C112071675825912C7
:0C09360007167582E01207167582FF128A
:0C09420007167582881207167582D812FD
:0C094E0007167582CD120716758245123F
:0C095A0007167582AB1207167582891211
:0A09660007167582121207167A00B8
:0E097000758280C0021207161207BCE582D005
:0D097E00025402FB7007903A0CE0FB60048D
:04098B007B0080026B
:02098F007B01EA
:070991000AEA6003EB70D8D5
:09099800EB6006903A0C7402F0C9
:0109A1002233
:0E09A200AA8275824CC002120716D0028A8209
:0D09B00012071675820112071675820012DB
:0909BD0007167582011207168568
:0509C600298202071662
:0D09CB007582C1120716758200120716759D
:0C09D80029007582CA1209A253B1EF4336
:0309E400B120221D
:0C09E7007529007582CA1209A253B1EFF5
:0409F30043B12022CA
:0C09F700AA82AB83E52EFC7003F582227F
:0C0A03007529437582CAC002C003C004FC
:0A0A0F001209A275826B120716ADE2
:070A19002A8D8212071685E9
:060A20002B82120716856F
:060A26002C821207168568
:090A2C002D821207167582A0123A
:0E0A35000716D004EC14F582C00412071675E3
:0D0A43008224120716D004D003D0028C05C7
:0E0A5000ED602A903A0CE0FE7023C002C00355
:0E0A5E00C004C0051207BCAE82D005D004D083
:0E0A6C0003D0028A828B83EEF0A3AA82AB83B2
:030A7A001D80D309
:060A7D00ECC39DF582228E
:080A8300AA82E535FB70012297
:0C0A8B008A297582CAC0031209A2758274
:090A97006B120716AA318A8212C3
:060AA000071685328212E8
:060AA600071685338212E1
:060AAC00071685348212DA
:0E0AB20007167582A0120716D003EB14F5820A
:0E0AC000C003120716758264120716D003AA2F
:030ACE002FAC301A
:0E0AD100EB601F8A828C83E0FDA3AA82AC83B7
:0E0ADF008D82C002C003C004120716D004D0DE
:060AED0003D0021B80DEB5
:010AF30022E0
:0C0AF4008582297582CA1209A275824C05
:080B0000120716AA368A8212C0
:060B08000716853782127A
:060B0E0007168538821273
:060B14000716853982126C
:090B1A000716758200120716028D
:020B230008E6E2
:0B0B2500AA8275294C7582CAC002121A
:0E0B300009A275824C120716D00274204AF5F5
:0E0B3E008212071675820012071675828F123A
:090B4C00071675820012071685D8
:060B55003A8212071602AD
:020B5B0008E6AA
:0D0B5D0043B62090001412028953B1DF90BE
:090B6A00000512028943B12022AA
:0C0B7300903A13E4F0903A0DF0A3F090DB
:0E0B7F003A0F7440F0E4A3F0903A127405F0BF
:0A0B8D00903A117409F01209299042
:070B97003A0CE0FA600122B4
:070B9E00752A90752B00750C
:060BA5002C00752D017506
:060BAB002E03903A1B121C
:0A0BB10009F7903A0CE0FA60012207
:0D0BBB001209CB903A1BE0FABA1E02800727
:070BC800903A0C7403F022C7
:0A0BCF00903A1CE0FAE4BA97010422
:0E0BD900FB6019903A1DE0FCBC4C11903A0DE7
:0E0BE7007410F0A37401F0903A1A7482F02298
:0E0BF500EB6019903A1DE0FBBB4E11903A0DDB
:0E0C03007490F0A37401F0903A1A7483F022FA
:0E0C1100BA9822903A1DE0FABA461A903A0DAF
:0E0C1F007410F0A37402F0903A0F7480F0E4A9
:090C2D00A3F0903A1A7484F0223D
:070C3600903A0C7403F02258
:0A0C3D00903A20E0FA7003F58222DD
:0E0C4700C002120929D002903A0CE0FBB40161
:010C5500009E
:0C0C5600E433FB6022903A16E0F52AA37C
:0A0C6200E0F52BA3E0F52CA3E0F56C
:090C6C002D8A2E90E740C002120F
:080C750009F7AB82D0028002F6
:020C7D007B00FA
:0A0C7F008B3BC0021209CBD002909B
:0E0C89003A16E0FCA3E0FDA3E0FEA3E0FF7836
:0E0C97000079007B00903A16EA2CF0E83DA3AD
:0C0CA500F0E93EA3F0EB3FA3F0853B829A
:010CB1002220
:0D0CB200903A20E0FAC002120929D0029009
:070CBF003A0CE0FB6001228A
:070CC600752F407530E79027
:080CCD003A16E0F531A3E0F551
:080CD50032A3E0F533A3E0F5C2
:090CDD00348A35758223C002122D
:0E0CE6000A83D002903A1EE0FBA3E0FC4B70A4
:0E0CF40036903A16E0FBA3E0FCA3E0FDA3E07F
:0E0D0200FE8D07903A1AE0F8C3EF9850047F78
:030D100025800239
:020D13007F2D32
:050D15008B368C378DC8
:080D1A00388E398F82C00212ED
:090D22000AF41209CBD00280078B
:070D2B00C0021209E7D0022B
:0E0D3200903A16E0FBA3E0FCA3E0FDA3E0FE78
:0E0D40007F0078007900903A16EA2BF0EF3C25
:0B0D4E00A3F0E83DA3F0E93EA3F02273
:01006C00286B
:01006D000191
:04006E005A54455843
:040072000A0B000075
:010076000089
:010077000187
:060078001300000000006F
:0C007E0000000000000000000000000076
:0A008A00303030303030303030308C
:010D59002277
:0E0D5A0090E683E4F07420F07410F07430F032
:0E0D680090E6837401F07421F07411F0743180
:020D7600F02269
:0A0D7800AA82E50924E05003750982
:010D82001F51
:0D0D830090E6BFE0701090E6BEE0FBC39567
:090D900009500690E6BEE0F509E9
:0C0D990075AF078A9B85089A759E41750E
:0A0DA5009DE790E67C7403F07A00ED
:0C0DAF00C3EA9509501190E67BE0FB9030
:0B0DBB00E67CF090E67CE4F00A80E9A2
:0B0DC600E5090425E0FA90E740F090FA
:0E0DD100E7417403F090E68AE4F090E68BEAC6
:020DDF00F02200
:0E0DE100903A1EE0FAA3E0FBC374409AE49B34
:080DEF0050067C407D008004E9
:040DF7008A048B05DA
:0E0DFB00903A20ECF07D00903A1EEAC39CF086
:050E0900EB9DA3F022A7
:0A0E0E00903A21E0FABA3102804662
:040E1800BA320122C7
:050E1C00BA3902801943
:050E2100BA4902803B0C
:050E2600BA4B02803907
:060E2B00BA4C03020ED1D7
:060E3100BA4D03020F8A16
:030E3700020FD0D7
:0E0E3A00903A04E4F0903A02F0A3F090E6BB88
:0E0E4800E0FB7A0090E6BAE0FC7D00903A00F4
:080E5600EC4AF0ED4BA3F02281
:030E5E0002064643
:030E6100020B5D24
:0E0E640090E6BAE0FAA3E0FBA3E0FCA3E0FDF9
:0E0E7200903A16EAF0A3EBF074802CA3F0E4A3
:0E0E80003DA3F090E6BAE0703390E6BBE0FAD6
:0E0E8E0020E02B90E6BFE0FABA022390E6BE09
:0E0E9C00E0701D90E6BBE0FAA3E0C313CA139A
:0E0EAA00CAFB903A0DE0FCA3E0FDC3EA9CEB0E
:040EB8009D50012226
:0E0EBC00903A0C7404F090E6A0E04401F0902F
:070ECA003A1EE4F0A3F02240
:0E0ED10090E6BAE0FAA3E0FBA3E0FCA3E0FD8C
:0E0EDF00903A16EAF0A3EBF0748C2CA3F0E42A
:0E0EED003DA3F090E6BAE0FA541F6002803395
:0E0EFB0090E6BFE0702D90E6BEE0FABA20252A
:0E0F090090E6BAE0FAA3E0C403CAC40354079A
:0E0F17006ACA5407CA6ACAFB903A0FE0FCA3EC
:090F2500E0FDC3EA9CEB9D4015C0
:0E0F2E00903A0C7404F090E6A0E04401F090BC
:070F3C003A1EE4F0A3F022CD
:0B0F4300120929903A0CE0FA6001222C
:070F4E00752F407530E7909C
:080F55003A16E0F531A3E0F5C6
:080F5D0032A3E0F533A3E0F537
:080F650034753520758233124A
:070F6D000A83903A16E0F53B
:080F740036A3E0F537A3E0F518
:090F7C0038A3E0F5397582351245
:050F85000AF40209CB93
:0D0F8A0090E6BEE0701590E6BFE0700F909D
:0E0F9700E6BDE0700990E6BCE0FA24F85015C3
:0E0FA500903A0C7404F090E6A0E04401F09045
:070FB3003A1EE4F0A3F02256
:0D0FBA0012092990E6BCE0FA90E6BAE0F5D5
:070FC7003A8A82120B250299
:020FCE0009CB4D
:080FD00090E6A0E04401F022CC
:0C0FD800C020C0E0C0F0C082C083C00296
:0E0FE400C003C004C005C006C007C000C001A5
:0E0FF200C0D075D00090E6B9E0FA903A21F038
:0E10000090E6B57401F090E6B9E0FA24F350E2
:04100E000302138E38
:07101200EA2A2A901019736D
:071019000210400210F40276
:06102000138E02117102A3
:06102600138E02138E027E
:06102C0012090213240268
:0610320013260213370231
:06103800133C02134D02FF
:02103E0013524B
:0A10400090E6B8E0FABA8002800DD5
:05104A00BA8102801EC6
:05104F00BA8202802FAF
:0310540002138EF6
:0E10570090E740E4F090E741F090E68AF090D8
:08106500E68B7402F002138E09
:0E106D0090E740E4F090E741F090E68AF090C2
:08107B00E68B7402F002138EF3
:0C10830090E6BCE0FA600FBA0102801990
:05108F00BA800280059B
:05109400BA812F801E4F
:0E10990090E6A0E0FA53020190E740EAF080F2
:0110A7003A0E
:0E10A80090E6A1E0FA53020190E740EAF080E2
:0110B6002B0E
:0E10B70090E6A2E0FA53020190E740EAF080D2
:0110C5001C0E
:0E10C60090E6BCE0C31314540324A3F582E4A7
:0E10D40034E6F583E0FA53020190E740EAF0BB
:0E10E20090E741E4F090E68AF090E68B74020D
:0410F000F002138E69
:0A10F40090E6B8E0FABA02028003A9
:0310FE0002138E4C
:0911010090E6BAE0600302138ECF
:0C110A0090E6BCE0FA600FBA010280150C
:05111600BA8002800513
:05111B00BA81238016DB
:0B11200090E6A0E0FA54FEF002138EEF
:0B112B0090E6A1E0FA54FEF002138EE3
:0B11360090E6A2E0FA54FEF002138ED7
:0E11410090E6BCE0C31314540324A3FAE43474
:0E114F00E6FB90E6BCE0C31314540324A3F5A2
:0E115D0082E434E6F583E0FC5304FE8A828BC4
:06116B0083ECF002138E7C
:0A11710090E6B8E0FABA020280032B
:03117B0002138ECE
:09117E0090E6BAE0600302138E52
:0C11870090E6BCE0FA600FBA0102801490
:05119300BA8002800596
:05119800BA8120801463
:0A119D0090E6A0E0FA4401F0804162
:0A11A70090E6A1E0FA4401F0803761
:0A11B10090E6A2E0FA4401F0802D60
:0E11BB0090E6BCE0C31314540324A3FAE434FA
:0E11C900E6FB90E6BCE0C31314540324A3F528
:0E11D70082E434E6F583E0FC4304FE8A828B5A
:0311E50083ECF0A8
:0E11E80090E6BCE05480C423541FFA90E6BC8D
:0E11F600E0FB740F5B420290E683EAF0742087
:051204004AF002138E08
:0A12090090E6BBE0FABA010280197A
:05121300BA0202802672
:05121800BA0302804D45
:06121D00BA06030212DD17
:06122300BA07030212EFFE
:0312290002131A93
:0A122C007AA07B1A90E6B3EBF09075
:08123600E6B474A0F002138E6F
:0B123E0090E680E0FA30E7127ABC7BFB
:0A1249001A90E6B3EBF090E6B474DF
:05125300BCF002138E47
:0A1258007ADE7B1A90E6B3EBF0900B
:08126200E6B474DEF002138E05
:0A126A0090E6BAE0FABA0102800F24
:05127400BA0202801C1B
:05127900BA0302802908
:05127E00BA044A8036AD
:0612830075827C7A7C7B81
:041289001A8B08753F
:06128D000905120D7802B4
:02129300138EB8
:061295007582817A817B65
:04129B001A8B08752D
:06129F000917120D780290
:0212A500138EA6
:0A12A70075828A7A8A7B008B087535
:0612B100090A120D78028B
:0212B700138E94
:0612B9007582987A987B13
:0412BF001A8B087509
:0612C3000908120D78027B
:0212C900138E82
:0A12CB007A007B1B90E6B3EBF09075
:0812D500E6B47400F002138E70
:0A12DD007AB27B1A90E6B3EBF090B2
:0812E700E6B474B2F002138EAC
:0B12EF0090E680E0FA30E7127ADE7B28
:0A12FA001A90E6B3EBF090E6B4742E
:05130400DEF002138E73
:0A1309007ABC7B1A90E6B3EBF0907B
:07131300E6B474BCF0807425
:0A131A0090E6A0E0FA4401F0806ABA
:021324008068DF
:0E13260090E740E4F090E68AF090E68B7401C8
:03133400F08057EF
:05133700120D5A805266
:0E133C0090E740E4F090E68AF090E68B7401B2
:03134A00F08041EF
:05134D00120D5A803C66
:0E13520090E6B8E0FABA823490E6BCE0C3132D
:0B13600014540325E02423F582E4343C
:0C136B003AF583E4F0A3F090E685E090F2
:0D137700E740F090E684E0FA90E741F09046
:0A138400E68AE4F090E68B7402F0B4
:0B138E0090E6B8E0FABA4003021572C6
:05139900BAC002800350
:03139E0002159C99
:0E13A10090E6BFE0FB7A0090E6BEE0FC7D0027
:0E13AF00903A1EEC4AF0ED4BA3F0120DE190C7
:0913BD00E6B9E0FABA220280311F
:0613C600BA300302147CA2
:0513CC00BA3802804365
:0513D100BA3A0280673A
:0613D600BA48030214C432
:0613DC00BA4A030214EA04
:0613E200BA4B030214EAFD
:0613E800BA4C030214EAF6
:0613EE00BA4D030214EAEF
:0313F40002156877
:0E13F70090E6B5E4F090E68AF090E68B74285C
:0D140500F090E6B3E4F090E6B4746CF002F1
:02141200159C27
:0E14140090E6BBE0FB7A0090E6BAE0FC7D00BB
:0E142200903A00EC4AF0ED4BA3F090E68AE41D
:0D143000F012056CE58290E68BF002159C31
:0E143D00903A02E0FAA3E0FB8A0490E740EC4C
:0D144B00F08B0290E741EAF0903A04E09047
:0A145800E742F075210075220175CE
:0D14620082A2120346AA8290E743EAF090AE
:0D146F00E68AE4F090E68B7404F002159C10
:06147C00759B057A057B5B
:0C1482003A8B9A759E417A417BE78B9D66
:0E148E00C0027A071202ADD00253B2FD3081C7
:0D149C000C90E740E4F0D28143B2028009D9
:0914A90090E7407401F01205CD3A
:0E14B20090E748E4F090E68AF090E68B74092B
:0414C000F002159C85
:0614C400759B0C7A0C7B05
:0C14CA003A8B9A759E40759DE7C0027A2F
:0E14D600071202ADD00290E68AE4F090E68B99
:0614E4007407F002159CE4
:0E14EA0090E6BAE0FAA3E0FBA3E0FCA3E0FD6D
:0E14F800903A16EAF0A3EBF0A3ECF0A3EDF0AF
:0E15060090E6B9E0FEBE4B13903A16EAF0A351
:0D151400EBF074802CA3F0E43DA3F08037D1
:0E15210090E6B9E0FEBE4C13903A16EAF0A335
:0D152F00EBF0748C2CA3F0E43DA3F0801CC5
:0E153C0090E6B9E0FEBE4D14903A1674202AD7
:0E154A00F0E43BA3F0748F3CA3F0E43DA3F06B
:0E15580090E68AE4F0120C3DE58290E68BF0FE
:021566008034CF
:0A15680090E6A0E0FA4401F0802AAA
:0C15720090E6BFE0700690E6BEE0601658
:0E157E00903A227401F090E68BE4F05391EF66
:08158C0090E65D7401F0801986
:08159400120E0E90E68BE4F04C
:0E159C005391EF90E65D7401F090E6A0E0FA46
:0315AA004480F08A
:0E15AD00D0D0D001D000D007D006D005D00499
:0D15BB00D003D002D083D082D0F0D0E0D099
:0215C8002032CF
:0E15CA00C0E0C082C0835391EF90E65D7402D2
:0815D800F0D083D082D0E03294
:0E15E000C0E0C082C0835391EF90E65D7404BA
:0815EE00F0D083D082D0E0327E
:0E15F600C0E0C082C0835391EF90E65D7408A0
:08160400F0D083D082D0E03267
:0E160C00C0E0C082C0835391EF90E65D741081
:08161A00F0D083D082D0E03251
:0E162200C0E0C082C0835391EF90E65D74205B
:08163000F0D083D082D0E0323B
:0E163800C0E0C082C0835391EF90E65D744025
:08164600F0D083D082D0E03225
:0C164E00C020C0E0C0F0C082C083C00219
:0E165A00C003C004C005C006C007C000C00128
:0E166800C0D075D000C2E8120DE1903A21E02A
:07167600FABA30030216D599
:05167D00BA38028026CE
:06168200BA3A030216D57E
:05168800BA4802802CAD
:06168D00BA4A030216BC7C
:06169300BA4B030216BC75
:06169900BA4C030216BC6E
:06169F00BA4D030216BC67
:0316A5000216CC5E
:0E16A80090E68AE4F012056CE58290E68BF085
:0316B6000216D544
:0316B90000801995
:0E16BC0090E68AE4F0120C3DE58290E68BF099
:0216CA00800995
:0916CC0090E68AE4F090E68BF050
:0E16D5005391EF90E65F7401F0D2E8D0D0D0D0
:0E16E30001D000D007D006D005D004D003D02F
:0C16F10002D083D082D0F0D0E0D02032B4
:0C16FD00C020C0E0C0F0C082C083C0026A
:0E170900C003C004C005C006C007C000C00178
:0E171700C0D075D000C2E8903A22E0FA6020FF
:0D172500903A22E4F090E6BFE0FB7A0090DD
:0E173200E6BEE0FC7D00903A1EEC4AF0ED4B66
:05174000A3F0120E0EE3
:0C174500120DE1903A21E0FABA310302E3
:0217510017BCC3
:05175300BA3202802BF8
:05175800BA3902801AFD
:05175D00BA49028027DB
:06176200BA4B0302178DD3
:06176800BA4C030217BC9D
:06176E00BA4D030217BB97
:031774000217BC9D
:0C17770090E68BE0F5821205A00217BC82
:061783001206B50217BCBE
:04178900000217BC87
:0A178D00903A20E0FA70030217BC46
:09179700903A0CE4F0120CB2903F
:0917A0003A0CE0FA70030217BCD8
:0E17A90090E6A0E0FA4401F0903A1EE4F0A3AE
:0417B700F00217BC69
:0117BB00002D
:0E17BC0090E68BE4F05391EF90E65F7402F03C
:0E17CA00903A1EE0FAA3E0FB4A700890E6A0F9
:0517D800E0FA4480F07E
:0E17DD00D2E8D0D0D001D000D007D006D00581
:0E17EB00D004D003D002D083D082D0F0D0E062
:0317F900D02032CB
:0E17FC00C0E0C082C0835391EF90E65F74049A
:08180A00F0D083D082D0E0325F
:0E181200C0E0C082C0835391EF90E65F74087F
:08182000F0D083D082D0E03249
:0E182800C0E0C082C0835391EF90E65F741061
:08183600F0D083D082D0E03233
:0E183E00C0E0C082C0835391EF90E65F74203B
:08184C00F0D083D082D0E0321D
:0E185400C0E0C082C0835391EF90E65F744005
:08186200F0D083D082D0E03207
:0E186A00C0E0C082C0835391EF90E65F7480AF
:08187800F0D083D082D0E032F1
:0E18800090E680E04408F090E6007412F090CC
:0E188E000002120265538EF8D28143B202C2EC
:0E189C00AFC2E89000437402F0900044740163
:0E18AA00F090004574B8F090E668E04408F055
:0A18B8009001007402F07AD87B0F53
:0D18C2008B04900101ECF0900102EAF0901F
:0A18CF0001047402F07ACA7B158B45
:0E18D90004900105ECF0900106EAF090010881
:0A18E7007402F07AE07B158B049088
:0E18F1000109ECF090010AEAF090010C74027B
:0A18FF00F07AF67B158B0490010DC2
:0E190900ECF090010EEAF09001107402F07AFA
:0A1917000C7B168B04900111ECF01C
:0C192100900112EAF09001147402F07AB8
:0A192D00227B168B04900115ECF0EC
:0C193700900116EAF09001187402F07A9A
:0A194300387B168B04900119ECF0BC
:0C194D0090011AEAF09001207402F07A78
:0A1959004E7B168B04900121ECF088
:0C196300900122EAF09001247402F07A56
:0A196F00FD7B168B04900125ECF0BF
:0C197900900126EAF09001287402F07A38
:0A198500FC7B178B04900129ECF0A5
:0C198F0090012AEAF090012C7402F07A1A
:0A199B00127B188B0490012DECF074
:0C19A50090012EEAF09001307402F07AFC
:0A19B100287B188B04900131ECF044
:0C19BB00900132EAF09001347402F07ADE
:0A19C7003E7B188B04900135ECF014
:0C19D100900136EAF09001387402F07AC0
:0A19DD00547B188B04900139ECF0E4
:0C19E70090013AEAF090013C7402F07AA2
:0A19F3006A7B188B0490013DECF0B4
:0E19FD0090013EEAF05391EF90E65D747FF0AA
:0E1A0B0090E65CE0FA447FF090E65F74FFF036
:0E1A190090E65E74FFF0D2E8D2AF90E6117452
:0E1A2700A0F00000000090E61074A0F0000097
:0E1A3500000090E612E4F00000000090E613BE
:0E1A4300E4F00000000090E614E4F000000063
:0E1A51000090E615E4F000000000120B739008
:0D1A5F00E680E04482F090000A12026590DB
:071A6C00E680E054F7F022D0
:031A7300121880C6
:021A760080FEF0
:051A7C005A544558001A
:0E1A81006C6967687473686F7720666F7220F7
:091A8F004558502D312E31300074
:081A980064656661756C740061
:0E1AA00012010002FFFFFF401A2200010000A9
:041AAE00010203012D
:0A1AB2000A060002FFFFFF400100DA
:0E1ABC0009022000010104C0320904000002EA
:0E1ACA00FFFFFF000705810200020007050173
:041AD8000200020006
:021ADC00000008
:0E1ADE0009022000010104C0320904000002C8
:0E1AEC00FFFFFF000705810240000007050113
:041AFA0002400000A6
:021AFE000000E6
:041B000004030000DA
:021B04000000DF
:011B060000DE
:011B0700FFDE
:011B080000DC
:081B09000000000000000000D4
:06023700E478FFF6D8FD9B
:08021500790DE94400601B7A39
:05021D0001901B0478B4
:030222001E7592B4
:0A0225003AE493F2A308B8000205C2
:08022F0092D9F4DAF27592FF96
:08023D007800E84400600A7932
:03024500007592AF
:060248003AE4F309D8FCC2
:08024E00781EE84400600C7901
:0B02560001903A00E4F0A3D8FCD9FAB4
:0302080075813BC2
:0A020B00121A78E582600302020374
:041A78007582002251
:00000001FF
