:03020000020208EF
:0302610002020393
:0502030012175D80FEF2
:03000000020200F9
:0100030032CA
:01000B0032C2
:0100130032BA
:01001B0032B2
:0100230032AA
:01002B0032A2
:01003300329A
:01003B003292
:01004300328A
:01004B003282
:01005300327A
:01005B003272
:01006300326A
:0101000032CC
:0101040032C8
:0101080032C4
:01010C0032C0
:0101100032BC
:0101140032B8
:0101180032B4
:0101200032AC
:0101240032A8
:0101280032A4
:01012C0032A0
:01013000329C
:010134003298
:010138003294
:01013C003290
:01014000328C
:010148003284
:01014C003280
:01015000327C
:010154003278
:010158003274
:01015C003270
:01016000326C
:01017000325C
:010174003258
:010178003254
:01017C003250
:01018000324C
:010184003248
:010188003244
:01018C003240
:01019000323C
:010194003238
:010198003234
:01019C003230
:0101A000322C
:0101A8003224
:0101AC003220
:0101B000321C
:0101B4003218
:0101B8003214
:010264002277
:08026500AA82AB837C007D003E
:0B026D00C3EC9AED9B50147EB07F04A0
:050278001EBEFF011F86
:0B027D00EE4F70F70CBC00E80D80E5B0
:010288002253
:08028900AA82AB837C007D001A
:0B029100C3EC9AED9B50147E0A7F0026
:05029C001EBEFF011F62
:0B02A100EE4F70F70CBC00E80D80E58C
:0102AC00222F
:0E02AD0075AF0790E67BE090E67CF0DAF32276
:0102BB002220
:0202BC007A00C6
:0302BE00BAFF0084
:0D02C100500B90E678E0FB20E0030A80F08F
:0C02CE0090E678E0FA20E204EA20E10B60
:0B02DA0090E678E04440F075820122BD
:0402E50075820022FC
:0202E9007A0099
:0302EB00BAFF0057
:0D02EE00500B90E678E0FB20E0030A80F062
:0E02FB0090E678E0FA30E20B90E678E04440BE
:05030900F075820122E5
:04030E0075820022D2
:020312007A006F
:03031400BAFF002D
:0E031700500F90E678E0FB20E2047582002291
:030325000A80EC5F
:0403280075820122B7
:02032C007A0055
:03032E00BAFF0013
:0E033100500F90E678E0FB20E6047582002273
:03033F000A80EC45
:04034200758201229D
:09034600AA82C3E49508E433FB2C
:0E034F0090E678E04480F0C002C00312031272
:0E035D00D003D00290E679EAF0C002C003128D
:0C036B0002BCE582D003D0027012E5094C
:0C037700600A90E678E04440F012032C8D
:04038300758200225D
:0E038700EB601090000AC002C003120289D081
:0503950003D00280B559
:0C039A00E509600890E678E0FA4440F0C5
:0403A6007582012239
:0C03AA00AA82AB837C00E50C7003F58296
:0103B6002224
:0A03B7007508647509007582A2C084
:0E03C10002C003C004120346E582D004D0033C
:0703CF00D00260030204B03C
:0C03D60090E679E50BF0C002C003C00403
:0E03E2001202BCE582D004D003D002600302F8
:0203F00004B057
:0C03F20090E679E50AF0C002C003C004E8
:0E03FE001202BCE582D004D003D002600302DC
:02040C0004B03A
:0E040E0090E678E04440F0C002C003C0041243
:0D041C00032C90E678E04480F0120312906B
:0E042900E67974A3F01202BCE582D004D00381
:0E043700D002707590E679E08A828B83F0C067
:0E04450002C003C0041202E9E582D004D00315
:05045300D0027059FD0C
:0C045800C3ED950C502A90E679E08A82F2
:0E0464008B83F0A3AA82AB83C002C003C00446
:0E047200C0051202E9E582D005D004D003D007
:0804800002702D0D8D0480D0E7
:0E04880090E678E04420F090E679E0C004129F
:0E04960002E9E582D004701290E678E044405E
:0C04A400F090E679E0C00412032CD004B4
:0304B0008C822219
:0A04B300AA82AB837C007508647513
:0C04BD0009007582A2C002C003C0041236
:0D04C9000346E582D004D003D00260030298
:0204D6000569B6
:0C04D80090E679E50EF0C002C003C004FD
:0E04E4001202BCE582D004D003D002600302F5
:0204F20005699A
:0C04F40090E679E50DF0C002C003C004E2
:0E0500001202BCE582D004D003D002705CFD74
:0C050E00C3ED950F50478A828B83E0FEFE
:0E051A00A3AA82AB8390E679EEF0903A06E059
:0D052800FFEE2FF0903A04E0FEA3E0FF90FC
:0E0535003A0474012EF0E43FA3F0C002C003AC
:0E054300C004C0051202BCE582D005D004D071
:0A05510003D00270130D8D0480B377
:0E055B0090E678E04440F0C00412032CD00477
:030569008C82225F
:0A056C00903A1AE0FA903A02E0F526
:060576000AA3E0F50B8A68
:0C057C000C90E740C0021203AAAB82D032
:0E058800027C00903A02E0FDA3E0FE903A02F1
:0A059600EA2DF0EC3EA3F08B822268
:0B05A000AA82903A02E0F50DA3E0F5FE
:0905AB000E8A0F90E740C0021215
:0E05B40004B3D0027B00903A02E0FCA3E0FD0D
:0B05C200903A02EA2CF0EB3DA3F0227F
:0C05CD00AA82AB837C00E5117003F5826C
:0105D90022FF
:0A05DA007508647509007582A6C05B
:0E05E40002C003C004120346E582D004D00317
:0705F200D00260030206B70E
:0C05F90090E679E510F0C002C003C004D9
:0E0605001202BCE582D004D003D002600302D2
:0206130006B728
:0E06150090E678E04440F0C002C003C004123A
:0D062300032C90E678E04480F01203129062
:0E063000E67974A7F01202BCE582D004D00374
:0E063E00D002707590E679E08A828B83F0C05E
:0E064C0002C003C0041202E9E582D004D0030C
:05065A00D0027059FD03
:0C065F00C3ED9511502A90E679E08A82E4
:0E066B008B83F0A3AA82AB83C002C003C0043D
:0E067900C0051202E9E582D005D004D003D0FE
:0806870002702D0D8D0480D0DE
:0E068F0090E678E04420F090E679E0C0041296
:0E069D0002E9E582D004701290E678E0444055
:0C06AB00F090E679E0C00412032CD004AB
:0306B7008C822210
:0A06BA00AA82AB837C00750864750A
:0C06C40009007582A6C002C003C0041229
:0D06D0000346E582D004D003D002705A909A
:0C06DD00E679E512F0C002C003C0041270
:0D06E90002BCE582D004D003D0027041FDB8
:0C06F600C3ED9513502C8A828B83E0FE2C
:0E070200A3AA82AB8390E679EEF0C002C0039A
:0E071000C004C0051202BCE582D005D004D0A2
:0A071E0003D00270130D8D0480CE8D
:0E07280090E678E04440F0C00412032CD004A8
:030736008C822290
:07073900903A1AE0F511905F
:090740003A07E0F51090E74002D1
:0207490005CDDC
:0D074B00AA8290E6017480F000000000908A
:0E075800E670E4F090E671F053B4F975B2B6B5
:0E07660074904AF58043B40853A0F790000A3F
:0E077400C002120265D00274024AF5807A00BB
:020782007B00FA
:0E07840020A2208A048B057E007F00C3EC9427
:0E079200FFED94FFEE9400EF6480948050071A
:0707A0000ABA00E00B80DD46
:0707A70030A2047AC88002B1
:0207AE007A646B
:0E07B000903A0DEAF0903A09E4F0A3F0A3F0BD
:0807BE00A3F0903A08E4F022D8
:0607C60075820402074BDE
:0607CC0075823402074BA8
:0807D200903A00E4F00207C6B2
:0E07DA0090E6017480F00000000090E618E444
:0E07E800F00000000090E619E4F000000000B0
:0E07F60090E60BE4F00000000090E6A3E0FAAD
:0E08040054FEF00000000090E6A4E0FA54FE5E
:0E081200F00000000090E6957480F0000000F9
:0E0820000090E6957480F090E6047480F0007D
:0E082E0000000090E6047482F00000000090CC
:0E083C00E604E4F000000000903A007401F0C1
:01084A00228B
:07084B0030A2047A168002BE
:020852007A0B1F
:0A085400903A0DE0FBEA2BF07A0069
:03085E00BA40009D
:090861005007D284C2840A80F41D
:0E086A00D287D284C284D284C284D284C28453
:0E087800D284C28475B20053B4F7308105D229
:04088600811207DAFA
:06088A00D28143B20222FC
:0C08900085B31475B3FF903A1AE0FB909A
:0E089C003A09E0FCA3E0FDA3E0FEA3E0FF7834
:0E08AA000079007A00903A09EB2CF0E83DA3AB
:0E08B800F0E93EA3F0EA3FA3F090E68BE0608B
:0E08C60022FA759B40759AE775AF07903A08C5
:0508D400E0F990E67B55
:0E08D900E0F590D28429F9C284DAF5903A084D
:0208E700E9F036
:0B08E9008514B390E68BE0FABA4000E3
:0508F400500302084B57
:0108F90022DC
:0E08FA00C0E0C082C083C002C003C004C005BD
:0E090800C006C007C000C001C0D075D0008579
:0C091600B315C2E890E694E0FC7B009072
:0E092200E695E07E004203EE4204903A09E0C2
:0E093000FDA3E0FEA3E0FFA3E0F8EC3395E0AA
:0E093E00F9FA903A09EB2DF0EC3EA3F0E93FF8
:0E094C00A3F0EA38A3F075B3FF90E695E0FA49
:0E095A005407FB90E694E0340013F9EA13FA18
:0E096800E913F9EA13FAE913F9EA13FA759B99
:0D09760000759AF475AF0790E67BEB600CFE
:0C098300E0F590D284C284DBF7EA603A11
:0E098F00E0F590D284C284E0F590D284C28458
:0E099D00E0F590D284C284E0F590D284C2844A
:0E09AB00E0F590D284C284E0F590D284C2843C
:0E09B900E0F590D284C284E0F590D284C2842E
:0209C700DAC68E
:0C09C9008515B390E6497484F00000002E
:0E09D500005391EF90E65F7420F0D2E8D0D08E
:0E09E300D001D000D007D006D005D004D0033C
:0909F100D002D083D082D0E032A4
:0E09FA0090E60174E2F090E6F3E4F090E6C3BC
:0E0A0800F090E6C1F090E6C27404F090E6C0F3
:0C0A1600744EF090E6F4E4F0759B1B7A3F
:0A0A22001B7B3A8B9A759E60759D50
:0E0A2C00E4C0027A201202ADD00290E6C6E4C9
:0D0A3A00F090E6C77410F090E6C8E4F0906C
:0E0A4700E6C9F090E6CAF090E6CBF090E6CC5F
:0E0A5500E4F090E6CDF090E60B7401F00000A6
:0D0A6300000090E6047480F0000000009098
:0E0A7000E6047404F00000000090E604E4F0D8
:0E0A7E000000000090E619E4F0000000009077
:0E0A8C00E6197410F00000000090E6DA740124
:0E0A9A00F00000000090E6CE7401F0000000B5
:0E0AA8000090E6CFE4F00000000090E6D0E4FD
:0E0AB600F00000000090E6D1E4F00000000027
:0E0AC40090E6DC74FFF00000000053B2EF4338
:050AD200B201C2802208
:0E0AD70090E6017480F090E60B7403F00000CE
:0D0AE500000090E6047480F0000000009016
:0E0AF200E6047404F00000000090E604E4F056
:0E0B00000000000090E619E4F00000000090F4
:0E0B0E00E6497484F00000000090E64974840B
:0E0B1C00F00000000090E6497484F000000034
:0E0B2A000090E6497484F0000000009001364F
:0D0B3800E0903A11F0A3E4F0900135E09058
:090B45003A0FF0A3E4F07AFA7B08
:0C0B4E00088B04900135ECF0900136EAB1
:0B0B5A00F05391EF90E65F7420F02252
:01006C00286B
:01006D000191
:04006E005A54455843
:040072000A0D000073
:010076000089
:010077000187
:060078006300000000001F
:0C007E0000000000000000000000000076
:0A008A00303030303030303030308C
:010B6500226D
:0E0B660090E683E4F07420F07410F07430F028
:0E0B740090E6837401F07421F07411F0743176
:0E0B8200F090E6837412F07432F07404F07494
:030B900024F0222C
:0A0B9300AA82E51724E0500375174D
:010B9D001F38
:0D0B9E0090E6BFE0701090E6BEE0FBC3954E
:090BAB0017500690E6BEE0F517B4
:0C0BB40075AF078A9B85169A759E4175E7
:0A0BC0009DE790E67C7403F07A00D4
:0C0BCA00C3EA9517501190E67BE0FB9009
:0B0BD600E67CF090E67CE4F00A80E989
:0B0BE100E5170425E0FA90E740F090D3
:0E0BEC00E7417403F090E68AE4F090E68BEAAD
:020BFA00F022E7
:0E0BFC00903A18E0FAA3E0FBC374409AE49B21
:080C0A0050067C407D008004CF
:040C12008A048B05C0
:0E0C1600903A1AECF07D00903A18EAC39CF078
:050C2400EB9DA3F0228E
:0A0C2900903A5BE0FABA310280480D
:040C3300BA320122AE
:050C3700BA3402804206
:050C3C00BA3502805AE8
:050C4100BA3902800831
:050C4600BA3C0280270A
:030C4B00020CDEBA
:0E0C4E00903A06E4F0903A04F0A3F090E6BB72
:0E0C5C00E0FB7A0090E6BAE0FC7D00903A02E0
:080C6A00EC4AF0ED4BA3F0226F
:090C720090E6BAE0903A07F02286
:030C7B000207D29B
:0E0C7E001207D290E6A4E054FEF090E6F57462
:0C0C8C00FFF0903A01E0FA6003020AD782
:030C98000209FA54
:0E0C9B00903A01E0FA601C903A11E0FAA3E0F2
:0E0CA900900136EAF0903A0FE0FAA3E0FB90DB
:070CB7000135EAF0020CDB3D
:0E0CBE00D280D28443B21090E6F574FFF000AD
:0E0CCC0000000090E601E0FA54F0F000000095
:010CDA000019
:030CDB0002084BC1
:080CDE0090E6A0E04401F022C1
:0C0CE600C020C0E0C0F0C082C083C0028B
:0E0CF200C003C004C005C006C007C000C0019A
:0E0D0000C0D075D00090E6B9E0FA903A5BF0F2
:0E0D0E0090E6B57401F090E6B9E0FA24F350D7
:040D1C000302109C22
:070D2000EA2A2A900D277357
:070D2700020D4E020E020254
:060D2E00109C020E7F0282
:060D3400109C02109C025D
:060D3A000F170210320247
:060D400010340210450210
:060D4600104A02105B02DE
:020D4C00106035
:0A0D4E0090E6B8E0FABA8002800DCA
:050D5800BA8102801EBB
:050D5D00BA8202802FA4
:030D620002109CE0
:0E0D650090E740E4F090E741F090E68AF090CD
:080D7300E68B7402F002109CF3
:0E0D7B0090E740E4F090E741F090E68AF090B7
:080D8900E68B7402F002109CDD
:0C0D910090E6BCE0FA600FBA0102801985
:050D9D00BA8002800590
:050DA200BA812F801E44
:0E0DA70090E6A0E0FA53020190E740EAF080E7
:010DB5003A03
:0E0DB60090E6A1E0FA53020190E740EAF080D7
:010DC4002B03
:0E0DC50090E6A2E0FA53020190E740EAF080C7
:010DD3001C03
:0E0DD40090E6BCE0C31314540324A3F582E49C
:0E0DE20034E6F583E0FA53020190E740EAF0B0
:0E0DF00090E741E4F090E68AF090E68B740202
:040DFE00F002109C53
:0A0E020090E6B8E0FABA020280039D
:030E0C0002109C35
:090E0F0090E6BAE0600302109CB9
:0C0E180090E6BCE0FA600FBA0102801501
:050E2400BA8002800508
:050E2900BA81238016D0
:0B0E2E0090E6A0E0FA54FEF002109CD9
:0B0E390090E6A1E0FA54FEF002109CCD
:0B0E440090E6A2E0FA54FEF002109CC1
:0E0E4F0090E6BCE0C31314540324A3FAE43469
:0E0E5D00E6FB90E6BCE0C31314540324A3F597
:0E0E6B0082E434E6F583E0FC5304FE8A828BB9
:060E790083ECF002109C66
:0A0E7F0090E6B8E0FABA0202800320
:030E890002109CB8
:090E8C0090E6BAE0600302109C3C
:0C0E950090E6BCE0FA600FBA0102801485
:050EA100BA800280058B
:050EA600BA8120801458
:0A0EAB0090E6A0E0FA4401F0804157
:0A0EB50090E6A1E0FA4401F0803756
:0A0EBF0090E6A2E0FA4401F0802D55
:0E0EC90090E6BCE0C31314540324A3FAE434EF
:0E0ED700E6FB90E6BCE0C31314540324A3F51D
:0E0EE50082E434E6F583E0FC4304FE8A828B4F
:030EF30083ECF09D
:0E0EF60090E6BCE05480C423541FFA90E6BC82
:0E0F0400E0FB740F5B420290E683EAF074207B
:050F12004AF002109CF2
:0A0F170090E6BBE0FABA010280196F
:050F2100BA0202802667
:050F2600BA0302804D3A
:060F2B00BA0603020FEB01
:060F3100BA0703020FFDE8
:030F37000210287D
:0A0F3A007A327B1890E6B3EBF090DA
:080F4400E6B47432F002109CC7
:0B0F4C0090E680E0FA30E7127A4E7B5E
:0A0F57001890E6B3EBF090E6B474D6
:050F61004EF002109C9F
:0A0F66007A7E7B1890E6B3EBF09062
:080F7000E6B4747EF002109C4F
:0A0F780090E6BAE0FABA0102800F19
:050F8200BA0202801C10
:050F8700BA03028029FD
:050F8C00BA044A8036A2
:060F91007582FF7AFF7B70
:040F9700178B167529
:060F9B001705120B930282
:020FA100109CA2
:060FA3007582047A047B54
:040FA900188B167516
:060FAD001725120B930250
:020FB300109C90
:0A0FB50075828A7A8A7B008B16751C
:060FBF00170A120B930259
:020FC500109C7E
:060FC7007582297A297BE6
:040FCD00188B1675F2
:060FD1001708120B930249
:020FD700109C6C
:0A0FD9007AAE7B1890E6B3EBF090BF
:080FE300E6B474AEF002109CAC
:0A0FEB007A447B1890E6B3EBF09017
:080FF500E6B47444F002109C04
:0B0FFD0090E680E0FA30E7127A7E7B7D
:0A1008001890E6B3EBF090E6B47424
:051012007EF002109CBD
:0A1017007A4E7B1890E6B3EBF090E0
:07102100E6B4744EF0807488
:0A10280090E6A0E0FA4401F0806AAF
:021032008068D4
:0E10340090E740E4F090E68AF090E68B7401BD
:03104200F08057E4
:05104500120B66805251
:0E104A0090E740E4F090E68AF090E68B7401A7
:03105800F08041E4
:05105B00120B66803C51
:0E10600090E6B8E0FABA823490E6BCE0C31322
:0B106E0014540325E0245DF582E434F7
:0C1079003AF583E4F0A3F090E685E090E7
:0D108500E740F090E684E0FA90E741F0903B
:0A109200E68AE4F090E68B7402F0A9
:0B109C0090E6B8E0FABA40030212220E
:0510A700BAC002800345
:0310AC0002124CE1
:0E10AF0090E6BFE0FB7A0090E6BEE0FC7D001C
:0E10BD00903A18EC4AF0ED4BA3F0120BFC90A9
:0910CB00E6B9E0FABA2202802520
:0610D400BA30030211B85E
:0610DA00BA33030212010B
:0510E000BA3802803166
:0510E500BA3A0280553B
:0610EA00BA3B0302117E77
:0610F000BA3D0302119756
:0310F600021218CB
:0E10F90090E6B5E4F090E68AF090E68B74285D
:0D110700F090E6B3E4F090E6B4746CF002F2
:02111400124C7B
:0E11160090E6BBE0FB7A0090E6BAE0FC7D00BC
:0E112400903A02EC4AF0ED4BA3F090E68AE41C
:0D113200F012056CE58290E68BF002124C85
:0E113F00903A04E0FAA3E0FB8A0490E740EC4B
:0D114D00F08B0290E741EAF0903A06E09046
:0A115A00E742F07508007509017501
:0D11640082A2120346AA8290E743EAF090AF
:0D117100E68AE4F090E68B7404F002124C64
:0E117E0090E6BAE0903A07F090E68AE4F012AC
:0B118C000739E58290E68BF002124C60
:0A1197007508007509017582A612A3
:0E11A1000346AA8290E740EAF090E68AE4F066
:0911AF0090E68B7401F002124C71
:0611B800759B087A087B1C
:0C11BE003A8B9A759E417A417BE78B9D2D
:0E11CA00C0027A071202ADD00253B2FD30818E
:0D11D8000C90E740E4F0D28143B2028009A0
:0911E50090E7407401F01207C606
:0E11EE0090E7487401F090E68AE4F090E68BFA
:0511FC007409F0804BB6
:0E12010090E7407404F090E741E4F090E68A34
:09120F00F090E68B7402F08034CB
:0A12180090E6A0E0FA4401F0802AFD
:0C12220090E6BFE0700690E6BEE06016AB
:0E122E00903A5C7401F090E68BE4F05391EF7F
:08123C0090E65D7401F08019D9
:08124400120C2990E68BE4F086
:0E124C005391EF90E65D7401F090E6A0E0FA99
:03125A004480F0DD
:0E125D00D0D0D001D000D007D006D005D004EC
:0D126B00D003D002D083D082D0F0D0E0D0EC
:02127800203222
:0E127A00C0E0C082C0835391EF90E65D740225
:08128800F0D083D082D0E032E7
:0E129000C0E0C082C0835391EF90E65D74040D
:08129E00F0D083D082D0E032D1
:0E12A600C0E0C082C0835391EF90E65D7408F3
:0812B400F0D083D082D0E032BB
:0E12BC00C0E0C082C0835391EF90E65D7410D5
:0812CA00F0D083D082D0E032A5
:0E12D200C0E0C082C0835391EF90E65D7420AF
:0812E000F0D083D082D0E0328F
:0E12E800C0E0C082C0835391EF90E65D744079
:0812F600F0D083D082D0E03279
:0C12FE00C020C0E0C0F0C082C083C0026D
:0E130A00C003C004C005C006C007C000C0017B
:0E131800C0D075D000C2E8120BFC903A5BE02A
:06132600FABA3002804219
:05132C00BA3302803D10
:05133100BA3802800F34
:05133600BA3A02803309
:05133B00BA3B02801521
:05134000BA3D228029E6
:0E13450090E68AE4F012056CE58290E68BF0EB
:021353008019FF
:0E13550090E68AE4F0120739E58290E68BF00C
:021363008009FF
:0913650090E68AE4F090E68BF0BA
:0E136E005391EF90E65F7401F0D2E8D0D0D03A
:0E137C0001D000D007D006D005D004D003D099
:0C138A0002D083D082D0F0D0E0D020321E
:0C139600C020C0E0C0F0C082C083C002D4
:0E13A200C003C004C005C006C007C000C001E3
:0E13B000C0D075D000C2E8903A5CE0FA602030
:0D13BE00903A5CE4F090E6BFE0FB7A00900E
:0E13CB00E6BEE0FC7D00903A18EC4AF0ED4BD7
:0513D900A3F0120C2935
:0D13DE00120BFC903A5BE0FABA3102803B42
:0513EB00BA320280335C
:0513F000BA3402803157
:0513F500BA3502802C56
:0513FA00BA3902800574
:0513FF00BA3C24800B44
:0B14040090E68BE0F5821205A0801737
:0B140F00903A07E0F51290E68BE0F544
:09141A001390E7401206BA8003AA
:031423001208901C
:0E14260090E68BE4F05391EF90E65F7402F0D5
:0E143400903A18E0FAA3E0FB4A700890E6A098
:05144200E0FA4480F017
:0E144700D2E8D0D0D001D000D007D006D0051A
:0E145500D004D003D002D083D082D0F0D0E0FB
:03146300D0203264
:0E146600C0E0C082C0835391EF90E65F740433
:08147400F0D083D082D0E032F9
:0E147C00C0E0C082C0835391EF90E65F740819
:08148A00F0D083D082D0E032E3
:0E149200C0E0C082C0835391EF90E65F7410FB
:0814A000F0D083D082D0E032CD
:0E14A800C0E0C082C0835391EF90E65F7420D5
:0814B600F0D083D082D0E032B7
:0E14BE00C0E0C082C0835391EF90E65F74409F
:0814CC00F0D083D082D0E032A1
:0E14D400C0E0C082C0835391EF90E65F748049
:0814E200F0D083D082D0E0328B
:0214EA007A0086
:0314EC00BA0A0039
:0E14EF005012EA248AF582E43400F583E0FB13
:0614FD00BB30540A80E937
:071503007510FB7511059046
:09150A003A131205CD7A007B00B2
:03151300BB050015
:0A151600503CEB2413F582E4343A54
:0E152000F583E0FCEA248AFDE43400FEECC40E
:0E152E00540F9018B293FF8D828E83F00AEA5C
:0E153C00248AFDE43400FE740F5C9018B29314
:0A154A00FC8D828E83F00A0B80BF37
:011554002274
:0E15550090E680E04408F090E6007412F090FA
:0E1563000002120265538EF8D28143B202C21A
:0E157100AFC2E89000437402F0900044740191
:0E157F00F090004574B8F090E668E04408F083
:0A158D009001007402F07AE67B0C76
:0D1597008B04900101ECF0900102EAF0904D
:0A15A40001047402F07A7A7B128BC6
:0E15AE0004900105ECF0900106EAF0900108AF
:0A15BC007402F07A907B128B049009
:0E15C6000109ECF090010AEAF090010C7402A9
:0A15D400F07AA67B128B0490010D43
:0E15DE00ECF090010EEAF09001107402F07A29
:0A15EC00BC7B128B04900111ECF09F
:0C15F600900112EAF09001147402F07AE7
:0A160200D27B128B04900115ECF06E
:0C160C00900116EAF09001187402F07AC8
:0A161800E87B128B04900119ECF03E
:0C16220090011AEAF09001207402F07AA6
:0A162E00FE7B128B04900121ECF00A
:0C163800900122EAF09001247402F07A84
:0A164400967B138B04900125ECF057
:0C164E00900126EAF09001287402F07A66
:0A165A00667B148B04900129ECF06C
:0C16640090012AEAF090012C7402F07A48
:0A1670007C7B148B0490012DECF03C
:0C167A0090012EEAF09001307402F07A2A
:0A168600927B148B04900131ECF00C
:0C169000900132EAF09001347402F07A0C
:0A169C00A87B148B04900135ECF0DC
:0C16A600900136EAF09001387402F07AEE
:0A16B200BE7B148B04900139ECF0AC
:0C16BC0090013AEAF090013C7402F07AD0
:0A16C800D47B148B0490013DECF07C
:0E16D20090013EEAF05391EF90E65D747FF0D8
:0E16E00090E65CE0FA447FF090E65F74FFF065
:0E16EE0090E65E74FFF0D2E8D2AF90E6117481
:0E16FC00A0F00000000090E61074A0F00000C6
:0D170A00000090E61274E2F0000000009074
:0E171700E61374A2F00000000090E614E4F067
:0E1725000000000090E615E4F0000000005304
:0C173300B2F7308307903A01E4F0800622
:06173F00903A017401F074
:0E1745001214EA90E680E04482F090000A124E
:0A175300026590E680E054F7F022F2
:03175D001215550D
:0A17600090E6A4E05404FAB401007E
:0D176A00E433FA903A00E0FBEA5B60EA909D
:0E177700E694E0FB7A0090E695E0FC7D0042EF
:0B17850002ED4203EA4B70030217EE76
:0B179000C3E49A74029B50030217EEA2
:0B179B0090E6A3E0FC30E3030217EE31
:0417A6007C007D0046
:0E17AA00C3EC9AED9B50238C8274F42DF583D2
:0E17B800E0905001F08C0674F02DFF9050026E
:0E17C600E0F88E828F83F00CBC00D90D80D627
:0E17D40090E690EBF0000000007B0090E691A4
:0C17E200EAF00000000090E6487402F0FD
:0D17EE000000000090E6957480F002176086
:0517FF005A544558009A
:0E1804006D656D656F7279206D617070696E33
:0E18120067206578616D706C6520666F7220CE
:0918200055464D20312E313500F2
:0818290064656661756C7400D2
:0118310000B6
:0E18320012010002FFFFFF401A220001000019
:04184000010203019D
:0A1844000A060002FFFFFF4001004A
:0E184E0009022E00010104C03209040000044A
:0E185C00FFFFFF0007058102000200070501E3
:0E186A000200020007058202000200070504CA
:041878000200020068
:02187C0000006A
:0E187E0009022E00010104C03209040000041A
:0E188C00FFFFFF000705810240000007050175
:0E189A0002400000070582024000000705041E
:0418A80002400000FA
:0218AC0000003A
:0418AE00040300002F
:0E18B200303132333435363738394142434411
:0318C0004546009A
:0218C300000023
:0118C5000022
:0E18C60001880101010101070207020202026E
:0E18D4000200040000000000000400360000C6
:0418E2000000003FC3
:0E18E600020190010101010702020702020245
:0E18F4000200040000000000000400003600A6
:041902000000003FA2
:01190600FFE1
:0119070000DF
:081908000000000000000000D7
:06023700E478FFF6D8FD9B
:08021500794DE94400601B7AF9
:05021D00019018C378F8
:03022200187592BA
:0A0225003AE493F2A308B8000205C2
:08022F0092D9F4DAF27592FF96
:08023D007800E84400600A7932
:03024500007592AF
:060248003AE4F309D8FCC2
:08024E007818E84400600C7907
:0B02560001903A00E4F0A3D8FCD9FAB4
:03020800758120DD
:0A020B001217FBE5826003020203F4
:0417FB0075820022D1
:00000001FF
