:03020000020208EF
:0302610002020393
:050203001215BC80FE95
:03000000020200F9
:0100030032CA
:01000B0032C2
:0100130032BA
:01001B0032B2
:0100230032AA
:01002B0032A2
:01003300329A
:01003B003292
:01004300328A
:01004B003282
:01005300327A
:01005B003272
:01006300326A
:0101000032CC
:0101040032C8
:0101080032C4
:01010C0032C0
:0101100032BC
:0101140032B8
:0101180032B4
:0101200032AC
:0101240032A8
:0101280032A4
:01012C0032A0
:01013000329C
:010134003298
:010138003294
:01013C003290
:01014000328C
:010148003284
:01014C003280
:01015000327C
:010154003278
:010158003274
:01015C003270
:01016000326C
:01017000325C
:010174003258
:010178003254
:01017C003250
:01018000324C
:010184003248
:010188003244
:01018C003240
:01019000323C
:010194003238
:010198003234
:01019C003230
:0101A000322C
:0101A8003224
:0101AC003220
:0101B000321C
:0101B4003218
:0101B8003214
:010264002277
:08026500AA82AB837C007D003E
:0B026D00C3EC9AED9B50147EB07F04A0
:050278001EBEFF011F86
:0B027D00EE4F70F70CBC00E80D80E5B0
:010288002253
:08028900AA82AB837C007D001A
:0B029100C3EC9AED9B50147E0A7F0026
:05029C001EBEFF011F62
:0B02A100EE4F70F70CBC00E80D80E58C
:0102AC00222F
:0E02AD0075AF0790E67BE090E67CF0DAF32276
:0102BB002220
:0202BC007A00C6
:0302BE00BAFF0084
:0D02C100500B90E678E0FB20E0030A80F08F
:0C02CE0090E678E0FA20E204EA20E10B60
:0B02DA0090E678E04440F075820122BD
:0402E50075820022FC
:0202E9007A0099
:0302EB00BAFF0057
:0D02EE00500B90E678E0FB20E0030A80F062
:0E02FB0090E678E0FA30E20B90E678E04440BE
:05030900F075820122E5
:04030E0075820022D2
:020312007A006F
:03031400BAFF002D
:0E031700500F90E678E0FB20E2047582002291
:030325000A80EC5F
:0403280075820122B7
:02032C007A0055
:03032E00BAFF0013
:0E033100500F90E678E0FB20E6047582002273
:03033F000A80EC45
:04034200758201229D
:09034600AA82C3E49508E433FB2C
:0E034F0090E678E04480F0C002C00312031272
:0E035D00D003D00290E679EAF0C002C003128D
:0C036B0002BCE582D003D0027012E5094C
:0C037700600A90E678E04440F012032C8D
:04038300758200225D
:0E038700EB601090000AC002C003120289D081
:0503950003D00280B559
:0C039A00E509600890E678E0FA4440F0C5
:0403A6007582012239
:0C03AA00AA82AB837C00E50C7003F58296
:0103B6002224
:0A03B7007508647509007582A2C084
:0E03C10002C003C004120346E582D004D0033C
:0703CF00D00260030204B03C
:0C03D60090E679E50BF0C002C003C00403
:0E03E2001202BCE582D004D003D002600302F8
:0203F00004B057
:0C03F20090E679E50AF0C002C003C004E8
:0E03FE001202BCE582D004D003D002600302DC
:02040C0004B03A
:0E040E0090E678E04440F0C002C003C0041243
:0D041C00032C90E678E04480F0120312906B
:0E042900E67974A3F01202BCE582D004D00381
:0E043700D002707590E679E08A828B83F0C067
:0E04450002C003C0041202E9E582D004D00315
:05045300D0027059FD0C
:0C045800C3ED950C502A90E679E08A82F2
:0E0464008B83F0A3AA82AB83C002C003C00446
:0E047200C0051202E9E582D005D004D003D007
:0804800002702D0D8D0480D0E7
:0E04880090E678E04420F090E679E0C004129F
:0E04960002E9E582D004701290E678E044405E
:0C04A400F090E679E0C00412032CD004B4
:0304B0008C822219
:0A04B300AA82AB837C007508647513
:0C04BD0009007582A2C002C003C0041236
:0D04C9000346E582D004D003D00260030298
:0204D6000569B6
:0C04D80090E679E50EF0C002C003C004FD
:0E04E4001202BCE582D004D003D002600302F5
:0204F20005699A
:0C04F40090E679E50DF0C002C003C004E2
:0E0500001202BCE582D004D003D002705CFD74
:0C050E00C3ED950F50478A828B83E0FEFE
:0E051A00A3AA82AB8390E679EEF0903A04E05B
:0D052800FFEE2FF0903A02E0FEA3E0FF90FE
:0E0535003A0274012EF0E43FA3F0C002C003AE
:0E054300C004C0051202BCE582D005D004D071
:0A05510003D00270130D8D0480B377
:0E055B0090E678E04440F0C00412032CD00477
:030569008C82225F
:0A056C00903A14E0FA903A00E0F52E
:060576000AA3E0F50B8A68
:0C057C000C90E740C0021203AAAB82D032
:0E058800027C00903A00E0FDA3E0FE903A00F5
:0A059600EA2DF0EC3EA3F08B822268
:0B05A000AA82903A00E0F50DA3E0F500
:0905AB000E8A0F90E740C0021215
:0E05B40004B3D0027B00903A00E0FCA3E0FD0F
:0B05C200903A00EA2CF0EB3DA3F02281
:0C05CD00AA82AB837C00E5117003F5826C
:0105D90022FF
:0A05DA007508647509007582A6C05B
:0E05E40002C003C004120346E582D004D00317
:0705F200D00260030206B70E
:0C05F90090E679E510F0C002C003C004D9
:0E0605001202BCE582D004D003D002600302D2
:0206130006B728
:0E06150090E678E04440F0C002C003C004123A
:0D062300032C90E678E04480F01203129062
:0E063000E67974A7F01202BCE582D004D00374
:0E063E00D002707590E679E08A828B83F0C05E
:0E064C0002C003C0041202E9E582D004D0030C
:05065A00D0027059FD03
:0C065F00C3ED9511502A90E679E08A82E4
:0E066B008B83F0A3AA82AB83C002C003C0043D
:0E067900C0051202E9E582D005D004D003D0FE
:0806870002702D0D8D0480D0DE
:0E068F0090E678E04420F090E679E0C0041296
:0E069D0002E9E582D004701290E678E0444055
:0C06AB00F090E679E0C00412032CD004AB
:0306B7008C822210
:0A06BA00AA82AB837C00750864750A
:0C06C40009007582A6C002C003C0041229
:0D06D0000346E582D004D003D002705A909A
:0C06DD00E679E512F0C002C003C0041270
:0D06E90002BCE582D004D003D0027041FDB8
:0C06F600C3ED9513502C8A828B83E0FE2C
:0E070200A3AA82AB8390E679EEF0C002C0039A
:0E071000C004C0051202BCE582D005D004D0A2
:0A071E0003D00270130D8D0480CE8D
:0E07280090E678E04440F0C00412032CD004A8
:030736008C822290
:07073900903A14E0F5119065
:090740003A05E0F51090E74002D3
:0207490005CDDC
:0D074B00AA8290E6017480F000000000908A
:0E075800E670E4F090E671F053B4F975B2B6B5
:0E07660074904AF58043B40853A0F790000A3F
:0E077400C002120265D00274024AF5807A00BB
:020782007B00FA
:0E07840020A2208A048B057E007F00C3EC9427
:0E079200FFED94FFEE9400EF6480948050071A
:0707A0000ABA00E00B80DD46
:0707A70030A2047AC88002B1
:0207AE007A646B
:0E07B000903A0BEAF0903A07E4F0A3F0A3F0C1
:0807BE00A3F0903A06E4F022DA
:0607C60075820402074BDE
:0607CC0075823402074BA8
:0307D2000207C655
:0E07D500D28743B280903A15E024FF92A075BF
:0E07E300B40190E6A3E0FA54FEF090E60B7429
:0E07F10003F00000000090E60174A3F0000089
:0D07FF00000090E6187409F0000000009062
:0E080C00E6207402F00000000090E621E4F007
:0E081A000000000090E6047480F00000000072
:0E08280090E6047402F00000000090E604E484
:0E083600F00000000090E609E4F00000000071
:0E08440090E602E4F00000000090E603E4F00D
:0708520000000000C2872234
:0708590030A2047A168002B0
:020860007A0B11
:0A086200903A0BE0FBEA2BF07A005D
:03086C00BA40008F
:09086F005007D284C2840A80F40F
:0E087800D287D284C284D284C284D284C28445
:0E088600D284C28475B20053B4F7308105D21B
:04089400811207D5F1
:06089800D28143B20222EE
:0C089E0085B31475B3FF903A14E0FB9092
:0E08AA003A07E0FCA3E0FDA3E0FEA3E0FF7828
:0E08B8000079007A00903A07EB2CF0E83DA39F
:0E08C600F0E93EA3F0EA3FA3F090E68BE0607D
:0E08D40022FA759B40759AE775AF07903A06B9
:0508E200E0F990E67B47
:0E08E700E0F590D28429F9C284DAF5903A0641
:0208F500E9F028
:0B08F7008514B390E68BE0FABA4000D5
:0509020050030208593A
:0109070022CD
:0E09080090E60174E2F090E6F3E4F090E6C3AE
:0E091600F090E6C1F090E6C27404F090E6C0E6
:0C092400744EF090E6F4E4F0759B167A37
:0A093000167B3A8B9A759E60759D48
:0E093A00E4C0027A201202ADD00290E6C6E4BC
:0D094800F090E6C77410F090E6C8E4F0905F
:0E095500E6C9F090E6CAF090E6CBF090E6CC52
:0E096300E4F090E6CDF090E60B7401F0000099
:0D097100000090E6047480F000000000908B
:0E097E00E6047406F00000000090E604E4F0C9
:0E098C000000000090E61AE4F0000000009069
:0E099A00E61A7410F00000000090E6E274010E
:0E09A800F00000000090E6CE7401F0000000A8
:0E09B6000090E6CFE4F00000000090E6D0E4F0
:0E09C400F00000000090E6D1E4F0000000001A
:0E09D20090E6E474FFF00000000053B2EF4323
:0509E000B201C28022FB
:01006C00286B
:01006D000191
:04006E005A54455843
:040072000A0D000073
:010076000089
:010077000187
:060078006300000000001F
:0C007E0000000000000000000000000076
:0A008A00303030303030303030308C
:0109E50022EF
:0E09E60090E683E4F07420F07410F07430F0AA
:0E09F40090E6837401F07421F07411F07431F8
:0E0A0200F090E6837412F07432F07406F07413
:030A100026F022AB
:0A0A1300AA82E51624E050037516D0
:010A1D001FB9
:0D0A1E0090E6BFE0701090E6BEE0FBC395CF
:090A2B0016500690E6BEE0F51637
:0C0A340075AF078A9B85159A759E417569
:0A0A40009DE790E67C7403F07A0055
:0C0A4A00C3EA9516501190E67BE0FB908B
:0B0A5600E67CF090E67CE4F00A80E90A
:0B0A6100E5160425E0FA90E740F09055
:0E0A6C00E7417403F090E68AE4F090E68BEA2E
:020A7A00F02268
:0E0A7C00903A12E0FAA3E0FBC374409AE49BA8
:080A8A0050067C407D00800451
:040A92008A048B0542
:0E0A9600903A14ECF07D00903A12EAC39CF006
:050AA400EB9DA3F02210
:0A0AA900903A56E0FABA3102805686
:040AB300BA32012230
:050AB700BA340280507A
:050ABC00BA3502805E66
:050AC100BA39028016A5
:050AC600BA3C0280357E
:050ACB00BA6002800387
:030AD000020B3FD7
:090AD30090E6BAE0903A15F02219
:0E0ADC00903A04E4F0903A02F0A3F090E6BBEA
:0E0AEA00E0FB7A0090E6BAE0FC7D00903A0056
:080AF800EC4AF0ED4BA3F022E3
:090B000090E6BAE0903A05F022FB
:030B09000207D20E
:0E0B0C001207D290E6A5E054FEF090E6F574D4
:050B1A00FFF0020908D4
:0E0B1F00D280D28443B21090E6F574FFF0004D
:0E0B2D0000000090E601E0FA54F0F000000035
:040B3B000002085953
:080B3F0090E6A0E04401F02261
:0C0B4700C020C0E0C0F0C082C083C0022B
:0E0B5300C003C004C005C006C007C000C0013A
:0E0B6100C0D075D00090E6B9E0FA903A56F098
:0E0B6F0090E6B57401F090E6B9E0FA24F35078
:040B7D0003020EFD64
:070B8100EA2A2A900B887399
:070B8800020BAF020C630237
:060B8F000EFD020CE00265
:060B95000EFD020EFD0240
:060B9B000D78020E93022A
:060BA1000E95020EA602F3
:060BA7000EAB020EBC02C1
:020BAD000EC177
:0A0BAF0090E6B8E0FABA8002800D6B
:050BB900BA8102801E5C
:050BBE00BA8202802F45
:030BC300020EFD22
:0E0BC60090E740E4F090E741F090E68AF0906E
:080BD400E68B7402F0020EFD35
:0E0BDC0090E740E4F090E741F090E68AF09058
:080BEA00E68B7402F0020EFD1F
:0C0BF20090E6BCE0FA600FBA0102801926
:050BFE00BA8002800531
:050C0300BA812F801EE4
:0E0C080090E6A0E0FA53020190E740EAF08087
:010C16003AA3
:0E0C170090E6A1E0FA53020190E740EAF08077
:010C25002BA3
:0E0C260090E6A2E0FA53020190E740EAF08067
:010C34001CA3
:0E0C350090E6BCE0C31314540324A3F582E43C
:0E0C430034E6F583E0FA53020190E740EAF050
:0E0C510090E741E4F090E68AF090E68B7402A2
:040C5F00F0020EFD94
:0A0C630090E6B8E0FABA020280033E
:030C6D00020EFD77
:090C700090E6BAE06003020EFDFB
:0C0C790090E6BCE0FA600FBA01028015A2
:050C8500BA80028005A9
:050C8A00BA8123801671
:0B0C8F0090E6A0E0FA54FEF0020EFD1B
:0B0C9A0090E6A1E0FA54FEF0020EFD0F
:0B0CA50090E6A2E0FA54FEF0020EFD03
:0E0CB00090E6BCE0C31314540324A3FAE4340A
:0E0CBE00E6FB90E6BCE0C31314540324A3F538
:0E0CCC0082E434E6F583E0FC5304FE8A828B5A
:060CDA0083ECF0020EFDA8
:0A0CE00090E6B8E0FABA02028003C1
:030CEA00020EFDFA
:090CED0090E6BAE06003020EFD7E
:0C0CF60090E6BCE0FA600FBA0102801426
:050D0200BA800280052B
:050D0700BA81208014F8
:0A0D0C0090E6A0E0FA4401F08041F7
:0A0D160090E6A1E0FA4401F08037F6
:0A0D200090E6A2E0FA4401F0802DF5
:0E0D2A0090E6BCE0C31314540324A3FAE4348F
:0E0D3800E6FB90E6BCE0C31314540324A3F5BD
:0E0D460082E434E6F583E0FC4304FE8A828BEF
:030D540083ECF03D
:0E0D570090E6BCE05480C423541FFA90E6BC22
:0E0D6500E0FB740F5B420290E683EAF074201C
:050D73004AF0020EFD34
:0A0D780090E6BBE0FABA0102801910
:050D8200BA0202802608
:050D8700BA0302804DDB
:060D8C00BA0603020E4C42
:060D9200BA0703020E5E29
:030D9800020E89BF
:0A0D9B007AF07B1590E6B3EBF090C0
:080DA500E6B474F0F0020EFD4B
:0B0DAD0090E680E0FA30E7127A0C7B41
:0A0DB8001690E6B3EBF090E6B47479
:050DC2000CF0020EFD23
:0A0DC7007A3C7B1690E6B3EBF09047
:080DD100E6B4743CF0020EFDD3
:0A0DD90090E6BAE0FABA0102800FBA
:050DE300BA0202801CB1
:050DE800BA030280299E
:050DED00BA044A803643
:060DF2007582C57AC57B85
:040DF800158B1575CD
:060DFC001605120A1302A5
:020E02000EFDE3
:060E04007582CA7ACA7B68
:040E0A00158B1575BA
:060E0E00161D120A13027A
:020E14000EFDD1
:0A0E160075828A7A8A7B008B1575BD
:060E2000160A120A13027B
:020E26000EFDBF
:060E28007582E77AE77B0A
:040E2E00158B157596
:060E32001608120A13026B
:020E38000EFDAD
:0A0E3A007A6C7B1690E6B3EBF090A3
:080E4400E6B4746CF0020EFD2F
:0A0E4C007A027B1690E6B3EBF090FB
:080E5600E6B47402F0020EFD87
:0B0E5E0090E680E0FA30E7127A3C7B5F
:0A0E69001690E6B3EBF090E6B474C7
:050E73003CF0020EFD41
:0A0E78007A0C7B1690E6B3EBF090C5
:070E8200E6B4740CF080746B
:0A0E890090E6A0E0FA4401F0806A50
:020E9300806875
:0E0E950090E740E4F090E68AF090E68B74015E
:030EA300F0805785
:050EA6001209E6805274
:0E0EAB0090E740E4F090E68AF090E68B740148
:030EB900F0804185
:050EBC001209E6803C74
:0E0EC10090E6B8E0FABA823490E6BCE0C313C3
:0B0ECF0014540325E02458F582E4349D
:0C0EDA003AF583E4F0A3F090E685E09088
:0D0EE600E740F090E684E0FA90E741F090DC
:0A0EF300E68AE4F090E68B7402F04A
:0B0EFD0090E6B8E0FABA400302108350
:050F0800BAC0028003E5
:030F0D000210AD22
:0E0F100090E6BFE0FB7A0090E6BEE0FC7D00BC
:0E0F1E00903A12EC4AF0ED4BA3F0120A7C90D0
:090F2C00E6B9E0FABA22028025C0
:060F3500BA30030210199E
:060F3B00BA33030210624C
:050F4100BA3802803106
:050F4600BA3A028055DB
:060F4B00BA3B03020FDFB8
:060F5100BA3D03020FF897
:030F57000210790C
:0E0F5A0090E6B5E4F090E68AF090E68B7428FD
:0D0F6800F090E6B3E4F090E6B4746CF00293
:020F750010ADBD
:0E0F770090E6BBE0FB7A0090E6BAE0FC7D005D
:0E0F8500903A00EC4AF0ED4BA3F090E68AE4BF
:0D0F9300F012056CE58290E68BF00210ADC7
:0E0FA000903A02E0FAA3E0FB8A0490E740ECEE
:0D0FAE00F08B0290E741EAF0903A04E090E9
:0A0FBB00E742F075080075090175A2
:0D0FC50082A2120346AA8290E743EAF09050
:0D0FD200E68AE4F090E68B7404F00210ADA6
:0E0FDF0090E6BAE0903A05F090E68AE4F0124F
:0B0FED000739E58290E68BF00210ADA2
:0A0FF8007508007509017582A61244
:0E1002000346AA8290E740EAF090E68AE4F006
:0910100090E68B7401F00210ADB2
:06101900759B067A067BC0
:0C101F003A8B9A759E417A417BE78B9DCD
:0E102B00C0027A071202ADD00253B2FD30812E
:0D1039000C90E740E4F0D28143B202800940
:0910460090E7407401F01207C6A6
:0E104F0090E7487401F090E68AE4F090E68B9A
:05105D007409F0804B56
:0E10620090E7407406F090E741E4F090E68AD3
:09107000F090E68B7402F080346C
:0A10790090E6A0E0FA4401F0802A9E
:0C10830090E6BFE0700690E6BEE060164C
:0E108F00903A577401F090E68BE4F05391EF25
:08109D0090E65D7401F080197A
:0810A500120AA990E68BE4F0A9
:0E10AD005391EF90E65D7401F090E6A0E0FA3A
:0310BB004480F07E
:0E10BE00D0D0D001D000D007D006D005D0048D
:0D10CC00D003D002D083D082D0F0D0E0D08D
:0210D9002032C3
:0E10DB00C0E0C082C0835391EF90E65D7402C6
:0810E900F0D083D082D0E03288
:0E10F100C0E0C082C0835391EF90E65D7404AE
:0810FF00F0D083D082D0E03272
:0E110700C0E0C082C0835391EF90E65D740893
:08111500F0D083D082D0E0325B
:0E111D00C0E0C082C0835391EF90E65D741075
:08112B00F0D083D082D0E03245
:0E113300C0E0C082C0835391EF90E65D74204F
:08114100F0D083D082D0E0322F
:0E114900C0E0C082C0835391EF90E65D744019
:08115700F0D083D082D0E03219
:0C115F00C020C0E0C0F0C082C083C0020D
:0E116B00C003C004C005C006C007C000C0011C
:0E117900C0D075D000C2E8120A7C903A56E051
:06118700FABA30028042BA
:05118D00BA3302803DB1
:05119200BA3802800FD5
:05119700BA3A028033AA
:05119C00BA3B028015C2
:0511A100BA3D22802987
:0E11A60090E68AE4F012056CE58290E68BF08C
:0211B4008019A0
:0E11B60090E68AE4F0120739E58290E68BF0AD
:0211C4008009A0
:0911C60090E68AE4F090E68BF05B
:0E11CF005391EF90E65F7401F0D2E8D0D0D0DB
:0E11DD0001D000D007D006D005D004D003D03A
:0C11EB0002D083D082D0F0D0E0D02032BF
:0C11F700C020C0E0C0F0C082C083C00275
:0E120300C003C004C005C006C007C000C00183
:0E121100C0D075D000C2E8903A57E0FA6020D5
:0D121F00903A57E4F090E6BFE0FB7A0090B3
:0E122C00E6BEE0FC7D00903A12EC4AF0ED4B7D
:05123A00A3F0120AA957
:0C123F00120A7C903A56E0FABA31030221
:02124B001298F7
:06124D00BA320302129503
:06125300BA3403021298F8
:06125900BA3503021298F1
:06125F00BA390302127609
:06126500BA3C03021281F5
:05126B00BA60028003DF
:03127000021298CF
:03127300008022D6
:0B12760090E68BE0F5821205A08017C7
:0B128100903A05E0F51290E68BE0F5D6
:09128C001390E7401206BA80033A
:0312950012089E9E
:0E12980090E68BE4F05391EF90E65F7402F065
:0E12A600903A12E0FAA3E0FB4A700890E6A02E
:0512B400E0FA4480F0A7
:0E12B900D2E8D0D0D001D000D007D006D005AA
:0E12C700D004D003D002D083D082D0F0D0E08B
:0312D500D02032F4
:0E12D800C0E0C082C0835391EF90E65F7404C3
:0812E600F0D083D082D0E03289
:0E12EE00C0E0C082C0835391EF90E65F7408A9
:0812FC00F0D083D082D0E03273
:0E130400C0E0C082C0835391EF90E65F74108A
:08131200F0D083D082D0E0325C
:0E131A00C0E0C082C0835391EF90E65F742064
:08132800F0D083D082D0E03246
:0E133000C0E0C082C0835391EF90E65F74402E
:08133E00F0D083D082D0E03230
:0E134600C0E0C082C0835391EF90E65F7480D8
:08135400F0D083D082D0E0321A
:02135C007A0015
:03135E00BA0A00C8
:0E1361005012EA248AF582E43400F583E0FBA2
:06136F00BB30540A80E9C6
:071375007510FB75110590D6
:09137C003A0D1205CD7A007B0048
:03138500BB0500A5
:0A138800503CEB240DF582E4343AEA
:0E139200F583E0FCEA248AFDE43400FEECC49E
:0E13A000540F90167093FF8D828E83F00AEA30
:0E13AE00248AFDE43400FE740F5C90167093E8
:0A13BC00FC8D828E83F00A0B80BFC7
:0113C6002204
:0E13C70090E680E04408F090E6007412F0908A
:0E13D5000002120265538EF8D28143B202C2AA
:0E13E300AFC2E89000437402F0900044740121
:0E13F100F090004574B8F090E668E04408F013
:0A13FF009001007402F07A477B0BA6
:0D1409008B04900101ECF0900102EAF090DC
:0A14160001047402F07ADB7B108BF6
:0E14200004900105ECF0900106EAF09001083E
:0A142E007402F07AF17B108B049039
:0E1438000109ECF090010AEAF090010C740238
:0A144600F07A077B118B0490010D72
:0E145000ECF090010EEAF09001107402F07AB8
:0A145E001D7B118B04900111ECF0CE
:0C146800900112EAF09001147402F07A76
:0A147400337B118B04900115ECF09E
:0C147E00900116EAF09001187402F07A58
:0A148A00497B118B04900119ECF06E
:0C14940090011AEAF09001207402F07A36
:0A14A0005F7B118B04900121ECF03A
:0C14AA00900122EAF09001247402F07A14
:0A14B600F77B118B04900125ECF088
:0C14C000900126EAF09001287402F07AF6
:0A14CC00D87B128B04900129ECF08C
:0C14D60090012AEAF090012C7402F07AD8
:0A14E200EE7B128B0490012DECF05C
:0C14EC0090012EEAF09001307402F07ABA
:0A14F800047B138B04900131ECF02B
:0C150200900132EAF09001347402F07A9B
:0A150E001A7B138B04900135ECF0FA
:0C151800900136EAF09001387402F07A7D
:0A152400307B138B04900139ECF0CA
:0C152E0090013AEAF090013C7402F07A5F
:0A153A00467B138B0490013DECF09A
:0E15440090013EEAF05391EF90E65D747FF067
:0E15520090E65CE0FA447FF090E65F74FFF0F4
:0E15600090E65E74FFF0D2E8D2AF90E6117410
:0E156E00A0F00000000090E61074A0F0000055
:0D157C00000090E61274E0F0000000009006
:0E158900E613E4F00000000090E61474A2F0F7
:0E1597000000000090E615E4F00000000012D5
:0D15A500135C90E680E04482F090000A1292
:0A15B200026590E680E054F7F02295
:0315BC001213C740
:0215BF0080FEAC
:0515C5005A54455800D6
:0E15CA006D656D74657374206578616D706C6D
:0E15D8006520666F722055464D20312E31354C
:0115E6000004
:0815E70064656661756C740017
:0115EF0000FB
:0E15F00012010002FFFFFF401A22000100005E
:0415FE0001020301E2
:0A1602000A060002FFFFFF4001008E
:0E160C0009022E00010104C03209040000048E
:0E161A00FFFFFF000705810200020007050127
:0E16280002000200070582020002000705060C
:0416360002000200AC
:02163A000000AE
:0E163C0009022E00010104C03209040000045E
:0E164A00FFFFFF0007058102400000070501B9
:0E165800024000000705820240000007050660
:04166600024000003E
:02166A0000007E
:04166C000403000073
:0E167000303132333435363738394142434455
:03167E00454600DE
:02168100000067
:011683000066
:011684000065
:0E1685000188010101010107020702020202B1
:0E169300020004000000000000040036000009
:0416A1000000003F06
:0E16A500020190010101010702020702020288
:0E16B3000200040000000000000400003600E9
:0416C1000000003FE6
:0116C500FF25
:0116C6000023
:0816C70000000000000000001B
:06023700E478FFF6D8FD9B
:08021500794EE94400601B7AF8
:05021D0001901681783C
:03022200127592C0
:0A0225003AE493F2A308B8000205C2
:08022F0092D9F4DAF27592FF96
:08023D007800E84400600A7932
:03024500007592AF
:060248003AE4F309D8FCC2
:08024E007812E84400600C790D
:0B02560001903A00E4F0A3D8FCD9FAB4
:03020800758120DD
:0A020B001215C1E582600302020330
:0415C100758200220D
:00000001FF
