:03020000020208EF
:0302610002020393
:0502030012181B80FE33
:03000000020200F9
:0100030032CA
:01000B0032C2
:0100130032BA
:01001B0032B2
:0100230032AA
:01002B0032A2
:01003300329A
:01003B003292
:01004300328A
:01004B003282
:01005300327A
:01005B003272
:01006300326A
:0101000032CC
:0101040032C8
:0101080032C4
:01010C0032C0
:0101100032BC
:0101140032B8
:0101180032B4
:0101200032AC
:0101240032A8
:0101280032A4
:01012C0032A0
:01013000329C
:010134003298
:010138003294
:01013C003290
:01014000328C
:010148003284
:01014C003280
:01015000327C
:010154003278
:010158003274
:01015C003270
:01016000326C
:01017000325C
:010174003258
:010178003254
:01017C003250
:01018000324C
:010184003248
:010188003244
:01018C003240
:01019000323C
:010194003238
:010198003234
:01019C003230
:0101A000322C
:0101A8003224
:0101AC003220
:0101B000321C
:0101B4003218
:0101B8003214
:010264002277
:08026500AA82AB837C007D003E
:0B026D00C3EC9AED9B50147EB07F04A0
:050278001EBEFF011F86
:0B027D00EE4F70F70CBC00E80D80E5B0
:010288002253
:08028900AA82AB837C007D001A
:0B029100C3EC9AED9B50147E0A7F0026
:05029C001EBEFF011F62
:0B02A100EE4F70F70CBC00E80D80E58C
:0102AC00222F
:0E02AD0075AF0790E67BE090E67CF0DAF32276
:0102BB002220
:0202BC007A00C6
:0302BE00BAFF0084
:0D02C100500B90E678E0FB20E0030A80F08F
:0C02CE0090E678E0FA20E204EA20E10B60
:0B02DA0090E678E04440F075820122BD
:0402E50075820022FC
:0202E9007A0099
:0302EB00BAFF0057
:0D02EE00500B90E678E0FB20E0030A80F062
:0E02FB0090E678E0FA30E20B90E678E04440BE
:05030900F075820122E5
:04030E0075820022D2
:020312007A006F
:03031400BAFF002D
:0E031700500F90E678E0FB20E2047582002291
:030325000A80EC5F
:0403280075820122B7
:02032C007A0055
:03032E00BAFF0013
:0E033100500F90E678E0FB20E6047582002273
:03033F000A80EC45
:04034200758201229D
:09034600AA82C3E49521E433FB13
:0E034F0090E678E04480F0C002C00312031272
:0E035D00D003D00290E679EAF0C002C003128D
:0C036B0002BCE582D003D0027012E52233
:0C037700600A90E678E04440F012032C8D
:04038300758200225D
:0E038700EB601090000AC002C003120289D081
:0503950003D00280B559
:0C039A00E522600890E678E0FA4440F0AC
:0403A6007582012239
:0C03AA00AA82AB837C00E5257003F5827D
:0103B6002224
:0A03B7007521647522007582A2C052
:0E03C10002C003C004120346E582D004D0033C
:0703CF00D00260030204B03C
:0C03D60090E679E524F0C002C003C004EA
:0E03E2001202BCE582D004D003D002600302F8
:0203F00004B057
:0C03F20090E679E523F0C002C003C004CF
:0E03FE001202BCE582D004D003D002600302DC
:02040C0004B03A
:0E040E0090E678E04440F0C002C003C0041243
:0D041C00032C90E678E04480F0120312906B
:0E042900E67974A3F01202BCE582D004D00381
:0E043700D002707590E679E08A828B83F0C067
:0E04450002C003C0041202E9E582D004D00315
:05045300D0027059FD0C
:0C045800C3ED9525502A90E679E08A82D9
:0E0464008B83F0A3AA82AB83C002C003C00446
:0E047200C0051202E9E582D005D004D003D007
:0804800002702D0D8D0480D0E7
:0E04880090E678E04420F090E679E0C004129F
:0E04960002E9E582D004701290E678E044405E
:0C04A400F090E679E0C00412032CD004B4
:0304B0008C822219
:0A04B300AA82AB837C0075216475FA
:0C04BD0022007582A2C002C003C004121D
:0D04C9000346E582D004D003D00260030298
:0204D6000569B6
:0C04D80090E679E527F0C002C003C004E4
:0E04E4001202BCE582D004D003D002600302F5
:0204F20005699A
:0C04F40090E679E526F0C002C003C004C9
:0E0500001202BCE582D004D003D002705CFD74
:0C050E00C3ED952850478A828B83E0FEE5
:0E051A00A3AA82AB8390E679EEF0903A04E05B
:0D052800FFEE2FF0903A02E0FEA3E0FF90FE
:0E0535003A0274012EF0E43FA3F0C002C003AE
:0E054300C004C0051202BCE582D005D004D071
:0A05510003D00270130D8D0480B377
:0E055B0090E678E04440F0C00412032CD00477
:030569008C82225F
:0A056C00903A19E0FA903A00E0F529
:0605760023A3E0F5248A36
:0C057C002590E740C0021203AAAB82D019
:0E058800027C00903A00E0FDA3E0FE903A00F5
:0A059600EA2DF0EC3EA3F08B822268
:0B05A000AA82903A00E0F526A3E0F5E7
:0905AB00278A2890E740C00212E3
:0E05B40004B3D0027B00903A00E0FCA3E0FD0F
:0B05C200903A00EA2CF0EB3DA3F02281
:0E05CD0043B202E582C281C28013D2809281C5
:0E05DB00C28013D2809281C28013D28092819E
:0E05E900C28013D2809281C28013D280928190
:0E05F700C28013D2809281C28013D280928182
:0E060500C28013D2809281C28013D280A2D014
:0E0613009281C280D280D281C280D280C28009
:03062100D2802262
:0906240053B2FDC280D280A9008E
:0A062D00A2815006C280D280D9F6E7
:0E063700C280D280A28113C280D280A2811321
:0E064500C280D280A28113C280D280A2811313
:0E065300C280D280A28113C280D280A2811305
:0E066100C280D280A28113C280D280A28113F7
:0D066F00C280D280A281400520D0188003F7
:03067C0030D01368
:0E067F00C280D280A281500FC280D280A281A0
:05068D00500BF5822274
:04069200C280D280D0
:04069600C280D280CC
:0A069A00903A057401F07582002209
:0E06A4005380FD43800143B2034380020000F7
:0606B200000000007A00C8
:0306B800BA100075
:0B06BB0050095380FE4380010A80F2CA
:0C06C6007582C21205CD7582020205CDBE
:0E06D20075820C1205CD7582CF1205CD758292
:0E06E000011205CD7582001205CD7582011242
:0506EE0005CD02062409
:0406F3007A007B000E
:0E06F7008A048B057E007F00C3EC9440ED94D6
:0E0705009CEE9400EF64809480501FC002C0F0
:0E071300031206D2E582D003D00230E7079031
:060721003A05E0FC600156
:0107270022AF
:070728000ABA00CB0B80C8E8
:07072F00903A057405F02269
:0D0736001206A47582C11205CD75825912FC
:0C07430005CD7582E01205CD7582FF1215
:0C074F0005CD7582881205CD7582D81288
:0C075B0005CD7582CD1205CD75824512CA
:0C07670005CD7582AB1205CD758289129C
:0A07730005CD7582121205CD7A0043
:0E077D00758280C0021205CD120624E582D0DE
:0D078B00025402FB7007903A05E0FB600489
:040798007B00800260
:02079C007B01DF
:07079E000AEA6003EB70D8CA
:0907A500EB6006903A057402F0C5
:0107AE002228
:0E07AF00AA8275824CC0021205CDD0028A8249
:0D07BD001205CD7582011205CD7582001266
:0907CA0005CD7582011205CD85F3
:0507D30029820205CDA2
:0D07D8007582C11205CD7582001205CD7528
:0C07E50029007582CA1207AF5380FD4343
:0307F10080012262
:0C07F4007529007582CA1207AF5380FD02
:04080000438001220E
:0C080400AA82AB83E52EFC7003F5822273
:0C0810007529437582CAC002C003C004F1
:0A081C001207AF75826B1205CDAD17
:070826002A8D821205CD8529
:06082D002B821205CD85AF
:060833002C821205CD85A8
:090839002D821205CD7582A0127A
:0E08420005CDD004EC14F582C0041205CD756E
:0D08500082241205CDD004D003D0028C0507
:0E085D00ED602A903A05E0FE7023C002C00351
:0E086B00C004C005120624AE82D005D004D011
:0E08790003D0028A828B83EEF0A3AA82AB83A7
:030887001D80D3FE
:06088A00ECC39DF5822283
:08089000AA82E535FB7001228C
:0C0898008A297582CAC0031207AF75825E
:0908A4006B1205CDAA318A821203
:0608AD0005CD8532821228
:0608B30005CD8533821221
:0608B90005CD853482121A
:0E08BF0005CD7582A01205CDD003EB14F58295
:0E08CD00C0031205CD7582641205CDD003AABA
:0308DB002FAC300F
:0E08DE00EB601F8A828C83E0FDA3AA82AC83AC
:0E08EC008D82C002C003C0041205CDD004D01E
:0608FA0003D0021B80DEAA
:0109000022D4
:0C0901008582297582CA1207AF75824CEE
:08090D001205CDAA368A821200
:0609150005CD85378212BA
:06091B0005CD85388212B3
:0609210005CD85398212AC
:0909270005CD7582001205CD0218
:0209300006F3CC
:0B093200AA8275294C7582CAC002120F
:0E093D0007AF75824C1205CDD00274204AF52A
:0E094B00821205CD7582001205CD75828F12C5
:0909590005CD7582001205CD8563
:060962003A821205CD02ED
:0209680006F394
:0D096A0043B2019000141202895380FE90E8
:09097700000512028943800122EF
:0C098000903A0CE4F0903A06F0A3F090DE
:0E098C003A087440F0E4A3F0903A0B7405F0C2
:0A099A00903A0A7409F01207369033
:0709A4003A05E0FA600122B0
:0709AB00752A90752B007501
:0609B2002C00752D0175FB
:0609B8002E03903A141218
:0A09BE000804903A05E0FA600122F7
:0D09C8001207D8903A14E0FABA1E02800718
:0709D500903A057403F022C3
:0A09DC00903A15E0FAE4BA9701041E
:0E09E600FB6019903A16E0FCBC4C11903A06EA
:0E09F4007410F0A37401F0903A137482F02294
:0E0A0200EB6019903A16E0FBBB4E11903A06DD
:0E0A10007490F0A37401F0903A137483F022F6
:0E0A1E00BA9822903A16E0FABA461A903A06B2
:0E0A2C007410F0A37402F0903A087480F0E4A5
:090A3A00A3F0903A137484F02239
:070A4300903A057403F02254
:0A0A4A00903A19E0FA7003F58222D9
:0E0A5400C002120736D002903A05E0FBB40152
:010A62000093
:0C0A6300E433FB6022903A0FE0F52AA378
:0A0A6F00E0F52BA3E0F52CA3E0F561
:090A79002D8A2E90E740C0021204
:080A82000804AB82D0028002DF
:020A8A007B00EF
:0A0A8C008B3BC0021207D8D0029085
:0E0A96003A0FE0FCA3E0FDA3E0FEA3E0FF7832
:0E0AA4000079007B00903A0FEA2CF0E83DA3A9
:0C0AB200F0E93EA3F0EB3FA3F0853B828F
:010ABE002215
:0D0ABF00903A19E0FAC002120736D00290FA
:070ACC003A05E0FB60012286
:070AD300752F407530E7901C
:080ADA003A0FE0F531A3E0F54D
:080AE20032A3E0F533A3E0F5B7
:090AEA00348A35758223C0021222
:0E0AF3000890D002903A17E0FBA3E0FC4B7095
:0E0B010036903A0FE0FBA3E0FCA3E0FDA3E07A
:0E0B0F00FE8D07903A13E0F8C3EF9850047F74
:030B1D002580022E
:020B20007F2D27
:050B22008B368C378DBD
:080B2700388E398F82C00212E2
:090B2F0009011207D8D002800769
:070B3800C0021207F4D00215
:0E0B3F00903A0FE0FBA3E0FCA3E0FDA3E0FE74
:0E0B4D007F0078007900903A0FEA2BF0EF3C21
:0B0B5B00A3F0E83DA3F0E93EA3F02268
:01006C00286B
:01006D000191
:04006E005A54455843
:040072000A1E000062
:010076000089
:010077000187
:0600780011000000000071
:0C007E0000000000000000000000000076
:0A008A00303030303030303030308C
:010B6600226C
:0E0B670090E683E4F07420F07410F07430F027
:0E0B750090E6837401F07421F07411F0743175
:0E0B8300F090E6837412F07432F07404F07493
:030B910024F0222B
:0A0B9400AA82E50924E05003750968
:010B9E001F37
:0D0B9F0090E6BFE0701090E6BEE0FBC3954D
:090BAC0009500690E6BEE0F509CF
:0C0BB50075AF078A9B85089A759E4175F4
:0A0BC1009DE790E67C7403F07A00D3
:0C0BCB00C3EA9509501190E67BE0FB9016
:0B0BD700E67CF090E67CE4F00A80E988
:0B0BE200E5090425E0FA90E740F090E0
:0E0BED00E7417403F090E68AE4F090E68BEAAC
:020BFB00F022E6
:0E0BFD00903A17E0FAA3E0FBC374409AE49B21
:080C0B0050067C407D008004CE
:040C13008A048B05BF
:0E0C1700903A19ECF07D00903A17EAC39CF079
:050C2500EB9DA3F0228D
:0A0C2A00903A1AE0FABA3902801974
:050C3400BA49028038FE
:050C3900BA4B028036F9
:060C3E00BA4C03020CE1B8
:060C4400BA4D03020D9AF7
:030C4A00020DE0B8
:0E0C4D00903A04E4F0903A02F0A3F090E6BB77
:0E0C5B00E0FB7A0090E6BAE0FC7D00903A00E3
:080C6900EC4AF0ED4BA3F02270
:030C710002096A0B
:0E0C740090E6BAE0FAA3E0FBA3E0FCA3E0FDEB
:0E0C8200903A0FEAF0A3EBF074802CA3F0E49C
:0E0C90003DA3F090E6BAE0703390E6BBE0FAC8
:0E0C9E0020E02B90E6BFE0FABA022390E6BEFB
:0E0CAC00E0701D90E6BBE0FAA3E0C313CA138C
:0E0CBA00CAFB903A06E0FCA3E0FDC3EA9CEB07
:040CC8009D50012218
:0E0CCC00903A057404F090E6A0E04401F09028
:070CDA003A17E4F0A3F02239
:0E0CE10090E6BAE0FAA3E0FBA3E0FCA3E0FD7E
:0E0CEF00903A0FEAF0A3EBF0748C2CA3F0E423
:0E0CFD003DA3F090E6BAE0FA541F6002803387
:0E0D0B0090E6BFE0702D90E6BEE0FABA20251B
:0E0D190090E6BAE0FAA3E0C403CAC40354078C
:0E0D27006ACA5407CA6ACAFB903A08E0FCA3E5
:090D3500E0FDC3EA9CEB9D4015B2
:0E0D3E00903A057404F090E6A0E04401F090B5
:070D4C003A17E4F0A3F022C6
:0B0D5300120736903A05E0FA6001221A
:070D5E00752F407530E7908E
:080D65003A0FE0F531A3E0F5BF
:080D6D0032A3E0F533A3E0F529
:080D750034753520758233123C
:070D7D000890903A0FE0F529
:080D840036A3E0F537A3E0F50A
:090D8C0038A3E0F5397582351237
:050D950009010207D86E
:0D0D9A0090E6BEE0701590E6BFE0700F908F
:0E0DA700E6BDE0700990E6BCE0FA24F85015B5
:0E0DB500903A057404F090E6A0E04401F0903E
:070DC3003A17E4F0A3F0224F
:0D0DCA0012073690E6BCE0FA90E6BAE0F5BC
:070DD7003A8A821209320280
:020DDE0007D834
:080DE00090E6A0E04401F022BE
:0C0DE800C020C0E0C0F0C082C083C00288
:0E0DF400C003C004C005C006C007C000C00197
:0E0E0200C0D075D00090E6B9E0FA903A1AF030
:0E0E100090E6B57401F090E6B9E0FA24F350D4
:040E1E000302119E1C
:070E2200EA2A2A900E297351
:070E2900020E50020F04024B
:060E3000119E020F810279
:060E3600119E02119E0254
:060E3C001019021134023E
:060E420011360211470207
:060E4800114C02115D02D5
:020E4E0011622F
:0A0E500090E6B8E0FABA8002800DC7
:050E5A00BA8102801EB8
:050E5F00BA8202802FA1
:030E640002119EDA
:0E0E670090E740E4F090E741F090E68AF090CA
:080E7500E68B7402F002119EED
:0E0E7D0090E740E4F090E741F090E68AF090B4
:080E8B00E68B7402F002119ED7
:0C0E930090E6BCE0FA600FBA0102801982
:050E9F00BA800280058D
:050EA400BA812F801E41
:0E0EA90090E6A0E0FA53020190E740EAF080E4
:010EB7003A00
:0E0EB80090E6A1E0FA53020190E740EAF080D4
:010EC6002B00
:0E0EC70090E6A2E0FA53020190E740EAF080C4
:010ED5001C00
:0E0ED60090E6BCE0C31314540324A3F582E499
:0E0EE40034E6F583E0FA53020190E740EAF0AD
:0E0EF20090E741E4F090E68AF090E68B7402FF
:040F0000F002119E4C
:0A0F040090E6B8E0FABA020280039A
:030F0E0002119E2F
:090F110090E6BAE0600302119EB3
:0C0F1A0090E6BCE0FA600FBA01028015FE
:050F2600BA8002800505
:050F2B00BA81238016CD
:0B0F300090E6A0E0FA54FEF002119ED3
:0B0F3B0090E6A1E0FA54FEF002119EC7
:0B0F460090E6A2E0FA54FEF002119EBB
:0E0F510090E6BCE0C31314540324A3FAE43466
:0E0F5F00E6FB90E6BCE0C31314540324A3F594
:0E0F6D0082E434E6F583E0FC5304FE8A828BB6
:060F7B0083ECF002119E60
:0A0F810090E6B8E0FABA020280031D
:030F8B0002119EB2
:090F8E0090E6BAE0600302119E36
:0C0F970090E6BCE0FA600FBA0102801482
:050FA300BA8002800588
:050FA800BA8120801455
:0A0FAD0090E6A0E0FA4401F0804154
:0A0FB70090E6A1E0FA4401F0803753
:0A0FC10090E6A2E0FA4401F0802D52
:0E0FCB0090E6BCE0C31314540324A3FAE434EC
:0E0FD900E6FB90E6BCE0C31314540324A3F51A
:0E0FE70082E434E6F583E0FC4304FE8A828B4C
:030FF50083ECF09A
:0E0FF80090E6BCE05480C423541FFA90E6BC7F
:0E100600E0FB740F5B420290E683EAF0742078
:051014004AF002119EEC
:0A10190090E6BBE0FABA010280196C
:05102300BA0202802664
:05102800BA0302804D37
:06102D00BA06030210EDFB
:06103300BA07030210FFE2
:0310390002112A77
:0A103C007A307B1990E6B3EBF090D8
:08104600E6B47430F002119EC3
:0B104E0090E680E0FA30E7127A4C7B5D
:0A1059001990E6B3EBF090E6B474D2
:051063004CF002119E9B
:0A1068007A7C7B1990E6B3EBF09060
:08107200E6B4747CF002119E4B
:0A107A0090E6BAE0FABA0102800F16
:05108400BA0202801C0D
:05108900BA03028029FA
:05108E00BA044A80369F
:061093007582FE7AFE7B6F
:04109900188B087533
:06109D000905120B94028C
:0210A300119E9C
:0610A5007582037A037B53
:0410AB00198B087520
:0610AF000925120B94025A
:0210B500119E8A
:0A10B70075828A7A8A7B008B087527
:0610C100090A120B940263
:0210C700119E78
:0610C9007582287A287BE5
:0410CF00198B0875FC
:0610D3000908120B940253
:0210D900119E66
:0A10DB007AAC7B1990E6B3EBF090BD
:0810E500E6B474ACF002119EA8
:0A10ED007A427B1990E6B3EBF09015
:0810F700E6B47442F002119E00
:0B10FF0090E680E0FA30E7127A7C7B7C
:0A110A001990E6B3EBF090E6B47420
:051114007CF002119EB9
:0A1119007A4C7B1990E6B3EBF090DE
:07112300E6B4744CF0807487
:0A112A0090E6A0E0FA4401F0806AAC
:021134008068D1
:0E11360090E740E4F090E68AF090E68B7401BA
:03114400F08057E1
:05114700120B6780524D
:0E114C0090E740E4F090E68AF090E68B7401A4
:03115A00F08041E1
:05115D00120B67803C4D
:0E11620090E6B8E0FABA823490E6BCE0C3131F
:0B11700014540325E0241CF582E43435
:0C117B003AF583E4F0A3F090E685E090E4
:0D118700E740F090E684E0FA90E741F09038
:0A119400E68AE4F090E68B7402F0A6
:0B119E0090E6B8E0FABA4003021334F8
:0511A900BAC002800342
:0311AE0002135ECB
:0E11B10090E6BFE0FB7A0090E6BEE0FC7D0019
:0E11BF00903A17EC4AF0ED4BA3F0120BFD90A6
:0911CD00E6B9E0FABA2202802B17
:0511D600BA380280435D
:0511DB00BA3A02806732
:0611E000BA48030212866A
:0611E600BA4A030212AC3C
:0611EC00BA4B030212AC35
:0611F200BA4C030212AC2E
:0611F800BA4D030212AC27
:0311FE0002132AAF
:0E12010090E6B5E4F090E68AF090E68B742853
:0D120F00F090E6B3E4F090E6B4746CF002E9
:02121C00135E5F
:0E121E0090E6BBE0FB7A0090E6BAE0FC7D00B3
:0E122C00903A00EC4AF0ED4BA3F090E68AE415
:0D123A00F012056CE58290E68BF002135E69
:0E124700903A02E0FAA3E0FB8A0490E740EC44
:0D125500F08B0290E741EAF0903A04E0903F
:0A126200E742F075210075220175C6
:0D126C0082A2120346AA8290E743EAF090A6
:0D127900E68AE4F090E68B7404F002135E48
:06128600759B057A057B53
:0C128C003A8B9A759E40759DE7C0027A6F
:0E129800071202ADD00290E68AE4F090E68BD9
:0612A6007407F002135E64
:0E12AC0090E6BAE0FAA3E0FBA3E0FCA3E0FDAD
:0E12BA00903A0FEAF0A3EBF0A3ECF0A3EDF0F6
:0E12C80090E6B9E0FEBE4B13903A0FEAF0A399
:0D12D600EBF074802CA3F0E43DA3F0803712
:0E12E30090E6B9E0FEBE4C13903A0FEAF0A37D
:0D12F100EBF0748C2CA3F0E43DA3F0801C06
:0E12FE0090E6B9E0FEBE4D14903A0F74202A1F
:0E130C00F0E43BA3F0748F3CA3F0E43DA3F0AB
:0E131A0090E68AE4F0120A4AE58290E68BF033
:0213280080340F
:0A132A0090E6A0E0FA4401F0802AEA
:0C13340090E6BFE0700690E6BEE0601698
:0E134000903A1B7401F090E68BE4F05391EFAD
:08134E0090E65D7401F08019C6
:08135600120C2A90E68BE4F072
:0E135E005391EF90E65D7401F090E6A0E0FA86
:03136C004480F0CA
:0E136F00D0D0D001D000D007D006D005D004D9
:0D137D00D003D002D083D082D0F0D0E0D0D9
:02138A0020320F
:0E138C00C0E0C082C0835391EF90E65D740212
:08139A00F0D083D082D0E032D4
:0E13A200C0E0C082C0835391EF90E65D7404FA
:0813B000F0D083D082D0E032BE
:0E13B800C0E0C082C0835391EF90E65D7408E0
:0813C600F0D083D082D0E032A8
:0E13CE00C0E0C082C0835391EF90E65D7410C2
:0813DC00F0D083D082D0E03292
:0E13E400C0E0C082C0835391EF90E65D74209C
:0813F200F0D083D082D0E0327C
:0E13FA00C0E0C082C0835391EF90E65D744066
:08140800F0D083D082D0E03265
:0C141000C020C0E0C0F0C082C083C00259
:0E141C00C003C004C005C006C007C000C00168
:0E142A00C0D075D000C2E8120BFD903A1AE057
:06143800FABA380280261A
:06143E00BA3A030214910A
:05144400BA4802802CF3
:06144900BA4A0302147808
:06144F00BA4B0302147801
:06145500BA4C03021478FA
:06145B00BA4D03021478F3
:03146100021488EA
:0E14640090E68AE4F012056CE58290E68BF0CB
:03147200021491D0
:03147500008019DB
:0E14780090E68AE4F0120A4AE58290E68BF0D4
:021486008009DB
:0914880090E68AE4F090E68BF096
:0E1491005391EF90E65F7401F0D2E8D0D0D016
:0E149F0001D000D007D006D005D004D003D075
:0C14AD0002D083D082D0F0D0E0D02032FA
:0C14B900C020C0E0C0F0C082C083C002B0
:0E14C500C003C004C005C006C007C000C001BF
:0E14D300C0D075D000C2E8903A1BE0FA60204D
:0D14E100903A1BE4F090E6BFE0FB7A00902B
:0E14EE00E6BEE0FC7D00903A17EC4AF0ED4BB4
:0514FC00A3F0120C2A10
:0D150100120BFD903A1AE0FABA3902801A76
:05150E00BA4902802132
:06151300BA4B030215387B
:06151900BA4C0302156745
:06151F00BA4D030215663F
:0315250002156745
:0C15280090E68BE0F5821205A00215672A
:041534000002156735
:0A153800903A19E0FA7003021567FB
:09154200903A05E4F0120ABF9092
:09154B003A05E0FA70030215678D
:0E15540090E6A0E0FA4401F0903A17E4F0A30C
:04156200F002156717
:011566000084
:0E15670090E68BE4F05391EF90E65F7402F093
:0E157500903A17E0FAA3E0FB4A700890E6A057
:05158300E0FA4480F0D5
:0E158800D2E8D0D0D001D000D007D006D005D8
:0E159600D004D003D002D083D082D0F0D0E0B9
:0315A400D0203222
:0E15A700C0E0C082C0835391EF90E65F7404F1
:0815B500F0D083D082D0E032B7
:0E15BD00C0E0C082C0835391EF90E65F7408D7
:0815CB00F0D083D082D0E032A1
:0E15D300C0E0C082C0835391EF90E65F7410B9
:0815E100F0D083D082D0E0328B
:0E15E900C0E0C082C0835391EF90E65F742093
:0815F700F0D083D082D0E03275
:0E15FF00C0E0C082C0835391EF90E65F74405D
:08160D00F0D083D082D0E0325E
:0E161500C0E0C082C0835391EF90E65F748006
:08162300F0D083D082D0E03248
:0E162B0090E680E04408F090E6007412F09023
:0D1639000002120265538EF8C2AFC2E890A5
:0E16460000437402F09000447401F0900045DF
:0E16540074B8F090E668E04408F0900100746D
:0916620002F07AE87B0D8B049084
:0E166B000101ECF0900102EAF090010474021B
:0A167900F07A8C7B138B04900105BE
:0E168300ECF0900106EAF09001087402F07A93
:0A169100A27B138B04900109ECF01A
:0C169B0090010AEAF090010C7402F07A51
:0A16A700B87B138B0490010DECF0EA
:0C16B10090010EEAF09001107402F07A33
:0A16BD00CE7B138B04900111ECF0BA
:0C16C700900112EAF09001147402F07A15
:0A16D300E47B138B04900115ECF08A
:0C16DD00900116EAF09001187402F07AF7
:0A16E900FA7B138B04900119ECF05A
:0C16F30090011AEAF09001207402F07AD5
:0A16FF00107B148B04900121ECF025
:0C170900900122EAF09001247402F07AB2
:0A171500B97B148B04900125ECF061
:0C171F00900126EAF09001287402F07A94
:0A172B00A77B158B04900129ECF058
:0C17350090012AEAF090012C7402F07A76
:0A174100BD7B158B0490012DECF028
:0C174B0090012EEAF09001307402F07A58
:0A175700D37B158B04900131ECF0F8
:0C176100900132EAF09001347402F07A3A
:0A176D00E97B158B04900135ECF0C8
:0C177700900136EAF09001387402F07A1C
:0A178300FF7B158B04900139ECF098
:0C178D0090013AEAF090013C7402F07AFE
:0A179900157B168B0490013DECF067
:0E17A30090013EEAF05391EF90E65D747FF006
:0E17B10090E65CE0FA447FF090E65F74FFF093
:0E17BF0090E65E74FFF0D2E8D2AF90E61174AF
:0E17CD00A0F00000000090E61074A0F00000F4
:0D17DB00000090E61274E2F00000000090A3
:0E17E800E61374A2F00000000090E614E4F096
:0E17F6000000000090E615E4F0000000001274
:0D180400098090E680E04482F090000A1216
:0A181100026590E680E054F7F02233
:0E181B0012162B75B30075B5FF90E6A3E0FA28
:0E18290054FEF00000000090E6A4E0FA54FE29
:0E183700F00000000090E6957480F0000000C4
:0E1845000090E6957480F090E6047480F00048
:0E18530000000090E6047402F0000000009017
:08186100E604E4F000000000C1
:0E18690090E6A4E0FA20E2F890E694E0FB7A24
:0E1877000090E695E0FC7D004202ED4203EA9F
:061885004B70030218ED98
:0B188B00C3E49A74029B50030218EDA6
:0B18960090E6A3E0FC30E3030218ED35
:0418A1007C007D004A
:0E18A500C3EC9AED9B50318C8274F42DF583C8
:0E18B300E0F5B0900001C002C003C004C00503
:0E18C100120289D005D004D003D0028C8274AC
:0E18CF00F02DF583E590F00CBC00CB0D80C829
:0E18DD0090E690EBF0000000007B0090E6919A
:0218EB00EAF021
:0D18ED000000000090E6957480F00218697C
:0518FE005A544558009A
:0E19030075636563686F206578616D706C6553
:0E19110020666F72205553422D584D454741B8
:09191F00204D6F64756C657300C6
:0819280064656661756C7400D2
:0E19300012010002FFFFFF401A22000100001A
:04193E00010203019E
:0A1942000A060002FFFFFF4001004B
:0E194C0009022E00010104C03209040000044B
:0E195A00FFFFFF0007058102000200070501E4
:0E1968000200020007058202000200070504CB
:041976000200020069
:02197A0000006B
:0E197C0009022E00010104C03209040000041B
:0E198A00FFFFFF000705810240000007050176
:0E19980002400000070582024000000705041F
:0419A60002400000FB
:0219AA0000003B
:0419AC000403000030
:0219B000000035
:0119B2000034
:0119B300FF34
:0119B4000032
:0819B50000000000000000002A
:06023700E478FFF6D8FD9B
:08021500790DE94400601B7A39
:05021D00019019B0780A
:03022200177592BB
:0A0225003AE493F2A308B8000205C2
:08022F0092D9F4DAF27592FF96
:08023D007800E84400600A7932
:03024500007592AF
:060248003AE4F309D8FCC2
:08024E007817E84400600C7908
:0B02560001903A00E4F0A3D8FCD9FAB4
:0302080075813BC2
:0A020B001218FAE5826003020203F4
:0418FA0075820022D1
:00000001FF
